:100B8600252B352E3166204660002530345860000E
:100B9600253032586000256420253032642F2530F8
:100BA60032642F2530326420253032643A253032C3
:100BB600643A2530326460004D6567616E20426993
:100BC6007264204345454E203433333060002D2D6A
:100BD6002D2D2D2D2D2D2D2D2D2D2D2D2D2D2D2D3F
:100BE6002D2D60004D61696E204D656E756000317A
:100BF600203A204D656D6F727920202032203A20F0
:100C0600492F4F60004D656D6F7279204D656E7589
:100C1600600031203A2044756D702020202032205B
:100C26003A204D6F7665600033203A20456469743A
:100C36002020202034203A2046696E64600023205C
:100C46003A2052657475726E20746F204D61696E1C
:100C560020206000492F4F204D656E7560003120C1
:100C66003A2054656D7020202032203A20372D53CB
:100C76006567600033203A2054696D652020203472
:100C8600203A2053746F7057600023203A20526533
:100C96007475726E20746F204D61696E202060003D
:100CA60044756D702053657475706000537461727D
:100CB600742053656720416464723A206000426C78
:100CC6006F636B2053697A653A206000313A3C2D98
:100CD6002D2020323A2D2D3E2020233A4578697466
:100CE60060004D6F76652053657475706000536FB4
:100CF600757263652053656720416464723A2060AB
:100D060000446573742053656720416464723A2019
:100D16006000426C6F636B2053697A653A2060000D
:100D26004D6F766520436F6D706C6574656000234A
:100D36003A45786974600045646974205365747532
:100D46007060005365676D656E7420416464723A25
:100D56002060004F666673657420416464723A20B1
:100D660060004E65772056616C75653A20600045D7
:100D760064697420436F6D706C6574656000303A09
:100D8600436F6E74696E756520202020233A45787E
:100D96006974600046696E642053657475706000FE
:100DA60053746172742053656720416464723A20FB
:100DB6006000426C6F636B2053697A653A2060006D
:100DC6005365617263682056616C75653A206000F0
:100DD60056616C756520666F756E6420617460007F
:100DE60056616C7565206E6F7420666F756E642132
:100DF6006000233A45786974600043757272656EC7
:100E0600742054656D706572617475726560002B2F
:100E160030302E302046600023203A20526574750B
:100E2600726E20746F20492F4F202020600053657A
:100E360076656E205365676D656E746000446973F0
:100E4600706C61792044656D6F600023203A2052F2
:100E5600657475726E20746F20492F4F600052655D
:100E6600616C2054696D6520436C6F636B60002371
:100E7600203A2052657475726E20746F20492F4F88
:100E8600202020600053746F70776174636860007F
:100E96004E6F2074696D6572207374617274656437
:100EA600202020206000313A205374617274202083
:100EB600202020323A2053746F706000333A20436A
:100EC6006C6561722020202020233A2045786974C1
:100ED60060002D2D2D2D2D2D2D2D60002D2D2D2D30
:100EE6002D6000302030302F30302F303020303021
:080EF6003A30303A3030600060
:1029FB00E4FFFE122712E4FFFE12266C12290512C9
:072A0B00260B12241980FEC6
:1024190078107C007D017BFF7A0B79BE7E007F16E8
:102429001205E278267C007D017BFF7A0B79D47E48
:10243900007F161205E2783C7C007D017BFF7A0B58
:1024490079EA7E007F0B1205E278477C007A0B79E6
:10245900F5122A127B017A0079101227BB7F027EBE
:102469000012293D7B017A0079261227BB7F037E62
:102479000012293D7B017A00793C1227BB122939C8
:102489007B017A0079471227BB121A5478007C0025
:102499007D017E007F101205E2900000E0B4010981
:1024A900121DB0121F83022419900001E0B401D952
:0924B900121DB0121E9B02241931
:0E1F8300E490006DF090006DE06003022066B7
:101F9100786E7C007D017BFF7A0C790BFE7F0D1240
:101FA10005E2787B7C007D017BFF7A0C79187E004D
:101FB1007F161205E278917C007D017BFF7A0C7916
:101FC1002E7E007F161205E278A77C007A0C7944F8
:101FD100122A127B017A00796E1227BB7F027E00E2
:101FE10012293D7B017A00797B1227BB7F037E009A
:101FF10012293D7B017A0079911227BB1229397B85
:10200100017A0079A71227BB121A54785D7C007DF2
:10201100017E007F101205E290006CE0B40106120F
:102021001DAC021F8890005DE0B40109121DB012C1
:102031000EFE021F8890005EE0B40109121DB0126D
:102041001585021F8890005FE0B40109121DB012CE
:1020510013CB021F88900060E0B401AC121DB012D6
:052061001738021F8882
:012066002257
:0E1E9B00E490006DF090006DE06003021F8285
:101EA900786E7C007D017BFF7A0C795AFE7F0A12DD
:101EB90005E278787C007D017BFF7A0C79647E00ED
:101EC9007F161205E2788E7C007D017BFF7A0C7902
:101ED9007A7E007F161205E278A47C007D017BFFE3
:101EE9007A0C7990122A167B017A00796E1227BB37
:101EF9007F027E0012293D7B017A0079781227BB87
:101F09007F037E0012293D7B017A00798E1227BB5F
:101F19001229397B017A0079A41227BB121A547845
:101F29005D7C007D017E007F101205E290006CE06F
:101F3900B40106121DAC021EA090005DE0B40109B7
:101F4900121DB0121CBB021EA090005EE0B4010974
:101F5900121DB0121B9D021EA090005FE0B4010982
:101F6900121DB0122568021EA0900060E0B401ACF9
:091F7900121DB0121171021EA02C
:011F8200223C
:100EFE0078D77C007D017BFF7A0C79A67E007F0C73
:100F0E001205E278E37C007D017BFF7A0C79B27EDC
:100F1E00007F121205E278F57C007D017BFF7A0CD2
:100F2E0079C47E007F0E1205E278037C017D017B81
:100F3E00FF7A0C79D27E007F161205E2E49000CD86
:100F4E00F0A3F0A3F0A3F0A3F0A3F0A3F0122A1DD8
:100F5E007B017A0079D71227BB7F037E0012293DD1
:100F6E007B017A0079E31227BB1226BC9000CE12C9
:100F7E0029347B017A0079F51227BB9000D0E070FE
:100F8E0002A3E0700D1226BC9000D0EEF0A3EFF09D
:100F9E0080E99000CDE06003021170122A1D9000CE
:100FAE00CE1227667F3A122A719000D21227667FE0
:100FBE00027E0012293DE49000D5F0A3F09000D5FA
:100FCE00E0FEA3E0FFC39407EE648094805074901B
:100FDE0000D2E0FCA3E0FD2FFFEC3EFED39000D14B
:100FEE00E09F9000D0E09E40499000CFE0C4F854BE
:100FFE000FC868FF9000CEE0C454F048FEED2FFFFE
:10100E00EC3EFE9000D6E02FFF9000D5E03E8F82A2
:10101E00F583E09000D4F0E0FF12284AC39000D68A
:10102E00E094069000D5E06480948050057F2012F5
:10103E002A719000D6E004F070839000D5E004F0A1
:10104E00020FCB7F037E0012293DE49000D5F0A362
:10105E00F09000D5E0FEA3E0FFC39407EE64809409
:10106E008050799000D2E0FCA3E0FD2FFFEC3EFE15
:10107E00D39000D1E09F9000D0E09E404E9000CFE4
:10108E00E0C4F8540FC868FF9000CEE0C454F04896
:10109E00FEED2FFFEC3EFE9000D6E02FFF9000D528
:1010AE00E03E8F82F583E09000D4F0E0FF122A74C8
:1010BE007F20122A71C39000D6E094069000D5E0EE
:1010CE006480948050057F20122A719000D6E0042F
:1010DE00F070069000D5E004F002105F1229397B03
:1010EE00017A0179031227BB121A5478BD7C007D58
:1010FE00017E007F101205E29000CCE0B4010612D2
:10110E001DAC020FA09000BDE0B40117121DB0C3BC
:10111E009000D3E094079000D2E094005003020FA9
:10112E00A080309000BEE0B401BE121DB09000D37E
:10113E00E02407F09000D2E03400F09000D0E0FE02
:10114E00A3E0FFD39000D3E09F9000D2E09E500327
:10115E00020FA0A3E024F9F09000D2E034FFF002D9
:02116E000FA0D0
:01117000225C
:1015850078D87C007D017BFF7A0C79E87E007F0CA2
:101595001205E278E47C007D017BFF7A0C79F47E0C
:1015A500007F131205E278F77C007D017BFF7A0D41
:1015B50079077E007F111205E278087C017D017BA9
:1015C500FF7A0D79187E007F0E1205E278167C01F0
:1015D5007D017BFF7A0D79267E007F0F1205E2786B
:1015E500257C017D017BFF7A0D79357E007F081210
:1015F50005E2E49000CDF0A3F0A3F0A3F0A3F0A3DF
:10160500F0A3F0A3F0A3F0A3F0A3F0122A1D7B0131
:101615007A0079D81227BB7F027E0012293D7B0113
:101625007A0079E41227BB1226BC9000CEEEF0A317
:10163500EFF07F037E0012293D7B017A0079F712D6
:1016450027BB1226BC9000D01229347B017A017980
:10165500081227BB9000D2E07002A3E0700D12269D
:10166500BC9000D2EEF0A3EFF080E99000CDE060F1
:1016750003021737122A1D7B017A0179161227BB3F
:101685001229397B017A0179251227BB9000D6E012
:10169500FEA3E0FF9000D4E0FCA3E0FD2FFFEC3EAD
:1016A500FED39000D3E09F9000D2E09E406790006B
:1016B500CFE0C4F8540FC868FF9000CEE0C454F0E2
:1016C50048FEED2FFFEC3EFE9000D7E02FFF900087
:1016D500D6E03E8F82F583E0FB9000D1E0C4F8545C
:1016E5000FC868FF9000D0E0C454F048FEED2FFF0E
:1016F500EC3EFE9000D7E02FFF9000D6E03E8F82B3
:10170500F583EBF09000D7E004F070809000D6E010
:1017150004F0021691121A5478BD7C007D017E00FA
:101725007F101205E29000CCE0B401E9121DAC0275
:0217350016702C
:01173700228F
:1013CB0078D47C007D017BFF7A0D793D7E007F0C0C
:1013DB001205E278E07C007D017BFF7A0D79497E76
:1013EB00007F101205E278F07C007D017BFF7A0D07
:1013FB0079597E007F0F1205E278FF7C007D017B1F
:10140B00FF7A0D79687E007F0D1205E2780C7C0166
:10141B007D017BFF7A0D79757E007F0F1205E278D7
:10142B001B7C017D017BFF7A0D79847E007F161278
:10143B0005E2E49000CDF0A304F0E4A3F0A3F0A345
:10144B00F0A3F0A374AAF0122A1D7B017A0079D4C1
:10145B001227BB7F027E0012293D7B017A0079E0C7
:10146B001227BB1226BC9000CFEEF0A3EFF07F0348
:10147B007E0012293D7B017A0079F01227BB1226E0
:10148B00BC9000D1EEF0A3EFF09000CDE060030232
:10149B001584A3E06401600302154F122A1D90000E
:1014AB00CF1227667F3A122A719000D11227667FDE
:1014BB0020122A719000D0E0C4F8540FC868FF9036
:1014CB0000CFE0C454F048FE9000D2E02FFF900014
:1014DB00D1E03E8F82F583E0FF12284A7F027E0027
:1014EB0012293D7B017A0079FF1227BB12288F90BE
:1014FB0000D3EFF0FD9000D0E0C4F8540FC868FFA4
:10150B009000CFE0C454F048FE9000D2E02FFF9043
:10151B0000D1E03E8F82F583EDF07F037E00122930
:10152B003D7B017A01790C1227BB1229397B017A99
:10153B0001791B1227BB9000D2E004F070069000DB
:10154B00D1E004F0121A5478BD7C007D017E007F3F
:10155B00101205E29000CCE0B4010BE49000CEF049
:10156B009000CD04800C9000C6E0B401D79000CE63
:09157B007401F0121DB002149479
:011584002244
:1017380078D57C007D017BFF7A0D799A7E007F0C3D
:101748001205E278E17C007D017BFF7A0D79A67EA7
:10175800007F121205E278F37C007D017BFF7A0D91
:1017680079B87E007F0E1205E278017C017D017B4D
:10177800FF7A0D79C67E007F101205E278117C0190
:101788007D017BFF7A0D79D67E007F101205E27805
:10179800217C017D017BFF7A0D79E67E007F1212A4
:1017A80005E278337C017D017BFF7A0D79F87E00B4
:1017B8007F081205E2E49000CDF0A3F0A3F0A3F0B7
:1017C800A3F0A3F0A3F0A3F07DAA122A1D7B017A4F
:1017D8000079D51227BB7F027E0012293D7B017A52
:1017E8000079E11227BB1226BC9000CFEEF0A3EFE0
:1017F800F07F037E0012293D7B017A0079F31227DE
:10180800BB1226BC9000D31229347B017A017901DE
:101818001227BB12288FAD079000D3E0FEA3E0FF8C
:101828009000D1E0FAA3E0FBC39FEA9E503A9000F3
:10183800D0E0C4F8540FC868FF9000CFE0C454F05B
:1018480048FEEB2FFFEA3E8F82F583E0FFB50508DF
:101858009000CE7401F080109000D2E004F070B8CF
:101868009000D1E004F080B0122A1D9000CEE06410
:10187800017B0170217A0179111227BB7F027E005A
:1018880012293D9000CF1227667F3A122A719000E4
:10189800D112276680077A0179211227BB122939CC
:1018A8007B017A0179331227BB9000CDE0701C12BE
:1018B8001A5478BD7C007D017E007F101205E290ED
:0B18C80000CCE0B401E9121DAC80DE92
:0118D30022F2
:101CBB00E49000CAF0A3F0A3F09000CAE060030226
:021CCB001DAB4F
:101CCD0078CD7C007D017BFF7A0E7900FE7F1512A9
:101CDD0005E278E27C007D017BFF7A0E79157E00AE
:101CED007F091205E278EB7C007D017BFF7A0E798E
:101CFD001E122A167B017A0079CD1227BB7F027E38
:101D0D000012293D12236890015512068090015250
:101D1D0074FFF0A3740BF0A37486F07B017A007945
:101D2D00E21207681227B51229397B017A0079EB87
:101D3D001227BB9000CBE064037004A3E064E8704D
:101D4D00327F02FE12293D12236890015512068042
:101D5D0090015274FFF0A3740BF0A37486F07B0115
:101D6D007A0079E21207681227B5E49000CBF0A350
:101D7D00F0800E9000CCE004F070069000CBE004F3
:101D8D00F0121A5478BA7C007D017E007F10120586
:0E1D9D00E29000C9E0B4019B121DAC021CC410
:011DAB002215
:101B9D00E49000CAF0A3F0A3F09000CAE060030245
:021BAD001CBA60
:101BAF0078CD7C007D017BFF7A0E7934FE7F0F129A
:101BBF0005E278DC7C007D017BFF7A0E79437E00A5
:101BCF007F0E1205E278EA7C007D017BFF7A0E79A9
:101BDF00517F13122A187B017A0079CD1227BB7F10
:101BEF00027E0012293D7B017A0079DC1227BB129D
:101BFF0029397B017A0079EA1227BB121A5478BA75
:101C0F007C007D017E007F101205E29000C9E0B4D8
:101C1F00010FA37401F07F6F1224C2121DB0021BBB
:101C2F00A69000CBE0FEA3E0FFEE704DEFB40800EE
:101C3F005047901C48F8282873021C60021C65024C
:101C4F001C6A021C6F021C74021C79021C7E021C8F
:101C5F00837590FE80267590FD80217590FB801C0A
:101C6F007590F780177590EF80127590DF800D7566
:101C7F0090BF800875907F80037590FFC3EF940726
:101C8F00EE648094804009E49000CBF0A3F0800EC6
:101C9F009000CCE004F070069000CBE004F0122A24
:0B1CAF00587F327E001228D6021C0A6B
:011CBA002207
:10256800E49000CAF0A3F0A3F09000CAE060030270
:02257800260A31
:10257A0078D47C007D017BFF7A0E7964FE7F11128C
:10258A0005E278E57C007D017BFF7A0E7975122AD7
:10259A00167B017A0079D41227BB7F027E001229AA
:1025AA003D12206712212C1229397B017A0079E524
:1025BA001227BB9000CBE0B4031BA3E0B4E8167F5C
:1025CA00027E0012293D12206712212CE49000CBD2
:1025DA00F0A3F0800E9000CCE004F070069000CBDF
:1025EA00E004F0121A5478BA7C007D017E007F1054
:1025FA001205E29000C9E0B401B9121DAC022571BE
:01260A0022AD
:1011710078EA7C007D017BFF7A0E798B7E007F0B04
:101181001205E278F57C007D017BFF7A0E79967E6F
:10119100007F161205E2780B7C017D017BFF7A0E40
:1011A10079AC7E007F161205E278217C017D017BFE
:1011B100FF7A0E79C27E007F161205E2E49000E606
:1011C100F0A3F0A3F0A3F0122A1D7B017A0079EAC3
:1011D1001227BB7F027E0012293D7B017A0079F53F
:1011E1001227BB7F037E0012293D7B017A01790B17
:1011F1001227BB1229397B017A0179211227BB9071
:1012010000E6E060030213CA9000E7E064016003B6
:1012110002135BA3E064037004A3E064E8600302CB
:10122100134D12206778D87C007D017E007F071264
:1012310005E278D17C007D017B017A0079CA7E00CC
:101241007F071205E29000D1E0FF9000D8E0FEC3D5
:101251009FEE40079F9000DFF08015243CFF900037
:10126100D1E0FEC3EF9E9000DFF09000D9E014F0D2
:101271009000D2E0FF9000D9E0FEC39FEE40079FAF
:101281009000E0F08015243CFF9000D2E0FEC3EF17
:101291009E9000E0F09000DAE014F09000D3E0FFBF
:1012A1009000DAE0FEC39FEE40079F9000E1F080DE
:1012B100152418FF9000D3E0FEC3EF9E9000E1F0EB
:1012C1009000DBE014F09000D4E0FF9000DBE0FE42
:1012D100C39FEE40079F9000E2F08015241EFF900F
:1012E10000D4E0FEC3EF9E9000E2F09000DCE01439
:1012F100F09000D5E0FF9000DCE0FEC39FEE4007D8
:101301009F9000E3F08015240CFF9000D5E0FEC310
:10131100EF9E9000E3F09000DDE014F09000DDE03E
:10132100FF9000D6E0C39F9000E4F09000DEE090D3
:1013310000E5F07F027E0012293D7B017A0079DF12
:1013410012213FE49000E8F0A3F0800E9000E9E064
:1013510004F070069000E8E004F0121A5478BA7CA8
:10136100007D017E007F101205E29000C9E0B4010A
:10137100079000E67401802A9000BAE0B401189049
:1013810000E77401F012206778CA7C007D017E00BD
:101391007F071205E2802C9000BBE0B40107E490C6
:1013A10000E7F0801E9000BCE064016003021209B6
:1013B1009000E7F07F02FE12293D7B017A0079F56A
:0913C1001227BB121DB00212003C
:0113CA002200
:1026BC00E490013BF0A3F0A3F0A3F090013CE0C444
:1026CC00F8540FC868F090013BE0C454F048F01285
:1026DC0018D490013CE02FF090013BE03EF09001CB
:1026EC003EE004F0700690013DE004F0C390013E22
:1026FC00E0940490013DE06480948040BE90013BE6
:05270C00E0FEA3E0FF68
:0127110022A5
:10288F00E490013BF0A3F0A3F090013BE0FFC454B0
:10289F00F0F01218D490013BE02FF090013DE004CE
:1028AF00F0700690013CE004F0C390013DE094020B
:0F28BF0090013CE06480948040CF90013BE0FFAB
:0128CE0022E7
:1018D40074FF90014FF0A3F0A3747EF090014FE0E9
:1018E400F47003A3E0F46003021A40121A54783F20
:1018F4007C017D017E007F101205E2900148E0B476
:10190400010BE490014FF0A3F0A37430F090013F79
:10191400E0B4010C90014FE4F0A304F0A37431F09F
:10192400900140E0B4010D90014FE4F0A37402F083
:10193400A37432F0900141E0B4010D90014FE4F042
:10194400A37403F0A37433F0900142E0B4010D904A
:10195400014FE4F0A37404F0A37434F0900143E065
:10196400B4010D90014FE4F0A37405F0A37435F0B5
:10197400900144E0B4010D90014FE4F0A37406F02B
:10198400A37436F0900145E0B4010D90014FE4F0EA
:10199400A37407F0A37437F0900146E0B4010D90EE
:1019A400014FE4F0A37408F0A37438F0900147E009
:1019B400B4010D90014FE4F0A37409F0A37439F05D
:1019C400900149E0B4010D90014FE4F0A3740AF0D2
:1019D400A37441F090014AE0B4010D90014FE4F08A
:1019E400A3740BF0A37442F090014BE0B4010D908A
:1019F400014FE4F0A3740CF0A37443F090014CE0A5
:101A0400B4010D90014FE4F0A3740DF0A37444F0FD
:101A140090014DE0B4010D90014FE4F0A3740EF079
:101A2400A37445F090014EE0640160030218E0A342
:101A3400F0A3740FF0A37446F00218E0900151E093
:0F1A4400FF122A71121DB090014FE0FEA3E0FFC8
:011A53002270
:041DAC00A37401F02B
:101DB000E4900162F0900162E06003021E9404F07E
:101DC000121A5478527C017D017E007F101205E2C8
:101DD00090015BE0B40105E4900162F0900152E0F3
:101DE000B40105E4900162F0900153E0B40105E410
:101DF000900162F0900154E0B40105E4900162F0BA
:101E0000900155E0B40105E4900162F0900156E0C4
:101E1000B40105E4900162F0900157E0B40105E4DB
:101E2000900162F0900158E0B40105E4900162F085
:101E3000900159E0B40105E4900162F090015AE08C
:101E4000B40105E4900162F090015CE0B40105E4A6
:101E5000900162F090015DE0B40105E4900162F050
:101E600090015EE0B40105E4900162F090015FE052
:101E7000B40105E4900162F0900160E0B40105E472
:101E8000900162F0900161E064016003021DB5A35E
:0B1E9000F0021DB57F647E000228D622
:0D2A58007F017E00122712E4FFFE0227120C
:0E2A4A007F037E001227127F027E00022712F9
:1024C200EF1206DD25532D25582E25033025083120
:1024D200250D32251233251734251C3525213625A5
:1024E2002637252B38253039253541253F432549C7
:1024F20045254E46253A62254464255D6F00002538
:10250200627590C0805D7590F980587590A4805373
:102512007590B0804E7590998049759092804475FF
:102522009082803F7590F8803A75908080357590E2
:10253200988030759088802B75908380267590C620
:1025420080217590A1801C759086801775908E8071
:10255200127590BF800D75907F80087590FF800383
:062562007590AA022A5840
:101A54007F027E00122712C297C296C295C294D208
:101A640093D292D291D290C297D296D295D2941216
:101A74002A4A2093089001637401F08005E49001E0
:101A840063F02092089001667401F08005E49001EF
:101A940066F02091089001697401F08005E49001DA
:101AA40069F02090089001717401F08005E49001C0
:101AB40071F0D297C296122A4A2093089001647456
:101AC40001F08005E4900164F020920890016774AD
:101AD40001F08005E4900167F020910890016A7498
:101AE40001F08005E490016AF020900890016C7484
:101AF40001F08005E490016CF0D296C295122A4A56
:101B04002093089001657401F08005E4900165F06C
:101B14002092089001687401F08005E4900168F057
:101B240020910890016B7401F08005E490016BF042
:101B34002090089001727401F08005E4900172F025
:101B4400D295C294122A4A20930890016D7401F030
:101B54008005E490016DF020920890016E7401F00C
:101B64008005E490016EF020910890016F7401F0FB
:101B74008005E490016FF02090089001707401F0EA
:101B84008005E4900170F0D294122A4AE4FFFE1218
:081B940027127B017A0179633D
:011B9C002226
:1022AE0090017FE0B401057F31022364900180E04C
:1022BE00B401057F32022364900181E0B401057FF1
:1022CE0033022364900182E0B401057F340223645B
:1022DE00900183E0B401047F35807B900184E0B4EB
:1022EE0001047F368070900185E0B401047F378051
:1022FE0065900186E0B401047F38805A900187E032
:10230E00B401047F39804F900189E0B401047F410C
:10231E008044900188E0B401047F30803990018AB6
:10232E00E0B401047F62802E90018BE0B401047F43
:10233E0043802390018CE0B401047F6480189001E7
:10234E008DE0B401047F2E800D90018EE0B4010467
:0A235E007F2D80027F6F1224C2223F
:1029B10090013BEFF07F047E0012271290013B1241
:0929C10028CF7F057E00022712D9
:1029CA00900154EFF07F067E0012271290015412F4
:0929DA0028CF7F077E00022712BE
:102905007F327E001228D67F381229B17F057E00DE
:102915001228D67F381229B11228D27F0F1229B179
:0F2925001228D27F011229B17F027E000228D62C
:0B2A12007D017BFF7F167E001205E2B5
:0C2A1D007F011229B17F027E000228D642
:032A71000229CA6D
:0627B5007B017A0079E2CD
:0B27BB0090014FEBF0A3EAF0A3E9F05F
:1027C600E4A3F0A3F090014FE0FBA3E0FAA3E0F945
:1027D600A3E0FEA3E0FFF5828E831206216460600B
:1027E6001B8F828E83120621FF122A71900153E0FD
:0C27F60004F070D1900152E004F080C9A2
:0128020022B3
:09293400EEF0A3EFF07F047E0039
:10293D00EE700DEF24FE600A14600B14600C24037E
:10294D00800C7FC0800A7F9480067FD480027F80B8
:04295D001229B12268
:05276600E0FEA3E0FF0E
:08276B0090013BEEF0A3EFF03A
:10277300783D7C017D017BFF7A0E79D87E007F0A4C
:102783001205E290015274FFF0A3740BF0A374904E
:10279300F090013BE0FFA3E0900155CFF0A3EFF0F1
:1027A3007B017A01793D1207687B017A01793D0249
:0227B30027BB42
:05284A00900131EFF0E8
:10284F0078327C017D017BFF7A0E79E27E007F0773
:10285F001205E290015274FFF0A3740BF0A374966B
:10286F00F0900131E0FF900155E4F0A3EFF07B0110
:10287F007A0179321207687B017A0179320227BB1C
:032A7400022A71C2
:10236800E4900101F0A3F0A3F0A312068C00000092
:102378000090010812068C000000007F007E007D9E
:10238800007C00E490010CF0A3F00F12266C7F0390
:102398007E0012266C900103E590F0E4FFFE122601
:1023A8006C900103E0FF7E007C007D05120660ACA6
:1023B80006AD07E41202A6E4FBFA7980784312021C
:1023C80004900104120680E4FFFEFD7CBF90010426
:1023D800E0F8A3E0F9A3E0FAA3E0FB12000AE4FBAB
:1023E800FA79C878421200FB9001081206807F66CD
:1023F8007E667DE67C3F900108E0F8A3E0F9A3E063
:10240800FAA3E0FB1200FBE4FBFAF9784212000A97
:0124180022A1
:10260B00E4900006F09000057411F0900004740340
:10261B00F0900003741AF0900002740CF09000011B
:10262B007415F0E4900000F07FF41229617FD4124E
:10263B0029611229E37FF712296178077C007D015C
:10264B007B017A0079007E007F071205E21221EEF2
:0A265B007FF41229617FD502296186
:1029E3008009EF30E0117FD41229617FD51229616C
:0729F3007F0D12280380EBA9
:0129FA0022BA
:10296100900145EFF07F047E0012266C9001451224
:1029710026657F077E0012266C1226687F047E0082
:0929810012266CE4FFFE02266C34
:05280300900145EFF01B
:10280800E4A3F0900145E0C454F0F0440FF07F04D5
:102818007E0012266C9001451226657F027E00120A
:10282800266C900146E590F0E0540FF01226687F80
:10283800047E0012266CE4FFFE12266C900146E02E
:01284800FF90
:01284900226C
:102A3A0090000EEFF01229E390000EE0FF022961E8
:052A2900900144EFF0F4
:0B2A2E001229E3900144E0FF1228038E
:012A3900227A
:1021EE00900007E075F00A84AFF0122A3A900007CB
:1021FE00E075F00A844410FF122A3A900008E07548
:10220E00F00A84AFF0EF4420FF122A3A900008E063
:10221E0075F00A844430FF122A3A900009E075F0F6
:10222E000A84AFF0EF4440FF122A3A900009E0759D
:10223E00F00A844450FF122A3A90000AE075F00A20
:10224E0084AFF0EF4460FF122A3A90000AE075F076
:10225E000A844470FF122A3A90000BE075F00A844B
:10226E00AFF0EF4480FF122A3A90000BE075F00AAF
:10227E00844490FF122A3A90000CE075F00A84AF65
:10228E00F0EF44A0FF122A3A90000CE075F00A8499
:10229E0044B0FF122A3A90000DE044C0FF022A3AE1
:10206700E4FF122A2990013EEFF07F01122A29EF9F
:1020770075F00AA4FF90013EE02F900137F07F0230
:10208700122A2990013FEFF07F03122A29EF75F0FA
:102097000AA4FF90013FE02F900138F07F04122A35
:1020A70029900140EFF07F05122A29EF75F00AA465
:1020B700FF900140E02F900139F07F06122A299006
:1020C7000141EFF07F07122A29EF75F00AA4FF906C
:1020D7000141E02F90013AF07F08122A299001422E
:1020E700EFF07F09122A29EF75F00AA4FF90014249
:1020F700E02F90013BF07F0A122A29900143EFF06D
:102107007F0B122A29EF75F00AA4FF900143E02FF5
:1021170090013CF07F0C122A2990013DEFF07B01E2
:042127007A01793789
:01212B002291
:10212C0078CD7C007D017E007F071205E27B017A71
:03213C000079CD5A
:0B213F00900137EBF0A3EAF0A3E9F0F9
:10214A00783A7C017D017BFF7A0E79E97E007F1562
:10215A001205E290015274FFF0A3740BF0A3749C71
:10216A00F0900137E0FBA3E0FAA3E0F99000061231
:10217A000621FF900155E4F0A3EFF0900004120647
:10218A0021FF900157E4F0A3EFF09000031206211B
:10219A00FF900159E4F0A3EFF0900005120621FF29
:1021AA0090015BE4F0A3EFF0900002120621FF9089
:1021BA00015DE4F0A3EFF0900001120621FF900107
:1021CA005FE4F0A3EFF0120608FF900161E4F0A3C8
:1021DA00EFF07B017A01793A1207687B017A01797B
:0421EA003A0227BBD3
:10271200EE7050EFB40800504A902722F828287330
:1027220002273A02273E02274202274602274A028E
:10273200275102275802275FC2B2800EC2B280110F
:10274200C2B28014C2B28017D2B2C2B1C2B022D217
:10275200B2C2B1D2B022D2B2D2B1C2B022D2B2D2BD
:04276200B1D2B0221E
:07266500E0F5907F067E0006
:10266C00EE704CEFB40800504690267CF828287386
:10267C0002269402269802269C0226A30226AA026F
:10268C0026BB0226AE0226B5C2B48006C2B48009AF
:10269C00D2B4C2B3C2B522D2B4D2B3C2B522C2B480
:1026AC008002D2B4C2B3D2B522D2B4D2B3D2B52244
:0728CF00E0F5907F017E009F
:1028D600AD07AC06E41202A67B527AB8794E784070
:1028E6001200FB1202DFE4FDFCC3ED9FEC9E500ECE
:0E28F600E4FB0BEBB464FB0DBD00010C80EBAA
:0129040022B0
:1000030002034BE86480F8E933E83360110460F0DD
:10001300ED33EC337009E8FCE9FDEAFEEBFF220463
:1000230060DED3EB9FEA9EE99DE8C2E78CF0C2F75E
:1000330095F0400CE8CCF8E9CDF9EACEFAEBCFFB2A
:1000430012031685D0F05804700320D5B3E804706A
:10005300075002B2D502035592D5EC0460F7E4CC05
:10006300C0E0C398F8603B94186008400DD0E0FBF3
:1000730002032DE4FBFAC9FC8028E830E406E4C956
:10008300FBE4CAFCE830E305E4C9CACBFCE8540747
:100093006010F8C3E913F9EA13FAEB13FBEC13FC52
:1000A300D8F130F52FC3E49CFCEF9BFFEE9AFEEDF5
:1000B30099FDD0E0FBEF4E4D4C701222DB0302039F
:1000C30052EC2CFCEF33FFEE33FEED33FDED30E766
:1000D300EB02032DEF2BFFEE3AFEED39FDD0E0FBF3
:1000E30050130BBB0003020355ED13FDEE13FEEF9C
:0800F30013FFEC13FC02032DC6
:1000FB00EC4D6011E8497017ED33EC3304600DE4FF
:10010B00FCFFFEFD22E933E8330470F802034B12C7
:10011B00031658046009E4CC2481500628500902C8
:10012B000355284003020352C0E0EB4A7044B980E8
:10013B0006D0E0FB020341EF4E701CBD8008EBFFC5
:10014B00EAFEE9FD80EBE98DF0A4FEE5F00201E4A7
:10015B00E9CDF9EAFEEBFFEF89F0A4FCE5F0CE89DF
:10016B00F0A42EFFE435F0CD89F0A42DFEE435F09C
:10017B008067EF4E7005BD80D780C3EF8BF0A4ACCA
:10018B00F0EE8BF0A42CFCE435F0F8EF8AF0A42C05
:10019B00E5F038FCE433CB8DF0A42CFCE5F03BF818
:1001AB00EE8AF0A42CFCE5F038F8E433CF89F0A408
:1001BB002CFCE5F038CF3400CE89F0A42FFFE5F00E
:1001CB003EFEE433C98DF0A42EFEE5F039CD8AF066
:1001DB00A42FFFE5F03EFEE43DFD33D0E0FB5007DE
:1001EB000BBB000F020355EC2CFCEF33FFEE33FE81
:0601FB00ED33FD02032DAF
:10020100020355EC5D046005E85904700302034BD9
:10021100120316580460F6EC4860F2EC7004FDFE1F
:10022100FF22C860DB2481C85009C39860025006D0
:100231000203529850CAF582E9294B4A7005AB82F4
:1002410002034175F0007C1A7880C3EF9BEE9AEDB2
:1002510099400DC3EF9BFFEE9AFEED99FDE842F048
:10026100DC23ACF0D0E0FFD0E0FED0E0FDAB82209B
:10027100E7101BEB60BAEC2CFCEF33FFEE33FEED25
:1002810033FD02032DE803F830E705C0F075F000F7
:10029100EF2FFFEE33FEED33FD40B830E7C280AA09
:1002A10075F020800E75F010800575F0087D007ED8
:1002B100007F003392D530D503120672EC33401023
:1002C100EF33FFEE33FEED33FDEC33FCD5F0ED22E1
:0E02D100E5F0247EA2D513CC92E7CDCEFF221D
:1002DF00EDD2E7CD33EC3392D524814006E4FFFE17
:1002EF00FDFC22FCE4CFCECDCC24E0501174FF8076
:1002FF00EDC3CC13CCCD13CDCE13CECF13CF047013
:07030F00F030D5DE0206729A
:10070300E5082452F582E43401F583E005082290DC
:10071300014F300703900152E475F0011206BD0248
:1007230006082000E97F2ED2008018EF540F249092
:10073300D43440D4FF30040BEF24BFB41A00500369
:100743002461FFE50960021509050CE50C7002053B
:100753000B30070E90014FE475F0011206BDEF0256
:10076300064E02298A7403D2078003E4C207F50800
:1007730090014F1206D4E4F509F50BF50CE5096079
:10078300077F2012074680F5750AFFC201C200C227
:1007930002C203C205C206C208120712FF700D305F
:1007A30007057F00120757AF0CAE0B22B4255FC2BB
:1007B300D5C204120712FF24D0B40A00501A75F0F0
:1007C3000A780930D50508B6FF0106C6A426F62027
:1007D300D5047002D20380D924CFB41A00EF500499
:1007E300C2E5D204020A49D20180C6D20080C0D237
:1007F3000280BCD2D580BAD20580B47F20120746CE
:100803002002077401B5090040F1120703FF120724
:1008130046020780D208D2068095120703FB12070F
:1008230003FA120703F94A4B700679477A0B7BFFE9
:1008330020022EE509602A7E008E8275830012064F
:100843002160060EEE650A70F0C2D5EBC0E0EAC087
:10085300E0E9C0E0EE120AAAD0E0F9D0E0FAD0E075
:10086300FB120608FF60AAEBC0E0EAC0E0E9C0E0C3
:10087300120746D0E02401F9D0E03400FAD0E0FBBF
:10088300E50A0460DCD50AD98087D20280A2120A65
:100893008C60F7E50A700104120360A90A600DE594
:1008A3000A600914F50A120B34EF60F3EA30E70229
:1008B300F404C3995079EAF4250A0430E701E40407
:1008C300F50A800D120A8C60C1EA050A250A120393
:1008D30060EA90017EF030E701E4250A04D50A04BA
:1008E30020050114120AAAE4C0E0120B3490017E21
:1008F300E0601320E70714F012072E802204F0D0E3
:10090300E014C0E07F0012072EE50A6007120725F6
:10091300150A800B300503120725D0E0020780D0AB
:10092300E00480C4120A8C609EE50A0412036090FE
:10093300017EEAF0E50A2005026001042404120A9C
:01094300AA09
:1009440074FF04C0E0120B3412072EE50A200502DE
:100954006003120725D0E0B50AE87F4512073890F6
:10096400017EE07F2B30E7047F2DF404C0E0120702
:1009740046D0E075F00A84C0F012072FD0E01207C9
:100984002F020780791080027908C206C208800805
:10099400D2D5790A8004790AC2D5E50A047002F531
:1009A4000AE4FAFDFEFF120703FC7B082001131280
:1009B4000703FD7B1030000A120703FE120703FF32
:1009C4007B20EC3382D592D55013C3E43000069FCC
:1009D400FFE49EFEE42001039DFDE49CFCE4CBF8CF
:1009E400C201EC700CCFCECDCCE824F8F870F380C3
:1009F40017C3EF33FFEE33FEED33FDEC33FCEB3383
:100A0400FB994002FB0FD8E9EB300105F8D0E0C4B4
:100A140048B201C0E00AEC4D4E4F78207B0070C212
:100A2400EAB50A0040BCC0E0120AACD0F0D0E02025
:100A34000104C4C0E0C4B201C0F012072FD0F0D545
:100A4400F0EB0207801206DD081D5309885807EEF3
:100A54004C07EA42098C4F0994440994490803431A
:100A6400099A5508C7460927450891470B67500757
:100A7400F22D07F62E08192B07FA230817200B501E
:100A84002A07B24800000811E50AB4FF03750A06F4
:100A9400120703FC120703FD120703FE120703FFEC
:100AA40090017702039D790AA2D520031430050929
:100AB400B910020404B9080104A2D52006025001A9
:100AC400042002689202B509005034C0E07F20304F
:100AD40003197F30A20272067205500F120B03C273
:100AE40002C206C205C2087F30800F300503E9C088
:100AF400E0120746300503D0E0F9D0E0B509CC3068
:100B040005177F30B9100C1207467F583004077F51
:100B1400788003B908031207463002057F2D0207C7
:100B2400467F202008F87F2B2006F322920280CFF4
:100B34007F00B40700500B2477F582E43401F58379
:100B4400E0FF22286E756C6C2900D2011207033075
:100B540001F8C201780930D50108F60207B22D5018
:100B64004349581207032403B405004001E4900BE1
:100B74006293120737743A120737D20375090402D5
:020B84000988DE
:10031600E9D2E7C933E833F892D5EDD2E7CD33EC2D
:0703260033FC5002B2D522A6
:10032D00EC30E7100FBF000C0EBE00080DBD000431
:10033D000BEB6014A2D5EB13FCED92E7FD2274FFDD
:10034D00FCFDFEFF22E480F8A2D574FF13FC7D8036
:03035D00E480EF4A
:10036000F920E73624F950037907E4F42402FBE589
:1003700082158270021583DBF6E024FB501BE960D6
:1003800014E4F0E582158270021583E004F0B40AEB
:0D03900008E4F0D9EE7401F00A22C2D52273
:10039D00ED33EC3392D5FA602AB4FF33EDC2E77B2F
:1003AD00FF60067A0379C2E4227A0379CB20D50463
:1003BD007A0379C6224E614E002B494E46002D49D7
:1003CD004E4600E47A08F0A3DAFC7B00740722C0E5
:1003DD0083C082ECC0E0EDC0E0EEC0E0EFC0E0EA2B
:1003ED0075F010A4CAABF075F04DA42BFBE435F0FD
:1003FD00FCEA2410FAEB34C5FBEC34D9FCEDC2E772
:10040D00FF75F056A4F42411C5F0F434C58FF0A493
:10041D002AE5F03BE43CF020E7141204D2D0E0FFD3
:10042D00D0E0FED0E0FDD0E0FC1202048014F40414
:10043D001204D2D0E0FFD0E0FED0E0FDD0E0FC12FF
:10044D0000FBD082D083E0FAEDD2E7CD33EC33243C
:10045D0082FBE4C3CF33CFCE33CECD33CD33DBF3FD
:10046D007B0775F00A846004F0A31B0AE5F0F0A386
:10047D008FF0740AA4FFACF08EF0740AA42CFEACBD
:10048D00F050010C8DF0740AA42CFDE435F0F0A3AE
:05049D00DBDE74072204
:1004A2003F8000004120000042C80000447A000062
:1004B200461C400047C35000497424004B189680E4
:1004C2004CBEBC205A0E1BCA6753C21C749DC5AEDB
:1004D200FB60065407601C2323120500EB543860AE
:1004E200091204EC1204FB1200FBECF8EDF9EEFA2F
:1004F200EFCB22EB1204FB80F1543803241C90044E
:10050200A2FE93FC0EEE93FD0EEE930ECE93FF220F
:03000000022A656C
:0C2A6500787FE4F6D8FD7581210229FB82
:10051200E709F608DFFA8046E709F208DFFA803ECB
:1005220088828C83E709F0A3DFFA8032E309F608B8
:10053200DFFA8078E309F208DFFA807088828C8320
:10054200E309F0A3DFFA806489828A83E0A3F608D4
:10055200DFFA805889828A83E0A3F208DFFA804CAE
:1005620080D280FA80C680D4806980F28033801085
:1005720080A680EA809A80A880DA80E280CA8033EE
:1005820089828A83ECFAE493A3C8C582C8CCC58366
:10059200CCF0A3C8C582C8CCC583CCDFE9DEE78036
:1005A2000D89828A83E493A3F608DFF9ECFAA9F0B5
:1005B200EDFB2289828A83ECFAE0A3C8C582C8CC0B
:1005C200C583CCF0A3C8C582C8CCC583CCDFEADE24
:1005D200E880DB89828A83E493A3F208DFF980CC86
:1005E20088F0EF60010E4E60C388F0ED2402B4047F
:1005F2000050B9F582EB2402B4040050AF23234526
:06060200822390056273E3
:10060800BB010689828A83E0225002E722BBFE02F0
:09061800E32289828A83E4932223
:10062100BB010CE58229F582E5833AF583E022508E
:1006310006E92582F8E622BBFE06E92582F8E222D8
:0D064100E58229F582E5833AF583E49322F2
:10064E00BB010689828A83F0225002F722BBFE018B
:02065E00F32285
:10066000EF8DF0A4A8F0CF8CF0A428CE8DF0A42EAE
:02067000FE2268
:0E067200C3E49FFFE49EFEE49DFDE49CFC2299
:0C068000ECF0A3EDF0A3EEF0A3EFF022ED
:10068C00A8828583F0D083D0821206A31206A3120F
:10069C0006A31206A3E473E493A3C583C5F0C58334
:1006AC00C8C582C8F0A3C583C5F0C583C8C582C8B8
:0106BC00221B
:1006BD00F8E0FBA3A3E0F925F0F0E58215827002C6
:0706CD001583E0FA38F0226A
:0906D400EBF0A3EAF0A3E9F02227
:1006DD00D083D082F8E4937012740193700DA3A3AC
:1006ED0093F8740193F5828883E4737402936860C0
:0606FD00EFA3A3A380DFC0
:10298A00EFB40A07740D122995740A309811A899A0
:10299A00B8130CC2983098FDA899C298B811F630AD
:0729AA0099FDC299F5992285
:00000001FF
