:10089E007F301208001209577F31120800120957D3
:1008AE007F321208001209577F33120800120957BF
:1008BE007F341208001209577F35120800120957AB
:1008CE007F361208001209577F3712080012095797
:1008DE007F381208001209577F3912080012095783
:1008EE007F411208001209577F6212080012095741
:1008FE007F431208001209577F641208001209572D
:10090E007F451208001209577F4612080012095738
:10091E007F2D1208001209577F6F12080012095717
:03092E0002089E1E
:05097F00D2B0C2B0225D
:10080000EF120931088E2D083E3008433108483276
:10081000084D33085234085735085C3608613708EC
:100820006638086B39087041087A4308844508899E
:1008300046087562087F6408936F000008987590F9
:10084000C080587590F980537590A4804E7590B013
:1008500080497590998044759092803F7590828010
:100860003A7590F880357590808030759098802B1F
:10087000759088802675908380217590C6801C7540
:1008800090A18017759086801275908E800D75905E
:0E089000BF80087590FF80037590AA02097F53
:040957007FD07E07C8
:10095B00E4FDFCC3ED9FEC9E500DE4FB0BBB64FC74
:07096B000DBD00010C80EC42
:010972002262
:030000000209737F
:0C097300787FE4F6D8FD75810702089E2D
:10093100D083D082F8E4937012740193700DA3A355
:1009410093F8740193F5828883E473740293686069
:06095100EFA3A3A380DF69
:00000001FF
