:100DFF00252B352E31662046600025303458600093
:100E0F00253032586000256420253032642F25307C
:100E1F0032642F2530326420253032643A25303247
:100E2F00643A2530326460004D6567616E20426917
:100E3F007264204345454E203433333060002D2DEE
:100E4F002D2D2D2D2D2D2D2D2D2D2D2D2D2D2D2DC3
:100E5F002D2D60004D61696E204D656E75600031FE
:100E6F00203A204D656D6F727920202032203A2074
:100E7F00492F4F60004D656D6F7279204D656E750E
:100E8F00600031203A2044756D70202020203220E0
:100E9F003A204D6F7665600033203A2045646974BF
:100EAF002020202034203A2046696E6460002320E1
:100EBF003A2052657475726E20746F204D61696EA1
:100ECF0020206000492F4F204D656E756000312046
:100EDF003A2054656D702020202032203A2037535D
:100EEF006567600033203A2054696D65202020200B
:100EFF0034203A2053657454600023203A20526501
:100F0F007475726E20746F204D61696E20206000C1
:100F1F0044756D7020536574757060005374617201
:100F2F007420416464723A206000426C6F636B20DE
:100F3F0053697A653A206000313A3C2D2D202032DA
:100F4F003A2D2D3E2020233A457869746000437571
:100F5F007272656E742054656D706572617475720E
:100F6F006560002B30302E302046600023203A2061
:100F7F0052657475726E20746F20492F4F20202098
:100F8F0060002D2D2D2D2D2D2D2D60002D2D2D2D76
:100F9F002D6000302030302F30302F303020303067
:080FAF003A30303A30306000A6
:101F0D00E4FFFE121C6EE4FFFE121BC8121E1C1213
:071F1D001B67121A1880FE79
:101A180078107C007D017BFF7A0E79377E007F1677
:101A28001205E278267C007D017BFF7A0E794D7ED7
:101A3800007F161205E2783C7C007D017BFF7A0E60
:101A480079637E007F0B1205E278477C007A0E7975
:101A58006E121F247B017A007910121CC87F027E47
:101A680000121E787B017A007926121CC87F037E3B
:101A780000121E787B017A00793C121CC8121E7471
:101A88007B017A007947121CC812113778007C0054
:101A98007D017E007F101205E2900000E0B401098C
:101AA8001215941214A6021A18900001E0B401D974
:091AB8001215941213B8021A1859
:0E14A600E490006DF090006DE0600302158F81
:1014B400786E7C007D017BFF7A0E7984FE7F0D12AD
:1014C40005E2787B7C007D017BFF7A0E79917E00BA
:1014D4007F161205E278917C007D017BFF7A0E79FC
:1014E400A77E007F161205E278A77C007A0E79BDEC
:1014F400121F247B017A00796E121CC87F027E00C1
:10150400121E787B017A00797B121CC87F037E004F
:10151400121E787B017A007991121CC8121E747B0A
:10152400017A0079A7121CC8121137785D7C007DFE
:10153400017E007F101205E290006CE0B4010612F7
:1015440015900214AB90005DE0B4010912159412D9
:101554000B860214AB90005EE0B401071215947F71
:1015640032801B90005FE0B401071215947F338032
:101574000D900060E0640170AF1215947F34121F67
:0B158400837FD07E07121DED0214AB28
:01158F002239
:0E13B800E490006DF090006DE060030214A55B
:1013C600786E7C007D017BFF7A0E79D3FE7F0A1250
:1013D60005E278787C007D017BFF7A0E79DD7E0060
:1013E6007F161205E2788E7C007D017BFF7A0E79EE
:1013F600F37E007F161205E278A47C007D017BFF58
:101406007A0F7909121F287B017A00796E121CC89F
:101416007F027E00121E787B017A007978121CC842
:101426007F037E00121E787B017A00798E121CC81B
:10143600121E747B017A0079A4121CC81211377827
:101446005D7C007D017E007F101205E290006CE05D
:10145600B401061215900213BD90005DE0B40109B7
:101466001215941212800213BD90005EE0B40107BB
:101476001215947F32801B90005FE0B401071215AD
:10148600947F33800D900060E0640170AF12159474
:0F1496007F34121F837FD07E07121DED0213BD1E
:0114A5002224
:100B860078D77C007D017BFF7A0F791F7E007F0C72
:100B96001205E278E37C007D017BFF7A0F792B7EDC
:100BA600007F0E1205E278F17C007D017BFF7A0F53
:100BB60079397E007F0E1205E278FF7C007D017B8D
:100BC600FF7A0F79477E007F161205E2E49000CD8A
:100BD600F0A3F0A3F074FFA3F0A3F0E4A3F0A3F056
:100BE600121F2F7B017A0079D7121CC87F037E0063
:100BF600121E787B017A0079E3121CC8121C189029
:100C060000CEEEF0A3EFF0121E747B017A0079F1AC
:100C1600121CC8121C189000D0EEF0A3EFF0900042
:100C2600CDE06003020DFE121F2F9000CEE0FEA362
:100C3600E0FF121D107F3A121F839000D2E0FEA340
:100C4600E0FF121D107F027E00121E78E49000D590
:100C5600F0A3F09000D5E0FEA3E0FFC39407EE6496
:100C660080948050749000D2E0FCA3E0FD2FFFEC4E
:100C76003EFED39000D1E09F9000D0E09E40499088
:100C860000CFE0C4F8540FC868FF9000CEE0C4540B
:100C9600F048FEED2FFFEC3EFE9000D6E02FFF90D1
:100CA60000D5E03E8F82F583E09000D4F0E0FF129D
:100CB6001DA1C39000D6E094069000D5E064809410
:100CC6008050057F20121F839000D6E004F07083C9
:100CD6009000D5E004F0020C597F037E00121E78C6
:100CE600E49000D5F0A3F09000D5E0FEA3E0FFC3AA
:100CF6009407EE6480948050799000D2E0FCA3E0E3
:100D0600FD2FFFEC3EFED39000D1E09F9000D0E097
:100D16009E404E9000CFE0C4F8540FC868FF900084
:100D2600CEE0C454F048FEED2FFFEC3EFE9000D618
:100D3600E02FFF9000D5E03E8F82F583E09000D44F
:100D4600F0E0FF121F867F20121F83C39000D6E0BB
:100D560094069000D5E06480948050057F20121F91
:100D6600839000D6E004F070069000D5E004F0020F
:100D76000CED121E747B017A0079FF121CC8121149
:100D86003778BD7C007D017E007F101205E2900061
:100D9600CCE0B40106121590020C249000BDE0B41C
:100DA6000117121594C39000D3E094079000D2E087
:100DB60094005003020C2480309000BEE0B401BEC3
:100DC6001215949000D3E02407F09000D2E034008E
:100DD600F09000D0E0FEA3E0FFD39000D3E09F9018
:100DE60000D2E09E5003020C24A3E024F9F0900008
:080DF600D2E034FFF0020C24EE
:010DFE0022D2
:10128000E49000CAF0A3F0A3F09000CAE06003026B
:0212900013B792
:1012920078CD7C007D017BFF7A0F795DFE7F151290
:1012A20005E278E27C007D017BFF7A0F79727E0095
:1012B2007F091205E278EB7C007D017BFF7A0F79D2
:1012C2007B121F287B017A0079CD121CC87F027E17
:1012D20000121E781218B89001271206809001247D
:1012E20074FFF0A3740DF0A374FFF07B017A007910
:1012F200E2120768121CC2121E747B017A0079EB9B
:10130200121CC89000CBE064037004A3E064E87090
:10131200327F02FE121E781218B890012712068040
:1013220090012474FFF0A3740DF0A374FFF07B010D
:101332007A0079E2120768121CC2E49000CBF0A393
:10134200F0800E9000CCE004F070069000CBE00438
:10135200F012113778BA7C007D017E007F101205F1
:10136200E29000C9E0B401061215900212899000C1
:10137200BAE0B401071215947F31802C9000BBE0D3
:10138200B401071215947F32801E9000BCE0B401B4
:10139200071215947F3380109000BDE06401600352
:1013A2000213051215947F34121F837FD07E071219
:0513B2001DED0212898F
:0113B7002213
:101C1800E4900115F0A3F0A3F0A3F0900116E0C43E
:101C2800F8540FC868F0900115E0C454F048F01259
:101C38000FB7900116E02FF0900115E03EF09001EB
:101C480018E004F07006900117E004F0C390011842
:101C5800E09404900117E06480948040BE900115E0
:051C6800E0FEA3E0FF17
:011C6D002254
:100FB70074FF900129F0A3F0A3747EF0900129E05B
:100FC700F47003A3E0F460030211231211377819B8
:100FD7007C017D017E007F101205E2900122E0B4C2
:100FE700010BE4900129F0A3F0A37430F0900119EC
:100FF700E0B4010C900129E4F0A304F0A37431F0EC
:1010070090011AE0B4010D900129E4F0A37402F0F5
:10101700A37432F090011BE0B4010D900129E4F0B4
:10102700A37403F0A37433F090011CE0B4010D9096
:101037000129E4F0A37404F0A37434F090011DE0D7
:10104700B4010D900129E4F0A37405F0A37435F001
:1010570090011EE0B4010D900129E4F0A37406F09D
:10106700A37436F090011FE0B4010D900129E4F05C
:10107700A37407F0A37437F0900120E0B4010D903A
:101087000129E4F0A37408F0A37438F0900121E07B
:10109700B4010D900129E4F0A37409F0A37439F0A9
:1010A700900123E0B4010D900129E4F0A3740AF044
:1010B700A37441F0900124E0B4010D900129E4F0FC
:1010C700A3740BF0A37442F0900125E0B4010D90D6
:1010D7000129E4F0A3740CF0A37443F0900126E017
:1010E700B4010D900129E4F0A3740DF0A37444F04A
:1010F700900127E0B4010D900129E4F0A3740EF0EC
:10110700A37445F0900128E064016003020FC3A3B4
:10111700F0A3740FF0A37446F0020FC390012BE005
:0F112700FF121F83121594900129E0FEA3E0FF31
:011136002296
:04159000A37401F04F
:10159400E490013CF090013CE0600302167804F012
:1015A400121137782C7C017D017E007F101205E238
:1015B400900135E0B40105E490013CF090012CE089
:1015C400B40105E490013CF090012DE0B40105E480
:1015D40090013CF090012EE0B40105E490013CF050
:1015E40090012FE0B40105E490013CF0900130E05B
:1015F400B40105E490013CF0900131E0B40105E44C
:1016040090013CF0900132E0B40105E490013CF01B
:10161400900133E0B40105E490013CF0900134E022
:10162400B40105E490013CF0900136E0B40105E416
:1016340090013CF0900137E0B40105E490013CF0E6
:10164400900138E0B40105E490013CF0900139E0E8
:10165400B40105E490013CF090013AE0B40105E4E2
:1016640090013CF090013BE064016003021599A3F2
:04167400F0021599D2
:01167800224F
:0D1F6A007F017E00121C6EE4FFFE021C6E63
:0E1F5C007F037E00121C6E7F027E00021C6E50
:101AC100EF1206DD1B522D1B572E1B02301B073157
:101AD1001B0C321B11331B16341B1B351B20361BF1
:101AE10025371B2A381B2F391B34411B3E431B480A
:101AF100451B4D461B39621B43641B5C6F00001B79
:101B0100617590C0805D7590F980587590A480537F
:101B11007590B0804E75909980497590928044750A
:101B21009082803F7590F8803A75908080357590ED
:101B3100988030759088802B75908380267590C62B
:101B410080217590A1801C759086801775908E807C
:101B5100127590BF800D75907F80087590FF80038E
:061B61007590AA021F6A44
:101137007F027E00121C6EC297C296C295C294D2DD
:1011470093D292D291D290C297D296D295D294123C
:101157001F5C20930890013D7401F08005E4900125
:101167003DF02092089001407401F08005E4900161
:1011770040F02091089001437401F08005E490014C
:1011870043F020900890014B7401F08005E4900132
:101197004BF0D297C296121F5C20930890013E74C1
:1011A70001F08005E490013EF0209208900141741F
:1011B70001F08005E4900141F0209108900144740A
:1011C70001F08005E4900144F020900890014674F6
:1011D70001F08005E4900146F0D296C295121F5C9B
:1011E70020930890013F7401F08005E490013FF0DF
:1011F7002092089001427401F08005E4900142F0CA
:101207002091089001457401F08005E4900145F0B4
:1012170020900890014C7401F08005E490014CF097
:10122700D295C294121F5C2093089001477401F075
:101237008005E4900147F02092089001487401F07E
:101247008005E4900148F02091089001497401F06D
:101257008005E4900149F020900890014A7401F05C
:101267008005E490014AF0D294121F5CE4FFFE125D
:081277001C6E7B017A01793D38
:01127F00224C
:1017FE00900169E0B401057F310218B490016AE0EE
:10180E00B401057F320218B490016BE0B401057F7C
:10181E00330218B490016CE0B401057F340218B4A1
:10182E0090016DE0B401047F35807B90016EE0B4D1
:10183E0001047F36807090016FE0B401047F378021
:10184E0065900170E0B401047F38805A900171E018
:10185E00B401047F39804F900173E0B401047F41DD
:10186E008044900172E0B401047F3080399001749D
:10187E00E0B401047F62802E900175E0B401047F14
:10188E00438023900176E0B401047F6480189001B8
:10189E0077E0B401047F2E800D900178E0B401044E
:0A18AE007F2D80027F6F121AC12205
:101EC300900115EFF07F047E00121C6E9001151235
:091ED3001DE67F057E00021C6E75
:101EDC0090012CEFF07F067E00121C6E90012C12EC
:091EEC001DE67F077E00021C6E5A
:101E1C007F327E00121DED7F38121EC37F057E00BF
:101E2C00121DED7F38121EC3121DE97F0F121EC347
:0F1E3C00121DE97F01121EC37F027E00021DED01
:0B1F24007D017BFF7E007F161205E2AE
:0C1F2F007F01121EC37F027E00021DED28
:031F8300021EDC5F
:061CC2007B017A0079E2CB
:0B1CC800900121EBF0A3EAF0A3E9F08B
:101CD300E4A3F0A3F0900121E0FBA3E0FAA3E0F971
:101CE300A3E0FEA3E0FFF5828E8312062164606009
:101CF3001B8F828E83120621FF121F83900125E022
:0C1D030004F070D1900124E004F080C9CD
:011D0F0022B1
:041E74007F047E0069
:101E7800EE700DEF24FE600A14600B14600C24034E
:101E8800800C7FC0800A7F9480067FD480027F8088
:041E9800121EC32231
:081D1000900115EEF0A3EFF0C5
:101D180078177C017D017BFF7A0F79917E007F0A1D
:101D28001205E290012474FFF0A3740EF0A3740965
:101D3800F0900115E0FFA3E0900127CFF0A3EFF0AA
:101D48007B017A0179171207687B017A01791702FA
:021D58001CC8A5
:051DA100900115EFF0B8
:101DA60078167C017D017BFF7A0F799B7E007F0789
:101DB6001205E290012474FFF0A3740EF0A3740FD1
:101DC600F0900115E0FF900127E4F0A3EFF07B010E
:101DD6007A0179161207687B017A017916021CC806
:031F8600021F83B4
:1018B800E4900101F0A3F0A3F0A312068C0000004D
:1018C8000090010812068C000000007F007E007D59
:1018D800007C00E490010CF0A3F00F121BC87F03FA
:1018E8007E00121BC8900103E590F0E4FFFE121B76
:1018F800C8900103E0FF7E007C007D05120660AC05
:1019080006AD07E41202A6E4FBFA798078431202D6
:1019180004900104120680E4FFFEFD7CBF900104E0
:10192800E0F8A3E0F9A3E0FAA3E0FB12000AE4FB65
:10193800FA79C878421200FB9001081206807F6687
:101948007E667DE67C3F900108E0F8A3E0F9A3E01D
:10195800FAA3E0FB1200FBE4FBFAF9784212000A52
:01196800225C
:101B6700E4900006F09000057411F09000047403EF
:101B7700F0900003741AF0900002740CF0900001CA
:101B87007415F0E4900000F07FF4121E4B7FD4121E
:101B97001E4B121EF57FF7121E4B78077C007D0146
:101BA7007B017A0079007E007F071205E212173E5B
:0A1BB7007FF4121E4B7FD5021E4B77
:101EF5008009EF30E0117FD4121E4B7FD5121E4BA7
:071F05007F0D121D5A80EB55
:011F0C0022B2
:101E4B0090000FEFF07F047E00121BC890000F1262
:101E5B001BC17F077E00121BC8121BC47F047E00B0
:091E6B00121BC8E4FFFE021BC8B3
:051D5A0090000FEFF006
:101D5F00E4A3F090000FE0C454F0F0440FF07F04C0
:101D6F007E00121BC890000F121BC17F027E001253
:101D7F001BC8900010E590F0E0540FF0121BC47FC9
:101D8F00047E00121BC8E4FFFE121BC8900010E077
:011D9F00FF44
:011DA0002220
:101F4C0090000EEFF0121EF590000EE0FF021E4BFB
:051F3B00900186EFF0AB
:0B1F4000121EF5900186E0FF121D5AF2
:011F4B002273
:10173E00900007E075F00A84AFF0121F4C9000077E
:10174E00E075F00A844410FF121F4C900008E075FB
:10175E00F00A84AFF0EF4420FF121F4C900008E017
:10176E0075F00A844430FF121F4C900009E075F0AA
:10177E000A84AFF0EF4440FF121F4C900009E07551
:10178E00F00A844450FF121F4C90000AE075F00AD4
:10179E0084AFF0EF4460FF121F4C90000AE075F02A
:1017AE000A844470FF121F4C90000BE075F00A84FF
:1017BE00AFF0EF4480FF121F4C90000BE075F00A63
:1017CE00844490FF121F4C90000CE075F00A84AF19
:1017DE00F0EF44A0FF121F4C90000CE075F00A844D
:1017EE0044B0FF121F4C90000DE044C0FF021F4C8E
:10167900E4FF121F3B900180EFF07F01121F3BEF47
:1016890075F00AA4FF900180E02F900179F07F02A4
:10169900121F3B900181EFF07F03121F3BEF75F0A2
:1016A9000AA4FF900181E02F90017AF07F04121FB4
:1016B9003B900182EFF07F05121F3BEF75F00AA402
:1016C900FF900182E02F90017BF07F06121F3B9073
:1016D9000183EFF07F07121F3BEF75F00AA4FF901B
:1016E9000183E02F90017CF07F08121F3B90018459
:1016F900EFF07F09121F3BEF75F00AA4FF900184F8
:10170900E02F90017DF07F0A121F3B900185EFF0D9
:101719007F0B121F3BEF75F00AA4FF900185E02FA4
:1017290090017EF07F0C121F3B90017FEFF07B014F
:041739007A0179793F
:01173D002289
:0B196900900151EBF0A3EAF0A3E9F0BD
:1019740078547C017D017BFF7A0F79A27E007F156C
:101984001205E290012474FFF0A3740EF0A3741501
:10199400F0900151E0FBA3E0FAA3E0F990000612F5
:1019A4000621FF900127E4F0A3EFF0900004120653
:1019B40021FF900129E4F0A3EFF090000312062127
:1019C400FF90012BE4F0A3EFF0900005120621FF35
:1019D40090012DE4F0A3EFF0900002120621FF9095
:1019E400012FE4F0A3EFF0900001120621FF900113
:1019F40031E4F0A3EFF0120608FF900133E4F0A302
:101A0400EFF07B017A0179541207687B017A01793E
:041A140054021CC894
:101C6E00EE7050EFB40800504A901C7EF82828738E
:101C7E00021C96021C9A021C9E021CA2021CA602A8
:101C8E001CAD021CB4021CBBC2B2800EC2B28011CB
:101C9E00C2B28014C2B28017D2B2C2B1C2B022D2C6
:101CAE00B2C2B1D2B022D2B2D2B1C2B022D2B2D26C
:041CBE00B1D2B022CD
:071BC100E0F5907F067E00B5
:101BC800EE704CEFB408005046901BD8F8282873E4
:101BD800021BF0021BF4021BF8021BFF021C060288
:101BE8001C17021C0A021C11C2B48006C2B4800968
:101BF800D2B4C2B3C2B522D2B4D2B3C2B522C2B42F
:101C08008002D2B4C2B3D2B522D2B4D2B3D2B522F2
:071DE600E0F5907F017E0093
:101DED00AD07AC06E41202A67B527AB8794E784064
:101DFD001200FB1202DFE4FDFCC3ED9FEC9E500EC2
:0E1E0D00E4FB0BEBB464FB0DBD00010C80EB9D
:011E1B0022A4
:1000030002034BE86480F8E933E83360110460F0DD
:10001300ED33EC337009E8FCE9FDEAFEEBFF220463
:1000230060DED3EB9FEA9EE99DE8C2E78CF0C2F75E
:1000330095F0400CE8CCF8E9CDF9EACEFAEBCFFB2A
:1000430012031685D0F05804700320D5B3E804706A
:10005300075002B2D502035592D5EC0460F7E4CC05
:10006300C0E0C398F8603B94186008400DD0E0FBF3
:1000730002032DE4FBFAC9FC8028E830E406E4C956
:10008300FBE4CAFCE830E305E4C9CACBFCE8540747
:100093006010F8C3E913F9EA13FAEB13FBEC13FC52
:1000A300D8F130F52FC3E49CFCEF9BFFEE9AFEEDF5
:1000B30099FDD0E0FBEF4E4D4C701222DB0302039F
:1000C30052EC2CFCEF33FFEE33FEED33FDED30E766
:1000D300EB02032DEF2BFFEE3AFEED39FDD0E0FBF3
:1000E30050130BBB0003020355ED13FDEE13FEEF9C
:0800F30013FFEC13FC02032DC6
:1000FB00EC4D6011E8497017ED33EC3304600DE4FF
:10010B00FCFFFEFD22E933E8330470F802034B12C7
:10011B00031658046009E4CC2481500628500902C8
:10012B000355284003020352C0E0EB4A7044B980E8
:10013B0006D0E0FB020341EF4E701CBD8008EBFFC5
:10014B00EAFEE9FD80EBE98DF0A4FEE5F00201E4A7
:10015B00E9CDF9EAFEEBFFEF89F0A4FCE5F0CE89DF
:10016B00F0A42EFFE435F0CD89F0A42DFEE435F09C
:10017B008067EF4E7005BD80D780C3EF8BF0A4ACCA
:10018B00F0EE8BF0A42CFCE435F0F8EF8AF0A42C05
:10019B00E5F038FCE433CB8DF0A42CFCE5F03BF818
:1001AB00EE8AF0A42CFCE5F038F8E433CF89F0A408
:1001BB002CFCE5F038CF3400CE89F0A42FFFE5F00E
:1001CB003EFEE433C98DF0A42EFEE5F039CD8AF066
:1001DB00A42FFFE5F03EFEE43DFD33D0E0FB5007DE
:1001EB000BBB000F020355EC2CFCEF33FFEE33FE81
:0601FB00ED33FD02032DAF
:10020100020355EC5D046005E85904700302034BD9
:10021100120316580460F6EC4860F2EC7004FDFE1F
:10022100FF22C860DB2481C85009C39860025006D0
:100231000203529850CAF582E9294B4A7005AB82F4
:1002410002034175F0007C1A7880C3EF9BEE9AEDB2
:1002510099400DC3EF9BFFEE9AFEED99FDE842F048
:10026100DC23ACF0D0E0FFD0E0FED0E0FDAB82209B
:10027100E7101BEB60BAEC2CFCEF33FFEE33FEED25
:1002810033FD02032DE803F830E705C0F075F000F7
:10029100EF2FFFEE33FEED33FD40B830E7C280AA09
:1002A10075F020800E75F010800575F0087D007ED8
:1002B100007F003392D530D503120672EC33401023
:1002C100EF33FFEE33FEED33FDEC33FCD5F0ED22E1
:0E02D100E5F0247EA2D513CC92E7CDCEFF221D
:1002DF00EDD2E7CD33EC3392D524814006E4FFFE17
:1002EF00FDFC22FCE4CFCECDCC24E0501174FF8076
:1002FF00EDC3CC13CCCD13CDCE13CECF13CF047013
:07030F00F030D5DE0206729A
:10070300E5082424F582E43401F583E0050822900A
:100713000121300703900124E475F0011206BD02A4
:1007230006082000E97F2ED2008018EF540F249092
:10073300D43440D4FF30040BEF24BFB41A00500369
:100743002461FFE50960021509050CE50C7002053B
:100753000B30070E900121E475F0011206BDEF0284
:10076300064E021E9C7403D2078003E4C207F508F9
:100773009001211206D4E4F509F50BF50CE50960A7
:10078300077F2012074680F5750AFFC201C200C227
:1007930002C203C205C206C208120712FF700D305F
:1007A30007057F00120757AF0CAE0B22B4255FC2BB
:1007B300D5C204120712FF24D0B40A00501A75F0F0
:1007C3000A780930D50508B6FF0106C6A426F62027
:1007D300D5047002D20380D924CFB41A00EF500499
:1007E300C2E5D204020A49D20180C6D20080C0D237
:1007F3000280BCD2D580BAD20580B47F20120746CE
:100803002002077401B5090040F1120703FF120724
:1008130046020780D208D2068095120703FB12070F
:1008230003FA120703F94A4B700679477A0B7BFFE9
:1008330020022EE509602A7E008E8275830012064F
:100843002160060EEE650A70F0C2D5EBC0E0EAC087
:10085300E0E9C0E0EE120AAAD0E0F9D0E0FAD0E075
:10086300FB120608FF60AAEBC0E0EAC0E0E9C0E0C3
:10087300120746D0E02401F9D0E03400FAD0E0FBBF
:10088300E50A0460DCD50AD98087D20280A2120A65
:100893008C60F7E50A700104120360A90A600DE594
:1008A3000A600914F50A120B34EF60F3EA30E70229
:1008B300F404C3995079EAF4250A0430E701E40407
:1008C300F50A800D120A8C60C1EA050A250A120393
:1008D30060EA900150F030E701E4250A04D50A04E8
:1008E30020050114120AAAE4C0E0120B349001504F
:1008F300E0601320E70714F012072E802204F0D0E3
:10090300E014C0E07F0012072EE50A6007120725F6
:10091300150A800B300503120725D0E0020780D0AB
:10092300E00480C4120A8C609EE50A0412036090FE
:100933000150EAF0E50A2005026001042404120ACA
:01094300AA09
:1009440074FF04C0E0120B3412072EE50A200502DE
:100954006003120725D0E0B50AE87F4512073890F6
:100964000150E07F2B30E7047F2DF404C0E0120730
:1009740046D0E075F00A84C0F012072FD0E01207C9
:100984002F020780791080027908C206C208800805
:10099400D2D5790A8004790AC2D5E50A047002F531
:1009A4000AE4FAFDFEFF120703FC7B082001131280
:1009B4000703FD7B1030000A120703FE120703FF32
:1009C4007B20EC3382D592D55013C3E43000069FCC
:1009D400FFE49EFEE42001039DFDE49CFCE4CBF8CF
:1009E400C201EC700CCFCECDCCE824F8F870F380C3
:1009F40017C3EF33FFEE33FEED33FDEC33FCEB3383
:100A0400FB994002FB0FD8E9EB300105F8D0E0C4B4
:100A140048B201C0E00AEC4D4E4F78207B0070C212
:100A2400EAB50A0040BCC0E0120AACD0F0D0E02025
:100A34000104C4C0E0C4B201C0F012072FD0F0D545
:100A4400F0EB0207801206DD081D5309885807EEF3
:100A54004C07EA42098C4F0994440994490803431A
:100A6400099A5508C7460927450891470B67500757
:100A7400F22D07F62E08192B07FA230817200B501E
:100A84002A07B24800000811E50AB4FF03750A06F4
:100A9400120703FC120703FD120703FE120703FFEC
:100AA40090014902039D790AA2D520031430050957
:100AB400B910020404B9080104A2D52006025001A9
:100AC400042002689202B509005034C0E07F20304F
:100AD40003197F30A20272067205500F120B03C273
:100AE40002C206C205C2087F30800F300503E9C088
:100AF400E0120746300503D0E0F9D0E0B509CC3068
:100B040005177F30B9100C1207467F583004077F51
:100B1400788003B908031207463002057F2D0207C7
:100B2400467F202008F87F2B2006F322920280CFF4
:100B34007F00B40700500B2449F582E43401F583A7
:100B4400E0FF22286E756C6C2900D2011207033075
:100B540001F8C201780930D50108F60207B22D5018
:100B64004349581207032403B405004001E4900BE1
:100B74006293120737743A120737D20375090402D5
:020B84000988DE
:10031600E9D2E7C933E833F892D5EDD2E7CD33EC2D
:0703260033FC5002B2D522A6
:10032D00EC30E7100FBF000C0EBE00080DBD000431
:10033D000BEB6014A2D5EB13FCED92E7FD2274FFDD
:10034D00FCFDFEFF22E480F8A2D574FF13FC7D8036
:03035D00E480EF4A
:10036000F920E73624F950037907E4F42402FBE589
:1003700082158270021583DBF6E024FB501BE960D6
:1003800014E4F0E582158270021583E004F0B40AEB
:0D03900008E4F0D9EE7401F00A22C2D52273
:10039D00ED33EC3392D5FA602AB4FF33EDC2E77B2F
:1003AD00FF60067A0379C2E4227A0379CB20D50463
:1003BD007A0379C6224E614E002B494E46002D49D7
:1003CD004E4600E47A08F0A3DAFC7B00740722C0E5
:1003DD0083C082ECC0E0EDC0E0EEC0E0EFC0E0EA2B
:1003ED0075F010A4CAABF075F04DA42BFBE435F0FD
:1003FD00FCEA2410FAEB34C5FBEC34D9FCEDC2E772
:10040D00FF75F056A4F42411C5F0F434C58FF0A493
:10041D002AE5F03BE43CF020E7141204D2D0E0FFD3
:10042D00D0E0FED0E0FDD0E0FC1202048014F40414
:10043D001204D2D0E0FFD0E0FED0E0FDD0E0FC12FF
:10044D0000FBD082D083E0FAEDD2E7CD33EC33243C
:10045D0082FBE4C3CF33CFCE33CECD33CD33DBF3FD
:10046D007B0775F00A846004F0A31B0AE5F0F0A386
:10047D008FF0740AA4FFACF08EF0740AA42CFEACBD
:10048D00F050010C8DF0740AA42CFDE435F0F0A3AE
:05049D00DBDE74072204
:1004A2003F8000004120000042C80000447A000062
:1004B200461C400047C35000497424004B189680E4
:1004C2004CBEBC205A0E1BCA6753C21C749DC5AEDB
:1004D200FB60065407601C2323120500EB543860AE
:1004E200091204EC1204FB1200FBECF8EDF9EEFA2F
:1004F200EFCB22EB1204FB80F1543803241C90044E
:10050200A2FE93FC0EEE93FD0EEE930ECE93FF220F
:03000000021F7765
:0C1F7700787FE4F6D8FD758121021F0D73
:10051200E709F608DFFA8046E709F208DFFA803ECB
:1005220088828C83E709F0A3DFFA8032E309F608B8
:10053200DFFA8078E309F208DFFA807088828C8320
:10054200E309F0A3DFFA806489828A83E0A3F608D4
:10055200DFFA805889828A83E0A3F208DFFA804CAE
:1005620080D280FA80C680D4806980F28033801085
:1005720080A680EA809A80A880DA80E280CA8033EE
:1005820089828A83ECFAE493A3C8C582C8CCC58366
:10059200CCF0A3C8C582C8CCC583CCDFE9DEE78036
:1005A2000D89828A83E493A3F608DFF9ECFAA9F0B5
:1005B200EDFB2289828A83ECFAE0A3C8C582C8CC0B
:1005C200C583CCF0A3C8C582C8CCC583CCDFEADE24
:1005D200E880DB89828A83E493A3F208DFF980CC86
:1005E20088F0EF60010E4E60C388F0ED2402B4047F
:1005F2000050B9F582EB2402B4040050AF23234526
:06060200822390056273E3
:10060800BB010689828A83E0225002E722BBFE02F0
:09061800E32289828A83E4932223
:10062100BB010CE58229F582E5833AF583E022508E
:1006310006E92582F8E622BBFE06E92582F8E222D8
:0D064100E58229F582E5833AF583E49322F2
:10064E00BB010689828A83F0225002F722BBFE018B
:02065E00F32285
:10066000EF8DF0A4A8F0CF8CF0A428CE8DF0A42EAE
:02067000FE2268
:0E067200C3E49FFFE49EFEE49DFDE49CFC2299
:0C068000ECF0A3EDF0A3EEF0A3EFF022ED
:10068C00A8828583F0D083D0821206A31206A3120F
:10069C0006A31206A3E473E493A3C583C5F0C58334
:1006AC00C8C582C8F0A3C583C5F0C583C8C582C8B8
:0106BC00221B
:1006BD00F8E0FBA3A3E0F925F0F0E58215827002C6
:0706CD001583E0FA38F0226A
:0906D400EBF0A3EAF0A3E9F02227
:1006DD00D083D082F8E4937012740193700DA3A3AC
:1006ED0093F8740193F5828883E4737402936860C0
:0606FD00EFA3A3A380DFC0
:101E9C00EFB40A07740D121EA7740A309811A89992
:101EAC00B8130CC2983098FDA899C298B811F630A6
:071EBC0099FDC299F599227E
:00000001FF
