:100A96007590FF7B007A0079007F007E807D007C68
:100AA600001208008B088A09890AAE02AF01EF4ED0
:0C0AB6007005759001800375900880FEAB
:100AC2007F01EF6010120A3E1209F86F600122EFF7
:070AD20025E0FF80ED7F002D
:010AD90022FA
:0E0800008B0B8A0C890D8F118E108D0F8C0EB4
:10080E00E51124FFF515E51034FFF514E50F34FF5F
:10081E00F513E50E34FFF512751EAA751F55E47516
:10082E001901F518F517F516E5195515FFE51855C3
:10083E0014FEE5175513FDE5165512FCE4FBFAF907
:10084E00F8C3120A726028AB0BAA0CA90D85198287
:10085E00851883E51E120A50AF19AE18AD17AC16E7
:10086E007801120A838F198E188D178C1680B9E4B1
:10087E00F51DF51CF51BF51AAB0BAA0CA90D851D64
:10088E0082851C83E51F120A50E4751901F518F5CF
:10089E0017F516E5195515FFE5185514FEE517550C
:1008AE0013FDE5165512FCE4FBFAF9F8C3120A72B1
:1008BE006037AB0BAA0CA90D851982851883120A15
:1008CE0011651E600DE92519F9EA3518FAEB351791
:1008DE00FB22AF19AE18AD17AC167801120A838F32
:1008EE00198E188D178C1680AAAB0BAA0CA90D8524
:1008FE001D82851C83E51E120A50E4751D01F51C30
:10090E00F51BF51AE51D5515FFE51C5514FEE51BE7
:10091E005513FDE51A5512FCE4FBFAF9F8C3120A59
:10092E007270030209F1AB0BAA0CA90D851D82850D
:10093E001C83E51F120A501209F8651E60028052D0
:10094E00E4751901F518F517F516E5195515FFE5B6
:10095E00185514FEE5175513FDE5165512FCE4FB6C
:10096E00FAF9F8C3120A726051AB0BAA0CA90D85E5
:10097E001982851883120A11651E6027AF1DAE1CE1
:10098E00AD1BAC1AAB19AA18A917A816C3120A7276
:10099E006011AB0BE50D251DF9E50C351CFAEB3599
:1009AE001BFB22AF19AE18AD17AC167801120A83D5
:1009BE008F198E188D178C168090AB0BAA0CA90D63
:1009CE00851D82851C83E51E120A50AF1DAE1CAD1F
:1009DE001BAC1A7801120A838F1D8E1C8D1B8C1A6C
:0909EE000209127B007A00790075
:0109F70022DD
:03000000020ADA17
:0C0ADA00787FE4F6D8FD75811F020A96B3
:1009F800BB010689828A83E0225002E722BBFE02FD
:090A0800E32289828A83E493222F
:100A1100BB010CE58229F582E5833AF583E022509A
:100A210006E92582F8E622BBFE06E92582F8E222E4
:0D0A3100E58229F582E5833AF583E49322FE
:100A3E00BB010689828A83F0225002F722BBFE0197
:020A4E00F32291
:100A5000F8BB010DE58229F582E5833AF583E8F0DC
:100A6000225006E92582C8F622BBFE05E92582C888
:020A7000F22270
:100A7200EB9FF5F0EA9E42F0E99D42F0E89C45F0DA
:010A82002251
:100A8300E8600FEFC333FFEE33FEED33FDEC33FCD1
:030A9300D8F12275
:00000001FF
