:1008A6007F301208001209677F31120800120967AB
:1008B6007F321208001209677F3312080012096797
:1008C6007F341208001209677F3512080012096783
:1008D6007F361208001209677F371208001209676F
:1008E6007F381208001209677F391208001209675B
:1008F6007F411208001209677F6212080012096719
:100906007F431208001209677F6412080012096704
:100916007F451208001209677F4612080012096710
:100926007F2D1208001209677F2E12080012096730
:0B0936007F6F1208001209670208A67C
:05098F00D2B0C2B0224D
:10080000EF12094108912D08962E08413008463113
:10081000084B32085033085534085A35085F3608FB
:100820006437086938086E39087341087D430887C2
:1008300045088C46087862088264089B6F000008AF
:10084000A07590C0805D7590F980587590A4805314
:100850007590B0804E7590998049759092804475DE
:100860009082803F7590F8803A75908080357590C1
:10087000988030759088802B75908380267590C6FF
:1008800080217590A1801C759086801775908E8050
:10089000127590BF800D75907F80087590FF800362
:0608A0007590AA02098F09
:040967007FD07E07B8
:10096B00E4FDFCC3ED9FEC9E500DE4FB0BBB64FC64
:07097B000DBD00010C80EC32
:010982002252
:030000000209836F
:0C098300787FE4F6D8FD7581070208A615
:10094100D083D082F8E4937012740193700DA3A345
:1009510093F8740193F5828883E473740293686059
:06096100EFA3A3A380DF59
:00000001FF
