:100E0300252B352E3166204660002530345860008E
:100E1300253032586000256420253032642F253078
:100E230032642F2530326420253032643A25303243
:100E3300643A2530326460004D6567616E20426913
:100E43007264204345454E203433333060002D2DEA
:100E53002D2D2D2D2D2D2D2D2D2D2D2D2D2D2D2DBF
:100E63002D2D60004D61696E204D656E75600031FA
:100E7300203A204D656D6F727920202032203A2070
:100E8300492F4F60004D656D6F7279204D656E750A
:100E9300600031203A2044756D70202020203220DC
:100EA3003A204D6F7665600033203A2045646974BB
:100EB3002020202034203A2046696E6460002320DD
:100EC3003A2052657475726E20746F204D61696E9D
:100ED30020206000492F4F204D656E756000312042
:100EE3003A2054656D702020202032203A20375359
:100EF3006567600033203A2054696D652020202007
:100F030034203A2053657454600023203A205265FC
:100F13007475726E20746F204D61696E20206000BD
:100F230044756D70205365747570600053746172FD
:100F33007420416464723A206000426C6F636B20DA
:100F430053697A653A206000313A3C2D2D202032D6
:100F53003A2D2D3E2020233A45786974600043756D
:100F63007272656E742054656D706572617475720A
:100F73006560002B30302E302046600023203A205D
:100F830052657475726E20746F20492F4F20202094
:100F93006000536576656E205365676D656E74609A
:100FA30000446973706C61792044656D6F60002340
:100FB300203A2052657475726E20746F20492F4F4A
:100FC30060005265616C2054696D6520436C6F63EA
:100FD3006B600023203A2052657475726E20746F23
:100FE30020492F4F20202060002D2D2D2D2D2D2D1C
:100FF3002D60002D2D2D2D2D6000302030302F3011
:0F100300302F30302030303A30303A303060000B
:1020F400E4FFFE121E55E4FFFE121DAF1220031270
:072104001D4E121B6080FE5E
:101B600078107C007D017BFF7A0E793B7E007F162A
:101B70001205E278267C007D017BFF7A0E79517E8A
:101B8000007F161205E2783C7C007D017BFF7A0E17
:101B900079677E007F0B1205E278477C007A0E7928
:101BA0007212210B7B017A007910121EAF12205B9A
:101BB0007B017A007926121EAF7F037E0012205F20
:101BC0007B017A00793C121EAF7F047E0012205FF9
:101BD0007B017A007947121EAF12119278007C00C7
:101BE0007D017E007F101205E2900000E0B4010943
:101BF0001216C91215DB021B60900001E0B401D976
:091C00001216C91213F9021B604F
:0E15DB00E490006DF090006DE060030216C415
:1015E900786E7C007D017BFF7A0E7988FE7F0D1273
:1015F90005E2787B7C007D017BFF7A0E79957E0080
:101609007F161205E278917C007D017BFF7A0E79C5
:10161900AB7E007F161205E278A77C007A0E79C1AD
:1016290012210B7B017A00796E121EAF12205B7BAF
:10163900017A00797B121EAF7F037E0012205F7B47
:10164900017A007991121EAF7F047E0012205F7B20
:10165900017A0079A7121EAF121192785D7C007D84
:10166900017E007F101205E290006CE0B4010612C1
:1016790016C50215E090005DE0B401091216C91201
:101689000B860215E090005EE0B401071216C97FCF
:1016990032801B90005FE0B401071216C97F3380C6
:1016A9000D900060E0640170AF1216C97F341221F9
:0B16B9006A7FD07E07121FD40215E0EC
:0116C4002203
:0E13F900E490006DF090006DE060030214E9D6
:10140700786E7C007D017BFF7A0E79D7FE7F0A120A
:1014170005E278787C007D017BFF7A0E79E17E001A
:101427007F161205E2788E7C007D017BFF7A0E79AC
:10143700F77E007F161205E278A47C007D017BFF12
:101447007A0F790D12210F7B017A00796E121EAF88
:1014570012205B7B017A007978121EAF7F037E0032
:1014670012205F7B017A00798E121EAF7F047E0007
:1014770012205F7B017A0079A4121EAF12119278B5
:101487005D7C007D017E007F101205E290006CE01C
:10149700B401061216C50213FE90005DE0B40109FF
:1014A7001216C91214EA0213FE90005EE0B4010995
:1014B7001216C91212DB0213FE90005FE0B4010995
:1014C7001216C9121CAF0213FE900060E0B401AC03
:1014D7001216C97F3412216A7FD07E07121FD402E9
:0214E70013FEF2
:0114E90022E0
:100B860078D77C007D017BFF7A0F79237E007F0C6E
:100B96001205E278E37C007D017BFF7A0F792F7ED8
:100BA600007F0E1205E278F17C007D017BFF7A0F53
:100BB600793D7E007F0E1205E278FF7C007D017B89
:100BC600FF7A0F794B7E007F161205E2E49000CD86
:100BD600F0A3F0A3F074FFA3F0A3F0E4A3F0A3F056
:100BE6001221167B017A0079D7121EAF7F037E0091
:100BF60012205F7B017A0079E3121EAF121DFF906F
:100C060000CEEEF0A3EFF07F047E0012205F7B01A2
:100C16007A0079F1121EAF121DFF9000D0EEF0A3FC
:100C2600EFF09000CDE06003020E02122116900054
:100C3600CEE0FEA3E0FF121EF77F3A12216A900073
:100C4600D2E0FEA3E0FF121EF712205BE49000D56F
:100C5600F0A3F09000D5E0FEA3E0FFC39407EE6496
:100C660080948050749000D2E0FCA3E0FD2FFFEC4E
:100C76003EFED39000D1E09F9000D0E09E40499088
:100C860000CFE0C4F8540FC868FF9000CEE0C4540B
:100C9600F048FEED2FFFEC3EFE9000D6E02FFF90D1
:100CA60000D5E03E8F82F583E09000D4F0E0FF129D
:100CB6001F88C39000D6E094069000D5E064809427
:100CC6008050057F2012216A9000D6E004F07083E0
:100CD6009000D5E004F0020C597F037E0012205FDD
:100CE600E49000D5F0A3F09000D5E0FEA3E0FFC3AA
:100CF6009407EE6480948050799000D2E0FCA3E0E3
:100D0600FD2FFFEC3EFED39000D1E09F9000D0E097
:100D16009E404E9000CFE0C4F8540FC868FF900084
:100D2600CEE0C454F048FEED2FFFEC3EFE9000D618
:100D3600E02FFF9000D5E03E8F82F583E09000D44F
:100D4600F0E0FF12216D7F2012216AC39000D6E0E9
:100D560094069000D5E06480948050057F2012218F
:100D66006A9000D6E004F070069000D5E004F00228
:100D76000CED7F047E0012205F7B017A0079FF1262
:100D86001EAF12119278BD7C007D017E007F10128D
:100D960005E29000CCE0B401061216C5020C2890BC
:100DA60000BDE0B401171216C9C39000D3E0940742
:100DB6009000D2E094005003020C2880309000BED0
:100DC600E0B401BE1216C99000D3E02407F09000EB
:100DD600D2E03400F09000D0E0FEA3E0FFD3900014
:100DE600D3E09F9000D2E09E5003020C28A3E0249B
:0C0DF600F9F09000D2E034FFF0020C286D
:010E020022CD
:1014EA00E49000CAF0A3F0A3F09000CAE0600302FF
:0214FA0015DA01
:1014FC0078CD7C007D017BFF7A0F7961FE7F151220
:10150C0005E278E27C007D017BFF7A0F79767E0024
:10151C007F091205E278EB7C007D017BFF7A0F7965
:10152C007F12210F7B017A0079CD121EAF12205B46
:10153C00121AAF90012712068090012474FFF0A3B9
:10154C00740EF0A37403F07B017A0079E212076841
:10155C00121EA97F047E0012205F7B017A0079EBBA
:10156C00121EAF9000CBE064037004A3E064E8703B
:10157C00327F02FE12205F121AAF900127120680F2
:10158C0090012474FFF0A3740EF0A37403F07B019C
:10159C007A0079E2120768121EA9E49000CBF0A33E
:1015AC00F0800E9000CCE004F070069000CBE004CC
:1015BC00F012119278BA7C007D017E007F1012052A
:0E15CC00E29000C9E0B4019B1216C50214F3B0
:0115DA0022EE
:1012DB00E49000CAF0A3F0A3F09000CAE060030210
:0212EB0013F8F6
:1012ED0078CD7C007D017BFF7A0F7995FE7F0F1203
:1012FD0005E278DC7C007D017BFF7A0F79A47E000E
:10130D007F0E1205E278EA7C007D017BFF7A0F7972
:10131D00B27F131221117B017A0079CD121EAF120B
:10132D00205B7B017A0079DC121EAF7F047E0012F8
:10133D00205F7B017A0079EA121EAF12119278BA02
:10134D007C007D017E007F101205E29000C9E0B4A3
:10135D00010FA37401F07F6F121C091216C902123E
:10136D00E49000CBE0FEA3E0FFEE704DEFB408007B
:10137D005047901386F828287302139E0213A30278
:10138D0013A80213AD0213B20213B70213BC02135A
:10139D00C17590FE80267590FD80217590FB801C97
:1013AD007590F780177590EF80127590DF800D7531
:1013BD0090BF800875907F80037590FFC3EF9407F1
:1013CD00EE648094804009E49000CBF0A3F0800E91
:1013DD009000CCE004F070069000CBE004F01221F8
:0B13ED00517F327E00121FD402134813
:0113F80022D2
:101CAF00E49000CAF0A3F0A3F09000CAE060030232
:021CBF001D4DB9
:101CC10078D47C007D017BFF7A0F79C5FE7F1112EC
:101CD10005E278E57C007D017BFF7A0F79D6122140
:101CE1000F7B017A0079D4121EAF12205B1217AE5E
:101CF1001218737F047E0012205F7B017A0079E560
:101D0100121EAF9000CBE0B40317A3E0B4E81212A7
:101D1100205B1217AE121873E49000CBF0A3F08091
:101D21000E9000CCE004F070069000CBE004F012BD
:101D3100119278BA7C007D017E007F101205E2903D
:0C1D410000C9E0B401BD1216C5021CB8B8
:011D4D002273
:101DFF00E4900115F0A3F0A3F0A3F0900116E0C456
:101E0F00F8540FC868F0900115E0C454F048F01270
:101E1F001012900116E02FF0900115E03EF09001A6
:101E2F0018E004F07006900117E004F0C390011859
:101E3F00E09404900117E06480948040BE900115F7
:051E4F00E0FEA3E0FF2E
:011E5400226B
:1010120074FF900129F0A3F0A3747EF0900129E0FF
:10102200F47003A3E0F4600302117E1211927819A6
:101032007C017D017E007F101205E2900122E0B466
:10104200010BE4900129F0A3F0A37430F090011990
:10105200E0B4010C900129E4F0A304F0A37431F090
:1010620090011AE0B4010D900129E4F0A37402F09A
:10107200A37432F090011BE0B4010D900129E4F059
:10108200A37403F0A37433F090011CE0B4010D903B
:101092000129E4F0A37404F0A37434F090011DE07C
:1010A200B4010D900129E4F0A37405F0A37435F0A6
:1010B20090011EE0B4010D900129E4F0A37406F042
:1010C200A37436F090011FE0B4010D900129E4F001
:1010D200A37407F0A37437F0900120E0B4010D90DF
:1010E2000129E4F0A37408F0A37438F0900121E020
:1010F200B4010D900129E4F0A37409F0A37439F04E
:10110200900123E0B4010D900129E4F0A3740AF0E8
:10111200A37441F0900124E0B4010D900129E4F0A0
:10112200A3740BF0A37442F0900125E0B4010D907A
:101132000129E4F0A3740CF0A37443F0900126E0BB
:10114200B4010D900129E4F0A3740DF0A37444F0EE
:10115200900127E0B4010D900129E4F0A3740EF090
:10116200A37445F0900128E06401600302101EA3FD
:10117200F0A3740FF0A37446F002101E90012BE04E
:0F118200FF12216A1216C9900129E0FEA3E0FFB7
:01119100223B
:0416C500A37401F019
:1016C900E490013CF090013CE060030217AD04F0A6
:1016D900121192782C7C017D017E007F101205E2A7
:1016E900900135E0B40105E490013CF090012CE053
:1016F900B40105E490013CF090012DE0B40105E44A
:1017090090013CF090012EE0B40105E490013CF019
:1017190090012FE0B40105E490013CF0900130E024
:10172900B40105E490013CF0900131E0B40105E415
:1017390090013CF0900132E0B40105E490013CF0E5
:10174900900133E0B40105E490013CF0900134E0EC
:10175900B40105E490013CF0900136E0B40105E4E0
:1017690090013CF0900137E0B40105E490013CF0B0
:10177900900138E0B40105E490013CF0900139E0B2
:10178900B40105E490013CF090013AE0B40105E4AC
:1017990090013CF090013BE0640160030216CEA386
:0417A900F00216CE66
:0117AD002219
:0D2151007F017E00121E55E4FFFE021E55A8
:0E2143007F037E00121E557F027E00021E5595
:101C0900EF1206DD1C9A2D1C9F2E1C4A301C4F31E9
:101C19001C54321C59331C5E341C63351C68361C39
:101C29006D371C72381C77391C7C411C86431C900B
:101C3900451C95461C81621C8B641CA46F00001C0A
:101C4900A97590C0805D7590F980587590A48053EE
:101C59007590B0804E7590998049759092804475C1
:101C69009082803F7590F8803A75908080357590A4
:101C7900988030759088802B75908380267590C6E2
:101C890080217590A1801C759086801775908E8033
:101C9900127590BF800D75907F80087590FF800345
:061CA9007590AA02215112
:101192007F027E00121E55C297C296C295C294D299
:1011A20093D292D291D290C297D296D295D29412E1
:1011B200214320930890013D7401F08005E49001E1
:1011C2003DF02092089001407401F08005E4900106
:1011D20040F02091089001437401F08005E49001F1
:1011E20043F020900890014B7401F08005E49001D7
:1011F2004BF0D297C29612214320930890013E747D
:1012020001F08005E490013EF020920890014174C3
:1012120001F08005E4900141F020910890014474AE
:1012220001F08005E4900144F0209008900146749A
:1012320001F08005E4900146F0D296C29512214356
:1012420020930890013F7401F08005E490013FF083
:101252002092089001427401F08005E4900142F06E
:101262002091089001457401F08005E4900145F059
:1012720020900890014C7401F08005E490014CF03C
:10128200D295C2941221432093089001477401F031
:101292008005E4900147F02092089001487401F023
:1012A2008005E4900148F02091089001497401F012
:1012B2008005E4900149F020900890014A7401F001
:1012C2008005E490014AF0D294122143E4FFFE1219
:0812D2001E557B017A01793DF4
:0112DA0022F1
:1019F500900151E0B401057F31021AAB900152E02C
:101A0500B401057F32021AAB900153E0B401057FA2
:101A150033021AAB900154E0B401057F34021AABCE
:101A2500900155E0B401047F35807B900156E0B408
:101A350001047F368070900157E0B401047F378040
:101A450065900158E0B401047F38805A900159E04F
:101A5500B401047F39804F90015BE0B401047F41FC
:101A6500804490015AE0B401047F30803990015CD4
:101A7500E0B401047F62802E90015DE0B401047F33
:101A850043802390015EE0B401047F6480189001D7
:101A95005FE0B401047F2E800D900160E0B4010485
:0A1AA5007F2D80027F6F121C0922C2
:1020AA00900115EFF07F047E00121E559001151263
:0920BA001FCD7F057E00021E55BA
:1020C30090012CEFF07F067E00121E5590012C121A
:0920D3001FCD7F077E00021E559F
:102003007F327E00121FD47F381220AA7F057E0004
:10201300121FD47F381220AA121FD07F0F1220AABA
:0F202300121FD07F011220AA7F027E00021FD45D
:0B210B007D017BFF7F167E001205E2C5
:0C2116007F011220AA7F027E00021FD46D
:03216A000220C38D
:061EA9007B017A0079E2E2
:0B1EAF00900121EBF0A3EAF0A3E9F0A2
:101EBA00E4A3F0A3F0900121E0FBA3E0FAA3E0F988
:101ECA00A3E0FEA3E0FFF5828E8312062164606020
:101EDA001B8F828E83120621FF12216A900125E050
:0C1EEA0004F070D1900124E004F080C9E5
:011EF60022C9
:04205B007F027E0082
:10205F00EE700DEF24FE600A14600B14600C240365
:10206F00800C7FC0800A7F9480067FD480027F809F
:04207F001220AA225F
:081EF700900115EEF0A3EFF0DD
:101EFF0078177C017D017BFF7A0F79EC7E007F0ADA
:101F0F001205E290012474FFF0A3740EF0A3740D78
:101F1F00F0900115E0FFA3E0900127CFF0A3EFF0C1
:101F2F007B017A0179171207687B017A0179170211
:021F3F001EAFD3
:051F8800900115EFF0CF
:101F8D0078167C017D017BFF7A0F79F67E007F0745
:101F9D001205E290012474FFF0A3740EF0A37413E4
:101FAD00F0900115E0FF900127E4F0A3EFF07B0125
:101FBD007A0179161207687B017A017916021EAF34
:03216D0002216AE2
:101AAF00E4900101F0A3F0A3F0A312068C00000054
:101ABF000090010812068C000000007F007E007D60
:101ACF00007C00E490010CF0A3F00F121DAF7F0318
:101ADF007E00121DAF900103E590F0E4FFFE121D92
:101AEF00AF900103E0FF7E007C007D05120660AC25
:101AFF0006AD07E41202A6E4FBFA798078431202DE
:101B0F0004900104120680E4FFFEFD7CBF900104E7
:101B1F00E0F8A3E0F9A3E0FAA3E0FB12000AE4FB6C
:101B2F00FA79C878421200FB9001081206807F668E
:101B3F007E667DE67C3F900108E0F8A3E0F9A3E024
:101B4F00FAA3E0FB1200FBE4FBFAF9784212000A59
:011B5F002263
:101D4E00E4900006F09000057411F0900004740306
:101D5E00F0900003741AF0900002740CF0900001E1
:101D6E007415F0E4900000F07FF41220327FD4124C
:101D7E0020321220DC7FF712203278077C007D01A2
:101D8E007B017A0079007E007F071205E212193579
:0A1D9E007FF41220327FD5022032BC
:1020DC008009EF30E0117FD41220327FD5122032EC
:0720EC007F0D121F4180EB84
:0120F30022CA
:10203200900109EFF07F047E00121DAF900109129A
:102042001DA87F077E00121DAF121DAB7F047E000C
:09205200121DAFE4FFFE021DAFF8
:051F4100900109EFF022
:101F4600E4A3F0900109E0C454F0F0440FF07F04DC
:101F56007E00121DAF900109121DA87F027E00129D
:101F66001DAF90010AE590F0E0540FF0121DAB7F13
:101F7600047E00121DAFE4FFFE121DAF90010AE0C1
:011F8600FF5B
:011F87002237
:1021330090000EEFF01220DC90000EE0FF02203240
:05212200900108EFF040
:0B2127001220DC900108E0FF121F41B5
:01213200228A
:10193500900007E075F00A84AFF01221339000079C
:10194500E075F00A844410FF122133900008E07519
:10195500F00A84AFF0EF4420FF122133900008E035
:1019650075F00A844430FF122133900009E075F0C8
:101975000A84AFF0EF4440FF122133900009E0756F
:10198500F00A844450FF12213390000AE075F00AF2
:1019950084AFF0EF4460FF12213390000AE075F048
:1019A5000A844470FF12213390000BE075F00A841D
:1019B500AFF0EF4480FF12213390000BE075F00A81
:1019C500844490FF12213390000CE075F00A84AF37
:1019D500F0EF44A0FF12213390000CE075F00A846B
:1019E50044B0FF12213390000DE044C0FF022133C3
:1017AE00E4FF122122900102EFF07F01122122EFBD
:1017BE0075F00AA4FF900102E02F9000FBF07F026B
:1017CE00122122900103EFF07F03122122EF75F018
:1017DE000AA4FF900103E02F9000FCF07F04122179
:1017EE0022900104EFF07F05122122EF75F00AA47A
:1017FE00FF900104E02F9000FDF07F061221229051
:10180E000105EFF07F07122122EF75F00AA4FF9079
:10181E000105E02F9000FEF07F08122122900106B4
:10182E00EFF07F09122122EF75F00AA4FF90010656
:10183E00E02F9000FFF07F0A122122900107EFF0B7
:10184E007F0B122122EF75F00AA4FF900107E02F03
:10185E00900100F07F0C122122900101EFF07B012C
:04186E007A0079FB88
:011872002253
:1018730078CD7C007D017E007F071205E27B017A33
:031883000079CD1C
:0B1886009000FBEBF0A3EAF0A3E9F0F8
:1018910078FE7C007D017BFF7A0F79FD7E007F154C
:1018A1001205E290012474FFF0A3740EF0A37419E1
:1018B100F09000FBE0FBA3E0FAA3E0F99000061230
:1018C1000621FF900127E4F0A3EFF0900004120637
:1018D10021FF900129E4F0A3EFF09000031206210B
:1018E100FF90012BE4F0A3EFF0900005120621FF19
:1018F10090012DE4F0A3EFF0900002120621FF9079
:10190100012FE4F0A3EFF0900001120621FF9001F6
:1019110031E4F0A3EFF0120608FF900133E4F0A3E5
:10192100EFF07B017A0079FE1207687B017A00797A
:04193100FE021EAFE5
:101E5500EE7050EFB40800504A901E65F8282873BC
:101E6500021E7D021E81021E85021E89021E8D0232
:101E75001E94021E9B021EA2C2B2800EC2B2801127
:101E8500C2B28014C2B28017D2B2C2B1C2B022D2DD
:101E9500B2C2B1D2B022D2B2D2B1C2B022D2B2D283
:041EA500B1D2B022E4
:071DA800E0F5907F067E00CC
:101DAF00EE704CEFB408005046901DBFF828287312
:101DBF00021DD7021DDB021DDF021DE6021DED0213
:101DCF001DFE021DF1021DF8C2B48006C2B48009C7
:101DDF00D2B4C2B3C2B522D2B4D2B3C2B522C2B446
:101DEF008002D2B4C2B3D2B522D2B4D2B3D2B5220A
:071FCD00E0F5907F017E00AA
:101FD400AD07AC06E41202A67B527AB8794E78407B
:101FE4001200FB1202DFE4FDFCC3ED9FEC9E500ED9
:0E1FF400E4FB0BEBB464FB0DBD00010C80EBB5
:0120020022BB
:1000030002034BE86480F8E933E83360110460F0DD
:10001300ED33EC337009E8FCE9FDEAFEEBFF220463
:1000230060DED3EB9FEA9EE99DE8C2E78CF0C2F75E
:1000330095F0400CE8CCF8E9CDF9EACEFAEBCFFB2A
:1000430012031685D0F05804700320D5B3E804706A
:10005300075002B2D502035592D5EC0460F7E4CC05
:10006300C0E0C398F8603B94186008400DD0E0FBF3
:1000730002032DE4FBFAC9FC8028E830E406E4C956
:10008300FBE4CAFCE830E305E4C9CACBFCE8540747
:100093006010F8C3E913F9EA13FAEB13FBEC13FC52
:1000A300D8F130F52FC3E49CFCEF9BFFEE9AFEEDF5
:1000B30099FDD0E0FBEF4E4D4C701222DB0302039F
:1000C30052EC2CFCEF33FFEE33FEED33FDED30E766
:1000D300EB02032DEF2BFFEE3AFEED39FDD0E0FBF3
:1000E30050130BBB0003020355ED13FDEE13FEEF9C
:0800F30013FFEC13FC02032DC6
:1000FB00EC4D6011E8497017ED33EC3304600DE4FF
:10010B00FCFFFEFD22E933E8330470F802034B12C7
:10011B00031658046009E4CC2481500628500902C8
:10012B000355284003020352C0E0EB4A7044B980E8
:10013B0006D0E0FB020341EF4E701CBD8008EBFFC5
:10014B00EAFEE9FD80EBE98DF0A4FEE5F00201E4A7
:10015B00E9CDF9EAFEEBFFEF89F0A4FCE5F0CE89DF
:10016B00F0A42EFFE435F0CD89F0A42DFEE435F09C
:10017B008067EF4E7005BD80D780C3EF8BF0A4ACCA
:10018B00F0EE8BF0A42CFCE435F0F8EF8AF0A42C05
:10019B00E5F038FCE433CB8DF0A42CFCE5F03BF818
:1001AB00EE8AF0A42CFCE5F038F8E433CF89F0A408
:1001BB002CFCE5F038CF3400CE89F0A42FFFE5F00E
:1001CB003EFEE433C98DF0A42EFEE5F039CD8AF066
:1001DB00A42FFFE5F03EFEE43DFD33D0E0FB5007DE
:1001EB000BBB000F020355EC2CFCEF33FFEE33FE81
:0601FB00ED33FD02032DAF
:10020100020355EC5D046005E85904700302034BD9
:10021100120316580460F6EC4860F2EC7004FDFE1F
:10022100FF22C860DB2481C85009C39860025006D0
:100231000203529850CAF582E9294B4A7005AB82F4
:1002410002034175F0007C1A7880C3EF9BEE9AEDB2
:1002510099400DC3EF9BFFEE9AFEED99FDE842F048
:10026100DC23ACF0D0E0FFD0E0FED0E0FDAB82209B
:10027100E7101BEB60BAEC2CFCEF33FFEE33FEED25
:1002810033FD02032DE803F830E705C0F075F000F7
:10029100EF2FFFEE33FEED33FD40B830E7C280AA09
:1002A10075F020800E75F010800575F0087D007ED8
:1002B100007F003392D530D503120672EC33401023
:1002C100EF33FFEE33FEED33FDEC33FCD5F0ED22E1
:0E02D100E5F0247EA2D513CC92E7CDCEFF221D
:1002DF00EDD2E7CD33EC3392D524814006E4FFFE17
:1002EF00FDFC22FCE4CFCECDCC24E0501174FF8076
:1002FF00EDC3CC13CCCD13CDCE13CECF13CF047013
:07030F00F030D5DE0206729A
:10070300E5082424F582E43401F583E0050822900A
:100713000121300703900124E475F0011206BD02A4
:1007230006082000E97F2ED2008018EF540F249092
:10073300D43440D4FF30040BEF24BFB41A00500369
:100743002461FFE50960021509050CE50C7002053B
:100753000B30070E900121E475F0011206BDEF0284
:10076300064E0220837403D2078003E4C207F50810
:100773009001211206D4E4F509F50BF50CE50960A7
:10078300077F2012074680F5750AFFC201C200C227
:1007930002C203C205C206C208120712FF700D305F
:1007A30007057F00120757AF0CAE0B22B4255FC2BB
:1007B300D5C204120712FF24D0B40A00501A75F0F0
:1007C3000A780930D50508B6FF0106C6A426F62027
:1007D300D5047002D20380D924CFB41A00EF500499
:1007E300C2E5D204020A49D20180C6D20080C0D237
:1007F3000280BCD2D580BAD20580B47F20120746CE
:100803002002077401B5090040F1120703FF120724
:1008130046020780D208D2068095120703FB12070F
:1008230003FA120703F94A4B700679477A0B7BFFE9
:1008330020022EE509602A7E008E8275830012064F
:100843002160060EEE650A70F0C2D5EBC0E0EAC087
:10085300E0E9C0E0EE120AAAD0E0F9D0E0FAD0E075
:10086300FB120608FF60AAEBC0E0EAC0E0E9C0E0C3
:10087300120746D0E02401F9D0E03400FAD0E0FBBF
:10088300E50A0460DCD50AD98087D20280A2120A65
:100893008C60F7E50A700104120360A90A600DE594
:1008A3000A600914F50A120B34EF60F3EA30E70229
:1008B300F404C3995079EAF4250A0430E701E40407
:1008C300F50A800D120A8C60C1EA050A250A120393
:1008D30060EA900150F030E701E4250A04D50A04E8
:1008E30020050114120AAAE4C0E0120B349001504F
:1008F300E0601320E70714F012072E802204F0D0E3
:10090300E014C0E07F0012072EE50A6007120725F6
:10091300150A800B300503120725D0E0020780D0AB
:10092300E00480C4120A8C609EE50A0412036090FE
:100933000150EAF0E50A2005026001042404120ACA
:01094300AA09
:1009440074FF04C0E0120B3412072EE50A200502DE
:100954006003120725D0E0B50AE87F4512073890F6
:100964000150E07F2B30E7047F2DF404C0E0120730
:1009740046D0E075F00A84C0F012072FD0E01207C9
:100984002F020780791080027908C206C208800805
:10099400D2D5790A8004790AC2D5E50A047002F531
:1009A4000AE4FAFDFEFF120703FC7B082001131280
:1009B4000703FD7B1030000A120703FE120703FF32
:1009C4007B20EC3382D592D55013C3E43000069FCC
:1009D400FFE49EFEE42001039DFDE49CFCE4CBF8CF
:1009E400C201EC700CCFCECDCCE824F8F870F380C3
:1009F40017C3EF33FFEE33FEED33FDEC33FCEB3383
:100A0400FB994002FB0FD8E9EB300105F8D0E0C4B4
:100A140048B201C0E00AEC4D4E4F78207B0070C212
:100A2400EAB50A0040BCC0E0120AACD0F0D0E02025
:100A34000104C4C0E0C4B201C0F012072FD0F0D545
:100A4400F0EB0207801206DD081D5309885807EEF3
:100A54004C07EA42098C4F0994440994490803431A
:100A6400099A5508C7460927450891470B67500757
:100A7400F22D07F62E08192B07FA230817200B501E
:100A84002A07B24800000811E50AB4FF03750A06F4
:100A9400120703FC120703FD120703FE120703FFEC
:100AA40090014902039D790AA2D520031430050957
:100AB400B910020404B9080104A2D52006025001A9
:100AC400042002689202B509005034C0E07F20304F
:100AD40003197F30A20272067205500F120B03C273
:100AE40002C206C205C2087F30800F300503E9C088
:100AF400E0120746300503D0E0F9D0E0B509CC3068
:100B040005177F30B9100C1207467F583004077F51
:100B1400788003B908031207463002057F2D0207C7
:100B2400467F202008F87F2B2006F322920280CFF4
:100B34007F00B40700500B2449F582E43401F583A7
:100B4400E0FF22286E756C6C2900D2011207033075
:100B540001F8C201780930D50108F60207B22D5018
:100B64004349581207032403B405004001E4900BE1
:100B74006293120737743A120737D20375090402D5
:020B84000988DE
:10031600E9D2E7C933E833F892D5EDD2E7CD33EC2D
:0703260033FC5002B2D522A6
:10032D00EC30E7100FBF000C0EBE00080DBD000431
:10033D000BEB6014A2D5EB13FCED92E7FD2274FFDD
:10034D00FCFDFEFF22E480F8A2D574FF13FC7D8036
:03035D00E480EF4A
:10036000F920E73624F950037907E4F42402FBE589
:1003700082158270021583DBF6E024FB501BE960D6
:1003800014E4F0E582158270021583E004F0B40AEB
:0D03900008E4F0D9EE7401F00A22C2D52273
:10039D00ED33EC3392D5FA602AB4FF33EDC2E77B2F
:1003AD00FF60067A0379C2E4227A0379CB20D50463
:1003BD007A0379C6224E614E002B494E46002D49D7
:1003CD004E4600E47A08F0A3DAFC7B00740722C0E5
:1003DD0083C082ECC0E0EDC0E0EEC0E0EFC0E0EA2B
:1003ED0075F010A4CAABF075F04DA42BFBE435F0FD
:1003FD00FCEA2410FAEB34C5FBEC34D9FCEDC2E772
:10040D00FF75F056A4F42411C5F0F434C58FF0A493
:10041D002AE5F03BE43CF020E7141204D2D0E0FFD3
:10042D00D0E0FED0E0FDD0E0FC1202048014F40414
:10043D001204D2D0E0FFD0E0FED0E0FDD0E0FC12FF
:10044D0000FBD082D083E0FAEDD2E7CD33EC33243C
:10045D0082FBE4C3CF33CFCE33CECD33CD33DBF3FD
:10046D007B0775F00A846004F0A31B0AE5F0F0A386
:10047D008FF0740AA4FFACF08EF0740AA42CFEACBD
:10048D00F050010C8DF0740AA42CFDE435F0F0A3AE
:05049D00DBDE74072204
:1004A2003F8000004120000042C80000447A000062
:1004B200461C400047C35000497424004B189680E4
:1004C2004CBEBC205A0E1BCA6753C21C749DC5AEDB
:1004D200FB60065407601C2323120500EB543860AE
:1004E200091204EC1204FB1200FBECF8EDF9EEFA2F
:1004F200EFCB22EB1204FB80F1543803241C90044E
:10050200A2FE93FC0EEE93FD0EEE930ECE93FF220F
:0300000002215E7C
:0C215E00787FE4F6D8FD7581210220F4A2
:10051200E709F608DFFA8046E709F208DFFA803ECB
:1005220088828C83E709F0A3DFFA8032E309F608B8
:10053200DFFA8078E309F208DFFA807088828C8320
:10054200E309F0A3DFFA806489828A83E0A3F608D4
:10055200DFFA805889828A83E0A3F208DFFA804CAE
:1005620080D280FA80C680D4806980F28033801085
:1005720080A680EA809A80A880DA80E280CA8033EE
:1005820089828A83ECFAE493A3C8C582C8CCC58366
:10059200CCF0A3C8C582C8CCC583CCDFE9DEE78036
:1005A2000D89828A83E493A3F608DFF9ECFAA9F0B5
:1005B200EDFB2289828A83ECFAE0A3C8C582C8CC0B
:1005C200C583CCF0A3C8C582C8CCC583CCDFEADE24
:1005D200E880DB89828A83E493A3F208DFF980CC86
:1005E20088F0EF60010E4E60C388F0ED2402B4047F
:1005F2000050B9F582EB2402B4040050AF23234526
:06060200822390056273E3
:10060800BB010689828A83E0225002E722BBFE02F0
:09061800E32289828A83E4932223
:10062100BB010CE58229F582E5833AF583E022508E
:1006310006E92582F8E622BBFE06E92582F8E222D8
:0D064100E58229F582E5833AF583E49322F2
:10064E00BB010689828A83F0225002F722BBFE018B
:02065E00F32285
:10066000EF8DF0A4A8F0CF8CF0A428CE8DF0A42EAE
:02067000FE2268
:0E067200C3E49FFFE49EFEE49DFDE49CFC2299
:0C068000ECF0A3EDF0A3EEF0A3EFF022ED
:10068C00A8828583F0D083D0821206A31206A3120F
:10069C0006A31206A3E473E493A3C583C5F0C58334
:1006AC00C8C582C8F0A3C583C5F0C583C8C582C8B8
:0106BC00221B
:1006BD00F8E0FBA3A3E0F925F0F0E58215827002C6
:0706CD001583E0FA38F0226A
:0906D400EBF0A3EAF0A3E9F02227
:1006DD00D083D082F8E4937012740193700DA3A3AC
:1006ED0093F8740193F5828883E4737402936860C0
:0606FD00EFA3A3A380DFC0
:10208300EFB40A07740D12208E740A309811A899C0
:10209300B8130CC2983098FDA899C298B811F630BD
:0720A30099FDC299F5992295
:00000001FF
