:1012750025636000256420253032642F25303264D3
:101285002F2530326420253032643A253032643AD5
:1012950025303264600048656C6C6F20776F726C26
:1012A5006460004D264D277360002D60002D6000A1
:1012B500302030302F30302F30302030303A303041
:0512C5003A303060002A
:10106E0078177C007D017BFF7A12799B7E007F0DC5
:10107E001205E278247C007D017BFF7A1279A87E2E
:10108E00007F071205E2782B7C007D017BFF7A1230
:10109E0079AF7E007F031205E290002E12068C00BF
:1010AE00000000E4900032F0FFFE1212CAE4FFFED0
:1010BE0012122512142A1211BC120B8678007C0013
:1010CE007D017E007F101205E278337C007D017B6E
:1010DE00017A0079007E007F101205E2120E547F15
:1010EE00017E001214A9120CCF78107C007D017EB7
:1010FE00007F071205E27B017A007910120FBF7F85
:08110E00647E001213FB80B1A6
:0D1546007F017E001212CAE4FFFE0212CAED
:0E1538007F037E001212CA7F027E000212CADA
:10111600EF1206DD11A72D11AC2E115730115C31DF
:10112600116132116633116B341170351175361138
:101136007A37117F38118439118941119343119DF2
:101146004511A246118E6211986411B16F0000110B
:10115600B67590C0805D7590F980587590A48053DF
:101166007590B0804E7590998049759092804475BF
:101176009082803F7590F8803A75908080357590A2
:10118600988030759088802B75908380267590C6E0
:1011960080217590A1801C759086801775908E8031
:1011A600127590BF800D75907F80087590FF800343
:0611B6007590AA02154627
:100B86007F027E001212CAC297C296C295C294D242
:100B960093D292D291D290C297D296D295D29412F3
:100BA60015382093089000337401F08005E4900016
:100BB60033F02092089000367401F08005E490002E
:100BC60036F02091089000397401F08005E4900019
:100BD60039F02090089000417401F08005E49000FF
:100BE60041F0D297C29612153820930890003474BB
:100BF60001F08005E4900034F020920890003774EC
:100C060001F08005E4900037F020910890003A74D6
:100C160001F08005E490003AF020900890003C74C2
:100C260001F08005E490003CF0D296C2951215388A
:100C36002093089000357401F08005E4900035F0AB
:100C46002092089000387401F08005E4900038F096
:100C560020910890003B7401F08005E490003BF081
:100C66002090089000427401F08005E4900042F064
:100C7600D295C29412153820930890003D7401F065
:100C86008005E490003DF020920890003E7401F04B
:100C96008005E490003EF020910890003F7401F03A
:100CA6008005E490003FF02090089000407401F029
:100CB6008005E4900040F0D294121538E4FFFE124D
:080CC60012CA7B017A007933A8
:010CCE002203
:100E5400900033E0B401057F31020F0A900034E0C2
:100E6400B401057F32020F0A900035E0B401057F1A
:100E740033020F0A900036E0B401057F34020F0AF2
:100E8400900037E0B401047F35807B900038E0B4F3
:100E940001047F368070900039E0B401047F37800C
:100EA4006590003AE0B401047F38805A90003BE03A
:100EB400B401047F39804F90003DE0B401047F41C8
:100EC400804490003CE0B401047F30803990003EBF
:100ED400E0B401047F62802E90003FE0B401047FFF
:100EE400438023900040E0B401047F6480189000A4
:100EF40041E0B401047F2E800D900042E0B401046F
:0A0F04007F2D80027F6F121116226C
:1014CD00900033EFF07F047E001212CA90003312A9
:0914DD0013F47F057E000212CA1F
:1014E600900050EFF07F067E001212CA9000501254
:0914F60013F47F077E000212CA04
:10142A007F327E001213FB7F381214CD7F057E00B7
:10143A001213FB7F381214CD1213F77F0F1214CD3B
:0F144A001213F77F011214CD7F027E000213FBF5
:0C1553007F011214CD7F027E000213FB0A
:03156B000214E681
:0B131E0090004BEBF0A3EAF0A3E9F015
:10132900E4A3F0A3F090004BE0FBA3E0FAA3E0F9FB
:10133900A3E0FEA3E0FFF5828E83120621646060BC
:101349001B8F828E83120621FF12156B90004FE0CE
:0C13590004F070D190004EE004F080C958
:011365002265
:1014A900EE700DEF24FE600A14600B14600C240327
:1014B900800C7FC0800A7F9480067FD480027F8061
:0414C9001214CD220A
:0513660090003AEFF0D9
:10136B00783B7C007D017BFF7A1279B27E007F0394
:10137B001205E290003AE02430F090004E74FFF03A
:10138B00A37412F0A37475F090003AE0900051F042
:10139B007B017A00793B1207687B017A00793B026B
:0213AB00131E0F
:100F0E00E490007BF0A3F0A3F0A312068C00000087
:100F1E000090008212068C000000007F007E007D93
:100F2E00007C00E4900086F0A3F00F1212257F03E0
:100F3E007E0012122590007DE590F0E4FFFE121265
:100F4E002590007DE0FF7E007C007D05120660ACE2
:100F5E0006AD07E41202A6E4FBFA7980784312028A
:100F6E000490007E120680E4FFFEFD7CBF90007EA2
:100F7E00E0F8A3E0F9A3E0FAA3E0FB12000AE4FB19
:100F8E00FA79C878421200FB9000821206807F66C2
:100F9E007E667DE67C3F900082E0F8A3E0F9A3E058
:100FAE00FAA3E0FB1200FBE4FBFAF9784212000A06
:010FBE002210
:1011BC00E4900039F09000387411F090003774030B
:1011CC00F0900036741AF0900035740CF0900034E6
:1011DC007415F0E4900033F07FF41214597FD4129C
:1011EC0014591214FF7FF7121459783A7C007D01C0
:1011FC007B017A0079337E007F071205E2120D9491
:10120C007FF41214597FD51214597F0D1213AD02AD
:02121C00136657
:1014FF008009EF30E0117FD41214597FD51214599F
:07150F007F0D1213AD80EB0C
:0115160022B2
:10145900900042EFF07F047E0012122590004212A4
:10146900121E7F077E001212251212217F047E00B0
:09147900121225E4FFFE02122507
:0513AD00900042EFF08A
:1013B200E4A3F0900042E0C454F0F0440FF07F0444
:1013C2007E0012122590004212121E7F027E00122F
:1013D2001225900043E590F0E0540FF01212217FA5
:1013E200047E00121225E4FFFE121225900043E053
:0113F200FFFB
:0113F30022D7
:10152800900041EFF01214FF900041E0FF021459BF
:05151700900040EFF020
:0B151C001214FF900040E0FF1213AD1E
:0115270022A1
:100D940090003AE075F00A84AFF012152890003AFA
:100DA400E075F00A844410FF12152890003BE075AA
:100DB400F00A84AFF0EF4420FF12152890003BE0C6
:100DC40075F00A844430FF12152890003CE075F059
:100DD4000A84AFF0EF4440FF12152890003CE07500
:100DE400F00A844450FF12152890003DE075F00A83
:100DF40084AFF0EF4460FF12152890003DE075F0D9
:100E04000A844470FF12152890003EE075F00A84AD
:100E1400AFF0EF4480FF12152890003EE075F00A11
:100E2400844490FF12152890003FE075F00A84AFC7
:100E3400F0EF44A0FF12152890003FE075F00A84FB
:100E440044B0FF121528900040E044C0FF0215286A
:100CCF00E4FF12151790003AEFF07F01121517EF9E
:100CDF0075F00AA4FF90003AE02F900033F07F02E6
:100CEF0012151790003BEFF07F03121517EF75F0F9
:100CFF000AA4FF90003BE02F900034F07F04121500
:100D0F001790003CEFF07F05121517EF75F00AA44E
:100D1F00FF90003CE02F900035F07F0612151790E2
:100D2F00003DEFF07F07121517EF75F00AA4FF9043
:100D3F00003DE02F900036F07F0812151790003E0F
:100D4F00EFF07F09121517EF75F00AA4FF90003E20
:100D5F00E02F900037F07F0A12151790003FEFF049
:100D6F007F0B121517EF75F00AA4FF90003FE02FCD
:100D7F00900038F07F0C121517900039EFF07B01BF
:040D8F007A0079333A
:010D9300223D
:0B0FBF00900033EBF0A3EAF0A3E9F090
:100FCA0078367C007D017BFF7A1279B57E007F1529
:100FDA001205E290004E74FFF0A37412F0A3747924
:100FEA00F0900033E0FBA3E0FAA3E0F990000612C8
:100FFA000621FF900051E4F0A3EFF09000041206DE
:10100A0021FF900053E4F0A3EFF0900003120621B1
:10101A00FF900055E4F0A3EFF0900005120621FFBF
:10102A00900057E4F0A3EFF0900002120621FF901F
:10103A000059E4F0A3EFF0900001120621FF90009E
:10104A005BE4F0A3EFF0120608FF90005DE4F0A362
:10105A00EFF07B017A0079361207687B017A007912
:04106A003602131E19
:1012CA00EE7050EFB40800504A9012DAF8282873EA
:1012DA000212F20212F60212FA0212FE02130202BB
:1012EA001309021310021317C2B2800EC2B2801180
:1012FA00C2B28014C2B28017D2B2C2B1C2B022D274
:10130A00B2C2B1D2B022D2B2D2B1C2B022D2B2D219
:04131A00B1D2B0227A
:07121E00E0F5907F067E0061
:10122500EE704CEFB408005046901235F82828733C
:1012350002124D02125102125502125C0212630291
:10124500127402126702126EC2B48006C2B480091B
:10125500D2B4C2B3C2B522D2B4D2B3C2B522C2B4DB
:101265008002D2B4C2B3D2B522D2B4D2B3D2B5229F
:0713F400E0F5907F017E008F
:1013FB00AD07AC06E41202A67B527AB8794E784060
:10140B001200FB1202DFE4FDFCC3ED9FEC9E500EBD
:0E141B00E4FB0BEBB464FB0DBD00010C80EB99
:0114290022A0
:1000030002034BE86480F8E933E83360110460F0DD
:10001300ED33EC337009E8FCE9FDEAFEEBFF220463
:1000230060DED3EB9FEA9EE99DE8C2E78CF0C2F75E
:1000330095F0400CE8CCF8E9CDF9EACEFAEBCFFB2A
:1000430012031685D0F05804700320D5B3E804706A
:10005300075002B2D502035592D5EC0460F7E4CC05
:10006300C0E0C398F8603B94186008400DD0E0FBF3
:1000730002032DE4FBFAC9FC8028E830E406E4C956
:10008300FBE4CAFCE830E305E4C9CACBFCE8540747
:100093006010F8C3E913F9EA13FAEB13FBEC13FC52
:1000A300D8F130F52FC3E49CFCEF9BFFEE9AFEEDF5
:1000B30099FDD0E0FBEF4E4D4C701222DB0302039F
:1000C30052EC2CFCEF33FFEE33FEED33FDED30E766
:1000D300EB02032DEF2BFFEE3AFEED39FDD0E0FBF3
:1000E30050130BBB0003020355ED13FDEE13FEEF9C
:0800F30013FFEC13FC02032DC6
:1000FB00EC4D6011E8497017ED33EC3304600DE4FF
:10010B00FCFFFEFD22E933E8330470F802034B12C7
:10011B00031658046009E4CC2481500628500902C8
:10012B000355284003020352C0E0EB4A7044B980E8
:10013B0006D0E0FB020341EF4E701CBD8008EBFFC5
:10014B00EAFEE9FD80EBE98DF0A4FEE5F00201E4A7
:10015B00E9CDF9EAFEEBFFEF89F0A4FCE5F0CE89DF
:10016B00F0A42EFFE435F0CD89F0A42DFEE435F09C
:10017B008067EF4E7005BD80D780C3EF8BF0A4ACCA
:10018B00F0EE8BF0A42CFCE435F0F8EF8AF0A42C05
:10019B00E5F038FCE433CB8DF0A42CFCE5F03BF818
:1001AB00EE8AF0A42CFCE5F038F8E433CF89F0A408
:1001BB002CFCE5F038CF3400CE89F0A42FFFE5F00E
:1001CB003EFEE433C98DF0A42EFEE5F039CD8AF066
:1001DB00A42FFFE5F03EFEE43DFD33D0E0FB5007DE
:1001EB000BBB000F020355EC2CFCEF33FFEE33FE81
:0601FB00ED33FD02032DAF
:10020100020355EC5D046005E85904700302034BD9
:10021100120316580460F6EC4860F2EC7004FDFE1F
:10022100FF22C860DB2481C85009C39860025006D0
:100231000203529850CAF582E9294B4A7005AB82F4
:1002410002034175F0007C1A7880C3EF9BEE9AEDB2
:1002510099400DC3EF9BFFEE9AFEED99FDE842F048
:10026100DC23ACF0D0E0FFD0E0FED0E0FDAB82209B
:10027100E7101BEB60BAEC2CFCEF33FFEE33FEED25
:1002810033FD02032DE803F830E705C0F075F000F7
:10029100EF2FFFEE33FEED33FD40B830E7C280AA09
:1002A10075F020800E75F010800575F0087D007ED8
:1002B100007F003392D530D503120672EC33401023
:1002C100EF33FFEE33FEED33FDEC33FCD5F0ED22E1
:0E02D100E5F0247EA2D513CC92E7CDCEFF221D
:1002DF00EDD2E7CD33EC3392D524814006E4FFFE17
:1002EF00FDFC22FCE4CFCECDCC24E0501174FF8076
:1002FF00EDC3CC13CCCD13CDCE13CECF13CF047013
:07030F00F030D5DE0206729A
:10070300E508244EF582E43400F583E005082290E1
:10071300004B30070390004EE475F0011206BD0252
:1007230006082000E97F2ED2008018EF540F249092
:10073300D43440D4FF30040BEF24BFB41A00500369
:100743002461FFE50960021509050CE50C7002053B
:100753000B30070E90004BE475F0011206BDEF025B
:10076300064E0214827403D2078003E4C207F5081D
:1007730090004B1206D4E4F509F50BF50CE509607E
:10078300077F2012074680F5750AFFC201C200C227
:1007930002C203C205C206C208120712FF700D305F
:1007A30007057F00120757AF0CAE0B22B4255FC2BB
:1007B300D5C204120712FF24D0B40A00501A75F0F0
:1007C3000A780930D50508B6FF0106C6A426F62027
:1007D300D5047002D20380D924CFB41A00EF500499
:1007E300C2E5D204020A49D20180C6D20080C0D237
:1007F3000280BCD2D580BAD20580B47F20120746CE
:100803002002077401B5090040F1120703FF120724
:1008130046020780D208D2068095120703FB12070F
:1008230003FA120703F94A4B700679477A0B7BFFE9
:1008330020022EE509602A7E008E8275830012064F
:100843002160060EEE650A70F0C2D5EBC0E0EAC087
:10085300E0E9C0E0EE120AAAD0E0F9D0E0FAD0E075
:10086300FB120608FF60AAEBC0E0EAC0E0E9C0E0C3
:10087300120746D0E02401F9D0E03400FAD0E0FBBF
:10088300E50A0460DCD50AD98087D20280A2120A65
:100893008C60F7E50A700104120360A90A600DE594
:1008A3000A600914F50A120B34EF60F3EA30E70229
:1008B300F404C3995079EAF4250A0430E701E40407
:1008C300F50A800D120A8C60C1EA050A250A120393
:1008D30060EA90007AF030E701E4250A04D50A04BF
:1008E30020050114120AAAE4C0E0120B3490007A26
:1008F300E0601320E70714F012072E802204F0D0E3
:10090300E014C0E07F0012072EE50A6007120725F6
:10091300150A800B300503120725D0E0020780D0AB
:10092300E00480C4120A8C609EE50A0412036090FE
:10093300007AEAF0E50A2005026001042404120AA1
:01094300AA09
:1009440074FF04C0E0120B3412072EE50A200502DE
:100954006003120725D0E0B50AE87F4512073890F6
:10096400007AE07F2B30E7047F2DF404C0E0120707
:1009740046D0E075F00A84C0F012072FD0E01207C9
:100984002F020780791080027908C206C208800805
:10099400D2D5790A8004790AC2D5E50A047002F531
:1009A4000AE4FAFDFEFF120703FC7B082001131280
:1009B4000703FD7B1030000A120703FE120703FF32
:1009C4007B20EC3382D592D55013C3E43000069FCC
:1009D400FFE49EFEE42001039DFDE49CFCE4CBF8CF
:1009E400C201EC700CCFCECDCCE824F8F870F380C3
:1009F40017C3EF33FFEE33FEED33FDEC33FCEB3383
:100A0400FB994002FB0FD8E9EB300105F8D0E0C4B4
:100A140048B201C0E00AEC4D4E4F78207B0070C212
:100A2400EAB50A0040BCC0E0120AACD0F0D0E02025
:100A34000104C4C0E0C4B201C0F012072FD0F0D545
:100A4400F0EB0207801206DD081D5309885807EEF3
:100A54004C07EA42098C4F0994440994490803431A
:100A6400099A5508C7460927450891470B67500757
:100A7400F22D07F62E08192B07FA230817200B501E
:100A84002A07B24800000811E50AB4FF03750A06F4
:100A9400120703FC120703FD120703FE120703FFEC
:100AA40090007302039D790AA2D52003143005092E
:100AB400B910020404B9080104A2D52006025001A9
:100AC400042002689202B509005034C0E07F20304F
:100AD40003197F30A20272067205500F120B03C273
:100AE40002C206C205C2087F30800F300503E9C088
:100AF400E0120746300503D0E0F9D0E0B509CC3068
:100B040005177F30B9100C1207467F583004077F51
:100B1400788003B908031207463002057F2D0207C7
:100B2400467F202008F87F2B2006F322920280CFF4
:100B34007F00B40700500B2473F582E43400F5837E
:100B4400E0FF22286E756C6C2900D2011207033075
:100B540001F8C201780930D50108F60207B22D5018
:100B64004349581207032403B405004001E4900BE1
:100B74006293120737743A120737D20375090402D5
:020B84000988DE
:10031600E9D2E7C933E833F892D5EDD2E7CD33EC2D
:0703260033FC5002B2D522A6
:10032D00EC30E7100FBF000C0EBE00080DBD000431
:10033D000BEB6014A2D5EB13FCED92E7FD2274FFDD
:10034D00FCFDFEFF22E480F8A2D574FF13FC7D8036
:03035D00E480EF4A
:10036000F920E73624F950037907E4F42402FBE589
:1003700082158270021583DBF6E024FB501BE960D6
:1003800014E4F0E582158270021583E004F0B40AEB
:0D03900008E4F0D9EE7401F00A22C2D52273
:10039D00ED33EC3392D5FA602AB4FF33EDC2E77B2F
:1003AD00FF60067A0379C2E4227A0379CB20D50463
:1003BD007A0379C6224E614E002B494E46002D49D7
:1003CD004E4600E47A08F0A3DAFC7B00740722C0E5
:1003DD0083C082ECC0E0EDC0E0EEC0E0EFC0E0EA2B
:1003ED0075F010A4CAABF075F04DA42BFBE435F0FD
:1003FD00FCEA2410FAEB34C5FBEC34D9FCEDC2E772
:10040D00FF75F056A4F42411C5F0F434C58FF0A493
:10041D002AE5F03BE43CF020E7141204D2D0E0FFD3
:10042D00D0E0FED0E0FDD0E0FC1202048014F40414
:10043D001204D2D0E0FFD0E0FED0E0FDD0E0FC12FF
:10044D0000FBD082D083E0FAEDD2E7CD33EC33243C
:10045D0082FBE4C3CF33CFCE33CECD33CD33DBF3FD
:10046D007B0775F00A846004F0A31B0AE5F0F0A386
:10047D008FF0740AA4FFACF08EF0740AA42CFEACBD
:10048D00F050010C8DF0740AA42CFDE435F0F0A3AE
:05049D00DBDE74072204
:1004A2003F8000004120000042C80000447A000062
:1004B200461C400047C35000497424004B189680E4
:1004C2004CBEBC205A0E1BCA6753C21C749DC5AEDB
:1004D200FB60065407601C2323120500EB543860AE
:1004E200091204EC1204FB1200FBECF8EDF9EEFA2F
:1004F200EFCB22EB1204FB80F1543803241C90044E
:10050200A2FE93FC0EEE93FD0EEE930ECE93FF220F
:0300000002155F87
:0C155F00787FE4F6D8FD75812102106E43
:10051200E709F608DFFA8046E709F208DFFA803ECB
:1005220088828C83E709F0A3DFFA8032E309F608B8
:10053200DFFA8078E309F208DFFA807088828C8320
:10054200E309F0A3DFFA806489828A83E0A3F608D4
:10055200DFFA805889828A83E0A3F208DFFA804CAE
:1005620080D280FA80C680D4806980F28033801085
:1005720080A680EA809A80A880DA80E280CA8033EE
:1005820089828A83ECFAE493A3C8C582C8CCC58366
:10059200CCF0A3C8C582C8CCC583CCDFE9DEE78036
:1005A2000D89828A83E493A3F608DFF9ECFAA9F0B5
:1005B200EDFB2289828A83ECFAE0A3C8C582C8CC0B
:1005C200C583CCF0A3C8C582C8CCC583CCDFEADE24
:1005D200E880DB89828A83E493A3F208DFF980CC86
:1005E20088F0EF60010E4E60C388F0ED2402B4047F
:1005F2000050B9F582EB2402B4040050AF23234526
:06060200822390056273E3
:10060800BB010689828A83E0225002E722BBFE02F0
:09061800E32289828A83E4932223
:10062100BB010CE58229F582E5833AF583E022508E
:1006310006E92582F8E622BBFE06E92582F8E222D8
:0D064100E58229F582E5833AF583E49322F2
:10064E00BB010689828A83F0225002F722BBFE018B
:02065E00F32285
:10066000EF8DF0A4A8F0CF8CF0A428CE8DF0A42EAE
:02067000FE2268
:0E067200C3E49FFFE49EFEE49DFDE49CFC2299
:0C068000ECF0A3EDF0A3EEF0A3EFF022ED
:10068C00A8828583F0D083D0821206A31206A3120F
:10069C0006A31206A3E473E493A3C583C5F0C58334
:1006AC00C8C582C8F0A3C583C5F0C583C8C582C8B8
:0106BC00221B
:1006BD00F8E0FBA3A3E0F925F0F0E58215827002C6
:0706CD001583E0FA38F0226A
:0906D400EBF0A3EAF0A3E9F02227
:1006DD00D083D082F8E4937012740193700DA3A3AC
:1006ED0093F8740193F5828883E4737402936860C0
:0606FD00EFA3A3A380DFC0
:10148200EFB40A07740D12148D740A309811A899DA
:10149200B8130CC2983098FDA899C298B811F630CA
:0714A20099FDC299F59922A2
:00000001FF
