:080ABA00E4F5906390FF80FB5E
:100A96007F01EF6010120A3E1209F86F600122EF23
:070AA60025E0FF80ED7F0059
:010AAD002226
:0E0800008B088A09890A8F0E8E0D8D0C8C0BC9
:10080E00E50E24FFF512E50D34FFF511E50C34FF6E
:10081E00F510E50B34FFF50F751BAA751C55E47525
:10082E001601F515F514F513E5165512FFE51555D8
:10083E0011FEE5145510FDE513550FFCE4FBFAF916
:10084E00F8C3120A726028AB08AA09A90A85168293
:10085E00851583E51B120A50AF16AE15AD14AC13F9
:10086E007801120A838F168E158D148C1380B9E4BD
:10087E00F51AF519F518F517AB08AA09A90A851A7C
:10088E0082851983E51C120A50E4751601F515F5DB
:10089E0014F513E5165512FFE5155511FEE5145521
:1008AE0010FDE513550FFCE4FBFAF9F8C3120A72BA
:1008BE006037AB08AA09A90A851682851583120A24
:1008CE0011651B600DE92516F9EA3515FAEB35149D
:1008DE00FB22AF16AE15AD14AC137801120A838F3E
:1008EE00168E158D148C1380AAAB08AA09A90A8539
:1008FE001A82851983E51B120A50E4751A01F5193F
:10090E00F518F517E51A5512FFE5195511FEE518FC
:10091E005510FDE517550FFCE4FBFAF9F8C3120A62
:10092E007270030209F1AB08AA09A90A851A828519
:10093E001983E51C120A501209F8651B60028052D9
:10094E00E4751601F515F514F513E5165512FFE5C8
:10095E00155511FEE5145510FDE513550FFCE4FB7E
:10096E00FAF9F8C3120A726051AB08AA09A90A85EE
:10097E001682851583120A11651B6027AF1AAE19F0
:10098E00AD18AC17AB16AA15A914A813C3120A7288
:10099E006011AB08E50A251AF9E5093519FAEB35A8
:1009AE0018FB22AF16AE15AD14AC137801120A83E4
:1009BE008F168E158D148C138090AB08AA09A90A78
:1009CE00851A82851983E51B120A50AF1AAE19AD2E
:1009DE0018AC177801120A838F1A8E198D188C177E
:0909EE000209127B007A00790075
:0109F70022DD
:03000000020AAE43
:0C0AAE00787FE4F6D8FD75811C020ABABE
:1009F800BB010689828A83E0225002E722BBFE02FD
:090A0800E32289828A83E493222F
:100A1100BB010CE58229F582E5833AF583E022509A
:100A210006E92582F8E622BBFE06E92582F8E222E4
:0D0A3100E58229F582E5833AF583E49322FE
:100A3E00BB010689828A83F0225002F722BBFE0197
:020A4E00F32291
:100A5000F8BB010DE58229F582E5833AF583E8F0DC
:100A6000225006E92582C8F622BBFE05E92582C888
:020A7000F22270
:100A7200EB9FF5F0EA9E42F0E99D42F0E89C45F0DA
:010A82002251
:100A8300E8600FEFC333FFEE33FEED33FDEC33FCD1
:030A9300D8F12275
:00000001FF
