:1018F300252B352E31662046600048656C6C6F20C1
:10190300776F726C6460004D264D277360002B3037
:07191300302E302046600079
:1014CC0078107C007D017BFF7A1879FD7E007F0D02
:1014DC00120DDF781D7C007D017BFF7A19790A7E65
:1014EC00007F07120DDF78247C007D017BFF7A19C9
:1014FC0079117E007F09120DDF90002D120E8900EC
:10150C00000000E4FFFE12179EE4FFFE1217F21219
:10151C0018C412138378007C007D017E007F1012AA
:10152C000DDF78317C007D017B017A0079007E0033
:10153C007F10120DDF12158D1219B2121647900082
:10154C002D120E7D90003474FFF0A37418F0A37468
:10155C00F3F090002DE0FCA3E0FDA3E0FEA3E0FF80
:10156C00900037120E7D7B017A007924120F657B77
:10157C00017A0079241218467FE87E0312189580B0
:01158C0091CD
:0D19A5007F017E0012179EE4FFFE02179ED8
:0E1997007F037E0012179E7F027E0002179EC5
:1016F800EF120EDA17892D178E2E173930173E3153
:10170800174332174833174D3417523517573617C2
:101718005C37176138176639176B41177543177FA0
:1017280045178446177062177A6417936F0000177D
:10173800987590C0805D7590F980587590A4805315
:101748007590B0804E7590998049759092804475D7
:101758009082803F7590F8803A75908080357590BA
:10176800988030759088802B75908380267590C6F8
:1017780080217590A1801C759086801775908E8049
:10178800127590BF800D75907F80087590FF80035B
:061798007590AA0219A5DC
:101383007F027E0012179EC297C296C295C294D264
:1013930093D292D291D290C297D296D295D29412EE
:1013A30019972093089000317401F08005E49000B0
:1013B30031F02092089000347401F08005E490002D
:1013C30034F02091089000377401F08005E4900018
:1013D30037F020900890003F7401F08005E49000FE
:1013E3003FF0D297C2961219972093089000327457
:1013F30001F08005E4900032F020920890003574EB
:1014030001F08005E4900035F020910890003874D5
:1014130001F08005E4900038F020900890003A74C1
:1014230001F08005E490003AF0D296C29512199724
:101433002093089000337401F08005E4900033F0AA
:101443002092089000367401F08005E4900036F095
:101453002091089000397401F08005E4900039F080
:101463002090089000407401F08005E4900040F063
:10147300D295C29412199720930890003B7401F0FF
:101483008005E490003BF020920890003C7401F04A
:101493008005E490003CF020910890003D7401F039
:1014A3008005E490003DF020900890003E7401F028
:1014B3008005E490003EF0D294121997E4FFFE12E7
:0814C300179E7B017A007931CC
:0114CB0022FE
:10158D00900031E0B401057F31021643900032E046
:10159D00B401057F32021643900033E0B401057F9C
:1015AD0033021643900034E0B401057F3402164334
:1015BD00900035E0B401047F35807B900036E0B4B7
:1015CD0001047F368070900037E0B401047F3780CE
:1015DD0065900038E0B401047F38805A900039E0FE
:1015ED00B401047F39804F90003BE0B401047F418A
:1015FD00804490003AE0B401047F30803990003C83
:10160D00E0B401047F62802E90003DE0B401047FC0
:10161D0043802390003EE0B401047F648018900065
:10162D003FE0B401047F2E800D900040E0B4010432
:0A163D007F2D80027F6F1216F82245
:10196500900031EFF07F047E0012179E9000311237
:09197500188E7F057E0002179E0A
:10197E00900036EFF07F067E0012179E9000361212
:09198E00188E7F077E0002179EEF
:1018C4007F327E001218957F381219657F057E00DD
:1018D4001218957F381219651218917F0F12196525
:0F18E4001218917F011219657F027E000218957C
:0C19B2007F011219657F027E000218956B
:0319CA0002197E81
:0B184600900031EBF0A3EAF0A3E9F002
:10185100E4A3F0A3F0900031E0FBA3E0FAA3E0F9E8
:10186100A3E0FEA3E0FFF5828E83120E1E6460608A
:101871001B8F828E83120E1EFF1219CA900035E053
:0C18810004F070D1900034E004F080C945
:01188D002238
:10194100EE700DEF24FE600A14600B14600C24038A
:10195100800C7FC0800A7F9480067FD480027F80C4
:0419610012196522D0
:10164700E4900031F0A3F0A3F0A3120E890000008C
:1016570000900038120E89000000007F007E007D98
:10166700007C00E490003CF0A3F00F1217F27F0219
:101677007E001217F2900033E590F0E4FFFE121798
:10168700F2900033E0FF7E007C007D05120E5DAC1A
:1016970006AD07E4120AA3E4FBFA79807843120A3D
:1016A70001900034120E7DE4FFFEFD7CBF900034F4
:1016B700E0F8A3E0F9A3E0FAA3E0FB120807E4FBD4
:1016C700FA79C878421208F8900038120E7D7F66C2
:1016D7007E667DE67C3F900038E0F8A3E0F9A3E062
:1016E700FAA3E0FB1208F8E4FBFAF97842120807BC
:0116F70022D0
:10179E00EE7050EFB40800504A9017AEF828287338
:1017AE000217C60217CA0217CE0217D20217D602A6
:1017BE0017DD0217E40217EBC2B2800EC2B280111F
:1017CE00C2B28014C2B28017D2B2C2B1C2B022D29B
:1017DE00B2C2B1D2B022D2B2D2B1C2B022D2B2D241
:0417EE00B1D2B022A2
:1017F200EE7050EFB40800504A901802F82828738F
:1018020002181A02181E02182202182602182A02A8
:10181200183102183802183FC2B5800EC2B58011C5
:10182200C2B58014C2B58017D2B5C2B4C2B322D237
:10183200B5C2B4D2B322D2B5D2B4C2B322D2B5D2D7
:04184200B4D2B32247
:07188E00E0F5907F017E00F0
:10189500AD07AC06E4120AA37B527AB8794E7840BC
:1018A5001208F8120ADCE4FDFCC3ED9FEC9E500E15
:0E18B500E4FB0BEBB464FB0DBD00010C80EBFB
:0118C3002202
:10080000020B48E86480F8E933E83360110460F0D3
:10081000ED33EC337009E8FCE9FDEAFEEBFF22045E
:1008200060DED3EB9FEA9EE99DE8C2E78CF0C2F759
:1008300095F0400CE8CCF8E9CDF9EACEFAEBCFFB25
:10084000120B1385D0F05804700320D5B3E8047060
:10085000075002B2D5020B5292D5EC0460F7E4CCFB
:10086000C0E0C398F8603B94186008400DD0E0FBEE
:10087000020B2AE4FBFAC9FC8028E830E406E4C94C
:10088000FBE4CAFCE830E305E4C9CACBFCE8540742
:100890006010F8C3E913F9EA13FAEB13FBEC13FC4D
:1008A000D8F130F52FC3E49CFCEF9BFFEE9AFEEDF0
:1008B00099FDD0E0FBEF4E4D4C701222DB03020B92
:1008C0004FEC2CFCEF33FFEE33FEED33FDED30E764
:1008D000EB020B2AEF2BFFEE3AFEED39FDD0E0FBE9
:1008E00050130BBB0003020B52ED13FDEE13FEEF92
:0808F00013FFEC13FC020B2ABC
:1008F800EC4D6011E8497017ED33EC3304600DE4FA
:10090800FCFFFEFD22E933E8330470F8020B4812BD
:100918000B1358046009E4CC2481500628500902BE
:100928000B52284003020B4FC0E0EB4A7044B980D9
:1009380006D0E0FB020B3EEF4E701CBD8008EBFFBB
:10094800EAFEE9FD80EBE98DF0A4FEE5F00209E19D
:10095800E9CDF9EAFEEBFFEF89F0A4FCE5F0CE89DA
:10096800F0A42EFFE435F0CD89F0A42DFEE435F097
:100978008067EF4E7005BD80D780C3EF8BF0A4ACC5
:10098800F0EE8BF0A42CFCE435F0F8EF8AF0A42C00
:10099800E5F038FCE433CB8DF0A42CFCE5F03BF813
:1009A800EE8AF0A42CFCE5F038F8E433CF89F0A403
:1009B8002CFCE5F038CF3400CE89F0A42FFFE5F009
:1009C8003EFEE433C98DF0A42EFEE5F039CD8AF061
:1009D800A42FFFE5F03EFEE43DFD33D0E0FB5007D9
:1009E8000BBB000F020B52EC2CFCEF33FFEE33FE77
:0609F800ED33FD020B2AA5
:1009FE00020B52EC5D046005E859047003020B48CB
:100A0E00120B13580460F6EC4860F2EC7004FDFE15
:100A1E00FF22C860DB2481C85009C39860025006CB
:100A2E00020B4F9850CAF582E9294B4A7005AB82EA
:100A3E00020B3E75F0007C1A7880C3EF9BEE9AEDA8
:100A4E0099400DC3EF9BFFEE9AFEED99FDE842F043
:100A5E00DC23ACF0D0E0FFD0E0FED0E0FDAB822096
:100A6E00E7101BEB60BAEC2CFCEF33FFEE33FEED20
:100A7E0033FD020B2AE803F830E705C0F075F000ED
:100A8E00EF2FFFEE33FEED33FD40B830E7C280AA04
:100A9E0075F020800E75F010800575F0087D007ED3
:100AAE00007F003392D530D503120E6FEC33401019
:100ABE00EF33FFEE33FEED33FDEC33FCD5F0ED22DC
:0E0ACE00E5F0247EA2D513CC92E7CDCEFF2218
:100ADC00EDD2E7CD33EC3392D524814006E4FFFE12
:100AEC00FDFC22FCE4CFCECDCC24E0501174FF8071
:100AFC00EDC3CC13CCCD13CDCE13CECF13CF04700E
:070B0C00F030D5DE020E6F90
:100F0000E5082434F582E43400F583E005082290F6
:100F10000031300703900034E475F001120EBA027C
:100F20000E052000E97F2ED2008018EF540F249088
:100F3000D43440D4FF30040BEF24BFB41A00500364
:100F40002461FFE50960021509050CE50C70020536
:100F50000B30070E900031E475F001120EBAEF026B
:100F60000E4B02191A7403D2078003E4C207F50876
:100F7000900031120ED1E4F509F50BF50CE509608E
:100F8000077F20120F4380F5750AFFC201C200C21D
:100F900002C203C205C206C208120F0FFF700D3055
:100FA00007057F00120F54AF0CAE0B22B4255FC2B1
:100FB000D5C204120F0FFF24D0B40A00501A75F0E6
:100FC0000A780930D50508B6FF0106C6A426F62022
:100FD000D5047002D20380D924CFB41A00EF500494
:100FE000C2E5D204021246D20180C6D20080C0D22D
:100FF0000280BCD2D580BAD20580B47F20120F43C4
:101000002002077401B5090040F1120F00FF120F12
:1010100043020F7DD208D2068095120F00FB120FFB
:1010200000FA120F00F94A4B700679447A137BFFDD
:1010300020022EE509602A7E008E82758300120E42
:101040001E60060EEE650A70F0C2D5EBC0E0EAC085
:10105000E0E9C0E0EE1212A7D0E0F9D0E0FAD0E06B
:10106000FB120E05FF60AAEBC0E0EAC0E0E9C0E0B9
:10107000120F43D0E02401F9D0E03400FAD0E0FBB5
:10108000E50A0460DCD50AD98087D20280A2121258
:101090008960F7E50A700104120B5DA90A600DE58D
:1010A0000A600914F50A121331EF60F3EA30E7021F
:1010B000F404C3995079EAF4250A0430E701E40402
:1010C000F50A800D12128960C1EA050A250A120B81
:1010D0005DEA900060F030E701E4250A04D50A04D7
:1010E000200501141212A7E4C0E012133190006031
:1010F000E0601320E70714F0120F2B802204F0D0D9
:10110000E014C0E07F00120F2BE50A6007120F22E7
:10111000150A800B300503120F22D0E0020F7DD09C
:10112000E00480C4121289609EE50A04120B5D90EF
:101130000060EAF0E50A20050260010424041212AE
:01114000A707
:1011410074FF04C0E0121331120F2BE50A200502CF
:101151006003120F22D0E0B50AE87F45120F3590E7
:101161000060E07F2B30E7047F2DF404C0E0120F14
:1011710043D0E075F00A84C0F0120F2CD0E0120FBA
:101181002C020F7D791080027908C206C2088008FE
:10119100D2D5790A8004790AC2D5E50A047002F52C
:1011A1000AE4FAFDFEFF120F00FC7B082001131276
:1011B1000F00FD7B1030000A120F00FE120F00FF1E
:1011C1007B20EC3382D592D55013C3E43000069FC7
:1011D100FFE49EFEE42001039DFDE49CFCE4CBF8CA
:1011E100C201EC700CCFCECDCCE824F8F870F380BE
:1011F10017C3EF33FFEE33FEED33FDEC33FCEB337E
:10120100FB994002FB0FD8E9EB300105F8D0E0C4AF
:1012110048B201C0E00AEC4D4E4F78207B0070C20D
:10122100EAB50A0040BCC0E01212A9D0F0D0E0201B
:101231000104C4C0E0C4B201C0F0120F2CD0F0D53B
:10124100F0EB020F7D120EDA101A531185580FEBD5
:101251004C0FE74211894F119144119149100043FC
:1012610011975510C446112445108E471364500F31
:10127100EF2D0FF32E10162B0FF723101420134D03
:101281002A0FAF480000100EE50AB4FF03750A06E5
:10129100120F00FC120F00FD120F00FE120F00FFD3
:1012A100900059020B9A790AA2D52003143005093E
:1012B100B910020404B9080104A2D52006025001A4
:1012C100042002689202B509005034C0E07F20304A
:1012D10003197F30A20272067205500F121300C269
:1012E10002C206C205C2087F30800F300503E9C083
:1012F100E0120F43300503D0E0F9D0E0B509CC305E
:1013010005177F30B9100C120F437F583004077F47
:10131100788003B90803120F433002057F2D020FB5
:10132100437F202008F87F2B2006F322920280CFF2
:101331007F00B40700500B2459F582E43400F58393
:10134100E0FF22286E756C6C2900D201120F00306B
:1013510001F8C201780930D50108F6020FAF2D500E
:10136100434958120F002403B405004001E49013CF
:101371005F93120F34743A120F34D20375090402C9
:021381001185D4
:100B1300E9D2E7C933E833F892D5EDD2E7CD33EC28
:070B230033FC5002B2D522A1
:100B2A00EC30E7100FBF000C0EBE00080DBD00042C
:100B3A000BEB6014A2D5EB13FCED92E7FD2274FFD8
:100B4A00FCFDFEFF22E480F8A2D574FF13FC7D8031
:030B5A00E480EF45
:100B5D00F920E73624F950037907E4F42402FBE584
:100B6D0082158270021583DBF6E024FB501BE960D1
:100B7D0014E4F0E582158270021583E004F0B40AE6
:0D0B8D0008E4F0D9EE7401F00A22C2D5226E
:100B9A00ED33EC3392D5FA602AB4FF33EDC2E77B2A
:100BAA00FF60067A0B79BFE4227A0B79C820D50454
:100BBA007A0B79C3224E614E002B494E46002D49CD
:100BCA004E4600E47A08F0A3DAFC7B00740722C0E0
:100BDA0083C082ECC0E0EDC0E0EEC0E0EFC0E0EA26
:100BEA0075F010A4CAABF075F04DA42BFBE435F0F8
:100BFA00FCEA2410FAEB34C5FBEC34D9FCEDC2E76D
:100C0A00FF75F056A4F42411C5F0F434C58FF0A48E
:100C1A002AE5F03BE43CF020E714120CCFD0E0FFC9
:100C2A00D0E0FED0E0FDD0E0FC120A018014F4040A
:100C3A00120CCFD0E0FFD0E0FED0E0FDD0E0FC12F5
:100C4A0008F8D082D083E0FAEDD2E7CD33EC332432
:100C5A0082FBE4C3CF33CFCE33CECD33CD33DBF3F8
:100C6A007B0775F00A846004F0A31B0AE5F0F0A381
:100C7A008FF0740AA4FFACF08EF0740AA42CFEACB8
:100C8A00F050010C8DF0740AA42CFDE435F0F0A3A9
:050C9A00DBDE740722FF
:100C9F003F8000004120000042C80000447A00005D
:100CAF00461C400047C35000497424004B189680DF
:100CBF004CBEBC205A0E1BCA6753C21C749DC5AED6
:100CCF00FB60065407601C2323120CFDEB543860A5
:100CDF0009120CE9120CF81208F8ECF8EDF9EEFA1B
:100CEF00EFCB22EB120CF880F1543803241C900C3C
:100CFF009FFE93FC0EEE93FD0EEE930ECE93FF220E
:030000000219BE24
:0C19BE00787FE4F6D8FD7581210214CC7E
:100D0F00E709F608DFFA8046E709F208DFFA803EC6
:100D1F0088828C83E709F0A3DFFA8032E309F608B3
:100D2F00DFFA8078E309F208DFFA807088828C831B
:100D3F00E309F0A3DFFA806489828A83E0A3F608CF
:100D4F00DFFA805889828A83E0A3F208DFFA804CA9
:100D5F0080D280FA80C680D4806980F28033801080
:100D6F0080A680EA809A80A880DA80E280CA8033E9
:100D7F0089828A83ECFAE493A3C8C582C8CCC58361
:100D8F00CCF0A3C8C582C8CCC583CCDFE9DEE78031
:100D9F000D89828A83E493A3F608DFF9ECFAA9F0B0
:100DAF00EDFB2289828A83ECFAE0A3C8C582C8CC06
:100DBF00C583CCF0A3C8C582C8CCC583CCDFEADE1F
:100DCF00E880DB89828A83E493A3F208DFF980CC81
:100DDF0088F0EF60010E4E60C388F0ED2402B4047A
:100DEF000050B9F582EB2402B4040050AF23234521
:060DFF008223900D5F73DA
:100E0500BB010689828A83E0225002E722BBFE02EB
:090E1500E32289828A83E493221E
:100E1E00BB010CE58229F582E5833AF583E0225089
:100E2E0006E92582F8E622BBFE06E92582F8E222D3
:0D0E3E00E58229F582E5833AF583E49322ED
:100E4B00BB010689828A83F0225002F722BBFE0186
:020E5B00F32280
:100E5D00EF8DF0A4A8F0CF8CF0A428CE8DF0A42EA9
:020E6D00FE2263
:0E0E6F00C3E49FFFE49EFEE49DFDE49CFC2294
:0C0E7D00ECF0A3EDF0A3EEF0A3EFF022E8
:100E8900A8828583F0D083D082120EA0120EA01200
:100E99000EA0120EA0E473E493A3C583C5F0C58325
:100EA900C8C582C8F0A3C583C5F0C583C8C582C8B3
:010EB9002216
:100EBA00F8E0FBA3A3E0F925F0F0E58215827002C1
:070ECA001583E0FA38F02265
:090ED100EBF0A3EAF0A3E9F02222
:100EDA00D083D082F8E4937012740193700DA3A3A7
:100EEA0093F8740193F5828883E4737402936860BB
:060EFA00EFA3A3A380DFBB
:10191A00EFB40A07740D121925740A309811A899A0
:10192A00B8130CC2983098FDA899C298B811F6302D
:07193A0099FDC299F5992205
:00000001FF
