:100E5D0048656C6C6F20776F726C6460004D264D29
:040E6D002773600087
:100D4A0078187C007D007BFF7A0E795D7E007F0D2E
:100D5A00120A9578257C007D007BFF7A0E796A7EDF
:100D6A00007F07120A95C2B1C2B0C2B3120E0A7F3F
:100D7A00017E00120E397B007A007918120DD47F99
:100D8A00027E00120E397B007A007925120DD4807A
:010D9A00FE5A
:050E9F00D2B0C2B02238
:050EA400D2B1C2B12231
:050EA900D2B3C2B32228
:100C0C00EF120AF60C9D2D0CA22E0C4D300C52310D
:100C1C000C57320C5C330C61340C66350C6B360C97
:100C2C0070370C75380C7A390C7F410C89430C9356
:100C3C00450C98460C84620C8E640CA76F00000C5B
:100C4C00AC7590C0805D7590F980587590A48053F8
:100C5C007590B0804E7590998049759092804475CE
:100C6C009082803F7590F8803A75908080357590B1
:100C7C00988030759088802B75908380267590C6EF
:100C8C0080217590A1801C759086801775908E8040
:100C9C00127590BF800D75907F80087590FF800352
:060CAC007590AA020E9FE4
:100B1C00C2B2C297C296C295C294D293D292D291CB
:100B2C00D290C297D296D295D294120EA42093054D
:100B3C007531018003E4F531209205753401800391
:100B4C00E4F5342091057537018003E4F5372090E6
:100B5C0005753F018003E4F53FD297C296120EA4AF
:100B6C002093057532018003E4F53220920575352A
:100B7C00018003E4F5352091057538018003E4F517
:100B8C0038209005753A018003E4F53AD296C29567
:100B9C00120EA42093057533018003E4F5332092E3
:100BAC00057536018003E4F5362091057539018011
:100BBC0003E4F5392090057540018003E4F540D23B
:100BCC0095C294120EA4209305753B018003E4F5A5
:100BDC003B209205753C018003E4F53C20910575A2
:100BEC003D018003E4F53D209005753E018003E452
:0F0BFC00F53ED294120EA4D2B27B007A0079316A
:010C0B0022C6
:100CB200E541B401057F31020D46E542B401057FED
:100CC20032020D46E543B401047F338077E544B434
:100CD20001047F34806EE545B401047F358065E50B
:100CE20046B401047F36805CE547B401047F378057
:100CF20053E548B401047F38804AE549B401047FD2
:100D0200398041E54BB401047F418038E54AB401A2
:100D1200047F30802FE54CB401047F628026E54DCC
:100D2200B401047F43801DE54EB401047F64801446
:100D3200E54FB401047F2E800BE550B401047F2DF2
:080D420080027F6F120C0C22ED
:080E9700C2B4120D9BC2B5228A
:0E0E7100D2B4120D9BC2B57F017E00020DA609
:100E0A007F327E00120DA67F38120E977F057E0074
:100E1A00120DA67F38120E97120DA27F0F120E978F
:0F0E2A00120DA27F01120E977F027E00020DA60D
:0C0E7F007F01120E977F027E00020DA67C
:030EAE00020E71C0
:060DD4008B2C8A2D892EF4
:100DDA00E4F52FF530AB2CAA2DA92E853082852F6C
:100DEA0083120ABB64606017853082852F83120ADA
:0F0DFA00BBFF120EAE0530E53070DA052F80D644
:010E090022C6
:100E3900EE700DEF24FE600A14600B14600C24039D
:100E4900800C7FC0800A7F9480067FD480027F80D7
:040E5900120E9722BC
:0B0D9B00D2B58F90120EA97F017E00E0
:100DA600AD07AC06E412090B7B527AB8794E78404F
:100DB600120800120944E4FDFCC3ED9FEC9E500DA1
:0D0DC600E4FB0BBB64FC0DBD00010C80ECD8
:010DD30022FD
:10080000EC4D6011E8497017ED33EC3304600DE4F2
:10081000FCFFFEFD22E933E8330470F80209B01250
:10082000097B58046009E4CC248150062850090251
:1008300009BA2840030209B7C0E0EB4A7044B98006
:1008400006D0E0FB0209A6EF4E701CBD8008EBFF4E
:10085000EAFEE9FD80EBE98DF0A4FEE5F00208E98F
:10086000E9CDF9EAFEEBFFEF89F0A4FCE5F0CE89D3
:10087000F0A42EFFE435F0CD89F0A42DFEE435F090
:100880008067EF4E7005BD80D780C3EF8BF0A4ACBE
:10089000F0EE8BF0A42CFCE435F0F8EF8AF0A42CF9
:1008A000E5F038FCE433CB8DF0A42CFCE5F03BF80C
:1008B000EE8AF0A42CFCE5F038F8E433CF89F0A4FC
:1008C0002CFCE5F038CF3400CE89F0A42FFFE5F002
:1008D0003EFEE433C98DF0A42EFEE5F039CD8AF05A
:1008E000A42FFFE5F03EFEE43DFD33D0E0FB5007D2
:1008F0000BBB000F0209BAEC2CFCEF33FFEE33FE0A
:06090000ED33FD02099237
:1009060075F020800E75F010800575F0087D007E6C
:10091600007F003392D530D503120AE8EC3340103D
:10092600EF33FFEE33FEED33FDEC33FCD5F0ED2275
:0E093600E5F0247EA2D513CC92E7CDCEFF22B1
:10094400EDD2E7CD33EC3392D524814006E4FFFEAB
:10095400FDFC22FCE4CFCECDCC24E0501174FF800A
:10096400EDC3CC13CCCD13CDCE13CECF13CF0470A7
:07097400F030D5DE020AE8B5
:10097B00E9D2E7C933E833F892D5EDD2E7CD33ECC2
:07098B0033FC5002B2D5223B
:10099200EC30E7100FBF000C0EBE00080DBD0004C6
:1009A2000BEB6014A2D5EB13FCED92E7FD2274FF72
:1009B200FCFDFEFF22E480F8A2D574FF13FC7D80CB
:0309C200E480EFDF
:03000000020E8B62
:0C0E8B00787FE4F6D8FD758150020D4A16
:1009C500E709F608DFFA8046E709F208DFFA803E14
:1009D50088828C83E709F0A3DFFA8032E309F60801
:1009E500DFFA8078E309F208DFFA807088828C8369
:1009F500E309F0A3DFFA806489828A83E0A3F6081D
:100A0500DFFA805889828A83E0A3F208DFFA804CF6
:100A150080D280FA80C680D4806980F280338010CD
:100A250080A680EA809A80A880DA80E280CA803336
:100A350089828A83ECFAE493A3C8C582C8CCC583AE
:100A4500CCF0A3C8C582C8CCC583CCDFE9DEE7807E
:100A55000D89828A83E493A3F608DFF9ECFAA9F0FD
:100A6500EDFB2289828A83ECFAE0A3C8C582C8CC53
:100A7500C583CCF0A3C8C582C8CCC583CCDFEADE6C
:100A8500E880DB89828A83E493A3F208DFF980CCCE
:100A950088F0EF60010E4E60C388F0ED2402B404C7
:100AA5000050B9F582EB2402B4040050AF2323456E
:060AB5008223900A157374
:100ABB00BB010CE58229F582E5833AF583E02250F0
:100ACB0006E92582F8E622BBFE06E92582F8E2223A
:0D0ADB00E58229F582E5833AF583E4932254
:0E0AE800C3E49FFFE49EFEE49DFDE49CFC221F
:100AF600D083D082F8E4937012740193700DA3A38F
:100B060093F8740193F5828883E4737402936860A2
:060B1600EFA3A3A380DFA2
:00000001FF
