:100E84002530345860002530325860004D65676164
:100E94006E2042697264204345454E20343333301A
:100EA40060002D2D2D2D2D2D2D2D2D2D2D2D2D2D68
:100EB4002D2D2D2D2D2D60004D61696E204D656EFB
:100EC400756000313A204D656D6F72792020323A99
:100ED4002053657269616C600053657269616C20AE
:100EE400536574757060002D2D2D2D2D2D2D2D2DF8
:100EF4002D2D2D2D2D2D2D2D2D2D2D600042617587
:100F04006420526174653A20600020313230302010
:100F140032343030203438303020393630306000CC
:100F24005061726974793A20600020313A204F642C
:100F3400642020202020323A204576656E2060000F
:100F4400202020202020202020202020202020209D
:100F54002020202060004576656E60004F64646048
:100F64000053746F7020426974733A2060003160DA
:100F740000326000456E74657220342063686172CB
:100F84007320666F72205458600043686172732046
:100F94007472616E736D69747465642020206000DE
:100FA40023203A2052657475726E20746F204D614F
:100FB400696E202060004D656D6F7279204D656EFD
:100FC40075600031203A2044756D70202020203255
:100FD400203A204D6F7665600033203A20456469DD
:100FE400742020202034203A2046696E6460002357
:100FF400203A2052657475726E20746F204D6169B9
:101004006E2020600044756D7020536574757060A7
:101014000053746172742053656720416464723AAA
:10102400206000426C6F636B2053697A653A2060DC
:1010340000313A3C2D2D2020323A2D2D3E20202304
:101044003A4578697460004D6F7665205365747510
:10105400706000536F757263652053656720416447
:1010640064723A20600044657374205365672041BC
:101074006464723A206000426C6F636B2053697A37
:10108400653A2060004D6F766520436F6D706C6526
:1010940074656000233A4578697460004564697436
:1010A40020536574757060005365676D656E7420B8
:1010B400416464723A2060004F666673657420412F
:1010C4006464723A2060004E65772056616C7565E1
:1010D4003A2060004564697420436F6D706C6574D8
:1010E400656000303A436F6E74696E756520202028
:1010F40020233A45786974600046696E642053651C
:101104007475706000537461727420536567204174
:101114006464723A206000426C6F636B2053697A96
:10112400653A2060005365617263682056616C758E
:10113400653A20600056616C756520666F756E6453
:10114400206174600056616C7565206E6F74206652
:101154006F756E64216000233A4578697460002DD0
:101164002D2D2D2D2D2D2D60002D2D2D2D2D60009F
:0E22BB00E4FFFE121FF31221EF121E4E80FEF2
:101E4E0078107C007D017BFF7A0E79907E007F16E4
:101E5E001205E278267C007D017BFF7A0E79A67E44
:101E6E00007F161205E2783C7C007D017BFF7A0E26
:101E7E0079BC7E007F0B1205E278477C007A0E79E2
:101E8E00C71222A47B017A0079101220EC7F027E09
:101E9E00001222277B017A0079261220EC122223CF
:101EAE007B017A00793C1220EC7F047E00122227FF
:101EBE007B017A0079471220EC121A7478007C00AC
:101ECE007D017E007F101205E2900000E0B4010952
:101EDE00121BC1121CAC021E4E900001E0B401D9BF
:091EEE00121BC1120B64021E4E0E
:100B6400E490006DF0A3F0A3F0A3F0A3F0A3F0A32E
:0E0B7400F0A3F0A3F090006DE06003020E838A
:100B820078767C007D017BFF7A0E79DDFE7F0E1286
:100B920005E278847C007D017BFF7A0E79EB7E0092
:100BA2007F161205E2789A7C007D017BFF7A0F792D
:100BB200017E007F0D1205E278A77C007D017BFF9C
:100BC2007A0F790E7E007F161205E278BD7C007DD9
:100BD200017BFF7A0F79247E007F0A1205E278C733
:100BE2007C007D017BFF7A0F792E7E007F16120535
:100BF200E278DD7C007D017BFF7A0F79447E007F05
:100C0200161205E278F37C007D017BFF7A0F795A98
:100C12007E007F061205E278F97C007D017BFF7A77
:100C22000F79607E007F051205E278FE7C007D016F
:100C32007BFF7A0F79657E007F0D1205E2780B7CCF
:100C4200017D017BFF7A0F79727E007F031205E23C
:100C5200780E7C017D017BFF7A0F79757E007F0320
:100C62001205E278117C017D017BFF7A0F79787E93
:100C7200007F161205E278277C017D017BFF7A0F47
:100C8200798E7E007F161205E2783D7C017A0F791B
:100C9200A41222A47B017A0079761220EC7F027ED4
:100CA200001222277B017A0079841220EC90006ED8
:100CB200E0FEA3E0FF7003EE64126047EF7003EE04
:100CC2006424603FEF7003EE64486037EF7003EE18
:100CD2006496602F7F047E001222277B017A0079BE
:100CE200A71220EC1222231220E61222237B017A81
:100CF20000799A1220EC121F9D90006EEEF0A3EF85
:100D0200F080AA7F047E001222277B017A0079C735
:100D12001220EC1222231220E61222237B017A00F7
:100D220079BD1220EC121A74785D7C007D017E0080
:100D32007F101205E290005DE0B40110121BC1E4C5
:100D4200900070F07B017A0079F9801590005EE0E6
:100D5200B401D2121BC19000707401F0FB7A0079C9
:100D6200F31220EC7FF47E011221C07F047E001278
:100D720022271220E61222231220E61222237B01CE
:100D82007A0079FE1220EC121A74785D7C007D01E3
:100D92007E007F101205E290005DE0B40110121B8C
:100DA200C19000717401F0FB7A01790B80159000FB
:100DB2005EE0B401D2121BC1E4900071F07B017AB3
:100DC20001790E1220EC7FE87E031221C01222AFBD
:100DD2007B017A0179111220EC7F027E0012222718
:100DE200121F9D900072EEF0A3EFF0758920900023
:100DF2006EE0FEA3E08EF01206B40E1012000E1387
:100E020024000E1648000E19960000000E1C758D67
:100E1200E8758DF4758DFA758DFD7598C0D28EE4E6
:100E2200900074F0A3F07599013099FDC299900079
:100E320075E004F07006900074E004F0900074E035
:100E42007004A3E0640470DE1222237B017A01792C
:100E5200271220EC7F047E001222277B017A01797F
:100E62003D1220EC121A74785D7C007D017E007FB9
:100E7200101205E290006CE0B401E9121BBD020BF6
:010E820079F6
:010E8300224C
:0E1CAC00E490006DF090006DE06003021D9367
:101CBA00786E7C007D017BFF7A0F79BAFE7F0D1268
:101CCA0005E2787B7C007D017BFF7A0F79C77E0075
:101CDA007F161205E278917C007D017BFF7A0F79ED
:101CEA00DD7E007F161205E278A77C007D017BFF6E
:101CFA007A0F79F31222A87B017A00796E1220EC0E
:101D0A007F027E001222277B017A00797B1220EC67
:101D1A001222237B017A0079911220EC7F047E0043
:101D2A001222277B017A0079A71220EC121A747802
:101D3A005D7C007D017E007F101205E290006CE060
:101D4A00B40106121BBD021CB190005DE0B401098A
:101D5A00121BC1121174021CB190005EE0B4010999
:101D6A00121BC11213EC021CB190005FE0B401090E
:101D7A00121BC11215A3021CB1900060E0B401ACA1
:091D8A00121BC1121754021CB116
:011D9300222D
:1011740078D77C007D017BFF7A1079097E007F0C93
:101184001205E278E37C007D017BFF7A1079157EFD
:10119400007F121205E278F57C007D017BFF7A1056
:1011A40079277E007F0E1205E278037C017D017BA6
:1011B400FF7A1079357E007F161205E2E49000CDA7
:1011C400F0A3F0A3F0A3F0A3F0A3F0A3F01222AFD6
:1011D4007B017A0079D71220EC1222237B017A005A
:1011E40079E31220EC121F9D9000CEEEF0A3EFF0F5
:1011F4007F047E001222277B017A0079F51220EC0D
:101204009000D0E07002A3E0700D121F9D9000D0FA
:10121400EEF0A3EFF080E99000CDE060030213EB61
:101224001222AF9000CE1220977F3A1222F0900043
:10123400D21220977F027E00122227E49000D5F07C
:10124400A3F09000D5E0FEA3E0FFC39407EE648012
:10125400948050749000D2E0FCA3E0FD2FFFEC3E9C
:10126400FED39000D1E09F9000D0E09E40499000D2
:10127400CFE0C4F8540FC868FF9000CEE0C454F027
:1012840048FEED2FFFEC3EFE9000D6E02FFF9000CD
:10129400D5E03E8F82F583E09000D4F0E0FF122188
:1012A40034C39000D6E094069000D5E06480948026
:1012B40050057F201222F09000D6E004F070839055
:1012C40000D5E004F0021246122223E49000D5F087
:1012D400A3F09000D5E0FEA3E0FFC39407EE648082
:1012E400948050799000D2E0FCA3E0FD2FFFEC3E07
:1012F400FED39000D1E09F9000D0E09E404E90003D
:10130400CFE0C4F8540FC868FF9000CEE0C454F096
:1013140048FEED2FFFEC3EFE9000D6E02FFF90003C
:10132400D5E03E8F82F583E09000D4F0E0FF1222F6
:10133400F37F201222F0C39000D6E094069000D5EB
:10134400E06480948050057F201222F09000D6E063
:1013540004F070069000D5E004F00212D67F047EFB
:10136400001222277B017A0179031220EC121A74ED
:1013740078BD7C007D017E007F101205E29000CCD8
:10138400E0B40106121BBD02121B9000BDE0B401C3
:1013940017121BC1C39000D3E094079000D2E094CD
:1013A40000500302121B80309000BEE0B401BE1254
:1013B4001BC19000D3E02407F09000D2E03400F089
:1013C4009000D0E0FEA3E0FFD39000D3E09F900014
:1013D400D2E09E500302121BA3E024F9F09000D245
:0713E400E034FFF002121BD0
:0113EB0022DF
:1013EC0078D87C007D017BFF7A10794B7E007F0CD6
:1013FC001205E278E47C007D017BFF7A1079577E40
:10140C00007F131205E278F77C007D017BFF7A10D8
:10141C00796A7E007F111205E278087C017D017BE0
:10142C00FF7A10797B7E007F0E1205E278167C0124
:10143C007D017BFF7A1079897E007F0F1205E2789F
:10144C00257C017D017BFF7A1079987E007F081244
:10145C0005E2E49000CDF0A3F0A3F0A3F0A3F0A379
:10146C00F0A3F0A3F0A3F0A3F0A3F01222AF7B0142
:10147C007A0079D81220EC7F027E001222277B01A1
:10148C007A0079E41220EC121F9D9000CE12221EDD
:10149C007B017A0079F71220EC121F9D9000D0EEA0
:1014AC00F0A3EFF07F047E001222277B017A0179F2
:1014BC00081220EC9000D2E07002A3E0700D121F15
:1014CC009D9000D2EEF0A3EFF080E99000CDE060AB
:1014DC00030215A21222AF7B017A0179161220ECBD
:1014EC007F047E001222277B017A0179251220ECE1
:1014FC009000D6E0FEA3E0FF9000D4E0FCA3E0FD5A
:10150C002FFFEC3EFED39000D3E09F9000D2E09EE4
:10151C0040679000CFE0C4F8540FC868FF9000CE2D
:10152C00E0C454F048FEED2FFFEC3EFE9000D7E0F7
:10153C002FFF9000D6E03E8F82F583E0FB9000D128
:10154C00E0C4F8540FC868FF9000D0E0C454F048D1
:10155C00FEED2FFFEC3EFE9000D7E02FFF9000D663
:10156C00E03E8F82F583EBF09000D7E004F07080C2
:10157C009000D6E004F00214FC121A7478BD7C00C2
:10158C007D017E007F101205E29000CCE0B401E9F1
:06159C00121BBD0214D772
:0115A2002226
:1015A30078D47C007D017BFF7A1079A07E007F0CCC
:1015B3001205E278E07C007D017BFF7A1079AC7E36
:1015C300007F101205E278F07C007D017BFF7A102A
:1015D30079BC7E007F0F1205E278FF7C007D017BE2
:1015E300FF7A1079CB7E007F0D1205E2780C7C0127
:1015F3007D017BFF7A1079D87E007F0F1205E27898
:101603001B7C017D017BFF7A1079E77E007F161238
:1016130005E2E49000CDF0A304F0E4A3F0A3F0A36B
:10162300F0A3F0A374AAF01222AF7B017A0079D45D
:101633001220EC7F027E001222277B017A0079E0E0
:101643001220EC121F9D9000CF12221E7B017A0004
:1016530079F01220EC121F9D9000D1EEF0A3EFF071
:101663009000CDE06003021753A3E064016003021E
:10167300171E1222AF9000CF1220977F3A1222F04A
:101683009000D11220977F201222F09000D0E0C466
:10169300F8540FC868FF9000CFE0C454F048FE90A0
:1016A30000D2E02FFF9000D1E03E8F82F583E0FF70
:1016B3001221347F027E001222277B017A0079FFF8
:1016C3001220EC1221799000D3EFF0FD9000D0E0CE
:1016D300C4F8540FC868FF9000CFE0C454F048FE2C
:1016E3009000D2E02FFF9000D1E03E8F82F583ED92
:1016F300F01222237B017A01790C1220EC7F047E05
:10170300001222277B017A01791B1220EC9000D270
:10171300E004F070069000D1E004F0121A7478BD72
:101723007C007D017E007F101205E29000CCE0B4C6
:10173300010BE49000CEF09000CD04800C9000C625
:10174300E0B401D79000CE7401F0121BC1021663FE
:011753002273
:1017540078D57C007D017BFF7A1079FD7E007F0CBB
:101764001205E278E17C007D017BFF7A1179097E24
:10177400007F121205E278F37C007D017BFF7A1171
:10178400791B7E007F0E1205E278017C017D017BCE
:10179400FF7A1179297E007F101205E278117C010D
:1017A4007D017BFF7A1179397E007F101205E27882
:1017B400217C017D017BFF7A1179497E007F121221
:1017C40005E278337C017D017BFF7A11795B7E0031
:1017D4007F081205E2E49000CDF0A3F0A3F0A3F09B
:1017E400A3F0A3F0A3F0A3F07DAA1222AF7B017AA9
:1017F4000079D51220EC7F027E001222277B017A29
:101804000079E11220EC121F9D9000CF12221E7B62
:10181400017A0079F31220EC121F9D9000D3EEF0B0
:10182400A3EFF07F047E001222277B017A01790165
:101834001220EC122179AD079000D3E0FEA3E0FF63
:101844009000D1E0FAA3E0FBC39FEA9E503A9000D7
:10185400D0E0C4F8540FC868FF9000CFE0C454F03F
:1018640048FEEB2FFFEA3E8F82F583E0FFB50508C3
:101874009000CE7401F080109000D2E004F070B8B3
:101884009000D1E004F080B01222AF9000CEE0646A
:10189400017B0170217A0179111220EC7F027E0014
:1018A4001222279000CF1220977F3A1222F0900044
:1018B400D112209780077A0179211220EC7F047ECF
:1018C400001222277B017A0179331220EC9000CD9B
:1018D400E0701C121A7478BD7C007D017E007F10BC
:0F18E4001205E29000CCE0B401E9121BBD80DEDA
:0118F30022D2
:101F9D00E4900153F0A3F0A3F0A3F0900154E0C43A
:101FAD00F8540FC868F0900153E0C454F048F01293
:101FBD0018F4900154E02FF0900153E03EF09001A1
:101FCD0056E004F07006900155E004F0C390015600
:101FDD00E09404900155E06480948040BE900153DC
:051FED00E0FEA3E0FF8F
:011FF20022CC
:10217900E490013BF0A3F0A3F090013BE0FFC454CD
:10218900F0F01218F490013BE02FF090013DE004CB
:10219900F0700690013CE004F0C390013DE0940228
:0F21A90090013CE06480948040CF90013BE0FFC8
:0121B8002204
:1018F40074FF900167F0A3F0A3747EF0900167E099
:10190400F47003A3E0F46003021A60121A747857A7
:101914007C017D017E007F101205E2900160E0B43D
:10192400010BE4900167F0A3F0A37430F090015729
:10193400E0B4010C900167E4F0A304F0A37431F067
:10194400900158E0B4010D900167E4F0A37402F033
:10195400A37432F0900159E0B4010D900167E4F0F2
:10196400A37403F0A37433F090015AE0B4010D9012
:101974000167E4F0A37404F0A37434F090015BE015
:10198400B4010D900167E4F0A37405F0A37435F07D
:1019940090015CE0B4010D900167E4F0A37406F0DB
:1019A400A37436F090015DE0B4010D900167E4F09A
:1019B400A37407F0A37437F090015EE0B4010D90B6
:1019C4000167E4F0A37408F0A37438F090015FE0B9
:1019D400B4010D900167E4F0A37409F0A37439F025
:1019E400900161E0B4010D900167E4F0A3740AF082
:1019F400A37441F0900162E0B4010D900167E4F03A
:101A0400A3740BF0A37442F0900163E0B4010D9051
:101A14000167E4F0A3740CF0A37443F0900164E054
:101A2400B4010D900167E4F0A3740DF0A37444F0C5
:101A3400900165E0B4010D900167E4F0A3740EF029
:101A4400A37445F0900166E064016003021900A3E9
:101A5400F0A3740FF0A37446F0021900900169E03A
:0F1A6400FF1222F0121BC1900167E0FEA3E0FF0A
:011A73002250
:041BBD00A37401F01C
:101BC100E490017AF090017AE06003021CA504F030
:101BD100121A74786A7C017D017E007F101205E281
:101BE100900173E0B40105E490017AF090016AE09C
:101BF100B40105E490017AF090016BE0B40105E4D1
:101C010090017AF090016CE0B40105E490017AF062
:101C110090016DE0B40105E490017AF090016EE06D
:101C2100B40105E490017AF090016FE0B40105E49C
:101C310090017AF0900170E0B40105E490017AF02E
:101C4100900171E0B40105E490017AF0900172E035
:101C5100B40105E490017AF0900174E0B40105E467
:101C610090017AF0900175E0B40105E490017AF0F9
:101C7100900176E0B40105E490017AF0900177E0FB
:101C8100B40105E490017AF0900178E0B40105E433
:101C910090017AF0900179E064016003021BC6A310
:0B1CA100F0021BC67F647E000221C021
:0D22D7007F017E00121FF3E4FFFE021FF3E3
:0E22C9007F037E00121FF37F027E00021FF3D0
:101EF700EF12068E1F882D1F8D2E1F38301F3D3184
:101F07001F42321F47331F4C341F51351F56361F90
:101F17005B371F60381F65391F6A411F74431F7E77
:101F2700451F83461F6F621F79641F926F00001F52
:101F3700977590C0805D7590F980587590A480530F
:101F47007590B0804E7590998049759092804475D0
:101F57009082803F7590F8803A75908080357590B3
:101F6700988030759088802B75908380267590C6F1
:101F770080217590A1801C759086801775908E8042
:101F8700127590BF800D75907F80087590FF800354
:061F97007590AA0222D79A
:101A74007F027E00121FF3C297C296C295C294D20F
:101A840093D292D291D290C297D296D295D29412F6
:101A940022C920930890017B7401F08005E4900131
:101AA4007BF020920890017E7401F08005E490019F
:101AB4007EF02091089001817401F08005E490018A
:101AC40081F02090089001897401F08005E4900170
:101AD40089F0D297C2961222C920930890017C748F
:101AE40001F08005E490017CF020920890017F745D
:101AF40001F08005E490017FF02091089001827448
:101B040001F08005E4900182F02090089001847433
:101B140001F08005E4900184F0D296C2951222C9A6
:101B240020930890017D7401F08005E490017DF01C
:101B34002092089001807401F08005E4900180F007
:101B44002091089001837401F08005E4900183F0F2
:101B540020900890018A7401F08005E490018AF0D5
:101B6400D295C2941222C92093089001857401F081
:101B74008005E4900185F02092089001867401F0BC
:101B84008005E4900186F02091089001877401F0AB
:101B94008005E4900187F02090089001887401F09A
:101BA4008005E4900188F0D2941222C9E4FFFE1269
:081BB4001FF37B017A01797B2C
:011BBC002206
:101D940090018BE0B401057F31021E4A90018CE072
:101DA400B401057F32021E4A90018DE0B401057F23
:101DB40033021E4A90018EE0B401057F34021E4AAC
:101DC40090018FE0B401047F35807B900190E0B4F2
:101DD40001047F368070900191E0B401047F378064
:101DE40065900192E0B401047F38805A900193E039
:101DF400B401047F39804F900195E0B401047F4120
:101E04008044900194E0B401047F308039900196BD
:101E1400E0B401047F62802E900197E0B401047F56
:101E2400438023900198E0B401047F6480189001FA
:101E340099E0B401047F2E800D90019AE0B401046E
:0A1E44007F2D80027F6F121EF7222F
:10227200900153EFF07F047E00121FF3900153127E
:0922820021B97F057E00021FF363
:10228B0090016AEFF07F067E00121FF390016A1235
:09229B0021B97F077E00021FF348
:1021EF007F327E001221C07F381222727F057E005F
:1021FF001221C07F381222721221BC7F0F1222725D
:0F220F001221BC7F011222727F027E000221C0C9
:0B22A4007D017BFF7E007F161205E22B
:0C22AF007F011222727F027E000221C01B
:0322F00002228B3C
:0620E6007B017A0079DDA8
:0B20EC00900153EBF0A3EAF0A3E9F031
:1020F700E4A3F0A3F0900153E0FBA3E0FAA3E0F917
:10210700A3E0FEA3E0FFF5828E83120621646060E0
:102117001B8F828E83120621FF1222F0900157E057
:0C21270004F070D1900156E004F080C973
:012133002289
:09221E00EEF0A3EFF07F037E0057
:10222700EE700DEF24FE600A14600B14600C24039B
:10223700800C7FC0800A7F9480067FD480027F80D5
:0422470012227222CB
:05209700E0FEA3E0FFE4
:08209C0090013BEEF0A3EFF010
:1020A400783D7C017D017BFF7A1179637E007F0A94
:1020B4001205E290014A74FFF0A3740EF0A3748435
:1020C400F090013BE0FFA3E090014DCFF0A3EFF0CF
:1020D4007B017A01793D1207467B017A01793D0241
:0220E40020ECEE
:05213400900131EFF005
:1021390078327C017D017BFF7A11796D7E007F0702
:102149001205E290014A74FFF0A3740EF0A3748A99
:10215900F0900131E0FF90014DE4F0A3EFF07B0135
:102169007A0179321207467B017A0179320220EC31
:0322F3000222F0D4
:101FF300EE7050EFB40800504A902003F82828737D
:1020030002201B02201F02202302202702202B0272
:102013002032022039022040C2B2800EC2B28011A7
:10202300C2B28014C2B28017D2B2C2B4C2B322D237
:10203300B2C2B4D2B322D2B2D2B4C2B322D2B2D2D7
:04204300B4D2B3223E
:10204700EE704CEFB408005046902057F8282873DC
:1020570002206F02207302207702207E0220850271
:102067002096022089022090C2B48006C2B480095B
:10207700D2B4C2B3C2B522D2B4D2B3C2B522C2B4AB
:102087008002D2B4C2B3D2B522D2B4D2B3D2B5226F
:0721B900E0F5907F017E00BC
:1021C000AD07AC06E412010E7B527AB8794E784026
:1021D000120003120147E4FDFCC3ED9FEC9E500E7C
:0E21E000E4FB0BEBB464FB0DBD00010C80EBC7
:0121EE0022CE
:10000300EC4D6011E8497017ED33EC3304600DE4F7
:10001300FCFFFEFD22E933E8330470F80201B3125A
:10002300017E58046009E4CC24815006285009025B
:1000330001BD2840030201BAC0E0EB4A7044B98015
:1000430006D0E0FB0201A9EF4E701CBD8008EBFF58
:10005300EAFEE9FD80EBE98DF0A4FEE5F00200EC99
:10006300E9CDF9EAFEEBFFEF89F0A4FCE5F0CE89D8
:10007300F0A42EFFE435F0CD89F0A42DFEE435F095
:100083008067EF4E7005BD80D780C3EF8BF0A4ACC3
:10009300F0EE8BF0A42CFCE435F0F8EF8AF0A42CFE
:1000A300E5F038FCE433CB8DF0A42CFCE5F03BF811
:1000B300EE8AF0A42CFCE5F038F8E433CF89F0A401
:1000C3002CFCE5F038CF3400CE89F0A42FFFE5F007
:1000D3003EFEE433C98DF0A42EFEE5F039CD8AF05F
:1000E300A42FFFE5F03EFEE43DFD33D0E0FB5007D7
:1000F3000BBB000F0201BDEC2CFCEF33FFEE33FE14
:06010300ED33FD02019541
:1001090075F020800E75F010800575F0087D007E71
:10011900007F003392D530D503120660EC334010CE
:10012900EF33FFEE33FEED33FDEC33FCD5F0ED227A
:0E013900E5F0247EA2D513CC92E7CDCEFF22B6
:10014700EDD2E7CD33EC3392D524814006E4FFFEB0
:10015700FDFC22FCE4CFCECDCC24E0501174FF800F
:10016700EDC3CC13CCCD13CDCE13CECF13CF0470AC
:07017700F030D5DE02066046
:1006E100E508244AF582E43401F583E00508229007
:1006F100014730070390014AE475F00112066E02CA
:1007010006082000E97F2ED2008018EF540F2490B4
:10071100D43440D4FF30040BEF24BFB41A0050038B
:100721002461FFE50960021509050CE50C7002055D
:100731000B30070E900147E475F00112066EEF02CF
:10074100064E02224B7403D2078003E4C207F50868
:10075100900147120685E4F509F50BF50CE50960F2
:10076100077F2012072480F5750AFFC201C200C26B
:1007710002C203C205C206C2081206F0FF700D30A4
:1007810007057F00120735AF0CAE0B22B4255FC2FF
:10079100D5C2041206F0FF24D0B40A00501A75F035
:1007A1000A780930D50508B6FF0106C6A426F62049
:1007B100D5047002D20380D924CFB41A00EF5004BB
:1007C100C2E5D204020A27D20180C6D20080C0D27B
:1007D1000280BCD2D580BAD20580B47F2012072412
:1007E1002002077401B5090040F11206E1FF12076A
:1007F1002402075ED208D20680951206E1FB12069A
:10080100E1FA1206E1F94A4B700679257A0B7BFF72
:1008110020022EE509602A7E008E82758300120671
:100821002160060EEE650A70F0C2D5EBC0E0EAC0A9
:10083100E0E9C0E0EE120A88D0E0F9D0E0FAD0E0B9
:10084100FB120608FF60AAEBC0E0EAC0E0E9C0E0E5
:10085100120724D0E02401F9D0E03400FAD0E0FB03
:10086100E50A0460DCD50AD98087D20280A2120A87
:100871006A60F7E50A7001041201C8A90A600DE572
:100881000A600914F50A120B12EF60F3EA30E7026D
:10089100F404C3995079EAF4250A0430E701E40429
:1008A100F50A800D120A6A60C1EA050A250A1201D9
:1008B100C8EA900176F030E701E4250A04D50A047C
:1008C10020050114120A88E4C0E0120B129001768F
:1008D100E0601320E70714F012070C802204F0D027
:1008E100E014C0E07F0012070CE50A60071207035D
:1008F100150A800B300503120703D0E002075ED012
:10090100E00480C4120A6A609EE50A041201C890DC
:100911000176EAF0E50A2005026001042404120AC6
:01092100884D
:1009220074FF04C0E0120B1212070CE50A20050244
:100932006003120703D0E0B50AE87F45120716905C
:100942000176E07F2B30E7047F2DF404C0E012072C
:1009520024D0E075F00A84C0F012070DD0E012072F
:100962000D02075E791080027908C206C20880086B
:10097200D2D5790A8004790AC2D5E50A047002F553
:100982000AE4FAFDFEFF1206E1FC7B0820011312C5
:1009920006E1FD7B1030000A1206E1FE1206E1FFBD
:1009A2007B20EC3382D592D55013C3E43000069FEE
:1009B200FFE49EFEE42001039DFDE49CFCE4CBF8F1
:1009C200C201EC700CCFCECDCCE824F8F870F380E5
:1009D20017C3EF33FFEE33FEED33FDEC33FCEB33A5
:1009E200FB994002FB0FD8E9EB300105F8D0E0C4D7
:1009F20048B201C0E00AEC4D4E4F78207B0070C235
:100A0200EAB50A0040BCC0E0120A8AD0F0D0E02069
:100A12000104C4C0E0C4B201C0F012070DD0F0D589
:100A2200F0EB02075E12068E07FB5309665807CCED
:100A32004C07C842096A4F09724409724907E143E7
:100A420009785508A546090545086F470B45500723
:100A5200D02D07D42E07F72B07D82307F5200B2E0E
:100A62002A079048000007EFE50AB4FF03750A065B
:100A72001206E1FC1206E1FD1206E1FE1206E1FF9A
:100A820090016F020205790AA2D5200314300509EC
:100A9200B910020404B9080104A2D52006025001CB
:100AA200042002689202B509005034C0E07F203071
:100AB20003197F30A20272067205500F120AE1C2B8
:100AC20002C206C205C2087F30800F300503E9C0AA
:100AD200E0120724300503D0E0F9D0E0B509CC30AC
:100AE20005177F30B9100C1207247F583004077F96
:100AF200788003B908031207243002057F2D02070C
:100B0200247F202008F87F2B2006F322920280CF38
:100B12007F00B40700500B246FF582E43401F583A3
:100B2200E0FF22286E756C6C2900D2011206E130BA
:100B320001F8C201780930D50108F60207902D505C
:100B42004349581206E12403B405004001E4900B26
:100B52004093120715743A120715D203750904025D
:020B6200096622
:10017E00E9D2E7C933E833F892D5EDD2E7CD33ECC7
:07018E0033FC5002B2D52240
:10019500EC30E7100FBF000C0EBE00080DBD0004CB
:1001A5000BEB6014A2D5EB13FCED92E7FD2274FF77
:1001B500FCFDFEFF22E480F8A2D574FF13FC7D80D0
:0301C500E480EFE4
:1001C800F920E73624F950037907E4F42402FBE523
:1001D80082158270021583DBF6E024FB501BE96070
:1001E80014E4F0E582158270021583E004F0B40A85
:0D01F80008E4F0D9EE7401F00A22C2D5220D
:10020500ED33EC3392D5FA602AB4FF33EDC2E77BC8
:10021500FF60067A02792AE4227A02793320D5042E
:100225007A02792E224E614E002B494E46002D4909
:100235004E4600E47A08F0A3DAFC7B00740722C07E
:1002450083C082ECC0E0EDC0E0EEC0E0EFC0E0EAC4
:1002550075F010A4CAABF075F04DA42BFBE435F096
:10026500FCEA2410FAEB34C5FBEC34D9FCEDC2E70B
:10027500FF75F056A4F42411C5F0F434C58FF0A42D
:100285002AE5F03BE43CF020E7141204D2D0E0FF6D
:10029500D0E0FED0E0FDD0E0FC1204058014F404AB
:1002A5001204D2D0E0FFD0E0FED0E0FDD0E0FC1299
:1002B5000003D082D083E0FAEDD2E7CD33EC3324CE
:1002C50082FBE4C3CF33CFCE33CECD33CD33DBF397
:1002D5007B0775F00A846004F0A31B0AE5F0F0A320
:1002E5008FF0740AA4FFACF08EF0740AA42CFEAC57
:1002F500F050010C8DF0740AA42CFDE435F0F0A348
:05030500DBDE7407229D
:10030A000201B3E86480F8E933E83360110460F06D
:10031A00ED33EC337009E8FCE9FDEAFEEBFF220459
:10032A0060DED3EB9FEA9EE99DE8C2E78CF0C2F754
:10033A0095F0400CE8CCF8E9CDF9EACEFAEBCFFB20
:10034A0012017E85D0F05804700320D5B3E80470FA
:10035A00075002B2D50201BD92D5EC0460F7E4CC95
:10036A00C0E0C398F8603B94186008400DD0E0FBE9
:10037A00020195E4FBFAC9FC8028E830E406E4C9E6
:10038A00FBE4CAFCE830E305E4C9CACBFCE854073D
:10039A006010F8C3E913F9EA13FAEB13FBEC13FC48
:1003AA00D8F130F52FC3E49CFCEF9BFFEE9AFEEDEB
:1003BA0099FDD0E0FBEF4E4D4C701222DB03020197
:1003CA00BAEC2CFCEF33FFEE33FEED33FDED30E7F4
:1003DA00EB020195EF2BFFEE3AFEED39FDD0E0FB83
:1003EA0050130BBB00030201BDED13FDEE13FEEF2C
:0803FA0013FFEC13FC02019556
:100402000201BDEC5D046005E8590470030201B30A
:1004120012017E580460F6EC4860F2EC7004FDFEB6
:10042200FF22C860DB2481C85009C39860025006CD
:100432000201BA9850CAF582E9294B4A7005AB828B
:100442000201A975F0007C1A7880C3EF9BEE9AED49
:1004520099400DC3EF9BFFEE9AFEED99FDE842F045
:10046200DC23ACF0D0E0FFD0E0FED0E0FDAB822098
:10047200E7101BEB60BAEC2CFCEF33FFEE33FEED22
:1004820033FD020195E803F830E705C0F075F0008E
:10049200EF2FFFEE33FEED33FD40B830E7C280AA06
:1004A2003F8000004120000042C80000447A000062
:1004B200461C400047C35000497424004B189680E4
:1004C2004CBEBC205A0E1BCA6753C21C749DC5AEDB
:1004D200FB60065407601C2323120500EB543860AE
:1004E200091204EC1204FB120003ECF8EDF9EEFA27
:1004F200EFCB22EB1204FB80F1543803241C90044E
:10050200A2FE93FC0EEE93FD0EEE930ECE93FF220F
:030000000222E4F5
:0C22E400787FE4F6D8FD7581210222BB52
:10051200E709F608DFFA8046E709F208DFFA803ECB
:1005220088828C83E709F0A3DFFA8032E309F608B8
:10053200DFFA8078E309F208DFFA807088828C8320
:10054200E309F0A3DFFA806489828A83E0A3F608D4
:10055200DFFA805889828A83E0A3F208DFFA804CAE
:1005620080D280FA80C680D4806980F28033801085
:1005720080A680EA809A80A880DA80E280CA8033EE
:1005820089828A83ECFAE493A3C8C582C8CCC58366
:10059200CCF0A3C8C582C8CCC583CCDFE9DEE78036
:1005A2000D89828A83E493A3F608DFF9ECFAA9F0B5
:1005B200EDFB2289828A83ECFAE0A3C8C582C8CC0B
:1005C200C583CCF0A3C8C582C8CCC583CCDFEADE24
:1005D200E880DB89828A83E493A3F208DFF980CC86
:1005E20088F0EF60010E4E60C388F0ED2402B4047F
:1005F2000050B9F582EB2402B4040050AF23234526
:06060200822390056273E3
:10060800BB010689828A83E0225002E722BBFE02F0
:09061800E32289828A83E4932223
:10062100BB010CE58229F582E5833AF583E022508E
:1006310006E92582F8E622BBFE06E92582F8E222D8
:0D064100E58229F582E5833AF583E49322F2
:10064E00BB010689828A83F0225002F722BBFE018B
:02065E00F32285
:0E066000C3E49FFFE49EFEE49DFDE49CFC22AB
:10066E00F8E0FBA3A3E0F925F0F0E5821582700215
:07067E001583E0FA38F022B9
:09068500EBF0A3EAF0A3E9F02276
:10068E00D083D082F8E4937012740193700DA3A3FB
:10069E0093F8740193F5828883E47374029368600F
:0606AE00EFA3A3A380DF0F
:1006B400D083D082F8E4937012740193700DA3A3D5
:1006C40093F8740193F5828883E473740293B5F00C
:0D06D400067403936860E9A3A3A3A380D874
:10224B00EFB40A07740D122256740A309811A8992C
:10225B00B8130CC2983098FDA899C298B811F630F3
:07226B0099FDC299F59922CB
:00000001FF
