:100C55007F31120AE97FE87E03120C277F35120ADD
:0A0C6500E97FE87E03120C2780E609
:050C7B00D2B0C2B0225E
:050C8000D2B1C2B12257
:100AE900EF1209D30B7A2D0B7F2E0B2A300B2F31E6
:100AF9000B34320B39330B3E340B43350B48360B71
:100B09004D370B52380B57390B5C410B66430B7051
:100B1900450B75460B61620B6B640B846F00000B10
:100B2900897590C0805D7590F980587590A480533F
:100B39007590B0804E7590998049759092804475F2
:100B49009082803F7590F8803A75908080357590D5
:100B5900988030759088802B75908380267590C613
:100B690080217590A1801C759086801775908E8064
:100B7900127590BF800D75907F80087590FF800376
:060B89007590AA020C7B2E
:1009F900C2B2C297C296C295C294D293D292D291F0
:100A0900D290C297D296D295D294120C8020930597
:100A19007508018003E4F508209205750B01800330
:100A2900E4F50B209105750E018003E4F50E209085
:100A3900057516018003E4F516D297C296120C804B
:100A49002093057509018003E4F509209205750CC9
:100A5900018003E4F50C209105750F018003E4F58D
:100A69000F2090057511018003E4F511D296C29506
:100A7900120C80209305750A018003E4F50A20927F
:100A890005750D018003E4F50D20910575100180B0
:100A990003E4F5102090057517018003E4F517D2DA
:100AA90095C294120C802093057512018003E4F518
:100AB900122092057513018003E4F5132091057541
:100AC90014018003E4F5142090057515018003E4F1
:0F0AD900F515D294120C80D2B27B007A00790806
:010AE80022EB
:100B8F00E518B401057F31020C23E519B401057F87
:100B9F0032020C23E51AB401047F338077E51BB4CE
:100BAF0001047F34806EE51CB401047F358065E558
:100BBF001DB401047F36805CE51EB401047F3780CD
:100BCF0053E51FB401047F38804AE520B401047F48
:100BDF00398041E522B401047F418038E521B40119
:100BEF00047F30802FE523B401047F628026E52443
:100BFF00B401047F43801DE525B401047F64801494
:100C0F00E526B401047F2E800BE527B401047F2D68
:080C1F0080027F6F120AE92236
:100C2700AD07AC06E412090B7B527AB8794E7840CF
:100C3700120800120944E4FDFCC3ED9FEC9E500D21
:0D0C4700E4FB0BBB64FC0DBD00010C80EC58
:010C5400227D
:10080000EC4D6011E8497017ED33EC3304600DE4F2
:10081000FCFFFEFD22E933E8330470F80209B01250
:10082000097B58046009E4CC248150062850090251
:1008300009BA2840030209B7C0E0EB4A7044B98006
:1008400006D0E0FB0209A6EF4E701CBD8008EBFF4E
:10085000EAFEE9FD80EBE98DF0A4FEE5F00208E98F
:10086000E9CDF9EAFEEBFFEF89F0A4FCE5F0CE89D3
:10087000F0A42EFFE435F0CD89F0A42DFEE435F090
:100880008067EF4E7005BD80D780C3EF8BF0A4ACBE
:10089000F0EE8BF0A42CFCE435F0F8EF8AF0A42CF9
:1008A000E5F038FCE433CB8DF0A42CFCE5F03BF80C
:1008B000EE8AF0A42CFCE5F038F8E433CF89F0A4FC
:1008C0002CFCE5F038CF3400CE89F0A42FFFE5F002
:1008D0003EFEE433C98DF0A42EFEE5F039CD8AF05A
:1008E000A42FFFE5F03EFEE43DFD33D0E0FB5007D2
:1008F0000BBB000F0209BAEC2CFCEF33FFEE33FE0A
:06090000ED33FD02099237
:1009060075F020800E75F010800575F0087D007E6C
:10091600007F003392D530D5031209C5EC33401061
:10092600EF33FFEE33FEED33FDEC33FCD5F0ED2275
:0E093600E5F0247EA2D513CC92E7CDCEFF22B1
:10094400EDD2E7CD33EC3392D524814006E4FFFEAB
:10095400FDFC22FCE4CFCECDCC24E0501174FF800A
:10096400EDC3CC13CCCD13CDCE13CECF13CF0470A7
:07097400F030D5DE0209C5D9
:10097B00E9D2E7C933E833F892D5EDD2E7CD33ECC2
:07098B0033FC5002B2D5223B
:10099200EC30E7100FBF000C0EBE00080DBD0004C6
:1009A2000BEB6014A2D5EB13FCED92E7FD2274FF72
:1009B200FCFDFEFF22E480F8A2D574FF13FC7D80CB
:0309C200E480EFDF
:03000000020C6F80
:0C0C6F00787FE4F6D8FD758137020C5543
:0E09C500C3E49FFFE49EFEE49DFDE49CFC2243
:1009D300D083D082F8E4937012740193700DA3A3B3
:1009E30093F8740193F5828883E4737402936860C7
:0609F300EFA3A3A380DFC7
:00000001FF
