:100B4A0012091C78087C007D007E007F101208D0F4
:100B5A0078187C007D007B007A0079087E007F107F
:080B6A001208D0120AB280D873
:050B9600D2B0C2B02244
:050B9B00D2B1C2B1223D
:100A0C00EF1208F60A9D2D0AA22E0A4D300A523119
:100A1C000A57320A5C330A61340A66350A6B360AA5
:100A2C0070370A75380A7A390A7F410A89430A9362
:100A3C00450A98460A84620A8E640AA76F00000A67
:100A4C00AC7590C0805D7590F980587590A48053FA
:100A5C007590B0804E7590998049759092804475D0
:100A6C009082803F7590F8803A75908080357590B3
:100A7C00988030759088802B75908380267590C6F1
:100A8C0080217590A1801C759086801775908E8042
:100A9C00127590BF800D75907F80087590FF800354
:060AAC007590AA020B96F2
:10091C00C2B2C297C296C295C294D293D292D291CD
:10092C00D290C297D296D295D294120B9B2093055B
:10093C007518018003E4F518209205751B018003DE
:10094C00E4F51B209105751E018003E4F51E209033
:10095C00057526018003E4F526D297C296120B9BEF
:10096C002093057519018003E4F519209205751C77
:10097C00018003E4F51C209105751F018003E4F54B
:10098C001F2090057521018003E4F521D296C295B4
:10099C00120B9B209305751A018003E4F51A209223
:1009AC0005751D018003E4F51D209105752001805E
:1009BC0003E4F5202090057527018003E4F527D288
:1009CC0095C294120B9B2093057522018003E4F5CC
:1009DC00222092057523018003E4F52320910575EF
:1009EC0024018003E4F5242090057525018003E49F
:0F09FC00F525D294120B9BD2B27B007A007918AA
:010A0B0022C8
:100AB200E518B401057F31020B46E519B401057F43
:100AC20032020B46E51AB401047F338077E51BB48A
:100AD20001047F34806EE51CB401047F358065E536
:100AE2001DB401047F36805CE51EB401047F3780AB
:100AF20053E51FB401047F38804AE520B401047F26
:100B0200398041E522B401047F418038E521B401F6
:100B1200047F30802FE523B401047F628026E52420
:100B2200B401047F43801DE525B401047F64801471
:100B3200E526B401047F2E800BE527B401047F2D46
:080B420080027F6F120A0C22F1
:100B7200E4FDFCC3ED9FEC9E500DE4FB0BBB64FC5B
:070B82000DBD00010C80EC29
:010B89002249
:03000000020B8A66
:0C0B8A00787FE4F6D8FD758127020B4A45
:10080000E709F608DFFA8046E709F208DFFA803EDA
:1008100088828C83E709F0A3DFFA8032E309F608C7
:10082000DFFA8078E309F208DFFA807088828C832F
:10083000E309F0A3DFFA806489828A83E0A3F608E3
:10084000DFFA805889828A83E0A3F208DFFA804CBD
:1008500080D280FA80C680D4806980F28033801094
:1008600080A680EA809A80A880DA80E280CA8033FD
:1008700089828A83ECFAE493A3C8C582C8CCC58375
:10088000CCF0A3C8C582C8CCC583CCDFE9DEE78045
:100890000D89828A83E493A3F608DFF9ECFAA9F0C4
:1008A000EDFB2289828A83ECFAE0A3C8C582C8CC1A
:1008B000C583CCF0A3C8C582C8CCC583CCDFEADE33
:1008C000E880DB89828A83E493A3F208DFF980CC95
:1008D00088F0EF60010E4E60C388F0ED2402B4048E
:1008E0000050B9F582EB2402B4040050AF23234535
:0608F00082239008507302
:1008F600D083D082F8E4937012740193700DA3A391
:1009060093F8740193F5828883E4737402936860A4
:06091600EFA3A3A380DFA4
:00000001FF
