:100F050048656C6C6F20776F726C6460004D264D80
:040F150027736000DE
:100D530078187C007D007BFF7A0F79057E007F0D7C
:100D6300120A9578257C007D007BFF7A0F79127E2D
:100D7300007F07120A95C2B1C2B0C2B3120E867FBA
:100D8300017E00120EB57B007A007918120E1E7FC9
:100D9300027E00120EB57B007A007925120E1E1218
:100DA3000B1C78087C007D007E007F10120A95786A
:100DB3002C7C007D007B007A0079087E007F101276
:070DC3000A95120CBB80D859
:0D0F27007F017E00120DCAE4FFFE020DCA1C
:0E0F19007F037E00120DCA7F027E00020DCA09
:050F4C00D2B3C2B32284
:100C1500EF120AF60CA62D0CAB2E0C56300C5B31E0
:100C25000C60320C65330C6A340C6F350C74360C61
:100C350079370C7E380C83390C88410C92430C9C17
:100C4500450CA1460C8D620C97640CB06F00000C2E
:100C5500B57590C0805D7590F980587590A48053E6
:100C65007590B0804E7590998049759092804475C5
:100C75009082803F7590F8803A75908080357590A8
:100C8500988030759088802B75908380267590C6E6
:100C950080217590A1801C759086801775908E8037
:100CA500127590BF800D75907F80087590FF800349
:060CB5007590AA020F2752
:100B1C007F027E00120DCAC297C296C295C294D2B1
:100B2C0093D292D291D290C297D296D295D294125D
:100B3C000F19209305752C018003E4F52C209205E8
:100B4C00752F018003E4F52F209105753201800388
:100B5C00E4F532209005753A018003E4F53AD2971A
:100B6C00C296120F19209305752D018003E4F52D03
:100B7C002092057530018003E4F530209105753322
:100B8C00018003E4F5332090057535018003E4F50D
:100B9C0035D296C295120F19209305752E0180033C
:100BAC00E4F52E2092057531018003E4F531209196
:100BBC00057534018003E4F534209005753B018004
:100BCC0003E4F53BD295C294120F192093057536A8
:100BDC00018003E4F5362092057537018003E4F5B6
:100BEC00372091057538018003E4F53820900575A0
:100BFC0039018003E4F539D294120F19E4FFFE1287
:080C0C000DCA7B007A00792C6F
:010C140022BD
:100CBB00E52CB401057F31020D4FE52DB401057F05
:100CCB0032020D4FE52EB401047F338077E52FB44C
:100CDB0001047F34806EE530B401047F358065E517
:100CEB0031B401047F36805CE532B401047F378078
:100CFB0053E533B401047F38804AE534B401047FF3
:100D0B00398041E536B401047F418038E535B401C3
:100D1B00047F30802FE537B401047F628026E538ED
:100D2B00B401047F43801DE539B401047F64801452
:100D3B00E53AB401047F2E800BE53BB401047F2D13
:080D4B0080027F6F120C1522DB
:100ED9008F2C7F047E00120DCA852C90120E547F30
:060EE900057E00020DCAA7
:100EEF008F317F067E00120DCA853190120E547F0E
:060EFF00077E00020DCA8F
:100E86007F327E00120E587F38120ED97F057E0003
:100E9600120E587F38120ED9120E547F0F120ED929
:0F0EA600120E547F01120ED97F027E00020E58E9
:0C0F34007F01120ED97F027E00020E58D1
:030F5100020EEF9E
:060E1E008B2C8A2D892EA9
:100E2400E4F52FF530AB2CAA2DA92E853082852F21
:100E340083120ABB64606017853082852F83120A8F
:0F0E4400BBFF120F510530E53070DA052F80D655
:010E5300227C
:100EB500EE700DEF24FE600A14600B14600C240321
:100EC500800C7FC0800A7F9480067FD480027F805B
:040ED500120ED922FE
:100DCA00EE7050EFB40800504A900DDAF8282873F4
:100DDA00020DF2020DF6020DFA020DFE020E0202D9
:100DEA000E09020E10020E17C2B2800EC2B2801194
:100DFA00C2B28014C2B28017D2B2C2B1C2B022D279
:100E0A00B2C2B1D2B022D2B2D2B1C2B022D2B2D21E
:040E1A00B1D2B0227F
:040E54007F017E009C
:100E5800AD07AC06E412090B7B527AB8794E78409C
:100E6800120800120944E4FDFCC3ED9FEC9E500DEE
:0D0E7800E4FB0BBB64FC0DBD00010C80EC25
:010E8500224A
:10080000EC4D6011E8497017ED33EC3304600DE4F2
:10081000FCFFFEFD22E933E8330470F80209B01250
:10082000097B58046009E4CC248150062850090251
:1008300009BA2840030209B7C0E0EB4A7044B98006
:1008400006D0E0FB0209A6EF4E701CBD8008EBFF4E
:10085000EAFEE9FD80EBE98DF0A4FEE5F00208E98F
:10086000E9CDF9EAFEEBFFEF89F0A4FCE5F0CE89D3
:10087000F0A42EFFE435F0CD89F0A42DFEE435F090
:100880008067EF4E7005BD80D780C3EF8BF0A4ACBE
:10089000F0EE8BF0A42CFCE435F0F8EF8AF0A42CF9
:1008A000E5F038FCE433CB8DF0A42CFCE5F03BF80C
:1008B000EE8AF0A42CFCE5F038F8E433CF89F0A4FC
:1008C0002CFCE5F038CF3400CE89F0A42FFFE5F002
:1008D0003EFEE433C98DF0A42EFEE5F039CD8AF05A
:1008E000A42FFFE5F03EFEE43DFD33D0E0FB5007D2
:1008F0000BBB000F0209BAEC2CFCEF33FFEE33FE0A
:06090000ED33FD02099237
:1009060075F020800E75F010800575F0087D007E6C
:10091600007F003392D530D503120AE8EC3340103D
:10092600EF33FFEE33FEED33FDEC33FCD5F0ED2275
:0E093600E5F0247EA2D513CC92E7CDCEFF22B1
:10094400EDD2E7CD33EC3392D524814006E4FFFEAB
:10095400FDFC22FCE4CFCECDCC24E0501174FF800A
:10096400EDC3CC13CCCD13CDCE13CECF13CF0470A7
:07097400F030D5DE020AE8B5
:10097B00E9D2E7C933E833F892D5EDD2E7CD33ECC2
:07098B0033FC5002B2D5223B
:10099200EC30E7100FBF000C0EBE00080DBD0004C6
:1009A2000BEB6014A2D5EB13FCED92E7FD2274FF72
:1009B200FCFDFEFF22E480F8A2D574FF13FC7D80CB
:0309C200E480EFDF
:03000000020F40AC
:0C0F4000787FE4F6D8FD75813B020D536C
:1009C500E709F608DFFA8046E709F208DFFA803E14
:1009D50088828C83E709F0A3DFFA8032E309F60801
:1009E500DFFA8078E309F208DFFA807088828C8369
:1009F500E309F0A3DFFA806489828A83E0A3F6081D
:100A0500DFFA805889828A83E0A3F208DFFA804CF6
:100A150080D280FA80C680D4806980F280338010CD
:100A250080A680EA809A80A880DA80E280CA803336
:100A350089828A83ECFAE493A3C8C582C8CCC583AE
:100A4500CCF0A3C8C582C8CCC583CCDFE9DEE7807E
:100A55000D89828A83E493A3F608DFF9ECFAA9F0FD
:100A6500EDFB2289828A83ECFAE0A3C8C582C8CC53
:100A7500C583CCF0A3C8C582C8CCC583CCDFEADE6C
:100A8500E880DB89828A83E493A3F208DFF980CCCE
:100A950088F0EF60010E4E60C388F0ED2402B404C7
:100AA5000050B9F582EB2402B4040050AF2323456E
:060AB5008223900A157374
:100ABB00BB010CE58229F582E5833AF583E02250F0
:100ACB0006E92582F8E622BBFE06E92582F8E2223A
:0D0ADB00E58229F582E5833AF583E4932254
:0E0AE800C3E49FFFE49EFEE49DFDE49CFC221F
:100AF600D083D082F8E4937012740193700DA3A38F
:100B060093F8740193F5828883E4737402936860A2
:060B1600EFA3A3A380DFA2
:00000001FF
