:100B64002530345860002530325860004D65676187
:100B74006E2042697264204345454E20343333303D
:100B840060002D2D2D2D2D2D2D2D2D2D2D2D2D2D8B
:100B94002D2D2D2D2D2D60004D61696E204D656E1E
:100BA400756000313A204D656D6F72792020323ABC
:100BB4002053657269616C600053657269616C20D1
:100BC400536574757060002D2D2D2D2D2D2D2D2D1B
:100BD4002D2D2D2D2D2D2D2D2D2D2D6000426175AA
:100BE4006420526174653A20600020313230302034
:100BF40032343030203438303020393630306000F0
:100C040055736520706172697479206269743F60FC
:100C140000202020202020202020202020202020F0
:100C240020202020206000537461727420262073D9
:100C3400746F7020626974733F600020313A2059E8
:100C440065732020202020323A204E6F6000456ECC
:100C5400746572203420636861727320666F722039
:100C6400545860004368617273207472616E736DCE
:100C74006974746564202020600023203A20526542
:100C84007475726E20746F204D61696E202060004F
:100C94004D656D6F7279204D656E75600031203A37
:100CA4002044756D702020202032203A204D6F762C
:100CB40065600033203A2045646974202020203484
:100CC400203A2046696E64600023203A20526574FD
:100CD40075726E20746F204D61696E20206000442F
:100CE400756D70205365747570600053746172740F
:100CF4002053656720416464723A206000426C6F3F
:100D0400636B2053697A653A206000313A3C2D2D9B
:100D14002020323A2D2D3E2020233A4578697460F4
:100D2400004D6F76652053657475706000536F7560
:100D34007263652053656720416464723A206000E1
:100D4400446573742053656720416464723A20607B
:100D540000426C6F636B2053697A653A2060004DE2
:100D64006F766520436F6D706C6574656000233A1F
:100D740045786974600045646974205365747570BE
:100D840060005365676D656E7420416464723A2037
:100D940060004F666673657420416464723A206033
:100DA400004E65772056616C75653A206000456495
:100DB400697420436F6D706C6574656000303A43EC
:100DC4006F6E74696E756520202020233A4578691A
:100DD40074600046696E64205365747570600053D6
:100DE400746172742053656720416464723A2060B0
:100DF40000426C6F636B2053697A653A206000533C
:100E040065617263682056616C75653A20600056AE
:100E1400616C756520666F756E6420617460005640
:100E2400616C7565206E6F7420666F756E642160E9
:100E340000233A4578697460002D2D2D2D2D2D2D1C
:0A0E44002D60002D2D2D2D2D6000D6
:0E20BD00E4FFFE121E45121FF1121D4680FEAA
:101D460078107C007D017BFF7A0B79707E007F1610
:101D56001205E278267C007D017BFF7A0B79867E70
:101D6600007F161205E2783C7C007D017BFF7A0B32
:101D7600799C7E007F0B1205E278477C007A0B790E
:101D8600A71220A67B017A007910121EEE7F027E32
:101D9600001220297B017A007926121EEE122025D8
:101DA6007B017A00793C121EEE7F047E0012202908
:101DB6007B017A007947121EEE121A2678007C0003
:101DC6007D017E007F101205E2900000E0B401095B
:101DD600121B73121C5E021D46900001E0B401D96D
:091DE600121B73120E4E021D4681
:100E4E00E490006DF0A3F0A3F0A3F0A3F0A3F0A341
:0E0E5E00F0A3F0A3F090006DE06003021125F8
:100E6C0078767C007D017BFF7A0B79BDFE7F0E12BC
:100E7C0005E278847C007D017BFF7A0B79CB7E00C8
:100E8C007F161205E2789A7C007D017BFF7A0B7944
:100E9C00E17E007F0D1205E278A77C007D017BFFCF
:100EAC007A0B79EE7E007F161205E278BD7C007D10
:100EBC00017BFF7A0C79047E007F111205E278CE5B
:100ECC007C007D017BFF7A0C79157E007F16120564
:100EDC00E278E47C007D017BFF7A0C792B7E007F2D
:100EEC00141205E278F87C007D017BFF7A0C793FC7
:100EFC007E007F131205E2780B7C017D017BFF7A6B
:100F0C000C79527E007F161205E278217C017D015E
:100F1C007BFF7A0C79687E007F161205E278377CAD
:100F2C00017A0C797E1220A67B017A007976121E4A
:100F3C00EE7F027E001220297B017A007984121E3A
:100F4C00EE7F047E00122029121EE8122025121EAC
:100F5C00E81220257B017A0079E4121EEE7F047ED4
:100F6C00001220297B017A0079F8121EEE121A2643
:100F7C00785D7C007D017E007F101205E290005DA3
:100F8C00E0B4010B121B739000717401F0800F9090
:100F9C00005EE0B401D7121B73E4900071F0900076
:100FAC0071E0640170467F03FE122029121EE812C4
:100FBC0020257B017A0079BD121EEE121A26785D6F
:100FCC007C007D017E007F101205E290005DE0B494
:100FDC00010B121B739000707401F0800F90005E77
:100FEC00E0B401D7121B73E4900070F0900071E034
:100FFC006401705690006EE0FEA3E0FF7003EE6497
:10100C00126047EF7003EE6424603FEF7003EE64F0
:10101C00486037EF7003EE6496602F7F047E0012F9
:10102C0020297B017A0079A7121EEE122025121EB0
:10103C00E81220257B017A00799A121EEE121DEF20
:10104C0090006EEEF0A3EFF080AA1220B17B017A33
:10105C0001790B121EEE7F027E00122029121DEF69
:10106C00900072EEF0A3EFF075892090006EE0FE18
:10107C00A3E08EF01206B410971200109C240010FE
:10108C00A1480010A69600000010A9758DE6800DF1
:10109C00758DF38008758DFA8003758DFD90007148
:1010AC00E07005759810800E900070E070057598D2
:1010BC005080037598C0D28E900072E0FF30D00340
:1010CC004398088F993099FDC2995398F790007204
:1010DC00A3E0FF30D0034398088F993099FDC29953
:1010EC001220257B017A017921121EEE7F047E00ED
:1010FC001220297B017A017937121EEE121A2678FA
:10110C005D7C007D017E007F101205E290006CE09A
:09111C00B401E9121B6F020E631D
:0111250022A7
:0E1C5E00E490006DF090006DE06003021D4503
:101C6C00786E7C007D017BFF7A0C7994FE7F0D12DF
:101C7C0005E2787B7C007D017BFF7A0C79A17E00EC
:101C8C007F161205E278917C007D017BFF7A0C793E
:101C9C00B77E007F161205E278A77C007D017BFFE2
:101CAC007A0C79CD1220AA7B017A00796E121EEE85
:101CBC007F027E001220297B017A00797B121EEEB6
:101CCC001220257B017A007991121EEE7F047E0092
:101CDC001220297B017A0079A7121EEE121A26789F
:101CEC005D7C007D017E007F101205E290006CE0AF
:101CFC00B40106121B6F021C6390005DE0B4010975
:101D0C00121B73121126021C6390005EE0B40109D1
:101D1C00121B7312139E021C6390005FE0B4010946
:101D2C00121B73121555021C63900060E0B401ACD9
:091D3C00121B73121706021C634E
:011D4500227B
:1011260078D77C007D017BFF7A0C79E37E007F0C0B
:101136001205E278E37C007D017BFF7A0C79EF7E75
:10114600007F121205E278F57C007D017BFF7A0DA7
:1011560079017E007F0E1205E278037C017D017B1A
:10116600FF7A0D790F7E007F161205E2E49000CD1E
:10117600F0A3F0A3F0A3F0A3F0A3F0A3F01220B124
:101186007B017A0079D7121EEE1220257B017A00A8
:1011960079E3121EEE121DEF9000CEEEF0A3EFF0F3
:1011A6007F047E001220297B017A0079F5121EEE5B
:1011B6009000D0E07002A3E0700D121DEF9000D0F9
:1011C600EEF0A3EFF080E99000CDE0600302139DFE
:1011D6001220B19000CE121E997F3A1220E590009F
:1011E600D2121E997F027E00122029E49000D5F0CB
:1011F600A3F09000D5E0FEA3E0FFC39407EE648061
:10120600948050749000D2E0FCA3E0FD2FFFEC3EEA
:10121600FED39000D1E09F9000D0E09E4049900020
:10122600CFE0C4F8540FC868FF9000CEE0C454F075
:1012360048FEED2FFFEC3EFE9000D6E02FFF90001B
:10124600D5E03E8F82F583E09000D4F0E0FF121FD8
:1012560036C39000D6E094069000D5E06480948072
:1012660050057F201220E59000D6E004F0708390B0
:1012760000D5E004F00211F8122025E49000D5F024
:10128600A3F09000D5E0FEA3E0FFC39407EE6480D0
:10129600948050799000D2E0FCA3E0FD2FFFEC3E55
:1012A600FED39000D1E09F9000D0E09E404E90008B
:1012B600CFE0C4F8540FC868FF9000CEE0C454F0E5
:1012C60048FEED2FFFEC3EFE9000D6E02FFF90008B
:1012D600D5E03E8F82F583E09000D4F0E0FF122047
:1012E600E87F201220E5C39000D6E094069000D552
:1012F600E06480948050057F201220E59000D6E0BF
:1013060004F070069000D5E004F00212887F047E97
:10131600001220297B017A017903121EEE121A2689
:1013260078BD7C007D017E007F101205E29000CC26
:10133600E0B40106121B6F0211CD9000BDE0B401AE
:1013460017121B73C39000D3E094079000D2E09469
:101356000050030211CD80309000BEE0B401BE12F1
:101366001B739000D3E02407F09000D2E03400F025
:101376009000D0E0FEA3E0FFD39000D3E09F900062
:10138600D2E09E50030211CDA3E024F9F09000D2E2
:07139600E034FFF00211CD6D
:01139D00222D
:10139E0078D87C007D017BFF7A0D79257E007F0C4D
:1013AE001205E278E47C007D017BFF7A0D79317EB7
:1013BE00007F131205E278F77C007D017BFF7A0D2A
:1013CE0079447E007F111205E278087C017D017B55
:1013DE00FF7A0D79557E007F0E1205E278167C019C
:1013EE007D017BFF7A0D79637E007F0F1205E27817
:1013FE00257C017D017BFF7A0D79727E007F0812BC
:10140E0005E2E49000CDF0A3F0A3F0A3F0A3F0A3C7
:10141E00F0A3F0A3F0A3F0A3F0A3F01220B17B0190
:10142E007A0079D8121EEE7F027E001220297B01EF
:10143E007A0079E4121EEE121DEF9000CE122020DB
:10144E007B017A0079F7121EEE121DEF9000D0EE9E
:10145E00F0A3EFF07F047E001220297B017A017940
:10146E0008121EEE9000D2E07002A3E0700D121D65
:10147E00EF9000D2EEF0A3EFF080E99000CDE060A7
:10148E00030215541220B17B017A017916121EEE59
:10149E007F047E001220297B017A017925121EEE2F
:1014AE009000D6E0FEA3E0FF9000D4E0FCA3E0FDA8
:1014BE002FFFEC3EFED39000D3E09F9000D2E09E33
:1014CE0040679000CFE0C4F8540FC868FF9000CE7C
:1014DE00E0C454F048FEED2FFFEC3EFE9000D7E046
:1014EE002FFF9000D6E03E8F82F583E0FB9000D177
:1014FE00E0C4F8540FC868FF9000D0E0C454F04820
:10150E00FEED2FFFEC3EFE9000D7E02FFF9000D6B1
:10151E00E03E8F82F583EBF09000D7E004F0708010
:10152E009000D6E004F00214AE121A2678BD7C00AC
:10153E007D017E007F101205E29000CCE0B401E93F
:06154E00121B6F0214895C
:011554002274
:1015550078D47C007D017BFF7A0D797A7E007F0C43
:101565001205E278E07C007D017BFF7A0D79867EAD
:10157500007F101205E278F07C007D017BFF7A0D7B
:1015850079967E007F0F1205E278FF7C007D017B56
:10159500FF7A0D79A57E007F0D1205E2780C7C019E
:1015A5007D017BFF7A0D79B27E007F0F1205E2780F
:1015B5001B7C017D017BFF7A0D79C17E007F1612B0
:1015C50005E2E49000CDF0A304F0E4A3F0A3F0A3BA
:1015D500F0A3F0A374AAF01220B17B017A0079D4AC
:1015E500121EEE7F027E001220297B017A0079E02F
:1015F500121EEE121DEF9000CF1220207B017A0003
:1016050079F0121EEE121DEF9000D1EEF0A3EFF06F
:101615009000CDE06003021705A3E06401600302BA
:1016250016D01220B19000CF121E997F3A1220E5F4
:101635009000D1121E997F201220E59000D0E0C4C1
:10164500F8540FC868FF9000CFE0C454F048FE90EE
:1016550000D2E02FFF9000D1E03E8F82F583E0FFBE
:10166500121F367F027E001220297B017A0079FF46
:10167500121EEE121F7B9000D3EFF0FD9000D0E01C
:10168500C4F8540FC868FF9000CFE0C454F048FE7A
:101695009000D2E02FFF9000D1E03E8F82F583EDE0
:1016A500F01220257B017A01790C121EEE7F047E53
:1016B500001220297B017A01791B121EEE9000D2BF
:1016C500E004F070069000D1E004F0121A2678BD0F
:1016D5007C007D017E007F101205E29000CCE0B415
:1016E500010BE49000CEF09000CD04800C9000C674
:1016F500E0B401D79000CE7401F0121B73021615E9
:0117050022C1
:1017060078D57C007D017BFF7A0D79D77E007F0C32
:101716001205E278E17C007D017BFF7A0D79E37E9C
:10172600007F121205E278F37C007D017BFF7A0DC3
:1017360079F57E007F0E1205E278017C017D017B42
:10174600FF7A0E79037E007F101205E278117C0184
:101756007D017BFF7A0E79137E007F101205E278F9
:10176600217C017D017BFF7A0E79237E007F121298
:1017760005E278337C017D017BFF7A0E79357E00A8
:101786007F081205E2E49000CDF0A3F0A3F0A3F0E9
:10179600A3F0A3F0A3F0A3F07DAA1220B17B017AF7
:1017A6000079D5121EEE7F027E001220297B017A77
:1017B6000079E1121EEE121DEF9000CF1220207B61
:1017C600017A0079F3121EEE121DEF9000D3EEF0AF
:1017D600A3EFF07F047E001220297B017A017901B4
:1017E600121EEE121F7BAD079000D3E0FEA3E0FFB2
:1017F6009000D1E0FAA3E0FBC39FEA9E503A900026
:10180600D0E0C4F8540FC868FF9000CFE0C454F08D
:1018160048FEEB2FFFEA3E8F82F583E0FFB5050811
:101826009000CE7401F080109000D2E004F070B801
:101836009000D1E004F080B01220B19000CEE064B8
:10184600017B0170217A017911121EEE7F027E0062
:101856001220299000CF121E997F3A1220E590009F
:10186600D1121E9980077A017921121EEE7F047E1D
:10187600001220297B017A017933121EEE9000CDE9
:10188600E0701C121A2678BD7C007D017E007F1058
:0F1896001205E29000CCE0B401E9121B6F80DE76
:0118A5002220
:101DEF00E490014DF0A3F0A3F0A3F090014EE0C4F6
:101DFF00F8540FC868F090014DE0C454F048F01249
:101E0F0018A690014EE02FF090014DE03EF09001AA
:101E1F0050E004F0700690014FE004F0C3900150C1
:101E2F00E0940490014FE06480948040BE90014D97
:051E3F00E0FEA3E0FF3E
:011E4400227B
:101F7B00E490013BF0A3F0A3F090013BE0FFC454CD
:101F8B00F0F01218A690013BE02FF090013DE00419
:101F9B00F0700690013CE004F0C390013DE0940228
:0F1FAB0090013CE06480948040CF90013BE0FFC8
:011FBA002204
:1018A60074FF900161F0A3F0A3747EF0900161E0F3
:1018B600F47003A3E0F46003021A12121A26785198
:1018C6007C017D017E007F101205E290015AE0B492
:1018D600010BE4900161F0A3F0A37430F090015184
:1018E600E0B4010C900161E4F0A304F0A37431F0BC
:1018F600900152E0B4010D900161E4F0A37402F08E
:10190600A37432F0900153E0B4010D900161E4F04C
:10191600A37403F0A37433F0900154E0B4010D9066
:101926000161E4F0A37404F0A37434F0900155E06F
:10193600B4010D900161E4F0A37405F0A37435F0D1
:10194600900156E0B4010D900161E4F0A37406F035
:10195600A37436F0900157E0B4010D900161E4F0F4
:10196600A37407F0A37437F0900158E0B4010D900A
:101976000161E4F0A37408F0A37438F0900159E013
:10198600B4010D900161E4F0A37409F0A37439F079
:1019960090015BE0B4010D900161E4F0A3740AF0DC
:1019A600A37441F090015CE0B4010D900161E4F094
:1019B600A3740BF0A37442F090015DE0B4010D90A6
:1019C6000161E4F0A3740CF0A37443F090015EE0AF
:1019D600B4010D900161E4F0A3740DF0A37444F01A
:1019E60090015FE0B4010D900161E4F0A3740EF084
:1019F600A37445F0900160E0640160030218B2A38D
:101A0600F0A3740FF0A37446F00218B2900163E0DD
:0F1A1600FF1220E5121B73900161E0FEA3E0FFB9
:011A2500229E
:041B6F00A37401F06A
:101B7300E4900174F0900174E06003021C5704F0D8
:101B8300121A2678647C017D017E007F101205E223
:101B930090016DE0B40105E4900174F0900164E0FC
:101BA300B40105E4900174F0900165E0B40105E42B
:101BB300900174F0900166E0B40105E4900174F0C3
:101BC300900167E0B40105E4900174F0900168E0CE
:101BD300B40105E4900174F0900169E0B40105E4F7
:101BE300900174F090016AE0B40105E4900174F08F
:101BF30090016BE0B40105E4900174F090016CE096
:101C0300B40105E4900174F090016EE0B40105E4C1
:101C1300900174F090016FE0B40105E4900174F059
:101C2300900170E0B40105E4900174F0900171E05B
:101C3300B40105E4900174F0900172E0B40105E48D
:101C4300900174F0900173E064016003021B78A3B8
:0B1C5300F0021B787F647E00021FC2BD
:0E20CB007F037E00121E457F027E00021E452E
:101A26007F027E00121E45C297C296C295C294D20C
:101A360093D292D291D290C297D296D295D2941244
:101A460020CB2093089001757401F08005E4900185
:101A560075F02092089001787401F08005E49001F9
:101A660078F020910890017B7401F08005E49001E4
:101A76007BF02090089001837401F08005E49001CA
:101A860083F0D297C2961220CB20930890017674E9
:101A960001F08005E4900176F020920890017974B7
:101AA60001F08005E4900179F020910890017C74A2
:101AB60001F08005E490017CF020900890017E748E
:101AC60001F08005E490017EF0D296C2951220CBFB
:101AD6002093089001777401F08005E4900177F077
:101AE60020920890017A7401F08005E490017AF062
:101AF60020910890017D7401F08005E490017DF04D
:101B06002090089001847401F08005E4900184F02F
:101B1600D295C2941220CB20930890017F7401F0D5
:101B26008005E490017FF02092089001807401F016
:101B36008005E4900180F02091089001817401F005
:101B46008005E4900181F02090089001827401F0F4
:101B56008005E4900182F0D2941220CBE4FFFE12BD
:081B66001E457B017A0179752F
:011B6E002254
:1020740090014DEFF07F047E00121E4590014D1239
:092084001FBB7F057E00021E4512
:10208D00900164EFF07F067E00121E4590016412F0
:09209D001FBB7F077E00021E45F7
:101FF1007F327E00121FC27F381220747F057E005F
:10200100121FC27F38122074121FBE7F0F1220745C
:0F201100121FBE7F011220747F027E00021FC2C9
:0B20A6007D017BFF7E007F161205E22B
:0C20B1007F011220747F027E00021FC21B
:0320E50002208D49
:061EE8007B017A0079CEB7
:0B1EEE0090014DEBF0A3EAF0A3E9F037
:101EF900E4A3F0A3F090014DE0FBA3E0FAA3E0F91D
:101F0900A3E0FEA3E0FFF5828E83120621646060E0
:101F19001B8F828E83120621FF1220E5900151E06A
:0C1F290004F070D1900150E004F080C979
:011F35002289
:09202000EEF0A3EFF07F037E0057
:10202900EE700DEF24FE600A14600B14600C24039B
:10203900800C7FC0800A7F9480067FD480027F80D5
:0420490012207422CB
:051E9900E0FEA3E0FFE4
:081E9E0090013BEEF0A3EFF010
:101EA600783D7C017D017BFF7A0E793D7E007F0ABD
:101EB6001205E290014A74FFF0A3740BF0A3746458
:101EC600F090013BE0FFA3E090014DCFF0A3EFF0CF
:101ED6007B017A01793D1207467B017A01793D0241
:021EE6001EEEEE
:051F3600900131EFF005
:101F3B0078327C017D017BFF7A0E79477E007F072B
:101F4B001205E290014A74FFF0A3740BF0A3746ABC
:101F5B00F0900131E0FF90014DE4F0A3EFF07B0135
:101F6B007A0179321207467B017A017932021EEE31
:0320E8000220E5EE
:101E4500EE7050EFB40800504A901E55F8282873DC
:101E5500021E6D021E71021E75021E79021E7D0292
:101E65001E84021E8B021E92C2B2800EC2B2801167
:101E7500C2B28014C2B28017D2B2C2B4C2B322D2E7
:101E8500B2C2B4D2B322D2B2D2B4C2B322D2B2D287
:041E9500B4D2B322EE
:071FBB00E0F5907F017E00BC
:101FC200AD07AC06E412010E7B527AB8794E784026
:101FD200120003120147E4FDFCC3ED9FEC9E500E7C
:0E1FE200E4FB0BEBB464FB0DBD00010C80EBC7
:011FF00022CE
:10000300EC4D6011E8497017ED33EC3304600DE4F7
:10001300FCFFFEFD22E933E8330470F80201B3125A
:10002300017E58046009E4CC24815006285009025B
:1000330001BD2840030201BAC0E0EB4A7044B98015
:1000430006D0E0FB0201A9EF4E701CBD8008EBFF58
:10005300EAFEE9FD80EBE98DF0A4FEE5F00200EC99
:10006300E9CDF9EAFEEBFFEF89F0A4FCE5F0CE89D8
:10007300F0A42EFFE435F0CD89F0A42DFEE435F095
:100083008067EF4E7005BD80D780C3EF8BF0A4ACC3
:10009300F0EE8BF0A42CFCE435F0F8EF8AF0A42CFE
:1000A300E5F038FCE433CB8DF0A42CFCE5F03BF811
:1000B300EE8AF0A42CFCE5F038F8E433CF89F0A401
:1000C3002CFCE5F038CF3400CE89F0A42FFFE5F007
:1000D3003EFEE433C98DF0A42EFEE5F039CD8AF05F
:1000E300A42FFFE5F03EFEE43DFD33D0E0FB5007D7
:1000F3000BBB000F0201BDEC2CFCEF33FFEE33FE14
:06010300ED33FD02019541
:1001090075F020800E75F010800575F0087D007E71
:10011900007F003392D530D503120660EC334010CE
:10012900EF33FFEE33FEED33FDEC33FCD5F0ED227A
:0E013900E5F0247EA2D513CC92E7CDCEFF22B6
:10014700EDD2E7CD33EC3392D524814006E4FFFEB0
:10015700FDFC22FCE4CFCECDCC24E0501174FF800F
:10016700EDC3CC13CCCD13CDCE13CECF13CF0470AC
:07017700F030D5DE02066046
:1006E100E508244AF582E43401F583E00508229007
:1006F100014730070390014AE475F00112066E02CA
:1007010006082000E97F2ED2008018EF540F2490B4
:10071100D43440D4FF30040BEF24BFB41A0050038B
:100721002461FFE50960021509050CE50C7002055D
:100731000B30070E900147E475F00112066EEF02CF
:10074100064E02204D7403D2078003E4C207F50868
:10075100900147120685E4F509F50BF50CE50960F2
:10076100077F2012072480F5750AFFC201C200C26B
:1007710002C203C205C206C2081206F0FF700D30A4
:1007810007057F00120735AF0CAE0B22B4255FC2FF
:10079100D5C2041206F0FF24D0B40A00501A75F035
:1007A1000A780930D50508B6FF0106C6A426F62049
:1007B100D5047002D20380D924CFB41A00EF5004BB
:1007C100C2E5D204020A27D20180C6D20080C0D27B
:1007D1000280BCD2D580BAD20580B47F2012072412
:1007E1002002077401B5090040F11206E1FF12076A
:1007F1002402075ED208D20680951206E1FB12069A
:10080100E1FA1206E1F94A4B700679257A0B7BFF72
:1008110020022EE509602A7E008E82758300120671
:100821002160060EEE650A70F0C2D5EBC0E0EAC0A9
:10083100E0E9C0E0EE120A88D0E0F9D0E0FAD0E0B9
:10084100FB120608FF60AAEBC0E0EAC0E0E9C0E0E5
:10085100120724D0E02401F9D0E03400FAD0E0FB03
:10086100E50A0460DCD50AD98087D20280A2120A87
:100871006A60F7E50A7001041201C8A90A600DE572
:100881000A600914F50A120B12EF60F3EA30E7026D
:10089100F404C3995079EAF4250A0430E701E40429
:1008A100F50A800D120A6A60C1EA050A250A1201D9
:1008B100C8EA900176F030E701E4250A04D50A047C
:1008C10020050114120A88E4C0E0120B129001768F
:1008D100E0601320E70714F012070C802204F0D027
:1008E100E014C0E07F0012070CE50A60071207035D
:1008F100150A800B300503120703D0E002075ED012
:10090100E00480C4120A6A609EE50A041201C890DC
:100911000176EAF0E50A2005026001042404120AC6
:01092100884D
:1009220074FF04C0E0120B1212070CE50A20050244
:100932006003120703D0E0B50AE87F45120716905C
:100942000176E07F2B30E7047F2DF404C0E012072C
:1009520024D0E075F00A84C0F012070DD0E012072F
:100962000D02075E791080027908C206C20880086B
:10097200D2D5790A8004790AC2D5E50A047002F553
:100982000AE4FAFDFEFF1206E1FC7B0820011312C5
:1009920006E1FD7B1030000A1206E1FE1206E1FFBD
:1009A2007B20EC3382D592D55013C3E43000069FEE
:1009B200FFE49EFEE42001039DFDE49CFCE4CBF8F1
:1009C200C201EC700CCFCECDCCE824F8F870F380E5
:1009D20017C3EF33FFEE33FEED33FDEC33FCEB33A5
:1009E200FB994002FB0FD8E9EB300105F8D0E0C4D7
:1009F20048B201C0E00AEC4D4E4F78207B0070C235
:100A0200EAB50A0040BCC0E0120A8AD0F0D0E02069
:100A12000104C4C0E0C4B201C0F012070DD0F0D589
:100A2200F0EB02075E12068E07FB5309665807CCED
:100A32004C07C842096A4F09724409724907E143E7
:100A420009785508A546090545086F470B45500723
:100A5200D02D07D42E07F72B07D82307F5200B2E0E
:100A62002A079048000007EFE50AB4FF03750A065B
:100A72001206E1FC1206E1FD1206E1FE1206E1FF9A
:100A820090016F020205790AA2D5200314300509EC
:100A9200B910020404B9080104A2D52006025001CB
:100AA200042002689202B509005034C0E07F203071
:100AB20003197F30A20272067205500F120AE1C2B8
:100AC20002C206C205C2087F30800F300503E9C0AA
:100AD200E0120724300503D0E0F9D0E0B509CC30AC
:100AE20005177F30B9100C1207247F583004077F96
:100AF200788003B908031207243002057F2D02070C
:100B0200247F202008F87F2B2006F322920280CF38
:100B12007F00B40700500B246FF582E43401F583A3
:100B2200E0FF22286E756C6C2900D2011206E130BA
:100B320001F8C201780930D50108F60207902D505C
:100B42004349581206E12403B405004001E4900B26
:100B52004093120715743A120715D203750904025D
:020B6200096622
:10017E00E9D2E7C933E833F892D5EDD2E7CD33ECC7
:07018E0033FC5002B2D52240
:10019500EC30E7100FBF000C0EBE00080DBD0004CB
:1001A5000BEB6014A2D5EB13FCED92E7FD2274FF77
:1001B500FCFDFEFF22E480F8A2D574FF13FC7D80D0
:0301C500E480EFE4
:1001C800F920E73624F950037907E4F42402FBE523
:1001D80082158270021583DBF6E024FB501BE96070
:1001E80014E4F0E582158270021583E004F0B40A85
:0D01F80008E4F0D9EE7401F00A22C2D5220D
:10020500ED33EC3392D5FA602AB4FF33EDC2E77BC8
:10021500FF60067A02792AE4227A02793320D5042E
:100225007A02792E224E614E002B494E46002D4909
:100235004E4600E47A08F0A3DAFC7B00740722C07E
:1002450083C082ECC0E0EDC0E0EEC0E0EFC0E0EAC4
:1002550075F010A4CAABF075F04DA42BFBE435F096
:10026500FCEA2410FAEB34C5FBEC34D9FCEDC2E70B
:10027500FF75F056A4F42411C5F0F434C58FF0A42D
:100285002AE5F03BE43CF020E7141204D2D0E0FF6D
:10029500D0E0FED0E0FDD0E0FC1204058014F404AB
:1002A5001204D2D0E0FFD0E0FED0E0FDD0E0FC1299
:1002B5000003D082D083E0FAEDD2E7CD33EC3324CE
:1002C50082FBE4C3CF33CFCE33CECD33CD33DBF397
:1002D5007B0775F00A846004F0A31B0AE5F0F0A320
:1002E5008FF0740AA4FFACF08EF0740AA42CFEAC57
:1002F500F050010C8DF0740AA42CFDE435F0F0A348
:05030500DBDE7407229D
:10030A000201B3E86480F8E933E83360110460F06D
:10031A00ED33EC337009E8FCE9FDEAFEEBFF220459
:10032A0060DED3EB9FEA9EE99DE8C2E78CF0C2F754
:10033A0095F0400CE8CCF8E9CDF9EACEFAEBCFFB20
:10034A0012017E85D0F05804700320D5B3E80470FA
:10035A00075002B2D50201BD92D5EC0460F7E4CC95
:10036A00C0E0C398F8603B94186008400DD0E0FBE9
:10037A00020195E4FBFAC9FC8028E830E406E4C9E6
:10038A00FBE4CAFCE830E305E4C9CACBFCE854073D
:10039A006010F8C3E913F9EA13FAEB13FBEC13FC48
:1003AA00D8F130F52FC3E49CFCEF9BFFEE9AFEEDEB
:1003BA0099FDD0E0FBEF4E4D4C701222DB03020197
:1003CA00BAEC2CFCEF33FFEE33FEED33FDED30E7F4
:1003DA00EB020195EF2BFFEE3AFEED39FDD0E0FB83
:1003EA0050130BBB00030201BDED13FDEE13FEEF2C
:0803FA0013FFEC13FC02019556
:100402000201BDEC5D046005E8590470030201B30A
:1004120012017E580460F6EC4860F2EC7004FDFEB6
:10042200FF22C860DB2481C85009C39860025006CD
:100432000201BA9850CAF582E9294B4A7005AB828B
:100442000201A975F0007C1A7880C3EF9BEE9AED49
:1004520099400DC3EF9BFFEE9AFEED99FDE842F045
:10046200DC23ACF0D0E0FFD0E0FED0E0FDAB822098
:10047200E7101BEB60BAEC2CFCEF33FFEE33FEED22
:1004820033FD020195E803F830E705C0F075F0008E
:10049200EF2FFFEE33FEED33FD40B830E7C280AA06
:1004A2003F8000004120000042C80000447A000062
:1004B200461C400047C35000497424004B189680E4
:1004C2004CBEBC205A0E1BCA6753C21C749DC5AEDB
:1004D200FB60065407601C2323120500EB543860AE
:1004E200091204EC1204FB120003ECF8EDF9EEFA27
:1004F200EFCB22EB1204FB80F1543803241C90044E
:10050200A2FE93FC0EEE93FD0EEE930ECE93FF220F
:030000000220D902
:0C20D900787FE4F6D8FD7581210220BD5F
:10051200E709F608DFFA8046E709F208DFFA803ECB
:1005220088828C83E709F0A3DFFA8032E309F608B8
:10053200DFFA8078E309F208DFFA807088828C8320
:10054200E309F0A3DFFA806489828A83E0A3F608D4
:10055200DFFA805889828A83E0A3F208DFFA804CAE
:1005620080D280FA80C680D4806980F28033801085
:1005720080A680EA809A80A880DA80E280CA8033EE
:1005820089828A83ECFAE493A3C8C582C8CCC58366
:10059200CCF0A3C8C582C8CCC583CCDFE9DEE78036
:1005A2000D89828A83E493A3F608DFF9ECFAA9F0B5
:1005B200EDFB2289828A83ECFAE0A3C8C582C8CC0B
:1005C200C583CCF0A3C8C582C8CCC583CCDFEADE24
:1005D200E880DB89828A83E493A3F208DFF980CC86
:1005E20088F0EF60010E4E60C388F0ED2402B4047F
:1005F2000050B9F582EB2402B4040050AF23234526
:06060200822390056273E3
:10060800BB010689828A83E0225002E722BBFE02F0
:09061800E32289828A83E4932223
:10062100BB010CE58229F582E5833AF583E022508E
:1006310006E92582F8E622BBFE06E92582F8E222D8
:0D064100E58229F582E5833AF583E49322F2
:10064E00BB010689828A83F0225002F722BBFE018B
:02065E00F32285
:0E066000C3E49FFFE49EFEE49DFDE49CFC22AB
:10066E00F8E0FBA3A3E0F925F0F0E5821582700215
:07067E001583E0FA38F022B9
:09068500EBF0A3EAF0A3E9F02276
:10068E00D083D082F8E4937012740193700DA3A3FB
:10069E0093F8740193F5828883E47374029368600F
:0606AE00EFA3A3A380DF0F
:1006B400D083D082F8E4937012740193700DA3A3D5
:1006C40093F8740193F5828883E473740293B5F00C
:0D06D400067403936860E9A3A3A3A380D874
:10204D00EFB40A07740D122058740A309811A8992C
:10205D00B8130CC2983098FDA899C298B811F630F3
:07206D0099FDC299F59922CB
:00000001FF
