:400000000080002011000000451700004517000080B500AF01F0A0FB80B500AF2D4B12221A6003F00BF82C4B180003F0EDFA012003F014F8302002F0F3FD284B284A1A60CD
:40004000284B8022D2051A60274B274A126802210A431A60254B264A1A60264B00221A60254B254A126808218A431A60FA23DB00180002F0CBFE214B180002F07FFF204B79
:40008000204A1A60204B214A1A60214B802292001A601D4B1F4A1A601F4B802212061A601E4B8022D2021A601D4B41221A601D4B40221A601C4B1900082002F0F1FE082076
:4000C00002F014FF074B8022D2051A60C046BD4680BDC04630001040001BB70004010B40060000800C020B4078002E407C002E40D0D0000064F02E406CF02E40DC0500000C
:400100000403014000DB05000000014041FF00800003014040FF008008010B4000010B401C01014004010140B131000080B582B000AF72B6344B00221A60FB1D00221A7050
:4001400022E0FB1D1A7813005B009B185B002F4A9B183B603B681A78597809020A43997809040A43DB781B06134318003B681A795B791B0213439BB2190001F0BFFAFB1D40
:400180001A78FB1D01321A70FB1D1B78012BD8D91F4B204A1A60204BFF2212061A601F4B992212041A601E4B992212041A601D4B992212041A601C4A1B4B1B78DBB20621B5
:4001C0000B43DBB21370194B10221A60184B194A1A60194B10221A60184BF1221A60184B184A1A60184BC1221A60184B01221A60174B06221A60FFF70FFF01F08FFAC046CA
:40020000BD4602B080BDC0466CF02E4074520100000002400000FFEE0001024000500F4010500F4020500F4000700F40000004400800044000E0D80018000440000104400E
:40024000080104400020DA0018010440000204400802044010B5064C2378002B07D1054B002B02D0044800E000BF0123237010BD001100200000000070520100084B10B5C9
:40028000002B03D00749084800E000BF07480368002B00D110BD064B002BFBD09847F9E7000000000411002070520100A80B00200000000080B586B004AF012003F07CF906
:4002C000012000F02BF9012001F07EF9012001F029F9322002F02CFE0A21012001F04AF9FA239B00180002F023FEFF2001F032F9322002F01DFE764B180000F01DFCFB1DA7
:40030000FF221A700CE0FB1D1B78180001F022F90A2002F00DFEFB1DFA1D1278053A1A70FB1D1B78002BEED1BB1D00221A700CE0BB1D1B78180001F00DF90A2002F0F8FD1E
:40034000BB1DBA1D127805321A70BB1D1B78FF2BEED1FF2001F0FEF8F8231B02180000F0EBFBFA235B00180002F0E2FD594B180000F0E2FBFA235B00180002F0D9FDFC23A2
:40038000DB00180000F0D8FBFA235B00180002F0CFFD514B180000F0CFFBFA235B00180002F0C6FD4D4B180000F0C6FBFA235B00180002F0BDFD002000F0BEFB00233222A9
:4003C0006421642000F0DAFBFC23DB0031226421642000F0FBFBC7235A001F230093C6230B210B2000F072FBC8235A00FC23DB000093C8230A210A2000F032FB00220A21C1
:400400000A2000F045FA00220B210B2000F040FAF8231B0200936423C8220A210A2000F083FA002302937D230193962300936423FA220F21C82000F0F1FB264B02937C234E
:400440000193972300936323F9221021C82000F01BFC962358000023009328236422642100F048FC96235800FC23DB00009326236222642100F06AFC0023019302230093D4
:40048000282350226421322000F08CFC104B01930223009326234E226421322000F0B2FC0F4B180001F032FA002001F0D9F9FA239B00180002F03CFD012001F0D1F9FA23F5
:4004C0009B00180002F034FD03F07EFDECE7C046FFFF0000E0FF0000FF0700001FF80000E504000080B582B000AF786039607B68012B00D006E0054B054A1A60054B064AF7
:400500001A60C046C046BD4602B080BD60F02E4031030000080003400203008080B584B000AF0200FB1D1A70234BFA1D12781A70214B1B78002B08D1204BF02252001A80C0
:400540001F4B882252001A800EE01B4B1B78012B08D11A4BC82292001A80194BF02252001A8001E0002322E0012002F0FDFF002003F022F8642002F0DBFC012003F01CF8FB
:400580000A2002F0D5FC002001F04EF80300FB60FB68DBB21900002001F02EF8642002F0C7FC642002F0C4FC00F034F801231800BD4604B080BDC0466B2200206C2200203D
:4005C0006E22002080B500AF114B1B78002B0ED10A21882001F010F8012002F0A9FC0221892001F009F8012002F0A2FC0DE00A21882001F001F8012002F09AFC022189205C
:4006000000F0FAFF012002F093FCC046BD4680BD6B22002080B584B000AFFFF7D3FF0C21102000F0E9FF874B1B78002B1FD10F23FB1882221A700B23FB180A221A700E230C
:40064000FB1808221A700D23FB1830221A700C23FB1800221A700823FB1803221A80BB1D08221A800A23FB180A221A701EE00F23FB1881221A700B23FB181A221A700E236F
:40068000FB1820221A700D23FB1860221A700C23FB1800221A700823FB1820221A80BB1D17221A800A23FB1802221A700F23FB181B781900042000F09FFF012002F038FC81
:4006C000614B1B88DB089BB2DBB2013BDBB21900142000F091FF0C23FB181B781900152000F08AFF0B23FB181A780C23FB181B78D31A023B002B00DA0733DB10DBB219001A
:40070000162000F079FF0E23FB181B78DB08DBB2013BDBB21900172000F06EFF0D23FB181B78DB08DBB2013BDBB21900182000F063FF464B1B88DBB2013BDBB219001920D0
:4007400000F05AFF414B1B88013B9BB21B0A9BB2DBB219001A2000F04FFF0823FB181B88DBB2013BDBB219001B2000F045FF0823FB181B881B0A9BB2DBB219001C2000F004
:400780003BFFBB1D1B88DBB2013BDBB219001D2000F032FFBB1D1B881B0A9BB2DBB219001E2000F029FF0A23FB181B78013BDBB219001F2000F020FF0021302000F01CFF4F
:4007C0000021312000F018FF1F4B1B88DBB2013BDBB21900342000F00FFF1B4B1B88013B9BB21B0A9BB2DBB21900352000F004FF0021322000F000FF0021332000F0FCFE00
:40080000124B1B88DBB2013BDBB21900362000F0F3FE0E4B1B88013B9BB21B0A9BB2DBB21900372000F0E8FE80218E2000F0E4FEFA235B00180002F07BFBC046BD4604B072
:4008400080BDC0466B2200206C2200206E22002080B584B000AF0200FB1D1A70BB1D0A1C1A70FB1D1B78180000F0DEFE02000F23FB181A700F23FB18BA1D1B7812781340FA
:40088000DBB2002BEDD101231800BD4604B080BD90B583B000AF040008001100BB1D221C1A803B1D021C1A80BB1C0A1C1A80BB1D1B88DBB21900462000F09EFEBB1D0022EA
:4008C0009B5E1B121BB2DBB21900472000F094FE3B1D1B88DBB21900482000F08DFE3B1D00229B5E1B121BB2DBB21900492000F083FE022000F0E6FE02F0EAFC002002F025
:4009000033FDBB1C1B881B0A9BB2180002F02CFDBB1C1B88180002F027FD02F0EBFCC046BD4603B090BDC046B0B582B000AF05000C0010001900BB1D2A1C1A803B1D221C0A
:400940001A80BB1C021C1A803B000A1C1A80912000F0B8FEBB1D1B88DBB2180000F076FE922000F0AFFEBB1D00229B5E1B121BB2DBB2180000F06AFE932000F0A3FE3B1DA3
:400980001B88DBB2180000F061FE942000F09AFE3B1D00229B5E1B121BB2DBB2180000F055FE952000F08EFEBB1C1B88DBB2180000F04CFE962000F085FEBB1C00229B5E6A
:4009C0001B121BB2DBB2180000F040FE972000F079FE3B001B88DBB2180000F037FE982000F070FE3B0000229B5E1B121BB2DBB2180000F02BFE632000F064FE1823FB181D
:400A00001B88DB0A9BB2DBB2180000F01FFE642000F058FE1823FB181B885B11DBB23F221340DBB2180000F011FE652000F04AFE1823FB181B88DBB21F221340DBB21800AF
:400A400000F004FE902000F03DFE802000F0FEFD80219020FFF7FCFEC046BD4602B0B0BDB0B584B002AF05000C0010001900BB1D2A1C1A803B1D221C1A80BB1C021C1A80BA
:400A80003B000A1C1A80BB1D1A88BB1C1B88D3189BB21CB23B1D1A883B001B88D3189BB21AB23B1D0021595EBB1D0020185E002301931823FB181B8800931300220000F067
:400AC00053FAC046BD4602B0B0BDC046B0B584B002AF05000C0010001900BB1D2A1C1A803B1D221C1A80BB1C021C1A803B000A1C1A80BB1D1A88BB1C1B88D3189BB21CB28B
:400B00003B1D1A883B001B88D3189BB21AB23B1D0021595EBB1D0020185E012301931823FB181B8800931300220000F01DFAC046BD4602B0B0BDC04680B584B002AF020079
:400B4000BB1D1A800B4B1B88013B9BB21AB20A4B1B88013B9BB219B201230193BB1D1B8800930B000021002000F0FEF9C046BD4602B080BD6C2200206E220020B0B584B081
:400B800002AF05000C0010001900BB1D2A1C1A803B1D221C1A80BB1C021C1A803B000A1C1A803B001C88BB1C00229A5E3B1D0021595EBB1D0020185E00230093230000F0A1
:400BC00051F9C046BD4602B0B0BDC046B0B584B002AF05000C0010001900BB1D2A1C1A803B1D221C1A80BB1C021C1A803B000A1C1A803B001C88BB1C00229A5E3B1D00213E
:400C0000595EBB1D0020185E01230093230000F029F9C046BD4602B0B0BDC046B0B586B004AF05000C0010001900BB1D2A1C1A803B1D221C1A80BB1C021C1A803B000A1C15
:400C40001A803B0000241C5FBB1C00229A5E3B1D0021595EBB1D0020185E002303932023FB181B8802931C23FB1800255B5F01931823FB1800255B5F0093230000F01AFA7E
:400C8000C046BD4602B0B0BDB0B586B004AF05000C0010001900BB1D2A1C1A803B1D221C1A80BB1C021C1A803B000A1C1A803B0000241C5FBB1C00229A5E3B1D0021595E17
:400CC000BB1D0020185E012303932023FB181B8802931C23FB1800255B5F01931823FB1800255B5F0093230000F0E4F9C046BD4602B0B0BDB0B584B002AF05000C00100036
:400D00001900BB1D2A1C1A803B1D221C1A80BB1C021C1A803B000A1C1A803B0000241C5FBB1C00229A5E3B1D0021595EBB1D0020185E002301931823FB181B880093230061
:400D400000F08CFAC046BD4602B0B0BDB0B584B002AF05000C0010001900BB1D2A1C1A803B1D221C1A80BB1C021C1A803B000A1C1A803B0000241C5FBB1C00229A5E3B1DBC
:400D80000021595EBB1D0020185E012301931823FB181B880093230000F060FAC046BD4602B0B0BDB0B586B004AF05000C0010001900BB1D2A1C1A803B1D221C1A80BB1CD5
:400DC000021C1A803B000A1C1A803B0000241C5FBB1C00229A5E3B1D0021595EBB1D0020185E002302931C23FB181B8801931823FB181B780093230000F0D6FAC046BD4636
:400E000002B0B0BDB0B586B004AF05000C0010001900BB1D2A1C1A803B1D221C1A80BB1C021C1A803B000A1C1A803B0000241C5FBB1C00229A5E3B1D0021595EBB1D0020A6
:400E4000185E012302931C23FB181B8801931823FB181B780093230000F0A6FAC046BD4602B0B0BDB0B582B000AF05000C0010001900BB1D2A1C1A803B1D221C1A80BB1C2C
:400E8000021C1A803B000A1C1A80992000F01AFCBB1D1B88DBB2180000F0D8FB9A2000F011FCBB1D00229B5E1B121BB2DBB2180000F0CCFB9B2000F005FC3B1D1B88DBB2A9
:400EC000180000F0C3FB9C2000F0FCFB3B1D00229B5E1B121BB2DBB2180000F0B7FB9D2000F0F0FBBB1C1B88DBB2180000F0AEFB632000F0E7FB3B001B88DB0A9BB2DBB293
:400F0000180000F0A3FB642000F0DCFB3B001B885B11DBB23F221340DBB2180000F096FB652000F0CFFB3B001B88DBB21F221340DBB2180000F08AFB902000F0C3FB18231E
:400F4000FB181B78002B03D0602000F07FFB02E0402000F07BFB40219020FFF779FCC046BD4602B0B0BDC046B0B582B000AF05000C0010001900BB1D2A1C1A803B1D221CC3
:400F80001A80BB1C021C1A803B000A1C1A80912000F098FBBB1D1B88DBB2180000F056FB922000F08FFBBB1D00229B5E1B121BB2DBB2180000F04AFB932000F083FB3B1D0C
:400FC0001B88DBB2180000F041FB942000F07AFB3B1D00229B5E1B121BB2DBB2180000F035FB952000F06EFBBB1C1B88DBB2180000F02CFB962000F065FBBB1C00229B5EF6
:401000001B121BB2DBB2180000F020FB972000F059FB3B001B88DBB2180000F017FB982000F050FB3B0000229B5E1B121BB2DBB2180000F00BFB632000F044FB1823FB18A8
:401040001B88DB0A9BB2DBB2180000F0FFFA642000F038FB1823FB181B885B11DBB23F221340DBB2180000F0F1FA652000F02AFB1823FB181B88DBB21F221340DBB21800F7
:4010800000F0E4FA902000F01DFB1C23FB181B78002B03D0B02000F0D9FA02E0902000F0D5FA80219020FFF7D3FBC046BD4602B0B0BDC046B0B582B000AF05000C00100039
:4010C0001900BB1D2A1C1A803B1D221C1A80BB1C021C1A803B000A1C1A80912000F0F2FABB1D1B88DBB2180000F0B0FA922000F0E9FABB1D00229B5E1B121BB2DBB2180007
:4011000000F0A4FA932000F0DDFA3B1D1B88DBB2180000F09BFA942000F0D4FA3B1D00229B5E1B121BB2DBB2180000F08FFA952000F0C8FABB1C1B88DBB2180000F086FA8F
:40114000962000F0BFFABB1C00229B5E1B121BB2DBB2180000F07AFA972000F0B3FA3B001B88DBB2180000F071FA982000F0AAFA3B0000229B5E1B121BB2DBB2180000F0B8
:4011800065FAA92000F09EFA1823FB181B88DBB2180000F05BFAAA2000F094FA1823FB1800229B5E1B121BB2DBB2180000F04EFAAB2000F087FA1C23FB181B88DBB2180046
:4011C00000F044FAAC2000F07DFA1C23FB1800229B5E1B121BB2DBB2180000F037FA632000F070FA2023FB181B88DB0A9BB2DBB2180000F02BFA642000F064FA2023FB1877
:401200001B885B11DBB23F221340DBB2180000F01DFA652000F056FA2023FB181B88DBB21F221340DBB2180000F010FA902000F049FA2423FB181B78002B03D0A12000F0B5
:4012400005FA02E0812000F001FA80219020FFF7FFFAC046BD4602B0B0BDC046B0B582B000AF05000C0010001900BB1D2A1C1A803B1D221C1A80BB1C021C1A803B000A1C3B
:401280001A80A52000F01EFABB1D1B88DBB2180000F0DCF9A62000F015FABB1D00229B5E1B121BB2DBB2180000F0D0F9A72000F009FA3B1D1B88DBB2180000F0C7F9A82000
:4012C00000F000FA3B1D00229B5E1B121BB2DBB2180000F0BBF9A12000F0F4F9BB1C1B88DBB2180000F0B2F9A22000F0EBF9BB1C00229B5E1B121BB2DBB2180000F0A6F940
:40130000A32000F0DFF93B001B88DBB2180000F09DF9A42000F0D6F93B0000229B5E1B121BB2DBB2180000F091F9632000F0CAF91823FB181B88DB0A9BB2DBB2180000F039
:4013400085F9642000F0BEF91823FB181B885B11DBB23F221340DBB2180000F077F9652000F0B0F91823FB181B88DBB21F221340DBB2180000F06AF9A02000F0A3F91C236E
:40138000FB181B78002B03D0C02000F05FF902E0802000F05BF98021A020FFF759FAC046BD4602B0B0BDC046B0B582B000AF05000C0010001900BB1D2A1C1A803B1D221CF5
:4013C0001A80BB1C021C1A803B000A1C1A80A52000F078F9BB1D1B88DBB2180000F036F9A62000F06FF9BB1D00229B5E1B121BB2DBB2180000F02AF9A72000F063F93B1D36
:401400001B88DBB2180000F021F9A82000F05AF93B1D00229B5E1B121BB2DBB2180000F015F9A12000F04EF9BB1C1B88DBB2180000F00CF9A22000F045F9BB1C00229B5E51
:401440001B121BB2DBB2180000F000F9A32000F039F93B001B88DBB2180000F0F7F8A42000F030F93B0000229B5E1B121BB2DBB2180000F0EBF8632000F024F91C23FB1816
:401480001B88DB0A9BB2DBB2180000F0DFF8642000F018F91C23FB181B885B11DBB23F221340DBB2180000F0D1F8652000F00AF91C23FB181B88DBB21F221340DBB2180033
:4014C00000F0C4F8A02000F0FDF82023FB181B78002B0FD01823FB181B785BB2032213405BB23022524213435BB2DBB2180000F0ADF80EE01823FB181B785BB2032213405E
:401500005BB27022524213435BB2DBB2180000F09DF88021A020FFF79BF9C046BD4602B0B0BDC04680B582B000AF0200FB1D1A70FB1D1B78002B04D00121C72000F05CF821
:4015400003E00021C72000F057F8C046BD4602B080BDC04680B582B000AF0200FB1D1A70FB1D1B7819008B2000F046F8C046BD4602B080BD80B582B000AF0200FB1D1A703A
:40158000BB1D0A1C1A70FB1D1B78002B0FD0BB1D1B785BB20F2213405BB28022524213435BB2DBB219008A2000F026F808E0BB1D1B780F221340DBB219008A2000F01CF8C3
:4015C000C046BD4602B080BD80B582B000AF0200FB1D1A70FB1D1B78002B04D08021012000F00AF803E00021012000F005F8C046BD4602B080BDC04680B582B000AF0200B3
:40160000FB1D1A70BB1D0A1C1A70FB1D1B78180000F058F8BB1D1B78180000F017F8C046BD4602B080BDC04680B582B000AF0200FB1D1A70FB1D1B78180000F043F800F065
:4016400021F803001800BD4602B080BD80B582B000AF0200FB1D1A7001F03AFE012001F067FC002001F080FEFB1D1B78180001F07BFE012001F05CFC01F03CFEC046BD4692
:4016800002B080BD80B582B000AF00237B6001F01FFE012001F04CFC402001F065FE002001F062FE01F050FE02000F2313407B60012001F03DFC01F01DFE7B681800BD46A4
:4016C00002B080BD80B582B000AF0200FB1D1A7001F0FEFD012001F02BFC802001F044FEFB1D1B78180001F03FFE012001F020FC01F000FEC046BD4602B080BD80B582B0DC
:4017000000AF786039603A687B680021180002F01FFCC046BD4602B080BDC04680B500AF054B03221A60054B03221A60044B00221A60C046BD4680BD30003040300031408C
:40174000000E3F4080B500AF02F0BEFB03001B680C2B00D1FEE7FEE780B586B000AF224B7B61224B3B61204B7B6135E03B691B68FB603B695B68BB603B699B683B600023C4
:401780007B600CE0FB681A68BB681A60BB680433BB60FB680433FB607B6804337B607A683B689A42EED13B69DB683B6000237B6008E0BB6800221A60BB680433BB607B68E2
:4017C00004337B607A683B689A42F2D13B6910333B617B69013B7B617B69002BC6D102F079FBFEF767FDFEE7010000005058010080B582B000AF154B144A126801218A4303
:401800001A6000237B600FE07B68032B04D8104B7A689200D35800E00E4B0F4A796889008B507B6801337B607B682F2BECD9FEF77DFC0A4B00221A60044B044A12680121F7
:401840000A431A60C046BD4602B080BD00001040000000004517000000000020C000002080B584B000AF0200FB1D1A700F4B1B68DAB20F23FB1810218A431A70FB1D1B7860
:401880001B01DBB210221340D9B20F23FB180F22BA1812780A431A70044B0F22BA1812781A60C046BD4604B080BDC0460001044080B500AF094B00221A70094B00221A7047
:4018C000084B00221A7000F013F8074B00221A70064B00221A70C046BD4680BD932200208C22002092220020702200207822002080B500AF01F098FE01F08CF900F0A2FC5B
:4019000001F0FCF8C046BD4680BDC046B0B594B004AF78603E23FB1800221A802823FA183D4B1000190014231A0002F008FB3B4B1B78002B04D1FFF7BBFF384B01221A70C5
:401940007B68002B5CD0364B7A681A603E23FB181B88002B29D11023FB181C22BA185A601023FB182022BA181A601023FB1800221A812023FB181B221A802023FB181B226D
:401980005A802023FB1804221A711C23FB1808221A703E23FC180E23FA181023FB181100180002F0EDFB030023803E23FB181B88002B29D13E23FC182823FD18AE231A019C
:4019C00018491948194B0293194B0193052300932B0002F02BFB030023803E23FB181B88002B11D1134B01221A703E23FC18124B09223F2118000EF0B1FC0300238003E0B8
:401A00003E23FB1801221A803E23FB181B881800BD4610B0B0BDC046805201001C11002074220020C8000020F11D00007902000000610100882200209C52010090B585B034
:401A400000AF0200FB1D1A70FB1D1B78022B04D90E23FB1801221A804AE0294B1B78042B41D1284B1B78DBB21A00042313403AD1FB1D1B78002B0BD1234B1E221A82224B50
:401A80005B6820221A80204B5B6830225A8010E0FB1D1B78012B0CD11B4B96221A821A4B5B68C822D2001A80174B5B688022D2015A80164BFA1D12781A700E23FC18124BAF
:401AC00018000CF081FC030023800E23FB181B88002B0DD10B4B1B78DBB204221343DAB2084B1A7004E00E23FB180422FF321A800E23FB181B881800BD4605B090BDC04641
:401B00008822002093220020DC0B00209222002080B584B000AF78600A00FB1C1A700023BB60BB68002B20D07B689A79BB681A700F23FB1800221A7012E00F23FB181B78B6
:401B40000133BA68D3180F22BA18127879688A5C1A700F23FB181A780F23FB1801321A700F23FB181B78052BE7D9C046BD4604B080BDC04680B582B000AF78607B681B7841
:401B80009AB27B6801331B789BB21B029BB213439BB21800BD4602B080BDC04690B585B000AF78600F23FB1800221A707B689B890B22934232D17B68181D7A680F23FC1887
:401BC000402300210EF018FC030023700F23FB181B78002B1AD17B685B681800FFF7CAFF03001A00022313409BB2002B07D00F4B1B687968822252001000984706E00B4B8B
:401C00001B6879680622FF3210009847084B1B78DBB201229343DAB2054B1A700F23FB181B781800BD4605B090BDC046742200209322002090B585B000AF78600F23FC1859
:401C40007B681800FFF7AAFF03002370334B1B78DBB21A00012313400CD00F23FB181B78002B07D10F23FC187B68180001F0E2FC03002370294B1B78DBB21A000123134083
:401C80000CD00F23FB181B78002B07D10F23FC187B68180000F0E8FC030023701F4B1B78DBB21A00012313400CD00F23FB181B78002B07D10F23FC187B68180000F024FF9C
:401CC00003002370154B1B78DBB21A00012313401FD10F23FB181B78002B16D00823FB1812229A707B689A890823FB181A800823FB180F22BA181278DA700823FA187B68D5
:401D0000110018680DF0ACFC03E07B6818680DF029FDC046BD4605B090BDC0469322002080B582B000AF7860C046BD4602B080BD80B500AF044B00225A70034B00221A701F
:401D4000C046BD4680BDC0469022002080B582B000AF7860C046BD4602B080BD80B500AF00F08EFEC046BD4680BDC04680B584B000AF78600E23FB1800221A707B689B79DC
:401D8000002B1CD10F23FB1800221A7012E00F23FB181B787A68D35C002B04D00E23FB1801221A700BE00F23FB181A780F23FB1801321A700F23FB181B78052BE7D90E2392
:401DC000FB181B781800BD4604B080BD80B582B000AF0200BB1D1A80C046BD4602B080BD80B582B000AF7860C046BD4602B080BD80B588B000AF02003960FB1D1A70C94B5C
:401E00001B78DBB201221343DAB2C64B1A70FB1D1B78412B00D160E123DC212B00D1C6E00DDC022B00D198E002DC012B3BD0E8E1052B00D196E0062B00D198E0E1E1272BB5
:401E400000D1EEE006DC242B00D1E0E0262B00D1F3E0D6E1282B00D1EBE02A2B00D1DBE0CFE14F2B00D1BFE10BDC432B00D175E100DA54E14C2B00D18DE14E2B00D18FE1EF
:401E8000BFE1572B00D1B1E106DC502B00D1AFE1542B00D19BE1B4E1712B00D117E1FA2B00D199E1ADE11423FB1802221A701423FB1800225A701423FB18180004F064F83B
:401EC0001423FB1802221A701423FB1801225A701423FB18180004F057F80023002B01D002F06AF8904B1B681800FFF73FFF031E11D08D4B1B68180002F06AF88A4B1B68D0
:401F000000211800FFF704FE874B1B6801211800FFF7FEFD0DE0854B180002F059F8834B00211800FFF7F4FD804B01211800FFF7EFFD00200CF0DCF81023FB183F221A70E2
:401F40001023FB1800225A701023FB1818000CF0EDF8774B04221A7053E13B681800FFF7F5FE4EE13B681A78724B1A7049E13B68BB61BB691B78002B00D03BE1BB695B784D
:401F8000002B0BD16C4B0022DA806B4B00229A80694B6A4A1A60BB69674A5A60614B1B78DBB201229343DAB25E4B1A7022E15D4B1B78DBB21A002023134000D01CE1604B0D
:401FC0001B78102B02D15E4B0522DA705D4B1B785B4A110018000CF0B5F903001A000E23FB181A800E23FB181B88002B06D0564B1B680E22BA18110036209847494B1B78FD
:40200000DBB201221343DAB2464B1A70F4E03B685A784E4B1A70F4E03B681800FFF7E0FEEFE03B681800FFF7DBFE414B02221A70E7E03F4B04221A70E3E03D4B1B78022B85
:4020400000D1DBE0374B1B78DBB21A000123134000D1D3E0334B1B78DBB21A00042313400BD0334B03221A702E4B1B78DBB204229343DAB22B4B1A70C0E02A4B1B78DBB28D
:402080001A00082313400BD0294B04221A70254B1B78DBB208229343DAB2224B1A70ADE0234B1B78032B00D0A8E0214B04221A70274B1B78002B00D0A0E00120FFF7BEFCF5
:4020C000031E00D09AE01A4B03221A7096E03B681B881800FFF77AFE93E01A4A3B681000190002231A0001F02AFF124B00221A70144B1B781A0013005B009B189B009E2292
:4021000092009A18134BD3180133134A100019000C231A0001F013FFFFF720FE71E0FFF707FE6EE093220020F80B0020F00B0020882200208C22002044110020A80B00206B
:40214000540D002090220020742200207822002092220020006101007C2200203B685B88162B05D81E23FB183A6852881A8003E01E23FB1817221A801E23FB1819883B68F8
:402180001A8800231204120C1B0C1B04134318000DF070FA35E03B681800FFF74BFD30E0254B1B78DBB21A000123134003D03B68180000F059FA204B1B78DBB21A00012332
:4021C00013401DD03B68180000F09EFC18E03B681800FFF7A5FD14E0184B1B7801221343DAB2164B1A700CE0C0460AE0C04608E0C04606E0C04604E0C04602E0C04600E0C7
:40220000C0460D4B1B78DBB21A00112313400ED0094B1B78DBB201229343DAB2064B1A70074B1B68FA1D1278396810009847C046BD4608B080BDC04693220020702200203C
:402240007422002080B500AFC046BD4680BDC04690B587B000AF0400080011003B60FB1D221C1A70BB1D021C1A707B1D0A1C1A701623FB1800221A80FB1D1B78002B03D13B
:40228000BB1D1B78072B04D91623FB1801221A80BCE0BB1D1B78062B66D89A005F4BD3181B689F46FB1D1A781423F9185C4813009B009B18DB00C31802331B880B807EE020
:4022C000FB1D1A781423F918554813009B009B18DB00C3181E331B880B8070E0FB1D1A781423F9184E4813009B009B18DB00C31822331B880B8062E0FB1D1A781423F91813
:40230000474813009B009B18DB00C31824331B880B8054E0FB1D1A781423F918404813009B009B18DB00C3180C331B880B8046E0FB1D1A781423F918394813009B009B1846
:40234000DB00C31812331B880B8038E0FB1D1A781423F918324813009B009B18DB00C31818331B880B802AE0BB1D1B78D91FFB1D1A782B4813009B009B18DB00C318043348
:402380001B78994216DAFB1D1A78254913009B009B18DB00CB1808331968BB1D1A7813005B009B185B002A3BCA181423FB1812881A8003E01423FB1800221A80C0461423FB
:4023C000FB181B88002B04D11623FB1813221A801CE00823FB181422BA1812881A817B1D1B789AB20823FB189A800823FB183A681A600823F8180023002200210DF0FCFFD3
:40240000031E03D01623FB1801221A801623FB181B881800BD4607B090BDC046B85701009057010090B587B000AF0400080011003B60FB1D221C1A70BB1D021C1A707B1DB8
:402440000A1C1A701623FB1800221A80FB1D1B78002B03D1BB1D1B78072B04D91623FB1801221A80BCE0BB1D1B78062B66D89A005F4BD3181B689F46FB1D1A781423F91878
:402480005C4813009B009B18DB00C31802331B880B807EE0FB1D1A781423F918554813009B009B18DB00C3181E331B880B8070E0FB1D1A781423F9184E4813009B009B1842
:4024C000DB00C31822331B880B8062E0FB1D1A781423F918474813009B009B18DB00C31824331B880B8054E0FB1D1A781423F918404813009B009B18DB00C3180C331B889D
:402500000B8046E0FB1D1A781423F918394813009B009B18DB00C31812331B880B8038E0FB1D1A781423F918324813009B009B18DB00C31818331B880B802AE0BB1D1B7864
:40254000D91FFB1D1A782B4813009B009B18DB00C31804331B78994216DAFB1D1A78254913009B009B18DB00CB1808331968BB1D1A7813005B009B185B002A3BCA18142343
:40258000FB1812881A8003E01423FB1800221A80C0461423FB181B88002B04D11623FB1813221A801CE00823FB181422BA1812881A817B1D1B789AB20823FB189A8008236C
:4025C000FB183A681A600823FB180022002118000DF0DCFE031E03D01623FB1801221A801623FB181B881800BD4607B090BDC046D45701009057010080B584B000AF0200FD
:402600003960FB1D1A703B685B681800FFF7B2FA03001A00012313409BB2002B03D0CA235B00FB6002E09623FF33FB600B4B1B78DBB201229343DAB2084B1A70084B1B78D7
:40264000012B06D1074B1B7802221343DAB2054B1A70FB681800BD4604B080BD93220020782200207022002090B589B000AF78601F23FB1800221A701E23FB1800221A70DC
:402680000023BB619C4B1B68002B00D1EAE10C23FB187A6812881A800C23FB1800225A600C23FB181E22BA1812789A707B6899891E23FB181A78914813009B009B18DB004C
:4026C000C31802331B88994228D10C23FB180022DA707B681B89012B00D095E17B685B681B78002B02D0012B0CD08DE1CB235B00BB61834B1B78DBB201229343DAB2804B5D
:402700001A7081E19823FF33BB617D4B1B78DBB201229343DAB27A4B1A7075E17B6899891E23FB181A78754813009B009B18DB00C31824331B88994228D10C23FB1802229F
:40274000DA707B681B89012B00D05DE17B685B681B78002B02D0012B0CD055E1CC235B00BB61674B1B78DBB201229343DAB2644B1A7049E19A23FF33BB61614B1B78DBB2E3
:4027800001229343DAB25E4B1A703DE17B6899891E23FB181A78594813009B009B18DB00C3180C331B88994214D10C23FB180422DA707B681A1D0C23FB185A60CD235B00EB
:4027C000BB614F4B1B78DBB201229343DAB24C4B1A7019E17B6899891E23FB181A78474813009B009B18DB00C3180E331B8899420ED10C23FB180422DA707A681E23FB184C
:402800001B7811001800FFF7F7FE0300BB61FBE07B6899891E23FB181A78384813009B009B18DB00C31812331B88994214D10C23FB180522DA707B681A1D0C23FB185A6004
:40284000CD235B00BB612E4B1B78DBB201229343DAB22B4B1A70D7E07B6899891E23FB181A78264813009B009B18DB00C31818331B88994214D10C23FB180622DA707B6867
:402880001A1D0C23FB185A60CD235B00BB611C4B1B78DBB201229343DAB2194B1A70B3E07B6899891E23FB181A78144813009B009B18DB00C3181A331B8899420ED10C23BA
:4028C000FB180622DA707A681E23FB181B7811001800FFF791FE0300BB6195E01723FB1800221A701C23FB1807221A701D23FB1800221A7072E0C0464C110020905701008E
:40290000932200207B6899891E23FB181A78594813009B009B18DB00C318083318681D23FB181A7813005B009B185B00C3181B88994219D10C23FB181C22BA181278DA709A
:402940007B681A1D0C23FB185A60CD235B00BB61494B1B78DBB201229343DAB2464B1A701723FB1801221A707B6899891E23FB181A78404813009B009B18DB00C3180833C7
:4029800018681D23FB181A7813005B009B185B00C3185B88994213D10C23FB181C22BA181278DA707A681E23FB181B7811001800FFF722FE0300BB611723FB1801221A7072
:4029C0001C23FB181A781C23FB1801321A701D23FB181A781D23FB1801321A701E23FB181A78244913009B009B18DB00CB1804331B781D22BA1812789A4205D21723FB1818
:402A00001B78002B00D17DE71E23FB181A781E23FB1801321A70184B1B78DBB21A000123134017D17B68181D7A681F23FC18402300210DF0E1FC030023701F23FB181B7884
:402A4000002B0ED10D4B1B680C22B918BA691000984706E01E23FB181B78002B00D11FE600E0C0461F23FB181B781800BD4609B090BDC04690570100932200204C11002063
:402A800080B582B000AFBB1D01221A70FB1D00221A70FB1D1A78174913009B009B18DB00CB1802331B88002B16D0FB1D1A78114913009B009B18DB00CB1802331B885A1E32
:402AC0000D4913009B009B189B00CB1810331B685B68BA1D12781A70FB1DFA1D127801321A70FB1D1B78002BD3D0C046BD4602B080BDC046905701009C52010080B500AF85
:402B0000C046BD4680BDC04690B587B000AF78601723FB1800221A703A4B1B68002B6AD07B689B893A22934204D07B689B893722934260D10823FB187A6812881A807B6837
:402B4000181D7A681723FC18402300210DF054FC030023701723FB181B78002B43D17B689B893A2293422DD10823FB1801229A700823FB1800225A607B685B681800FEF7FC
:402B8000F9FF03001A00012313409BB2002B03D0FB235B003B6102E0F823FF333B61194B1B680822B9183A6910009847164B1B78012B18D1154B1B7802221343DAB2134B8A
:402BC0001A7010E00823FB1800229A707B681A1D0823FB185A600B4B1B680822B918FC225200100098470A4B1B78DBB201229343DAB2074B1A701723FB181B781800BD46DB
:402C000007B090BD5011002078220020702200209322002080B500AFC046BD4680BDC04690B585B000AF78600C23FC1800F0F5FC030023707B68022B00D8B3E07B68302B2A
:402C400000D9AFE05E4B1B78DBB21A007B689A420AD35C4A0F23FB1812781A705A4A0E23FB1812781A703FE0584B1B78DBB21A007B689A420AD3564A0F23FB1812781A70E1
:402C8000544A0E23FB1812781A702DE0524B1B78DBB21A007B689A420AD3504A0F23FB1812781A704E4A0E23FB1812781A701BE04C4B1B78DBB21A007B689A420AD34A4ABF
:402CC0000F23FB1812781A70484A0E23FB1812781A7009E0464A0F23FB1812781A70454A0E23FB1812781A707B68DA1E0B23FB1841498A5C1A700B23FB181B782F2B0DD9AE
:402D00007B682A2B0AD93D4B19221A60052000F07BFC0D23FB1819221A7007E0374B1B68DAB20D23FB183F210A401A700B23FA180D23FB1812781B789A4208D22F4B7A6806
:402D4000033A2D498A5C1A60052000F05DFC7B68284A9A180A23FB1812781A70284B0A22BA1812781A60274B0F22BA1812781A60254B0E22BA1812781A60052000F0FEF808
:402D80000B23FA180D23FB1812781B789A420CD91A4B7A68033A18498A5C1A60052000F033FC02E0002000F0B7F80C23FB181B78180000F036FCC046BD4605B090BDC04668
:402DC00040F3FF0F41F3FF0F42F3FF0F43F3FF0F44F3FF0F45F3FF0F46F3FF0F47F3FF0F48F3FF0F49F3FF0F4AF3FF0F4BF3FF0F4CF3FF0F4DF3FF0FF05701002CFF0B402C
:402E000028FF0B401CFF0B4020FF0B4080B584B000AF78600023FB60154B154A126801210A431A60134B144A1A60144B134A1268802109020A431A607B68002B12D01023BE
:402E4000FB600CE0012000F099F800F019F8031E02D00023FB6005E07B68013B7B607B68002BEFD1FB681800BD4604B080BDC04660F02E4078002E400220000010002E4091
:402E800080B582B000AF054B1B68012213407B607B681800BD4602B080BDC0460C002E4080B584B000AF02003960FB1D1A7080239B05FB60FB1D1B781F2B02D9002000F098
:402EC0002BF8FB1D1B7810339B00FA68D3181B68BB60FB1D1B7810339B00FA68D3183A681A60BB681800BD4604B080BD80B582B000AF0200FB1D1A70064BFA1D12781F212E
:402F00000A40012191400A001A60C046BD4602B080BDC04600E100E080B582B000AF0200FB1D1A7001BEC046BD4602B080BDC04680B582B000AF786009E00D4B1B681800D0
:402F400000F062FB7B680B4A944663447B607A6880231B029A42F0D8074B1B687A685343180000F051FBC046BD4602B080BDC046680D00200080FFFF600D002080B582B084
:402F800000AF0200BB1D1A80BB1D1B88044A12785343180000F038FBC046BD4602B080BD640D002080B500AF0F4B0F4A126801218A431A600C4B0C4A126802218A431A6036
:402FC0000A4B0A4A126830218A4310210A431A60064B064A126807218A4301210A431A60C046BD4680BDC04600F02E4000FF2E4080B500AF0F4B0F4A126802218A431A600D
:403000000D4B0D4A126807218A4302210A431A60094B094A126830218A4320210A431A60044B044A126801210A431A60C046BD4680BDC04600F02E4000FF2E4080B500AF46
:40304000FFF7B0FF044B044A1268802109060A431A60C046BD4680BD00F02E4080B584B000AF78600C4B1B6801221340FB607B68002B02D0012B03D005E0FFF793FF06E0AC
:40308000FFF7B6FF03E00020FFF746FFC046FB681800BD4604B080BD00F02E4090B583B000AFFC1D00F0B9FA03002370074B074A1268C02109020A431A60FB1D1B78180048
:4030C00000F0AFFAC046BD4603B090BD00010B4080B500AF054B1A68C0231B02134001D0012300E000231800BD4680BD00010B4090B583B000AFFC1D00F08FFA03002370EE
:403100000D4B0D4A12680D490A408021C9010A431A60094B084A126808490A40802109020A431A60FB1D1B78180000F07AFAC046BD4603B090BDC04600010B40FF3FFFFFA8
:4031400090B585B000AF78600B23FC1800F065FA03002370FFF7BCFF031E04D00123FB60FFF7C6FF01E00023FB607B680D4A13407B600D4B0C4A12680C4911407A680A4383
:403180001A60094B1B68FB68012B01D1FFF786FF0B23FB181B78180000F043FAC046BD4605B090BD0404040010020B40FBFBFBFF80B500AF344B1B68042213401FD0334B99
:4031C0001B680422134017D0314B1B6804221340DA432E4B1B681A402C4B1A602C4B1B68042293431A002A4B1A602A4B1B68002B02D0284B1B6898470420FFF7A1FF224B20
:403200001A688023DB00134022D0204B1A688023DB00134017D01E4B1A688023DB001340DA431A4B1B681A40184B1A60184B1B68194A1A40164B1A60164B5B68002B02D00D
:40324000144B5B6898478023DB001800FFF778FF0D4B1A688023DB02134011D00B4B1A688023DB02134006D00A4B9B68002B02D0084B9B6898478023DB021800FFF760FFC4
:40328000C046BD4680BDC04610020B40740D00205C11002060110020FFFBFFFF80B500AF00F078F8C046BD4680BDC04680B500AF064B064A1268802109060A431A6000F0B8
:4032C0002DF800F031F8C046BD4680BD0000244080B500AF064B1B78002B04D1FFF7DEFF034B01221A70FFF7E1FFC046BD4680BD7C11002080B500AF00F01EF8054B054AFE
:403300001268520052081A60034B00221A60C046BD4680BD00002440880F244080B500AFC046BD4680BDC04680B500AF00F084F8C046BD4680BDC04680B500AF00F09AF82C
:40334000C046BD4680BDC04680B582B000AF00237B60044B1B687B607B681800BD4602B080BDC0464003244080B582B000AF7860C046064B1B681F221340082BF9D0044BFF
:403380007A681A60C046BD4602B080BD080224404002244080B500AF174B184A1A60184B184A1A60184B194A1A60194B07221A60184B164A1A60184B00221A60174B00223D
:4033C0001A60174B00221A60164B00221A60164B00221A60154B00221A60154B00221A60134B1B689AB2134B1A80002000F07AF8C046BD4680BDC046000024400F000001FC
:40340000200024400D0000800003244007010080040324400002244004022440880E2440C80E2440480F2440080F2440C80F2440880F24407E11002080B500AF0A4B0A4A75
:403440001268F02109060A431A60074B064A1268F02109050A431A60044B054A12881A60C046BD4680BDC04600010240880F24407E11002080B500AF154B1B6808221340BA
:403480005A1E9341DBB2180000F04AF8114B114A1268120112091A600D4B1A6880235B0013405A425341DBB2180000F05DF8094B084A126808490A401A60084B1B689BB273
:4034C000202213409AB2064B1A80C046BD4680BD2000244000010240FFFFFFF0880F24407E11002080B584B000AF78600A4B1B68FB60FB68094A1340FB607B689A06C0236F
:403500001B051340FA681343FB60034BFA681A60C046BD4604B080BD20002440FFFFFFF380B584B000AF0200FB1D1A700D4B1B68DAB20F23FB187F210A401A70FB1D1B78E6
:40354000DB01D9B20F23FB180F22BA1812780A431A70044B0F22BA1812781A60C046BD4604B080BD0001044080B584B000AF0200FB1D1A700F4B1B68DAB20F23FB184021DB
:403580008A431A70FB1D1B789B01DBB240221340D9B20F23FB180F22BA1812780A431A70044B0F22BA1812781A60C046BD4604B080BDC0460001044080B584B000AF020042
:4035C000FB1D1A700E4B1B68DAB20F23FB1801218A431A70FB1D1B7801221340D9B20F23FB180F22BA1812780A431A70044B0F22BA1812781A60C046BD4604B080BDC04658
:4036000000020440000000000230800803D00138FDD1C046C046C0467047EFF3108072B6704780F31088704780B500AFC046BD4680BDC04690B587B000AF78601723FB1854
:4036400000221A701623FB1800221A70454B1B68002B00D17FE07B689B893F2293426DD11723FB181B78404ADB00D31802331B885A1E3E4913009B009B189B00CB180433A0
:403680001A6880235B0313404BD07B68181D7A681623FC18402300210CF0AEFE030023701623FB181B78002B3FD10C23FB187A6812881A800C23FB181722BA1812789A70BD
:4036C0000C23FB180022DA700C23FB1800225A607B685B681800FEF74DFA03001A00012313409BB2002B08D01E4B1B680C22B918982252001000984707E01A4B1B680C223D
:40370000B9183222FF3210009847194B1B78012B0BD1184B1B7802221343DAB2154B1A7003E01623FB1806221A70134B1B78DBB201229343DAB2104B1A700CE01723FB185D
:403740001A781723FB1801321A701723FB181B78002B00D17FE71623FB181B781800BD4607B090BD80110020205801009C52010078220020702200209322002080B582B0AC
:4037800000AF78600A00BB1C1A80BB1C1A887B681A60C046BD4602B080BDC04680B582B000AF78600A00BB1C1A80BB1C1A887B681A60C046BD4602B080BDC04680B584B08D
:4037C00000AF494B1B78DBB21B02484A1278D2B21343FB60464B1B78DBB21B02454A1278D2B21343BB60BB68434A934207D1FB68072B04D1414BBB600423FB6009E0BA6821
:40380000D4231B019A4204D1FB68042B01D13B4BBB603B4BBA681A603A4BFA681A603A4B1B78DBB21B02394A1278D2B21343FB60FA6880239B019A4202D0FB68002B01D189
:40384000334BFB60334BFA681A60334B1B78DBB21B02324A1278D2B21343FB60FB68304A934206D0FB682F4A934202D0FB68052B01D12D4BFB602D4BFA681A602C4B1B688E
:403880001B097B602B4B1B68AA2B29D17B68012B26D9214B1B78DBB20E2B21D1264B1B78DBB29BB21B0299B2244B1B78DBB29AB2BB1C0A431A80224BBA1C12881A60214BDA
:4038C0001B78DBB29BB21B0299B21F4B1B78DBB29AB23B000A431A801C4B3A0012881A60C046BD4604B080BD59F1FF0F58F1FF0F5FF1FF0F5EF1FF0F580B0000580D00001A
:403900006C002E4074002E405BF1FF0F5AF1FF0F0220000078002E405DF1FF0F5CF1FF0F0F0F000005050000050F000080002E40EC0F00F0E00F00F06DF2FF0F6CF2FF0F8C
:4039400084002E406FF2FF0F6EF2FF0F94002E4080B582B000AF0200BB1D1A80BB1D1B881800FFF70BFBC046BD4602B080BDC04680B582B000AF78607B681800FFF7D8FAAE
:40398000C046BD4602B080BD80B500AF00F0ECF8C046BD4680BDC04680B500AF00F0F0F8C046BD4680BDC04680B500AF00F0E8F8044B180000F0A2F8032000F0ADF8C046A0
:4039C000BD4680BDCD3B000080B500AF034B180000F080F8C046BD4680BDC046CD3B000080B500AF014B1800BD4680BD0202000080B582B000AF78602B231800BD4602B0E4
:403A000080BDC04680B582B000AF78602B231800BD4602B080BDC04680B582B000AF78602B231800BD4602B080BDC04680B582B000AF78602B231800BD4602B080BDC0465F
:403A400080B582B000AF78602B231800BD4602B080BDC04680B582B000AF78602B231800BD4602B080BDC04680B582B000AF78602B231800BD4602B080BDC04680B582B0FB
:403A800000AF78602B231800BD4602B080BDC04680B500AF2B231800BD4680BD80B582B000AF0200FB1D1A702B231800BD4602B080BDC04680B582B000AF786039602B23AA
:403AC0001800BD4602B080BD80B500AFC046BD4680BDC04680B582B000AF786000F050F87B68180000F00AF8032000F015F800F03BF8C046BD4602B080BDC04680B582B0D1
:403B000000AF7860034B7A681A67C046BD4602B080BDC0460000002090B585B000AF0200FB1D1A700623FB600B23FC18FFF775FD030023700B4B0B4A1268C0218A431100BA
:403B4000FA1D1078FA68904002000A431A600B23FB181B781800FFF764FDC046BD4605B090BDC0460CE400E080B500AF034B802252011A60C046BD4680BDC04600E100E0D9
:403B800080B500AF034B802252011A60C046BD4680BDC04680E100E090B583B000AFFC1DFFF73BFD03002370074B074A126804218A431A6030BFFB1D1B781800FFF731FD74
:403BC000C046BD4603B090BD10ED00E080B500AF11F03AFBC046BD4680BDC046002243088B4274D303098B425FD3030A8B4244D3030B8B4228D3030C8B420DD3FF2209023E
:403C000012BA030C8B4202D31212090265D0030B8B4219D300E0090AC30B8B4201D3CB03C01A5241830B8B4201D38B03C01A5241430B8B4201D34B03C01A5241030B8B4290
:403C400001D30B03C01A5241C30A8B4201D3CB02C01A5241830A8B4201D38B02C01A5241430A8B4201D34B02C01A5241030A8B4201D30B02C01A5241CDD2C3098B4201D349
:403C8000CB01C01A524183098B4201D38B01C01A524143098B4201D34B01C01A524103098B4201D30B01C01A5241C3088B4201D3CB00C01A524183088B4201D38B00C01AA4
:403CC000524143088B4201D34B00C01A5241411A00D20146524110467047FFE701B5002000F0F0F802BDC0460029F7D076E7704703460B437FD4002243088B4274D30309A5
:403D00008B425FD3030A8B4244D3030B8B4228D3030C8B420DD3FF22090212BA030C8B4202D31212090265D0030B8B4219D300E0090AC30B8B4201D3CB03C01A5241830B02
:403D40008B4201D38B03C01A5241430B8B4201D34B03C01A5241030B8B4201D30B03C01A5241C30A8B4201D3CB02C01A5241830A8B4201D38B02C01A5241430A8B4201D315
:403D80004B02C01A5241030A8B4201D30B02C01A5241CDD2C3098B4201D3CB01C01A524183098B4201D38B01C01A524143098B4201D34B01C01A524103098B4201D30B0157
:403DC000C01A5241C3088B4201D3CB00C01A524183088B4201D38B00C01A524143088B4201D34B00C01A5241411A00D201465241104670475DE0CA0F00D04942031000D37F
:403E00004042534000229C4603098B422DD3030A8B4212D3FC22890112BA030A8B420CD3890192118B4208D3890192118B4204D389013AD0921100E08909C3098B4201D3E8
:403E4000CB01C01A524183098B4201D38B01C01A524143098B4201D34B01C01A524103098B4201D30B01C01A5241C3088B4201D3CB00C01A524183088B4201D38B00C01AE2
:403E80005241D9D243088B4201D34B00C01A5241411A00D20146634652415B10104601D34042002B00D54942704763465B1000D3404201B5002000F005F802BD0029F8D03B
:403EC00016E770477047C046014B18687047C046FC1000200E4B70B500251E000D4CE41AA410A54204D0AB00F35898470135F8E711F09CFC084B00251E00084CE41AA410F6
:403F0000A54204D0AB00F35898470135F8E770BD3858010038580100385801004058010030B50024A24208D0035D651C0C5DA34201D0181B02E02C00F4E7002030BD002352
:403F400010B59A4203D0CC5CC4540133F9E710BD03008218934202D019700133FAE77047134A1088810703D08107890F401A001D11791030484381B25088820703D08207E7
:403F8000920F801A001D800040180A494030098980B2CA0701D0503080B2890706D504495422091F09785143081880B2704700007E0D00209011002010B501F005FF10BD8F
:403FC00010B501F007FF10BD10B500F055FA10BD10B50749044609780220002907D1204601F048FF002802D120460AF091F910BD1C0F002070B504460120002C12D02368A0
:40400000002B0FD0616800290CD0074D06222889208118462968FFF792FF6968606809780170002070BD000090110020FFB585B0002768460E9D07734F481C46007800284F
:4040400002D0082009B0F0BD10990F9801900095029105A807C800F001F90028F2D16946264603AB84460873002C19D0002115E08A00B75A082F09D990198078002805D0FB
:40408000083FB7521878401C187005E0002914D00027B75290198770491CC9B2A942E7D360460028CED10F98002809D0109901F03BFA002804D00120C4E701208446EFE788
:4040C00001F088FE2D480021416081600599016021888180022D07D3A1798171A17AC171A1890181218A418100211EE0481C19E082008B00A75AE65ABE46BE4211D26F46A7
:404100003E80B4461E190296B678BE7001967646E6521719029EBB78B3706646A652019EBE70401CA842E3D3491CA942DED3134822460C3000906846037B0799069800F094
:4041400015F90028B8D168460B4C007B60700B480C3001F06FFE0028AED1084907480C3107F076F90028A7D107F090F90028A3D10121217066E70000780D00208411002043
:40418000F8B5054633480E460078002802D002242046F8BD002E5BD000242F49002D16D02A89D0070DD02868002808D003881B3BE12B04D24088FB2801D81B2801D20124C4
:4041C00009E0900707D56868002804D1F7E70020088108604860002CDAD11F482F8907811C481B21801D018041800421017119490020891C0870F80705D016480622801DD5
:404200002968FFF79CFE1449B80703D56A681148127882700F480D46801D0860001F486001F04EFE0B48801D01F03CFE28890DF0D7F928890DF03EFB03461033FFF790FE7F
:404240001F21C018890140180249308088809FE701249DE7780D002090110020FFB58446384F1C460020BB883F78054602460646002F11D100290ED0029999420BD3614639
:40428000002908D0002C06D00A99002906D02E4B0B99994202D2012004B0F0BD002144E0AB001F19BF78002F3BD0E35A002B38D07B43591889B22B0000F04AF8050410160C
:4042C0001C253100A7782388BC46FF27233BEB37BB4222D26346032B1FD322E0A388002B1FD0302B19D31CE02389002B19D0282B13D316E0A289002A13D01346134F233B56
:40430000BB420AD20DE0268A002A0AD033460F4F233BBB4201D2964203D901200EE0002001E000280AD16D1CEDB2099B9D42B7D31C2463435B1802998B42ACD89642AAD863
:40434000AAE70000780D002079020000BAFF000030B47446641E2578641CAB4200D21D46635D5B00E31830BC18470000FFB583B0002469460C801F4606468C80002806D012
:404380000598002803D004983043800701D0012466E0002FFBD03449049809888842F6D3FFF712FBFFF7F8FA00F012FC002855D100F07AFD002851D12C49084601F0E8F8E0
:4043C00005042D0C4AD12A480499066081800021C18007810C98007AC00704D0684601F012FD040007D10C98007A800703D501A801F012FD0446BF1DFEB2002C20D131462D
:40440000059800F05DF804001AD10DF061FA040016D16A461088928808368518144AF1B29088D288AEB29319984207D3401B801A80B201F09DFB050007D000E0FF25012443
:4044400000F05EFA002D04D008E0F8B200F01CF9F6E700F081FA07490120087000F0CAFB204607B0F0BD00007C0D0020AD4500009C110020840D002010B5034800780128E2
:4044800001D101F017FA10BD840D002070B5084B0446DA889E8800205518B54206D81D68AA182260DA885118D98070BD032070BD9C11002001480089704700009C11002071
:4044C000F0B587B007460D4600208900009006916846FFF7DBFF844600285DD1304800990160002117E02E4B88001A680629115406D22C4C0419667882185670628805E0B7
:40450000C419203CA67A8218567022891B68C018491C4280C9B2A942E5D300242DE0601CC2B2059025E01E4FA30039689600581840887118039604904E88B04217D9384651
:404540006F46FE80B6464F786E4677710297049F4F800168039F5E18767879184E700168764659184E800068029F18184770521CD2B2AA42D7D30598C4B2AC42CFD36046BB
:40458000002809D168460699FFF780FF8446002802D1054900980860604607B0F0BD0000880D0020605801008C0D00207047000010B5002809D005494A68002A05D0011F57
:4045C00008788000105801F081FA10BD880D002010B50446FFF76EFFC0B2801DA0420CD307484068002808D0A100405801F0E0F9002801D00470001D10BD002010BD0000E5
:40460000880D0020F8B516460D460446FFF752FFC0B2801DA04203D20020C0430090F8BDB2B2E9B2684601F0E9F90099481C03D0024AA000526811500098F8BD880D002051
:40464000F8B50746FFF736FF801DC6B20A49002005460C680DE06178002907D06188B94202D32078FFF7B4FF002804D1241D6D1CEDB2B542EFD3F8BD880D002010B5002898
:4046800001D0FFF795FF10BD70B506460948002504680BE06178002905D062882078121D0023FFF7AFFF241D6D1CEDB2B542F1D370BD0000880D0020FFB581B00A9F16009B
:4046C0000C4620D000F0F2F8054604281BD0002F0CD03846FFF7B4FF20492A0151184860002810D03A460499FFF729FC1B4928010E504618778101980570200406D47D203B
:40470000C000444304E0FF2005B0F0BD6404640C00F0BAF80746042807D000F04FFAA0420BD800F04BFA201A03E0204600F0AAFA0020F06035720020E6E700F03FFA0090FC
:4047400000F0B6FA00980121001B009000F0ECF802493A0151180098C860E6E7A8110020F8B5060116483418217A042903D0E068002802D017E00020F8BD00F01FFA0546B0
:4047800000F096FA00F0A0F804280CD001010C480F18F8680021451900F0C6F80020F860284600F06FFA6068054D002801D0FFF765FF042020720020A8516081E060DAE782
:4047C000A8110020FEB500266A46304601232549050169180D7A042D02D0C96800291BD000211154401CC0B20428F0D300246846005D002830D01B48210108184189476841
:4048000005680291002101604160042241810272C160002E02D015E01354E3E700F054F804280ED001010F4808180190C6680021304600F079F801980021C160304600F0FB
:4048400021FA0126002D07D038460299A847002F02D03846FFF712FF641CE4B2042CC6D3FEBD0000A81100200EB5002005216A460090118150810348694600680DF08DFE5B
:404880000EBD0000900D0020074A0020010189180B7A042B02D0C968002903D0401CC0B20428F3D370470000A81100200549002002015218127A042A03D0401CC0B20428F7
:4048C000F6D37047A811002030B50A4B04200A4C00210A011219157A042D06D0D268002A03D09A4201D808461346491CC9B20429EFD330BDFFFF0000A811002070470000E1
:4049000030B50020074C05460423020111190B72A5504D60401C4D81C0B2CD600428F4D330BD0000A811002030B5094C00231A011219157A042D04D0D568002906D02D1827
:40494000D5605B1CDBB2042BF1D330BD2D1AF7E7A8110020002070471CB5002469460C70142001902346054A05480DF01BFE04480068401C00D1FF2420461CBDD5490000E8
:40498000900D00203EB5124A0146FF2000230124126800290DD0012914D0042908D104206946009308814B8110460DF0F6FD80B23EBD6846009304814381694610460DF0EF
:4049C000E7FDF4E768460093048143816946EBE7900D002070B545890468416800890300FFF7B6FC08280509091E22282628002005F0F0FB1EE0022908D0C8B22A462146A5
:404A00000BF05AFF2046FFF739FE13E002202A4621460BF051FF2946204600F00DF809E000200DF0B9FA05E02046FFF7CBFE01E0FFF74AF8002070BD014B0022DB68184755
:404A4000940D002070B5448905680089022803D0032809D0FF2070BD2246094C0023A46829460120A04708E0FFF7AAFA241DA2B200232946022006F09EFB002070BD000036
:404A8000940D002070470000024800214160018041807047940D002070B50C46002186B016460391012802D0022859D116E003A9012006F0D5FB01281BD1039D324621468E
:404AC0002846FFF73CFA0095287801900220694608814E816846FFF7B5FF41E0214D002B686809D0049004A9022006F0B9FB01281DD0022006B070BD002812D02988401837
:404B00002146FFF71CFA28880024801980B228806988091D884206D12C801348FFF792FF03E00320E6E788421AD96C6018E004986860E278A378110219430B4A6980002378
:404B40001060E3565360032313815181A1788170E178C1706178417021780170042028800020C7E7940D0020E81100203EB515460C46022803D004280CD000203EBD009160
:404B8000019002206946088107484A8100680DF004FD07E00BF090FE044B0022DB6829462046984701203EBD900D0020940D0020014AD16090607047940D00200348016880
:404BC0008068081A0A21484300097047F411002010B5FEF7E9FE482204490548FFF7AFF903490120C870002010BD00007C580100F815002010B5FEF7C7FE10BD70B5134C69
:404C00002368002B08D0207B1149C20705D04008400020738868A08070BD88680B4AA18880B29268814203D90A4D691A091802E0814202D2411A5118A160A080A068984287
:404C4000EAD30DF0C7FC00F013F870BDF4110020C0102E40FFFF000010B508461946FFF7A7FF10BD704710B5FFF780FF10BD000003480021016041608160C160704700006E
:404C8000F4110020024610B5FF20002A0CD0FFF7EFFF064C0321207B0843207310010A21FFF722F82060002010BD0000F411002000B504480A21806848430209FFF7D8FF75
:404CC000104600BDF41100200248007B8007C00F70470000F411002010B54B490868002802DA4A4B01221A70022290430860484800694549C00B4031096A0246C907C90FF1
:404D00000A4259D0012000F097FA3F480E216C30FEF744FD3E4820218430FEF73FFD3C4814219C30FEF73AFD3948FF21C131A430FEF734FD3648FF212F31B030FEF72EFDEC
:404D400033483449BC30FEF729FD31483249AC30FEF724FD30492E48491CB430FEF71EFD2B482E49B830FEF719FD29482C49CC30FEF714FD26482B490830FEF70FFD2448BA
:404D80002949A830FEF70AFD214828498830FEF705FD1F4826498C30FEF700FD1C481921C9029030FEF7FAFCFEF708FDFEF718FEC0B2022812D01FE000290BD000210142A2
:404DC0000AD0114801216030FEF7E8FC0120FEF7CFFD97E70121F2E7FF2010BD15491648FEF7DCFC14481549001DFEF7D7FC124800210830FEF7D2FC54200449C043891CA7
:404E00000870002010BD000000F02E40A40D002000002E40320300002F3F00003102000010520000EC160000FA12000031D000003AE300009956000080012E40F80F000027
:404E400070B50646581C80B245086D00002408E0304600F0C1F81055000A1119A41C4870A4B2AC42F4D3D80705D0D0182038D15CC47FD454C17770BD30B50A4C00210019B4
:404E80005B1E07E0541864782502545C2C430480891C89B29942F5DB994201D1515C018030BD000000102E4010B5FF2000F0C4F90F49FF2048700E481021801D41800121E8
:404EC000417001700A490020C91C4870FFF704FF04000AD100F010F907210648FEF74EFC044807211830FEF749FC204610BD0000A40D0020CC112E4070B5002405465B1EA8
:404F00000AE0284600F068F8010A161971702D1D1055A41CADB2A4B29C42F2DB9C4203D1284600F059F8105570BD000070B500210A4D5B1E0AE0541864782602545C344355
:404F400046193480001D891C80B289B29942F2DB994202D1515C4019018070BD00102E40F0B50599091FCFB200217E1E0BE0541864782502545C2C43164D45192C80001DBB
:404F8000891C80B289B2B142F1DBFC0712D01C78515C24020F4A0C4381180C809C785D78001D210280B2294384182180001D80B2D9780CE059781A7809021143054A8418CA
:404FC0002180001DD9789B78090280B2194380180180F0BD00102E40014940180088704700102E4010B50B490020487000F084F8002000F047F9002000F034F907210648F3
:40500000FEF7BCFB044807211830FEF7B7FB002010BD0000A70D0020CC112E4010B50B46062812D006DC01280CD0032801D1FFF7D9FF10BD0A28FCD00B28FAD105480078EF
:40504000107010BDFFF730FF10BD1146184600F035F910BDAA0D0020F8B5244DAC6A0127A007234E002816DA307806280ED1286A384328621F480069F903084381B21D48F3
:405080001030FEF78BFB042000F0D6F8174802212830FEF773FBE00718D000F01DFF01280FD1002000F06AFF062000F0C5F81049FF20C91E48707078002802D1686B38439E
:4050C00068630A4801212830FEF758FBE0050BD53078042802D1052000F0AEF80348FF2101312830FEF74AFBF8BD000040F02E40A70D002000002E4010B503212348FEF79D
:405100004DFB0120FEF724FC20483038406A204C80076178800F890001431C480C38FEF73DFB6078002808D0401E022181401820FEF7C4FEC000083800E0B82081B2154829
:40514000FEF72CFB1348032109021438FEF726FB10481149B830FEF721FB612189010F48FEF71CFB0D480321001FFEF717FB0C490C48FEF713FB0B480B496038FEF70EFB85
:40518000084801218838FEF709FB10BD70F02E40AA0D0020D8102E4090890000041E2E40FF0F000058122E40209000000849087806280BD148780749002803D1486B4008DB
:4051C00040004863C86A01221043C86270470000A70D002040F02E400148007870470000A70D002000B50300FFF7B2F8080D050D0B070507090D012000BD032000BD0420E8
:4052000000BD022000BDFF2000BD0000074A9168D26889B2064B92B2994204D105498A4201D1012100E000210170704780002E4033D000003FE3000010B50446FEF7ACFBFD
:40524000072C01D9FF2C01D102480470FEF79CFB10BD0000A70D00200149487070470000A40D002010B5064A012805D01921C9021046FEF793FA10BD1D21C902F8E700000A
:4052800090002E4010B50A4A141D012808D009491046FEF783FA08492046FEF77FFA10BD04491046891CFEF779FA0349491DF3E788002E4031D000003AE3000070B50C46D2
:4052C0000546FEF78DFBC0B202280E49287804D0FF2810D04C280CD810E0FF2809D10A4AD0680004800F032801D0087807E09069000A553803E00878207070BD4F382070E6
:40530000087070BDA60D002000002E40F0B50122002834D0002932D00424420600D00524792342065B06D21800D0641C034600221EE00C2516466E43124D00277519AF72A4
:40534000104F002ABB51696007D0661EB24209D10D4E86197606760E05E05E06760E8027BE1B00E080269B198919521C2E81D2B2A242DED303480549006B002288611046E8
:40538000F0BD00008014002079020000B00D002018B50020694608700A48006900280ED0132149014018047E684604704F21C900054800F059F8A04201D0012018BD002055
:4053C00018BD0000B00D002004120020074900200C2242435218927A012A05D0401CC0B20628F5D3002070470120704780140020F8B50E000446154609D0194F1949786822
:40540000A04202D94018A04201D38D4201D90120F8BD31462046FEF783FD00281ED02A4631462046FEF78BFDE8B200210C224A43D21913895568EE18A6420BD90126641BBE
:405440001B1B9672834209DA1469C01A044AC0B220329676491CC9B20629E7D30020F8BD8014002079020000034610B50020024604E09C5C2018521CC0B292B28A42F8D3BF
:4054800010BD000070B500F05FF8084C064A216907480D46FEF753FD05492846FFF736FFFFF776FF207070BD79020000B00D002004120020002070470020054A002902D0C0
:4054C000012902D002E0906000E0D06000207047B00D002070B5084C154608460549E26889182A46FEF72BFDE0684019E06028B270BD000004120020B00D00203EB50A2218
:405500006946FFF7E7FF044606480A2200686946FEF706FD002802D00020C0433EBD20463EBD0000B40D0020002802D0044A914201D2FF20704703494A61086100207047B8
:4055400079020000B00D0020024800218160C16070470000B00D002070B5074C15460548A26880182A46FFF743FFA0684019A06028B270BD04120020B00D002010B50349DC
:405580000A220968FFF7E8FF10BD0000B40D002010B50F4A002313600E4A13600E4B18600E4801600E49012008600E490860000290600E490C4808600D4914300860FF38DF
:4055C0001538506000F0BCF800F0CAF9002010BDE40D0020CC0D0020F80D0020FC0D0020E80D0020D80D0020C8150020DC0D0020F00D0020014610B50020002910D0094B4C
:405600001A689C685118A14209D25868196080188A0704D08A07920F891A091D196010BD002010BDCC0D0020F8B50024164E671E321F3D463168136806E0142262431032BB
:405640008A58521C1BD0641C9C42F6D36A1C14D02C461422544322460C3288500C214843FFF7C8FF3168002808510AD031680020103408517068401C70602846F8BD254650
:40568000E4E73846F8BD0000DC0D0020F3B50026F64381B000281BDB1E490968884217D80299002914D01B4F142204463F1D54432546396810354859401C09D0FEF76CF9F6
:4056C00038682F1F4159C359994203DBFEF75CF93046FEBD214608310091465801590C20704308180C220299FEF729FC0948761C001D0068C159B14200D100260549009A73
:40570000091D865008684159491C4151FEF73CF90020FEBDD80D0020002803DB07490968884202D90020C043704704491422091D096850431030085870470000D80D002013
:40574000F0B500200D4A451E0346171F50600FE014260146714314680E1DA3510C461668083433511668083435511468401C635039688842ECD30020F0BD0000DC0D002061
:40578000F3B50026F64381B0002841DB2349096888423DD8029900293AD0204F142204463F1D54432546396810354859401C2FD0FEF7F2F83868415900292BD0211D0091A8
:4057C00046580C21005971430F46C1190C220298FEF7B5FB11480021001D0068761C00590C34C0190160416081600C48001D00680159B14200D100260849009A091D86504B
:4058000008684159491E4151FEF7BEF80020FEBD3046FEBDFEF7B8F8FAE70000D80D0020FEB504460D4600201E49089E0860471E009001900290002C11D0486885420ED2C2
:40584000002A0CD0002E0AD0642E08D808460C3001681C2068430C18207A002801D03846FEBD0120226020721846FFF7DDFE6060401C13D06681A6810A4827610C3067618F
:405880000179A94200D205710021684601810A462846029B00F040F82846FEBD00202072DDE70000E40D002038B50124009400F039F838BDFEB50027164EFF433D460024D4
:4058C0000EE01C20316860430818017A002906D04068FFF721FF002801D0254603E0641C3079A042EDDA681C12D01C2130684D434419FEF751F869466068FFF741FF054673
:40590000FEF742F8002DD9D1216868468847D5E7FEBD0000F00D002038B50024009400F001F838BD1FB500220C49541E0A60002811DB496888420ED808491C220C3109686B
:4059400050430818406801A9FFF7A0FE401C02D0002004B010BD2046FBE70000E40D0020F0B50021114A4D1E174611710C3F0B46BD6016E008461C2460431668041D3551F6
:4059800014680646235014680836A3551468361DA353044616680A34335318301468491C255078688142E5D30020F0BDF00D002038B500210091002811DB0F490978884270
:4059C0000DDA0D4D04010C3529680859002807D0201D0818694600F06FF9002801D0002038BDFDF7D9FF28680F34015D491E0155FDF7CAFF009838BD000E0020F7B582B0AD
:405A0000002502986E1E06602E48D21C024017462D4A2C4610460C380178106805E02301C358002B0FD0641CE4B28C42F7D3711C28D03401211D40180191039900F02AF9D1
:405A400000281FD101E02646F1E71F48016820460C300F521C480399026820460E30115419480399026820460F3011540398784300F0A0F8144900280968085102D000240F
:405A8000009011E001251AE00F48016801980818009900F02CF9002801D0012502E00098C0190090641CE4B203988442ECD3002D05D10298066004480179491C01712846D8
:405AC00005B0F0BDFCFF00000C0E0020F8B50D4600216A468C461180002839DB23490978884235DA214B04010C3319680A59002A2ED020460C300B5A801C0E5C18467043FF
:405B00008018954224D3854222D2002006E007465F43BF18AF4206D0401CC0B2B042F6D36046002814D0114E271DC8190C366A46294600F006F900280AD168460088012840
:405B400008D030682946C01900F0D1F8002803D00120F8BD0020F8BDFDF71EFF30680F34015D491C0155FDF70FFFF3E7000E0020F8B50F46002400F031F8002817D10C495B
:405B800000220B460C334A600EE021011D680E466A501D680C36AA53B61C1D680F31AA551D68641C6A54E4B2BC42EED31A71F8BD000E002000280BD0C01C074A8108506895
:405BC000890053884118994203D89368516018187047002070470000000E0020F8B5064600200F4D009029700C0121466846FEF74DFC00280CD129460C3100980860301BA0
:405C0000001F84B221466846FEF740FC002801D0FF20F8BD6C800098A8600020F8BD0000000E0020F8B5002827DB19490978884223DA174C05010C342168485900281CD005
:405C400028460C30085A009028460E300E5C401C0E5420682F1DC01900F064F800280CD12068002445590EE0094829460C300068C01900F03CF8002801D00120F8BD0098B6
:405C80002D18641CE4B2B442EED30020F8BD0000000E002030B50D4604000BD0A800FFF789FF6060002805D000202570C0436080002030BD012030BD70B50D46040005D0D1
:405CC000002D03D00220205E002801DA012070BDFDF762FE0221615E60688900405828606088401E6080FDF74FFE002070BD70B50D46040007D0002D05D002212078615E89
:405D0000401E814201DB012070BDFDF745FE6088401C00B26080616880000D50FDF734FE002070BD10B5040009D0227800216068FEF70EF90020C0436080002010BD0120C0
:405D400010BDF0B500231D46002802D00224045F0AE00120F0BD46689F00F6598E4201D1012503E05B1CDBB29C42F4DA15700020F0BD00000148007870470000140E0020ED
:405D80007CB505460024FEF71BF9A8796946087000A8062229460130FEF7D1F80021684604F0DEFC0C2806D0072806D01F2806D0122806D006E0022404E0042402E02724A6
:405DC00000E0012420467CBD01480121417270470017002010B500F05FF9FFF7FDF9FFF701FA10BD70B504460025FEF7E9F8002C06D0A079012803D8214602F07BFC00E003
:405E00000125284670BD01460120002902D05020088000207047000001460120002905D003485422007850430880002070470000160E002010B502460D49FE20487003243A
:405E400010460CF0CDFE002810D10CF071FE00280CD105F061FA002808D100F013FB002804D104F023FF002800D10024204610BD140E002070B50025044600280ED0A079E5
:405E800001280BD8FEF79CF8A0790028204602D002F0D6FF03E002F0ABFF00E00125284670BD0000014610B50120002904D006220248FEF744F8002010BD0000200E0020E5
:405EC00001460120002903D0087802490870002070470000160E00200148007A704700000017002038B504460120002C20D0617801291DD800290BD0FF25E535FEF760F834
:405F00000C4828180088C0B22070072803D00EE0FF25CD35F2E70020694608706846FFF775F969460878012801D108202070002038BD000000102E40014A002192681047C9
:405F4000140E002008B500226B461A7026280CD0094A342852680BD0352805D1900703D50021352005F0B4FA08BD19462620F9E7D007F9D03420F5E7140E0020014908727C
:405F80007047000000170020F8B504460120002C26D06178012902D92278092A20D8002905D0FF25E5352078092803D004E0FF25CD35F8E708202070FEF702F82078114FB6
:405FC000114E08280DD00020FFF75CF970780128207810D00D4969180880FE2070700020F8BD0120FFF74EF90720B8810549203188800120F2E7B881024821782030818043
:40600000EBE70000C0112E40140E002000102E4070B50E46050001D0002400E00C4C002C11D0E28A500609D5D107C90F022002F09BFFE08A40218843E08204E0D107C90F4D
:40604000012002F091FF3146284602F079FC70BD60160020F8B50546002004460D4E009013E022466946284600F0D6FF0098002801D00CF097FDA878214602F099FAA87897
:40608000214602F087FA641CE4B2308AA042E8D8F8BD00002C17002038B51E4CFFF79CF8042813D0052811D0062812D003282AD007280AD100206946087002460120FEF79A
:4060C000ADFFFFF789F80128FBD138BD00F077FB38BD02F0C3FA00F072FB02F03FFB8007800F0228F4D10C4841880029F0D05B21095D0029ECD101210170A07D014002201E
:4061000002F032FF38BD02F0ADFA0120FFF794F838BD0000601600203A0E0020F8B50646002402F08FFF0546304602F0A5FF03460A480021068A0DE001228A40104617464B
:4061400028401F40002803D0002F01D1224394B2491CC9B28E42EFD82046F8BD2C1700201CB50020694648706846FFF7BBFE01AA69460A20FEF752FF6946042008561CBD33
:4061800070B50D4601F028FB04000BD02079002808D0FDF715FFE178A0782A4602F056FC002070BD022070BD0148007870470000381600204030C07E002800D001207047AE
:4061C00000B500F001F800BD902148430749084A40186030417F491CC9B24177D289914201D300214177C8B270470000401600202C17002013B501F0EFFA04000BD001F0CF
:406200008CFE002807D0214601AA0A310620FEF705FF00201CBD02201CBD000010B50C4601F0DAFA00280AD001F077FE002806D0224604490A20FEF7F1FE002010BD022061
:4062400010BD000021160020F3B581B0074601460026029802F0EEFE0446002F01D0002500E0154D002D21D0284601F0EBFA032C04D13946029802F039FF06463846029930
:4062800002F088F9032C06D0002C10D00121384601F0DEFB03E03146384603F025F9284602F06CF80221284602F082F8FEBD3846029902F06FF9FEBD6016002010B50446B8
:4062C00000F066FA002804D103F0D8FD002801D00C2010BD2078611C02F0BAFCFF2801D01F2010BD02F000FDFF280AD02178621C02F0DEF8044821780068026B601C9047FA
:4063000010BD072010BD0000600E002010B503F0B5FD002801D00C2010BD02F07BFC03480068C06A8047002010BD0000600E002070B50D46044610210CF074FB1021601823
:4063400006460CF06FFB334610221946204603F0C3FD102130460CF065FB02202870204604F0DAFB70BD0000F8B504464078217802028006870FE0781143A67809050002ED
:40638000090D0643084601F027FA00210546F2B2002812D0002C10D0022F0ED0032F0CD0002A0AD00279092A07D0002A05D0134A5A23527E1B5C9A4207D82889002104F0B1
:4063C000E0FA20460CF0EEFBFF21002914D10C48224600682946436930469847C0B2FF280AD128464030817EF2B2491C8176FF232146284600F0E3F8F8BD0000F8150020C1
:406400007C0E00200020704710B5044603F036FD002801D00C2010BD2078611C02F018FCFF2808D002F050FB044821780068426B601C904710BD1F2010BD0000600E0020A9
:4064400010B500F06BF904F031FC002010BD10B5044600786178E2780843A17811430843217908436179084305D003F0F9FC002803D00C2010BD122010BD204602F0E0FC4A
:40648000002010BD10B5FDF7ABFA02F0FDFD044803F060FD02F022FB012000F003F810BD08160020F1B586B003A8009005A8019028489F22817A114081726846FDF79AFDE5
:4064C000002845D169460989C90705D0224806990068C2686846904769460989890706D5002835D11D480068816A0698884700282ED11B4E0025757075737571F5753576DC
:4065000075767575B570F570B5713746F5730120D03738731F20F880FF2130467972A0300176457600F0D0FA00242046069901F09FFC002803D1641C2406240EF5D0FD7269
:406540000749BD72B573C0310D704D704D600D7207B0F0BDF81500207C0E0020600E00204016002070B505460E46084602F06AFD0446304602F080FD0121A9400A46224087
:4065800001400A4301D0012070BD002070BD10B50446084602F070FD0121A140014201D0012010BD002010BD10B5FEF715FE032804D102F057F80120FEF73EFE10BDFEB553
:4065C0001C4616460F46054601F0D8FEA878FFF7F7FD02460190334639460094284600F00DF8002808D1A8780199FFF711FDFF2C02D138460CF0D6FAFEBD0000FFB585B0F9
:4066000005460E980C46FF2810D02B49C00009680A5840180179C0795278814201D9012601E09006860F6846038108E06078A1788006860FE0780002014368460181284602
:4066400001F076FC070007D021462846079A00F077FC384609B0F0BD304600F025FD04AE0346039002AA29460096204600F0B1FB3C20405D002818D0284601F059FC01286D
:4066800013D0684600890096C0B20190A878231DFF22079902F008F968460089039BC2B2A878079902F048FCD3E7684600890021C0B20091E9E70000780E0020F8B5002676
:4066C00000253046FFF72AFD07001DD090201149704340186030447F12E0601CFDF704FBCCB23846E040C007C00F07D02146304601F048FF21463046FFF7A6FD6D1CEDB2E9
:406700000548018AA942E8D8761C3606360ED7D0F8BD0000401600202C17002010B502F0DDF90020FFF7BEFE0CF0D2FA002010BDF8B5002400F0B2F80123012800D10124CD
:40674000104F00203E4620360425082203E0002801D0002100E031460979002907D001290BD002290BD0114681402143CCB2401C0006000EEBD07C70F8BD1C43F7E72C431A
:40678000F5E700004016002010B5FFF7D1FF10BD10B5044604F0DCFB002802D1601C00F001F810BD1CB500240094062269460194FDF7B6FB002800D1122420461CBD10B55B
:4067C000FCF72BFF0446FEF707FD012809D0FEF703FD022805D0FDF7DFF92046FCF721FFEEE72046FCF71DFF10BD10B50B4681791943817103D08078114602F06BFB10BD42
:4068000010B582798A43827102D1807802F076FB10BD000030B50C4C0220A28A0B4B9978002901D0022906D11D785B78EB18282B01D9032002E0032900D101205105490D88
:40684000C0020143A18230BDC0112E40300E002000B500F029F8002807D0012805D0032801D0042801D0002000BD012000BD014600B50020C90701D000F010F800BD014635
:4068800000B50020C90701D000F008F800BD00000148006870470000280E002001480088000A704720102E400448008B410501D5042070474007800F7047000000102E40EE
:4068C00010B501F011FF044601F04EFF0146204601F032FF10BD00000148406870470000280E002038B50446000610D5FFF7DCFF01280CD1684601F0C5FE6846007800F03F
:4069000023FB012001F0A2FD0220FFF73DFF600708D507480179012904D1002101712620FFF710FB0348006801692046884738BD340E0020600E002070B505460C490078DA
:4069400000240870FFF7AAFF012803D1FFF7B8FF022803D3284602F0DFF907E0284600F0EBF8040002D1034801210170204670BD300E00200017002070B50446FFF78EFF03
:40698000002801D00C2070BDA27B01211F48002A827801D00A4301E05208520082706279012A14D0C17849084900C170184D2868016820468847207901280CD0618820886E
:4069C00003F00EF82080207904280FD015E0C2780A43C270EAE72868C168E01D8847E01D02F01AFA0B48808C208006E02868C168E01D8847E01D02F00FFA07492079887010
:406A0000204602F097F9002070BD000040160020600E0020F8150020300E002008B50178FFF73CFF814201D10C2008BD002914D0072069460870FFF70BFF012807D1012127
:406A4000684600F0D9F8012801D0092008BDFFF7E1FE02F0A3F9012011E0FFF7F9FE012806D1684601F00EFE6846007800F0A0FA02F08AF9FFF712FF0028FBD10220FFF77A
:406A800083FE002008BD000070B505460C49007800244870FFF702FF012803D1FFF710FF022803D3284602F0F5F907E0284600F05DF8040002D1034801214170204670BDEE
:406AC000300E00200017002038B568460CF000F8002801D01F2038BD01210098C90201804180002505714571857107214173857302F020F9009C202200212046FDF728FADD
:406B000025702A460021601CFDF722FA204602F003F9204602F0BEF900980CF043F8062200210448FDF714FA02480C388560002038BD0000340E0020F8B504460025684626
:406B400000950BF0C5FF002801D007250AE0064E009830602278611C401CFDF7F0F93168207808702846F8BD280E0020F8B504460025684600950BF0ABFF002801D007259B
:406B80000AE0064E009870602278611C401CFDF7D6F97168207808702846F8BD280E00200346084800B5834209D8184600F014FE002804D00089984201D1012000BD002014
:406BC00000BD0000FF0E0000074A9179491C8906890E917138220A4092014907090E1143084302490840704740160020FF0E0000C006C00E70470000F8B507460E4600241C
:406C00000D4803E0002C01D0002500E005462979002905D0641C2406240EF3D00020F8BD0021204601F024F92E712046FFF7CCFF28813C700120F8BD6016002010B503F0E7
:406C40007FF90222002100F003F801F0F3FE10BD10B5094B40074907000F090F185A595A40185043C0086421FDF73EF8002800D1012080B210BD0000C4580100F7B53D2020
:406C8000405C88B015460C46002802D02878042802D200200BB0F0BD6946087200262046FFF788FA012800D00126204603A938300191009023460327A17E34333246206A2D
:406CC00003F062F902A8089900900B46019120463A4603A9243003F0DFF802466846007A2870204601F0B0F81046D3E7FFB587B00C4605461078694608723D20005D174671
:406D0000002826D000262046FFF754FA012800D00126204603A93830019100902346A17E34333246206A03F02FF902A80090291D019120462B1D03A924300A9A03F0ACF8A2
:406D400002006846007A388002D1204601F07CF810460BB0F0BDF0B505463C20405C89B016460C4600280CD0307869460873002806D000272046FFF71DFA012803D003E0B9
:406D80001F2009B0F0BD012703200890204604A93830019100902346E17E34333A46E06903F0F2F86846007B03A928180290009120462B46019504A92430089A03F0A0F806
:406DC00002466846007B3070204601F047F81046D7E7FFB505463C20405C89B016460C46002810D0084601F0A3F801280BD0308869468883002809D000272046FFF7DAF94B
:406E0000012805D005E000200DB0F0BD0220FBE70127204603A93830019100902346E17E34333A46E06903F0AFF8291D2B1D07A8129A6D4607C5204603A924300C9A03F024
:406E40005FF802466846808B3080204601F006F81046D9E770B50D460446FFF7ABF901280AD0E87AA97A00020143A07801F0DEFC012808D0002070BD00222421204602F085
:406E800001FD242070BD28214C200155204600F0B1FB282070BD0000002801D0002000E003484030C07F012800D0002070470000601600200146002049070ED50021084B7A
:406EC00003E0002901D0002200E01A461279022A04D0491C0906090EF3D0704701207047601600200146002049070ED50021084B03E0002901D0002200E01A461279022A51
:406F000004D0491C0906090EF3D07047012070476016002010B5044680346068002803D00BF054FE0020606010BD40304170704740308170704740300170704701717047D9
:406F400092001018C166704770B53C2501F096F9040004D020460021433001F01BFCFF222946204600F0E2FB002C02D0A07801F007F970BD10B5002801D0002000E0034899
:406F8000002802D0008903F043FD10BD6016002010B5002801D0002000E00448002804D00179072901D100F047F810BD6016002010B501F063F9002802D0807801F0E0F8D7
:406FC00010BD00207047000070B50546008A00281ED01049F122897A1140C90618D5294640314A8A098A521C4A4392B2D10800D10121540801E0621A94B2A042FBD9FEF765
:40700000B9FE012804D1298AA878224601F0D4FC70BD0000F815002010B50023054C0B60248A944204D992001018C26E0A60C36610BD00002C17002038B5044600200090AC
:40704000A079002814D14020015D052901D00E290ED168460BF04CFD002809D12046009902F0EEFB03481021C28A2046FFF7BDFB38BD0000F815002010B50B4604460146A4
:40708000184602F067F8002802D020460BF094FD10BD13B5044601AA11460620FDF7BEFF6846818861811CBD002800D10220704770470000F8B504462346401D54330090AE
:4070C0009A1EA078911E01F0F9FA25464035A88A298A8000FCF708FE401E81B2688A884203D96982A07801F079FF698A8C20015120460021433001F04DFB27480088E881D6
:4071000002F01EFFE989891C8AB26179FFF7A0FD01F090FC02F014FF2A8A6179FFF798FD074601F07BFC688A002806D01B49088A032212021043088202E0002001F042FF00
:407140001648803801886E8A002E0CD0304648431349FCF7B3FE0004000C01D0401C80B21049488002E00F4800214180288A704381B2A07801F09CFEFF2228374932B9B221
:407180001346204602F030FCE98AA07801F010FEA07801F01FFAF8BD80102E40E0112E40710200003A0E00207FB504468034616805460E46183108226846FCF7C0FE314676
:4071C0002031082202A8FCF7BAFE102168460BF029FC6068102108300BF024FC60682B46083024331022694602F076FE7FBD10B504460821FFF704FB10212046FFF700FB74
:40720000207905281FD006281DD008281AD12189002003F075FB072020712046FEF7CAFF014620464030012913D00E21017000210176204600F0B6FF2046FFF76BFE2046C2
