:400000000080002011000000CD1C0000CD1C000080B500AF01F064FE80B500AF2D4B12221A6004F077FA2C4B180004F0D1FD012004F080FA302004F05FF8284B284A1A60BD
:40004000284B8022D2051A60274B274A126802210A431A60254B264A1A60264B00221A60254B254A126808218A431A60FA23DB00180004F037F9214B180004F0EBF9204BA8
:40008000204A1A60204B214A1A60214B802292001A601D4B1F4A1A601F4B802212061A601E4B8022D2021A601D4B41221A601D4B40221A601C4B1900082004F05DF908200D
:4000C00004F080F9074B8022D2051A60C046BD4680BDC04630001040001BB70004010B40060000800C020B4078002E407C002E40D0D0000064F02E406CF02E40DC050000A4
:400100000403014000DB05000000014041FF00800003014040FF008008010B4000010B401C010140040101408946000080B582B000AF72B6344B00221A60FB1D00221A7063
:4001400022E0FB1D1A7813005B009B185B002F4A9B183B603B681A78597809020A43997809040A43DB781B06134318003B681A795B791B0213439BB2190001F083FDFB1D79
:400180001A78FB1D01321A70FB1D1B78012BD8D91F4B204A1A60204BFF2212061A601F4B992212041A601E4B992212041A601D4B992212041A601C4A1B4B1B78DBB20621B5
:4001C0000B43DBB21370194B10221A60184B194A1A60194B10221A60184BD0221A60184B184A1A60184BC0221A60184B0C221A60174B184A1A60FFF70FFF01F053FDC046E0
:40020000BD4602B080BDC0466CF02E4060870100000002400000FFEE0001024000500F4010500F4020500F4000700F40000004400800044000E0D8001800044000010440ED
:40024000080104400060D8001801044000020440080204408108000010B5064C2378002B07D1054B002B02D0044800E000BF0123237010BD6010002000000000FC860100FB
:40028000084B10B5002B03D00749084800E000BF07480368002B00D110BD064B002BFBD09847F9E70000000064100020FC860100A80B00200000000090B5A1B004AF5823B2
:4002C000FB18EA4A03CA03C31188198092789A704C23FB18E64A03CA03C312881A804023FB18E44A03CA03C312881A803423FB18E14A13CA13C36F23FB1801221A701C2321
:40030000FB18DE4A13CA13C31168196092889A803B00DB4A13CA13C313CA13C312781A7062B6012004F0B4FB012000F0D5F9012001F006FC012001F0F7FA0A21012001F0C0
:400340001BFBFF2001F008FB012004F019FC012001F03CFBCB4B180000F0F0FDFA235B00180004F051F8F8231B02180000F0E6FDFA235B00180004F047F8C34B180000F00D
:40038000DDFDFA235B00180004F03EF8FC23DB00180000F0D3FDFA235B00180004F034F81F2000F0CBFDFA235B00180004F02CF8B64B180000F0C2FDFA235B00180004F03C
:4003C00023F8B34B180000F0B9FDFA235B00180004F01AF8002000F0B1FDAE4B180004F013F8002332226421642000F0C9FDFC23DB0031226421642000F0EAFDC7235A001B
:400400001F230093C6230B210B2000F061FDC8235A00FC23DB000093C8230A210A2000F021FD00220A210A2000F034FC00220B210B2000F02FFCF8231B0200936423C822D2
:400440000A210A2000F072FC002302937D230193962300936423FA220F21C82000F0E0FD894B02937C230193972300936323F9221021C82000F00AFE9623580000230093A7
:4004800028236422642100F037FE96235800FC23DB00009326236222642100F059FE0023019302230093282350226421322000F07BFE744B01930223009326234E226421D5
:4004C000322000F0A1FE744B180003F09DFF002001F042FA6B4B180000F030FD0023BB660AE0BB6EDBB2180001F036FA052003F08BFFBB6E0133BB66BB6EFF2BF1DD00F02F
:4005000081FAB9235A00F8231B020093642355214B2000F0DDFC6421642000F09DFA012000F016FB574B180000F0CCFA5823FB18180004F04FFF03009AB25823FB18110016
:40054000180000F049FB002000F002FBC821642000F082FA002000F0B5FA4C23FB18180004F038FF03009AB24C23FB181100180000F032FBFA21642000F06EFA4023FB1841
:40058000180004F027FF03009AB24023FB181100180000F021FBAF235B001900642000F05BFA1F2000F08EFA3423FB18180004F011FF03009AB23423FB181100180000F0F1
:4005C0000BFB3023FA183223FB181100180001F057FA0A2003F018FF1AE001F041FA030019006F23FB186F22BA1812781A7000290ED0002004F09CFA3023FA183223FB18AD
:400600001100180001F03CFA6F23FB1800221A706F23FB181B78002BDFD16623FC181F4B180001F055FC0300238004F00FFF6623FC18002001F0E8FC03002380174B18004B
:4006400001F046FC002004F04BFAFA239B00180003F0DAFE012004F043FAFA239B00180003F0D2FE04F0F2FEECE7C046008701000C87010018870100248701003087010091
:4006800044870100FFFF0000E0FF0000FF0700001FF80000B80B000010270000A106000080B582B000AF786039607B68012B00D006E0054B054A1A60054B064A1A60C0464E
:4006C000C046BD4602B080BD60F02E4031030000080003400203008090B585B000AF0200FB1D1A70214BFA1D12781A701F4B1B78002B08D11E4BF02252001A801D4B882262
:4007000052001A800EE0194B1B78012B08D1184BC82292001A80174BF02252001A8001E000231FE0012004F08BF9002004F0B0F9642003F069FE012004F0AAF90A2003F0FE
:4007400063FE0F23FC18002001F02AFA030023700F23FB181B781900002001F009FA00F033F801231800BD4605B090BD67220020682200206A22002080B500AF114B1B78D4
:40078000002B0ED10A21882001F0F2F9012003F03BFE0221892001F0EBF9012003F034FE0DE00A21882001F0E3F9012003F02CFE0221892001F0DCF9012003F025FEC046B2
:4007C000BD4680BD6722002080B584B000AFFFF7D3FF0C21102001F0CBF9874B1B78002B1FD10F23FB1882221A700B23FB180A221A700E23FB1808221A700D23FB183022A7
:400800001A700C23FB1800221A700823FB1803221A80BB1D08221A800A23FB180A221A701EE00F23FB1881221A700B23FB181A221A700E23FB1820221A700D23FB18602265
:400840001A700C23FB1800221A700823FB1820221A80BB1D17221A800A23FB1802221A700F23FB181B781900042001F081F9012003F0CAFD614B1B88DB089BB2DBB2013BAA
:40088000DBB21900142001F073F90C23FB181B781900152001F06CF90B23FB181A780C23FB181B78D31A023B002B00DA0733DB10DBB21900162001F05BF90E23FB181B7894
:4008C000DB08DBB2013BDBB21900172001F050F90D23FB181B78DB08DBB2013BDBB21900182001F045F9464B1B88DBB2013BDBB21900192001F03CF9414B1B88013B9BB2EC
:400900001B0A9BB2DBB219001A2001F031F90823FB181B88DBB2013BDBB219001B2001F027F90823FB181B881B0A9BB2DBB219001C2001F01DF9BB1D1B88DBB2013BDBB2A1
:4009400019001D2001F014F9BB1D1B881B0A9BB2DBB219001E2001F00BF90A23FB181B78013BDBB219001F2001F002F90021302001F0FEF80021312001F0FAF81F4B1B88C3
:40098000DBB2013BDBB21900342001F0F1F81B4B1B88013B9BB21B0A9BB2DBB21900352001F0E6F80021322001F0E2F80021332001F0DEF8124B1B88DBB2013BDBB21900E4
:4009C000362001F0D5F80E4B1B88013B9BB21B0A9BB2DBB21900372001F0CAF880218E2001F0C6F8FA235B00180003F00DFDC046BD4604B080BDC04667220020682200205E
:400A00006A22002090B583B000AF402001F01EF9FC1D01F0F3F803002370FB1D80221A70FB1D1B78180001F0CDF8212001F00EF9FC1D01F0E3F803002370FB1DFA1D1278C6
:400A40005F210A401A70FB1D1B78180001F0BAF8C046BD4603B090BD80B582B000AF0200BB1D1A803B1D0A1C1A802A2001F0EEF8BB1D1B88DBB2180001F0A4F82B2001F007
:400A8000E5F8BB1D1B881B0A9BB2DBB2180001F099F82C2001F0DAF83B1D1B88DBB2180001F090F82D2001F0D1F83B1D1B881B0A9BB2DBB2180001F085F8C046BD4602B0DB
:400AC00080BDC04690B585B000AF0200BB1D1A80632001F0BBF8BB1D1B88DB0A9BB2DBB2180001F06FF8642001F0B0F8BB1D1B885B11DBB23F221340DBB2180001F062F810
:400B0000652001F0A3F8BB1D1B88DBB21F221340DBB2180001F056F8222001F097F80F23FC1801F06BF8030023700F23FB180F22BA18127840210A431A700F23FB181B7850
:400B4000180001F03FF8C046BD4605B090BDC04690B585B000AF0200FB1D1A70FB1D1B78032B02D9FB1D03221A70222001F06EF80F23FC1801F042F8030023700F23FB18F7
:400B80000F22BA1812780F218A431A70FB1D1B789B005AB20F23FB181B785BB213435AB20F23FB181A700F23FB180F22B918FA1D097812780A431A700F23FB181B78180089
:400BC00001F000F8034BFA1D12781A70C046BD4605B090BD6522002080B584B000AF78600A00BB1C1A80BB1C1B88002B06D17B68180004F0EFFB0200BB1C1A80022001F09B
:400C000025F80E23FB1800221A8016E00E23FB181B887A68D3181B78180000F0D3FF0C4B1B78002B02D0012003F0EEFB0E23FB181A880E23FB1801321A800E23FA18BB1C8B
:400C400012881B889A42E1D3C046BD4604B080BD6522002090B585B000AF0200FB1D1A70BB1D0A1C1A700F23FC18FB1D1B78180000F096FF030023700F23FB18BA1D1B78DE
:400C800012781340DBB2002BEDD101231800BD4605B090BD90B583B000AF040008001100BB1D221C1A803B1D021C1A80BB1C0A1C1A80BB1D1B88DBB21900462000F058FF37
:400CC000BB1D00229B5E1B121BB2DBB21900472000F04EFF3B1D1B88DBB21900482000F047FF3B1D00229B5E1B121BB2DBB21900492000F03DFF022000F0A8FF03F054FDD9
:400D0000002003F09DFDBB1C1B881B0A9BB2180003F096FDBB1C1B88180003F091FD03F055FDC046BD4603B090BDC046B0B582B000AF05000C0010001900BB1D2A1C1A80DD
:400D40003B1D221C1A80BB1C021C1A803B000A1C1A80912000F07AFFBB1D1B88DBB2180000F030FF922000F071FFBB1D00229B5E1B121BB2DBB2180000F024FF932000F006
:400D800065FF3B1D1B88DBB2180000F01BFF942000F05CFF3B1D00229B5E1B121BB2DBB2180000F00FFF952000F050FFBB1C1B88DBB2180000F006FF962000F047FFBB1C4B
:400DC00000229B5E1B121BB2DBB2180000F0FAFE972000F03BFF3B001B88DBB2180000F0F1FE982000F032FF3B0000229B5E1B121BB2DBB2180000F0E5FE632000F026FFD5
:400E00001823FB181B88DB0A9BB2DBB2180000F0D9FE642000F01AFF1823FB181B885B11DBB23F221340DBB2180000F0CBFE652000F00CFF1823FB181B88DBB21F22134008
:400E4000DBB2180000F0BEFE902000F0FFFE802000F0B8FE80219020FFF7FCFEC046BD4602B0B0BDB0B584B002AF05000C0010001900BB1D2A1C1A803B1D221C1A80BB1C92
:400E8000021C1A803B000A1C1A80BB1D1A88BB1C1B88D3189BB21CB23B1D1A883B001B88D3189BB21AB23B1D0021595EBB1D0020185E002301931823FB181B8800931300BD
:400EC000220000F053FAC046BD4602B0B0BDC046B0B584B002AF05000C0010001900BB1D2A1C1A803B1D221C1A80BB1C021C1A803B000A1C1A80BB1D1A88BB1C1B88D31890
:400F00009BB21CB23B1D1A883B001B88D3189BB21AB23B1D0021595EBB1D0020185E012301931823FB181B8800931300220000F01DFAC046BD4602B0B0BDC04680B584B00D
:400F400002AF0200BB1D1A800B4B1B88013B9BB21AB20A4B1B88013B9BB219B201230193BB1D1B8800930B000021002000F0FEF9C046BD4602B080BD682200206A2200206B
:400F8000B0B584B002AF05000C0010001900BB1D2A1C1A803B1D221C1A80BB1C021C1A803B000A1C1A803B001C88BB1C00229A5E3B1D0021595EBB1D0020185E0023009317
:400FC000230000F051F9C046BD4602B0B0BDC046B0B584B002AF05000C0010001900BB1D2A1C1A803B1D221C1A80BB1C021C1A803B000A1C1A803B001C88BB1C00229A5EA0
:401000003B1D0021595EBB1D0020185E01230093230000F029F9C046BD4602B0B0BDC046B0B586B004AF05000C0010001900BB1D2A1C1A803B1D221C1A80BB1C021C1A80F9
:401040003B000A1C1A803B0000241C5FBB1C00229A5E3B1D0021595EBB1D0020185E002303932023FB181B8802931C23FB1800255B5F01931823FB1800255B5F009323001D
:4010800000F01AFAC046BD4602B0B0BDB0B586B004AF05000C0010001900BB1D2A1C1A803B1D221C1A80BB1C021C1A803B000A1C1A803B0000241C5FBB1C00229A5E3B1DE7
:4010C0000021595EBB1D0020185E012303932023FB181B8802931C23FB1800255B5F01931823FB1800255B5F0093230000F0E4F9C046BD4602B0B0BDB0B584B002AF050076
:401100000C0010001900BB1D2A1C1A803B1D221C1A80BB1C021C1A803B000A1C1A803B0000241C5FBB1C00229A5E3B1D0021595EBB1D0020185E002301931823FB181B88F7
:401140000093230000F08CFAC046BD4602B0B0BDB0B584B002AF05000C0010001900BB1D2A1C1A803B1D221C1A80BB1C021C1A803B000A1C1A803B0000241C5FBB1C002252
:401180009A5E3B1D0021595EBB1D0020185E012301931823FB181B880093230000F060FAC046BD4602B0B0BDB0B586B004AF05000C0010001900BB1D2A1C1A803B1D221CF2
:4011C0001A80BB1C021C1A803B000A1C1A803B0000241C5FBB1C00229A5E3B1D0021595EBB1D0020185E002302931C23FB181B8801931823FB181B780093230000F0D6FACA
:40120000C046BD4602B0B0BDB0B586B004AF05000C0010001900BB1D2A1C1A803B1D221C1A80BB1C021C1A803B000A1C1A803B0000241C5FBB1C00229A5E3B1D0021595E91
:40124000BB1D0020185E012302931C23FB181B8801931823FB181B780093230000F0A6FAC046BD4602B0B0BDB0B582B000AF05000C0010001900BB1D2A1C1A803B1D221CA1
:401280001A80BB1C021C1A803B000A1C1A80992000F0DCFCBB1D1B88DBB2180000F092FC9A2000F0D3FCBB1D00229B5E1B121BB2DBB2180000F086FC9B2000F0C7FC3B1DA8
:4012C0001B88DBB2180000F07DFC9C2000F0BEFC3B1D00229B5E1B121BB2DBB2180000F071FC9D2000F0B2FCBB1C1B88DBB2180000F068FC632000F0A9FC3B001B88DB0ABF
:401300009BB2DBB2180000F05DFC642000F09EFC3B001B885B11DBB23F221340DBB2180000F050FC652000F091FC3B001B88DBB21F221340DBB2180000F044FC902000F082
:4013400085FC1823FB181B78002B03D0602000F039FC02E0402000F035FC40219020FFF779FCC046BD4602B0B0BDC046B0B582B000AF05000C0010001900BB1D2A1C1A8023
:401380003B1D221C1A80BB1C021C1A803B000A1C1A80912000F05AFCBB1D1B88DBB2180000F010FC922000F051FCBB1D00229B5E1B121BB2DBB2180000F004FC932000F04C
:4013C00045FC3B1D1B88DBB2180000F0FBFB942000F03CFC3B1D00229B5E1B121BB2DBB2180000F0EFFB952000F030FCBB1C1B88DBB2180000F0E6FB962000F027FCBB1CFD
:4014000000229B5E1B121BB2DBB2180000F0DAFB972000F01BFC3B001B88DBB2180000F0D1FB982000F012FC3B0000229B5E1B121BB2DBB2180000F0C5FB632000F006FC60
:401440001823FB181B88DB0A9BB2DBB2180000F0B9FB642000F0FAFB1823FB181B885B11DBB23F221340DBB2180000F0ABFB652000F0ECFB1823FB181B88DBB21F22134050
:40148000DBB2180000F09EFB902000F0DFFB1C23FB181B78002B03D0B02000F093FB02E0902000F08FFB80219020FFF7D3FBC046BD4602B0B0BDC046B0B582B000AF0500B9
:4014C0000C0010001900BB1D2A1C1A803B1D221C1A80BB1C021C1A803B000A1C1A80912000F0B4FBBB1D1B88DBB2180000F06AFB922000F0ABFBBB1D00229B5E1B121BB24B
:40150000DBB2180000F05EFB932000F09FFB3B1D1B88DBB2180000F055FB942000F096FB3B1D00229B5E1B121BB2DBB2180000F049FB952000F08AFBBB1C1B88DBB21800DC
:4015400000F040FB962000F081FBBB1C00229B5E1B121BB2DBB2180000F034FB972000F075FB3B001B88DBB2180000F02BFB982000F06CFB3B0000229B5E1B121BB2DBB2D2
:40158000180000F01FFBA92000F060FB1823FB181B88DBB2180000F015FBAA2000F056FB1823FB1800229B5E1B121BB2DBB2180000F008FBAB2000F049FB1C23FB181B8865
:4015C000DBB2180000F0FEFAAC2000F03FFB1C23FB1800229B5E1B121BB2DBB2180000F0F1FA632000F032FB2023FB181B88DB0A9BB2DBB2180000F0E5FA642000F026FBAD
:401600002023FB181B885B11DBB23F221340DBB2180000F0D7FA652000F018FB2023FB181B88DBB21F221340DBB2180000F0CAFA902000F00BFB2423FB181B78002B03D012
:40164000A12000F0BFFA02E0812000F0BBFA80219020FFF7FFFAC046BD4602B0B0BDC046B0B582B000AF05000C0010001900BB1D2A1C1A803B1D221C1A80BB1C021C1A8073
:401680003B000A1C1A80A52000F0E0FABB1D1B88DBB2180000F096FAA62000F0D7FABB1D00229B5E1B121BB2DBB2180000F08AFAA72000F0CBFA3B1D1B88DBB2180000F067
:4016C00081FAA82000F0C2FA3B1D00229B5E1B121BB2DBB2180000F075FAA12000F0B6FABB1C1B88DBB2180000F06CFAA22000F0ADFABB1C00229B5E1B121BB2DBB21800CA
:4017000000F060FAA32000F0A1FA3B001B88DBB2180000F057FAA42000F098FA3B0000229B5E1B121BB2DBB2180000F04BFA632000F08CFA1823FB181B88DB0A9BB2DBB234
:40174000180000F03FFA642000F080FA1823FB181B885B11DBB23F221340DBB2180000F031FA652000F072FA1823FB181B88DBB21F221340DBB2180000F024FAA02000F086
:4017800065FA1C23FB181B78002B03D0C02000F019FA02E0802000F015FA8021A020FFF759FAC046BD4602B0B0BDC046B0B582B000AF05000C0010001900BB1D2A1C1A8073
:4017C0003B1D221C1A80BB1C021C1A803B000A1C1A80A52000F03AFABB1D1B88DBB2180000F0F0F9A62000F031FABB1D00229B5E1B121BB2DBB2180000F0E4F9A72000F056
:4018000025FA3B1D1B88DBB2180000F0DBF9A82000F01CFA3B1D00229B5E1B121BB2DBB2180000F0CFF9A12000F010FABB1C1B88DBB2180000F0C6F9A22000F007FABB1C7A
:4018400000229B5E1B121BB2DBB2180000F0BAF9A32000F0FBF93B001B88DBB2180000F0B1F9A42000F0F2F93B0000229B5E1B121BB2DBB2180000F0A5F9632000F0E6F9D3
:401880001C23FB181B88DB0A9BB2DBB2180000F099F9642000F0DAF91C23FB181B885B11DBB23F221340DBB2180000F08BF9652000F0CCF91C23FB181B88DBB21F22134088
:4018C000DBB2180000F07EF9A02000F0BFF92023FB181B78002B0FD01823FB181B785BB2032213405BB23022524213435BB2DBB2180000F067F90EE01823FB181B785BB2F4
:40190000032213405BB27022524213435BB2DBB2180000F057F98021A020FFF79BF9C046BD4602B0B0BDC04680B582B000AF0200FB1D1A70FB1D1B78002B04D00121C7202E
:4019400000F016F903E00021C72000F011F9C046BD4602B080BDC04680B582B000AF0200FB1D1A70FB1D1B7819008B2000F000F9C046BD4602B080BD80B582B000AF020063
:40198000FB1D1A70BB1D0A1C1A70FB1D1B78002B0FD0BB1D1B785BB20F2213405BB28022524213435BB2DBB219008A2000F0E0F808E0BB1D1B780F221340DBB219008A2067
:4019C00000F0D6F8C046BD4602B080BD80B584B000AF0200FB1D1A700F23FB1802221A701E4B1B78012B03D10F23FB1804221A70FB1D1B78002B1BD00F23FB181B7848228E
:401A000052421343DBB21900702000F0B1F80421712000F0ADF8F02000F0C2F803001A0004231343DBB21900F02000F0A1F810E0F02000F0B5F803001A0004239A4313003E
:401A4000DBB21900F02000F093F80021702000F08FF8C046BD4604B080BDC0466722002080B500AFF12000F09BF803001A000423134001D0012300E000231800BD4680BD05
:401A800090B585B000AF78603960722000F088F803001A000E23FB181A80732000F080F803001A000C23FB181A800B23FC18742000F076F8030023700E23FB180E22BA188B
:401AC000128892001A800C23FB180C22BA18128892001A800B23FB181B781BB2032213401AB20E23FB1800215B5E13431AB20E23FB181A800B23FB181B789B08DBB21BB244
:401B0000032213401AB20C23FB1800215B5E13431AB20C23FB181A807B680E22BA1812881A803B680C22BA1812881A800421F12000F01EF801231800BD4605B090BDC046D4
:401B400080B582B000AF0200FB1D1A70FB1D1B78002B04D08021012000F00AF803E00021012000F005F8C046BD4602B080BDC04680B582B000AF0200FB1D1A70BB1D0A1C85
:401B80001A70FB1D1B78180000F060F8BB1D1B78180000F017F8C046BD4602B080BDC04680B582B000AF0200FB1D1A70FB1D1B78180000F04BF800F021F803001800BD4639
:401BC00002B080BD80B582B000AF0200FB1D1A7002F0EAFD012002F017FC002002F030FEFB1D1B78180002F02BFE012002F00CFC02F0ECFDC046BD4602B080BD80B582B0CA
:401C000000AFFB1D00221A70BB1D00221A7002F0CBFD012002F0F8FB402002F011FE002002F00EFE02F0FCFD0300DAB2FB1D0F210A401A70012002F0E7FB02F0C7FDFB1D15
:401C40001B781800BD4602B080BDC04680B582B000AF0200FB1D1A7002F0A6FD012002F0D3FB802002F0ECFDFB1D1B78180002F0E7FD012002F0C8FB02F0A8FDC046BD4607
:401C800002B080BD80B582B000AF786039603A687B680021180003F095FBC046BD4602B080BDC04680B500AF054B03221A60054B03221A60044B00221A60C046BD4680BD7C
:401CC0003000304030003140000E3F4080B500AF03F034FB03001B680C2B00D1FEE7FEE780B586B000AF224B7B61224B3B61204B7B6135E03B691B68FB603B695B68BB60EC
:401D00003B699B683B6000237B600CE0FB681A68BB681A60BB680433BB60FB680433FB607B6804337B607A683B689A42EED13B69DB683B6000237B6008E0BB6800221A604F
:401D4000BB680433BB607B6804337B607A683B689A42F2D13B6910333B617B69013B7B617B69002BC6D103F0EFFAFEF7A5FAFEE701000000308D010080B582B000AF154B26
:401D8000144A126801218A431A6000237B600FE07B68032B04D8104B7A689200D35800E00E4B0F4A796889008B507B6801337B607B682F2BECD9FEF7B9F90A4B00221A60AB
:401DC000044B044A126801210A431A60C046BD4602B080BD0000104000000000CD1C000000000020C000002080B500AF1E4B00221A701E4B00221A701D4B00221A701D4B28
:401E000000221A701C4B5A881C4B1A801A4B9A881A4B5A80184B9A79184B1A73164BDA79164B1A71154B0622DA81144B28221A82124B00225A82114BFA2292009A820F4BDD
:401E40000022DA820D4B012252421A830C4B1E221A8000F01BF80B4B00221A700A4B00221A70C046BD4680BDBD220020A4220020BB220020BA220020F00B00207822002008
:401E8000922200206C2200207422002080B500AF0C4B1B88002B05D10B4B0E220021180003F090FA074BDB88002B05D1074B06220021180003F086FA01F094FDC046BD4668
:401EC00080BDC0465C0C0020AC2200209C220020B0B594B004AF78603E23FB1800221A802823FA183E4B1000190014231A0003F060FA3C4B1B78002B04D1FFF775FF394B32
:401F000001221A707B68002B5FD0374B7A681A603E23FB181B88002B29D11023FB181C22BA185A601023FB182022BA181A601023FB1800221A812023FB181B221A80202346
:401F4000FB181B225A802023FB1804221A711C23FB1808221A703E23FC180E23FA181023FB181100180003F04DFB030023803E23FB181B88002B2CD13E23FC182823FD180E
:401F8000AE231A0119491A481A4B02931A4B0193052300932B0003F08BFA030023803E23FB181B88002B14D1144B01221A70144B08221A703E23FC18124B0B220F211800ED
:401FC00011F066FA0300238003E03E23FB1801221A803E23FB181B881800BD4610B0B0BD6C8701007C10002070220020C800002021280000790200000096010096220020FA
:40200000972200208887010090B585B000AF0200FB1D1A70FB1D1B78022B04D90E23FB1801221A804AE0294B1B78062B41D1284B1B78DBB21A00042313403AD1FB1D1B78E3
:40204000002B0BD1234B1E221A82224B5B6820221A80204B5B6830225A8010E0FB1D1B78012B0CD11B4B96221A821A4B5B68C822D2001A80174B5B688022D2015A80164BF8
:40208000FA1D12781A700E23FC18124B18000FF0E9F9030023800E23FB181B88002B0DD10B4B1B78DBB204221343DAB2084B1A7004E00E23FB180422FF321A800E23FB180C
:4020C0001B881800BD4605B090BDC04696220020BD220020DC0B0020BB22002080B584B000AF78600A00FB1C1A700023BB60BB68002B20D07B689A79BB681A700F23FB1840
:4021000000221A7012E00F23FB181B780133BA68D3180F22BA18127879688A5C1A700F23FB181A780F23FB1801321A700F23FB181B78052BE7D9C046BD4604B080BDC04669
:4021400090B585B000AF0200FB1D1A70FB1D1B78022B04D90E23FB1801221A8035E0FB1D1B78002B09D11C4B1E221A811A4B30225A80194B30229A800EE0FB1D1B78012BAF
:402180000AD1154B96221A81134B802212015A80114BE122D2009A80104BFA1D12781A700E23FC180C4B18000FF0EEF8030023800E23FB181B88002B07D1094B1B78DBB236
:4021C00004221343DAB2064B1A700E23FB181B881800BD4605B090BDF00B0020BA220020BD22002090B583B000AF104B1B78052B04D0BB1D0422FF321A8011E0BC1D0FF037
:40220000B5F8030023800A4B1B88002B01D00CF02BF8BB1D1B88002B02D1044B06221A70BB1D1B881800BD4603B090BD962200209222002080B582B000AF78607B681B7818
:402240009AB27B6801331B789BB21B029BB213439BB21800BD4602B080BDC04690B585B000AF78600F23FB1800221A707B689B890F22934232D17B68181D7A680F23FC18BC
:402280004023002111F01CF9030023700F23FB181B78002B1AD17B685B681800FFF7CAFF03001A00022313409BB2002B07D00F4B1B687968822252001000984706E00B4BC0
:4022C0001B6879680622FF3210009847084B1B78DBB201229343DAB2054B1A700F23FB181B781800BD4605B090BDC04670220020BD22002080B582B000AF78607B68DB8880
:402300000D4A934214D10D4B5B88002B08D17B689A880A4B5A807B689A78084B1A7007E0074B1B687A68911D8622520010009847C046BD4602B080BD052A00009C2200200D
:402340007022002080B582B000AF78607B689B880B4A934210D10B4B9B88002B04D17B685A88084B9A8007E0074B1B687A68111D8622520010009847C046BD4602B080BD54
:40238000022900009C2200207022002080B582B000AF78600C4B5A887B689B899A420ED10A4B1B6879688322520010009847084B1B78DBB201229343DAB2054B1A70C04602
:4023C000BD4602B080BDC0469C22002070220020BD22002090B585B000AF78600F23FC187B681800FFF73AFF03002370154B1B78DBB21A00012313401FD10F23FB181B7876
:40240000002B16D00823FB1812229A707B689A890823FB181A800823FB180F22BA181278DA700823FA187B681100186810F0B2F903E07B68186810F02FFAC046BD4605B093
:4024400090BDC046BD22002080B582B000AF7860C046BD4602B080BD80B582B000AF7860C046BD4602B080BD80B582B000AF7860C046BD4602B080BD80B582B000AF78606A
:40248000C046BD4602B080BD80B588B000AF7860394B1B78022B6AD1384B1B88002B66D00C23F918354B022208009B180422190002F07FFF7B6859687B681B891A000C2368
:4024C000FB180433180002F074FF0C23FB18180001F0FCFA294B1B8801339AB20C23FB181A80274B1B781900264A0B005B005B185B00D31802331A880C23FB185A800C2392
:40250000FB181A880C23FB185B889A4221D80C23F9181D4B1A785B781B021A4300231204120C1B0C1B04134318000FF0F9FD031E12D0164B1B688422520000211000984776
:40254000134B1B78DBB202229343DAB2104B1A7002E0012000F0B8FC0D4B1B78DBB201229343DAB20A4B1A70044B00221A80C046BD4608B080BDC04697220020A410002033
:40258000BC2200205C0C0020A822002070220020BD22002080B588B000AF7860394B1B78022B6AD1384B1B88002B66D00C23F918354B022208009B180422190002F0F9FE39
:4025C0007B6859687B681B891A000C23FB180433180002F0EEFE0C23FB18180001F076FA294B1B8801339AB20C23FB181A80274B1B781900264A0B005B005B185B00D3184C
:4026000002331A880C23FB185A800C23FB181A880C23FB185B889A4221D80C23F9181D4B1A785B781B021A4300231204120C1B0C1B04134318000FF073FD031E12D0164B64
:402640001B6884225200002110009847134B1B78DBB202229343DAB2104B1A7002E0012000F032FC0D4B1B78DBB201229343DAB20A4B1A70044B00221A80C046BD4608B01D
:4026800080BDC04697220020A4100020BC2200205C0C0020A822002070220020BD22002080B500AF094B00225A70084B00221A70074B1B78052B03D1054B07221A7002E018
:4026C000034B08221A70C046BD4680BDA82200209722002080B582B000AF78607B681B78032B3ED1264B1B78DBB21A000223134037D0244B1B78022B10D002DC012B05D016
:4027000024E0032B12D0042B18D01FE01E4B1B680822FF3200211000984717E01A4B1B68842252000021100098470FE0164B1B680A22FF3200211000984707E0124B1B682A
:4027400085225200002110009847C0460C4B1B78DBB202229343DAB2094B1A70094B00221A707B681B78042B05D1084B1B78052B01D1FFF737FDC046BD4602B080BDC046E4
:40278000BD22002097220020702200209622002080B500AFC046BD4680BDC04680B584B000AF78600E23FB1800221A707B689B79002B1CD10F23FB1800221A7012E00F2383
:4027C000FB181B787A68D35C002B04D00E23FB1801221A700BE00F23FB181A780F23FB1801321A700F23FB181B78052BE7D90E23FB181B781800BD4604B080BD80B582B05C
:4028000000AF0200BB1D1A80C046BD4602B080BD80B582B000AF7860C046BD4602B080BD80B588B000AF02003960FB1D1A70D84B1B78DBB201221343DAB2D54B1A70FB1D34
:402840001B78FA2B00D92BE29A00D24BD3181B689F461423FB1802221A701423FB1800225A701423FB18180004F0D0FD1423FB1802221A701423FB1801225A701423FB18E6
:40288000180004F0C3FD0B23002B01D002F0D6FDC14B1B681800FFF781FF031E11D0BE4B1B68180002F0D6FDBB4B1B6800211800FFF714FCB84B1B6801211800FFF70EFC4D
:4028C0000DE0B64B180002F0C5FDB44B00211800FFF704FCB14B01211800FFF7FFFB00200EF01AFC1023FB183F221A701023FB1800225A701023FB1818000EF02BFCA84BBD
:4029000006221A70D7E13B681800FFF7E3FED2E13B681A78A34B1A70CDE13B68BB61BB691B78002B00D0BDE1BB695B78002B0BD19D4B0022DA809C4B00229A809A4B9B4A2F
:402940001A60BB69984A5A60914B1B78DBB201229343DAB28E4B1A70A4E18D4B1B78DBB21A002023134000D09EE1914B1B78102B02D18F4B0522DA708E4B1B788C4A1100A2
:4029800018000EF02DFD03001A000E23FB181A800E23FB181B88002B06D0874B1B680E22BA18110036209847794B1B78DBB201221343DAB2764B1A707E4B1B787C4A1100F0
:4029C00018000EF06DF96FE13B685A787B4B1A7071E13B681800FFF71BFF6CE13B681800FFF716FF764B1B88002B01D00BF03CFC6B4B02221A705EE1694B06221A705AE13F
:402A0000674B1B78022B00D150E1614B1B78DBB21A000123134000D148E15D4B1B78DBB21A00042313400BD05D4B03221A70584B1B78DBB204229343DAB2554B1A7035E1B2
:402A4000534B1B78DBB21A00082313400BD0544B06221A704E4B1B78DBB208229343DAB24B4B1A7022E14E4B1B78032B00D01DE14B4B06221A70534B1B78002B00D015E1DA
:402A80000120FFF7C1FA031E00D00FE1444B03221A700BE1424B1B78022B00D108E13C4B1B78DBB21A000123134000D100E1384B1B78DBB21A00042313400BD0384B04228D
:402AC0001A70334B1B78DBB204229343DAB2304B1A70EDE02E4B1B78DBB21A00082313400BD02F4B06221A70294B1B78DBB208229343DAB2264B1A70DAE0294B1B78042B11
:402B000000D0D5E0264B06221A702F4B1B78002B00D0CDE00120FFF713FB031E00D0C7E01F4B04221A70C3E03B681B881800FFF765FEC0E01F4A3B681000190002231A00F3
:402B400002F037FC174B00221A701A4B1B783D33FF335A001D4BD31801331D4A1000190002231A0002F025FC1A4B00221A70FFF70FFEA0E0FFF794FD9DE03B685B88162B66
:402B80002AD81E23FB183A6852881A8028E0C046BD220020C0880100040C0020FC0B002096220020A4220020BC100020A80B0020700C0020A8220020702200207422002091
:402BC00092220020BB220020BA2200200096010094220020972200201E23FB1817221A801E23FB1819883B681A8800231204120C1B0C1B04134318000FF0D6FD5BE03B68A6
:402C00001800FFF7E7FB56E03B681800FFF71CFC51E03B68180000F06FF84CE03B68180000F08AFA47E000F075FE44E03B68180000F01CFD3FE03B68180000F0BBFE3AE0F8
:402C40003B681800FFF710FC35E03B681800FFF79DFB3B681800FFF70FFC244B1B78DBB21A000123134025D13B6818680FF01EFA20E03B681800FFF707FC1CE03B681800C2
:402C8000FFF788FC17E03B681800FFF7E5FB12E0174B1B7801221343DAB2154B1A700AE0C04608E0C04606E0C04604E0C04602E0C04600E0C0460D4B1B78DBB21A001123F4
:402CC00013400ED0094B1B78DBB201229343DAB2064B1A70074B1B68FA1D1278396810009847C046BD4608B080BDC046BD2200206C2200207022002080B586B000AF786074
:402D00000023FB606B4B1B78012B00D0CDE06A4B1B78DBB21A000223134000D1C5E00A23FB187A6812891A800A23FB181B88062B05D00A23FB181B88142B00D0AEE008235B
:402D4000FB187A6852891A801423FB1800221A8092E07B685A681423FB181B88D318FB601323FB1800221A70FB681A88534B1B889A4200D276E0FB681A88504B5B889A42FB
:402D800000D96FE00A23FB181B88062B00D065E01623FB1800221A8055E01623FB181A88474913005B009B185B00CB1804331A88FB689B889A423FD11623FB181A884049E6
:402DC00013005B009B185B005B5A002B13D11623FB181A883A4913005B009B185B00FA68CB1811000422180002F0E3FA1323FB1801221A7020E01623FB181B88012B0FD84B
:402E00001623FB181B885A1C2D4913005B009B185B00CB1804331A88FB689B889A420BD0284B1B68FA68111D0C22FF32100098471323FB1801221A701623FB181A88162351
:402E4000FB1801321A801623FB181B88022B09D81323FB181B78002B9FD003E0FB68180000F034FE1423FB181422B9180A22BA18098812888A181A801423FA180823FB1842
:402E800012881B889A4200D263E70B4B1B78DBB201229343DAB2084B1A7006E0094B1B680822FF32002110009847C046BD4606B080BDC04697220020BD2200209822002029
:402EC0005C0C00207022002080B582B000AF0200FB1D1A70FB1D1B78002B06D0344B1B780133DAB2324B1A700CE0314B00221A70304B00221A8005E02D4B1B780133DAB25E
:402F00002B4B1A702A4B1B78022B19D8284B1B781900294A0B005B005B185B009A5A274B1B889A42E8D3224B1B781900224A0B005B005B185B009A5A204B5B889A42DBD87B
:402F40001B4B1B78022B28D8194B1B781A0013005B009B185B00184A9918194B1A785B781B021A4300231204120C1B0C1B04134318000FF0D5F8031E15D0124B1B688422E5
:402F800052000021100098470F4B1B78DBB202229343DAB20C4B1A7005E00C4B03221A70002000F0ADFAC046BD4602B080BDC046BC220020A41000205C0C002098220020FA
:402FC000A822002070220020BD2200209722002080B582B000AF78607B68DB884F4A934200D184E04D4A93420BDC4D4A934224D04B4A934200DD68E0A822920193420AD038
:4030000087E0484A93423CD0474A93424BD0474A934224D07DE0464B1B88002B04D17B689A88434B1A8074E0424B1B687A68911D86225200100098476BE03D4B5B88002B5F
:4030400004D17B689A883A4B5A8062E0394B1B687A68911D862252001000984759E0344B1B89002B04D17B689A88314B1A8150E0304B1B687A68911D862252001000984736
:4030800047E02B4B5B89002B04D17B689A88284B5A813EE0274B1B687A68911D862252001000984735E0224B9B89002B04D17B689A881F4B9A812CE01E4B1B687A68911DF8
:4030C000862252001000984723E0194B9B88002B04D17B689A88164B9A801AE0154B1B687A68911D862252001000984711E0104BDB88002B04D17B689A880D4BDA8007E03A
:403100000C4B1B687A68911D8622520010009847C046C046BD4602B080BDC046032A0000012A0000A62A0000C92A0000042A0000AC2200207022002090B593B000AF786040
:40314000D44B1B78DBB21A000223134000D1D1E13E23FB187A6812891A803C23FB187A6852891A807B685B683B64CB4B1B78032B00D0C7E04623FB1800221A80B8E03B6C9D
:403180001800FFF757F803001A002423FB181A803B6C02333B643B6C1A782423FB189A703B6C01333B643B6C1800FFF743F803001A002423FB189A803B6C02333B643E23B2
:4031C000FB181B88152B33D12423FB1802229A752423FB180622396C9B181022180002F0E8F83B6C10333B64AC4B1B781900AC4A0B005B005B185B00D31804331B881A001D
:40320000A84B9A425DD0A54B1B78012B5BD9A34B1B78022B57D8A14B1B789BB2023B9BB22422BA181100180000F0B8FCC0464AE03E23FB181B88072B48D12423FB18012288
:403240009A753B6C1800FEF7F5FF03001A002423FB18DA803B6C02333B64904B1B7819008F4A0B005B005B185B00D31804331B88C0225201934203D08B4A934206D00BE0AA
:403280002423FB181800FFF7A3FE1FE02423FB181800FFF72FF819E0804B1B78012B14D97E4B1B78022B10D87C4B1B789BB2023B9BB22422BA181100180000F06FFCC046C3
:4032C00003E0C04602E0C04600E0C046714B1B78DBB201229343DAB26E4B1A704623FB184622B9183E22BA18098812888A181A804623FA183C23FB1812881B889A4200D24D
:403300003DE7F7E0644B1B78022B00D0F2E04623FB1800221A80E4E03B6C1800FEF78AFF03001A000C23FB181A803B6C02333B643B6C1800FEF77EFF03001A000C23FB1844
:403340005A803B6C02333B643B6C1800FEF772FF03001A000C23FB189A803B6C02333B643E23FB181B88062B30D10C23FB1802229A750EF051FF0C23FB1859884B4B1A7888
:403380005B781B021A4300231204120C1B0C1B04134318000EF0E2FE031E07D1444B0C22BA1813CA13C313CA13C388E0414B1B6884225200002110009847364B1B78DBB2C9
:4033C00002229343DAB2334B1A7078E03E23FB181B88082B00D072E00C23FB1801229A753B6C1800FEF726FF03001A000C23FB18DA803B6C02333B644423FB1800221A80C4
:4034000033E04423FB181A88254913005B009B185B00CB1804331A880C23FB18DB889A421CD14423FB181A881D4913005B009B185B005B5A002B11D14423FB181A8818490C
:4034400013005B009B185B000C22BA180220CB1811180422180001F0ACFF0BE04423FB181A884423FB1801321A804423FB181B88022BC6D9094B1B781900094A0B005B00D8
:403480005B185B00D31804331B881A000A4B9A4214D014E0BD22002097220020BC2200205C0C0020FEFF000001180000A8220020A41000207022002012180000C0460F4BE8
:4034C0001B78DBB201229343DAB20C4B1A704623FB184622B9183E22BA18098812888A181A804623FA183C23FB1812881B889A4200D211E7C046BD4613B090BDBD22002010
:4035000080B582B000AF0200FB1D1A70FB1D1B78002B06D0354B1B780133DAB2334B1A7009E0324B00221A7005E0304B1B780133DAB22E4B1A702D4B1B78022B19D82B4BE3
:403540001B7819002A4A0B005B005B185B009A5A284B1B889A42E8D3244B1B781900244A0B005B005B185B009A5A224B5B889A42DBD81E4B1B78022B2DD81C4B1B781A0084
:403580001B4913005B009B185B001B4A585ACB185B881B04034319001378527812021A4300231204120C1B0C1B04134318000EF09BFD031E15D0114B1B680A22FF32002106
:4035C000100098470E4B1B78DBB202229343DAB20B4B1A7005E00B4B04221A70002000F0E9F8C046BD4602B080BDC046BC2200205C0C002098220020A82200207022002027
:40360000BD2200209722002080B582B000AF3B0000221A803B0000225A80114B1B78002B09D1104B5B8801339AB23B001A800E4B1A893B005A803B1D3A0012681A603A1DF9
:40364000002311880904090C1B0C1B040B43528812041B041B0C13431800BD4602B080BDBC2200209C2200205C0C002080B58AB000AF78600823FB1800225A804A4B1B7886
:40368000042B00D08BE0494B1B78DBB21A000223134000D183E01E23FB187A6812891A807B681A7B0823FB181A750823FB187A6812881A800823FB181B7D012B04D1262302
:4036C000FB1804221A8003E02623FB1812221A807B685B683B622423FB1800221A804EE03B6A1800FEF7A6FD03001A000823FB185A803B6A02333B620823FB181B7D022B5F
:4037000015D10823FB183A6A043311001022180001F04FFE3B6A10333B62254B1B78012B23D10823FB18180000F0FEFB1DE03B6A1800FEF77FFD03001A000823FB189A806A
:403740003B6A02333B621A4B1B78002B04D10823FB181800FEF7F6FD154B1B78012B04D10823FB18180000F0DFFB2423FB182422B9182622BA18098812888A181A8024234F
:40378000FA181E23FB1812881B889A42A8D3074B1B78DBB201229343DAB2044B1A70C046BD460AB080BDC04697220020BD220020BC22002080B584B000AF0200FB1D1A70A7
:4037C0000C23FB1800221A800C23FB1800225A804A4B1B78012B17D0FB1D1B78002B0DD0464B1B780133DAB2444B1A70434B1B78012B09D1FB1D00221A7005E03F4B002226
:403800001A70FB1D01221A703C4B1B78012B0CD1FB1D1B78180000F0C5FA03001A000C23FB181A60FB1D01221A70344B1B78012B06D0FFF7E9FE03001A000C23FB181A603C
:403840000C23FB181A882E4B1B889A4215D90C23FB181A882A4B5B889A420ED80C23FB185A88274B1B889A4207D30C23FB181A880C23FB185B889A4203D9204B1B78012BA6
:40388000A6D91E4B1B78012B21D80C23F9181D4B1A785B781B021A4300231204120C1B0C1B04134318000EF009FC031E21D0164B1B6885225200002110009847134B1B78E3
:4038C000DBB202229343DAB2104B1A7011E0104B05221A700C4B1B681222FF320021100098470A4B1B78DBB202229343DAB2074B1A70C046BD4604B080BDC046BC220020AF
:4039000098220020A822002070220020BD2200209722002080B500AF244B1B78DBB21A00022313403FD0224B1B78022B17D002DC012B05D037E0032B1DD0042B27D032E0C8
:403940001B4B02221A700020FFF7BEFA174B1B78DBB201229343DAB2144B1A7023E00120FFF7B2FA114B1B78DBB201229343DAB20E4B1A7017E00120FFF7C2FD0B4B1B7815
:40398000DBB201229343DAB2084B1A700BE00120FFF710FF054B1B78DBB201229343DAB2024B1A70C046C046BD4680BDBD2200209722002080B582B000AF7860084B1B7843
:4039C000DBB21A000223134005D07B689B790A2B01D1FFF79FFFC046BD4602B080BDC046BD22002080B582B000AFBB1D00221A8060E0BB1D1B889A1C324913005B009B188D
:403A00005B005B5A002B50D13B1D00221A8040E0BB1D1B882C4A1B01D3180C331A683B1D1B881B01D31800221A80BB1C00221A8019E0BB1D1B88244A1B01D3180C331A6842
:403A40003B1D1B881B01D318D968BB1C1A8813005B009B189B00CB1800221A80BB1C1A88BB1C01321A80BB1D1B88174A1B01D3180C331A683B1D1B881B01D3189B7A9BB20A
:403A8000BA1C12889A42D4D33B1D1A883B1D01321A80BB1D1B880C4A1B01D31809331B789BB23A1D12889A42B2D3BB1D1A88BB1D01321A80BB1D1B88002B9AD0C046BD4676
:403AC00002B080BD5C0C0020940C002080B584B000AF78600D23FB1800221A700E23FB1800221A8046E00E23FB181B88284A1B01D31808331B78022B35D10E23FB181B8842
:403B0000234A1B01D318043318687B6804331022190001F03FFC031E25D10E23FB181B889A1C1C4913005B009B185B005B5A002B19D10E23FB181B889A1C164913005B0000
:403B40009B185B007A68CB1811000422180001F030FC114B1B780133DAB20F4B1A700D23FB1801221A700E23FB181A880E23FB1801321A800E23FB181B88002B04D10D2375
:403B8000FB181B78002BAED0C046BD4604B080BD940C00205C0C0020BC22002080B584B000AF02003960BB1D1A800D23FB1800221A70774B1B68002B0FD0764B1B88BA1DD8
:403BC00012889A4206D1724B1B683A681288013A92B21A806E4B00221A600E23FB1800221A80ABE00C23FB1800221A703B689B7D022B27D1BB1D1B88674A1B01D3180C33C3
:403C00001A680E23FB181B881B01D3181B7A022B18D1BB1D1B88604A1B01D3180C331A680E23FB181B881B01D31858683B6806331022190001F0AEFB031E03D10C23FB18D6
:403C400001221A703B689B7D012B27D1BB1D1B88514A1B01D3180C331A680E23FB181B881B01D3181B7A012B18D1BB1D1B884A4A1B01D3180C331A680E23FB181B881B0168
:403C8000D31858683B6806330222190001F082FB031E03D10C23FB1801221A700C23FB181B78012B43D1BB1D1B883B4A1B01D3180C331A680E23FB181B881B01D3181B8880
:403CC000002B34D1BB1D1B88334A1B01D3180C331A680E23FB181B881B01D3183A6892881A80BB1D1B882C4A1B01D3180C331A680E23FB181B881B01D3183A6892785A7271
:403D0000BB1D1B88244A1B01D3180C331A680E23FB181B881B01D3189A1C1D4B1A601D4BBA1D12881A800D23FB1801221A700E23FB181A880E23FB1801321A80BB1D1B8877
:403D4000154A1B01D31809331B789BB20E22BA1812889A4205D20D23FB181B78002B00D140E70B4B1B68002B0DD0094B1A680B4B1B7818000A4903005B001B185B00CB189F
:403D800002331B881380C046BD4604B080BDC046C8100020CC100020940C0020BC2200205C0C002080B584B000AF0200FB1D1A700823FB1800221A800823FB1800225A806E
:403DC000FB1D1B78002B2DD0524B1B880133524A1288524912018A1809321278934206D24C4B1B8801339AB24A4B1A8023E04A4B1B88013309D1484B1B8801339AB2464B0B
:403E00001A80444B00221A8015E0454B1B780133DAB2434B1A703F4B1B8801339AB23D4B1A8008E03C4B00221A803A4B00221A80FB1D01221A70384B1B88384A1B01D318FE
:403E400009331B789AB2334B1B889A421FD9324B1B88324A1B01D3180C331A682D4B1B881B01D3181B8801339AB20823FB181A80294B1B88294A1B01D3180C331A68254BEF
:403E80001B881B01D3185A880823FB185A800823FB181A88234B1B889A4215D90823FB181A88204B5B889A420ED80823FB185A881C4B1B889A4207D30823FB181A880823C8
:403EC000FB185B889A420CD9134B1B88134A1B01D31809331B789AB20E4B1B889A4200D96EE70C23FB180822BA1812681A600C23FA18002311880904090C1B0C1B040B43A0
:403F0000528812041B041B0C13431800BD4604B080BDC046C6100020C4100020940C0020BC2200209822002080B584B000AF78600E23FB1800221A700F23FB1800221A7090
:403F4000B9E00D23FB1800221A707B681B7D022B37D1664B1B88664A1B01D3180C331A68644B1B881B01D318D9680F23FB181A7813005B009B189B00CB181B7A022B20D17A
:403F80005A4B1B885A4A1B01D3180C331A68594B1B881B01D318D9680F23FB181A7813005B009B189B00CB1858687B6804331022190001F0EFF9031E03D10D23FB180122EF
:403FC0001A707B681B7D012B37D1484B1B88484A1B01D3180C331A68464B1B881B01D318D9680F23FB181A7813005B009B189B00CB181B7A012B20D13C4B1B883C4A1B0188
:40400000D3180C331A683B4B1B881B01D318D9680F23FB181A7813005B009B189B00CB1858687B6804330222190001F0B3F9031E03D10D23FB1801221A700D23FB181B787E
:40404000012B31D1294B1B88294A1B01D3180C331A68284B1B881B01D318D9680F23FB181A7813005B009B189B00CB181B88002B1AD11E4B1B881E4A1B01D3180C331A68F7
:404080001C4B1B881B01D318D9680F23FB181A7813005B009B189B00CB187A6852881A800E23FB1801221A700F23FB181A780F23FB1801321A700D4B1B880D4A1B01D318BF
:4040C0000C331A680B4B1B881B01D3189B7A0F22BA1812789A4205D20E23FB181B78002B00D12EE7C046BD4604B080BDC4100020940C0020C610002090B585B000AF78601D
:404100000C23FC1800F06DFD030023707B68022B00D8B3E07B68302B00D9AFE05E4B1B78DBB21A007B689A420AD35C4A0F23FB1812781A705A4A0E23FB1812781A703FE092
:40414000584B1B78DBB21A007B689A420AD3564A0F23FB1812781A70544A0E23FB1812781A702DE0524B1B78DBB21A007B689A420AD3504A0F23FB1812781A704E4A0E239B
:40418000FB1812781A701BE04C4B1B78DBB21A007B689A420AD34A4A0F23FB1812781A70484A0E23FB1812781A7009E0464A0F23FB1812781A70454A0E23FB1812781A70E0
:4041C0007B68DA1E0B23FB1841498A5C1A700B23FB181B782F2B0DD97B682A2B0AD93D4B19221A60052000F0F3FC0D23FB1819221A7007E0374B1B68DAB20D23FB183F2116
:404200000A401A700B23FA180D23FB1812781B789A4208D22F4B7A68033A2D498A5C1A60052000F0D5FC7B68284A9A180A23FB1812781A70284B0A22BA1812781A60274BBD
:404240000F22BA1812781A60254B0E22BA1812781A60052000F0FEF80B23FA180D23FB1812781B789A420CD91A4B7A68033A18498A5C1A60052000F0ABFC02E0002000F062
:40428000B7F80C23FB181B78180000F0AEFCC046BD4605B090BDC04640F3FF0F41F3FF0F42F3FF0F43F3FF0F44F3FF0F45F3FF0F46F3FF0F47F3FF0F48F3FF0F49F3FF0F00
:4042C0004AF3FF0F4BF3FF0F4CF3FF0F4DF3FF0FDC8C01002CFF0B4028FF0B401CFF0B4020FF0B4080B584B000AF78600023FB60154B154A126801210A431A60134B144A1F
:404300001A60144B134A1268802109020A431A607B68002B12D01023FB600CE0012000F099F800F019F8031E02D00023FB6005E07B68013B7B607B68002BEFD1FB681800B4
:40434000BD4604B080BDC04660F02E4078002E400220000010002E4080B582B000AF054B1B68012213407B607B681800BD4602B080BDC0460C002E4080B584B000AF02003E
:404380003960FB1D1A7080239B05FB60FB1D1B781F2B02D9002000F02BF8FB1D1B7810339B00FA68D3181B68BB60FB1D1B7810339B00FA68D3183A681A60BB681800BD467D
:4043C00004B080BD80B582B000AF0200FB1D1A70064BFA1D12781F210A40012191400A001A60C046BD4602B080BDC04600E100E080B582B000AF0200FB1D1A7001BEC046E1
:40440000BD4602B080BDC04680B582B000AF786009E00D4B1B68180000F0DAFB7B680B4A944663447B607A6880231B029A42F0D8074B1B687A685343180000F0C9FBC046FC
:40444000BD4602B080BDC046B00C00200080FFFFA80C002080B582B000AF0200BB1D1A80BB1D1B88044A12785343180000F0B0FBC046BD4602B080BDAC0C002080B500AF3C
:404480000F4B0F4A126801218A431A600C4B0C4A126802218A431A600A4B0A4A126830218A4310210A431A60064B064A126807218A4301210A431A60C046BD4680BDC04657
:4044C00000F02E4000FF2E4080B500AF0F4B0F4A126802218A431A600D4B0D4A126807218A4302210A431A60094B094A126830218A4320210A431A60044B044A12680121EE
:404500000A431A60C046BD4680BDC04600F02E4000FF2E4080B500AFFFF7B0FF044B044A1268802109060A431A60C046BD4680BD00F02E4080B584B000AF78600C4B1B6818
:4045400001221340FB607B68002B02D0012B03D005E0FFF793FF06E0FFF7B6FF03E00020FFF746FFC046FB681800BD4604B080BD00F02E4090B583B000AFFC1D00F031FB20
:4045800003002370074B074A1268C02109020A431A60FB1D1B78180000F027FBC046BD4603B090BD00010B4080B500AF054B1A68C0231B02134001D0012300E00023180052
:4045C000BD4680BD00010B4090B583B000AFFC1D00F007FB030023700D4B0D4A12680D490A408021C9010A431A60094B084A126808490A40802109020A431A60FB1D1B7893
:40460000180000F0F2FAC046BD4603B090BDC04600010B40FF3FFFFF90B585B000AF78600B23FC1800F0DDFA03002370FFF7BCFF031E04D00123FB60FFF7C6FF01E000236B
:40464000FB607B680D4A13407B600D4B0C4A12680C4911407A680A431A60094B1B68FB68012B01D1FFF786FF0B23FB181B78180000F0BBFAC046BD4605B090BD04040400A5
:4046800010020B40FBFBFBFF80B500AF344B1B68042213401FD0334B1B680422134017D0314B1B6804221340DA432E4B1B681A402C4B1A602C4B1B68042293431A002A4B9D
:4046C0001A602A4B1B68002B02D0284B1B6898470420FFF7A1FF224B1A688023DB00134022D0204B1A688023DB00134017D01E4B1A688023DB001340DA431A4B1B681A404A
:40470000184B1A60184B1B68194A1A40164B1A60164B5B68002B02D0144B5B6898478023DB001800FFF778FF0D4B1A688023DB02134011D00B4B1A688023DB02134006D0EA
:404740000A4B9B68002B02D0084B9B6898478023DB021800FFF760FFC046BD4680BDC04610020B40BC0C0020D8100020DC100020FFFBFFFF80B500AF00F078F8C046BD46D8
:4047800080BDC04680B500AF064B064A1268802109060A431A6000F02DF800F031F8C046BD4680BD0000244080B500AF064B1B78002B04D1FFF7DEFF034B01221A70FFF7DC
:4047C000E1FFC046BD4680BDF810002080B500AF00F01EF8054B054A1268520052081A60034B00221A60C046BD4680BD00002440880F244080B500AFC046BD4680BDC04683
:4048000080B500AF00F084F8C046BD4680BDC04680B500AF00F09AF8C046BD4680BDC04680B582B000AF00237B60044B1B687B607B681800BD4602B080BDC04640032440CF
:4048400080B582B000AF7860C046064B1B681F221340082BF9D0044B7A681A60C046BD4602B080BD080224404002244080B500AF174B184A1A60184B184A1A60184B194A02
:404880001A60194B07221A60184B164A1A60184B00221A60174B00221A60174B00221A60164B00221A60164B00221A60154B00221A60154B00221A60134B1B689AB2134BC2
:4048C0001A80002000F07AF8C046BD4680BDC046000024400F000001200024400D0000800003244007010080040324400002244004022440880E2440C80E2440480F2440B2
:40490000080F2440C80F2440880F2440FA10002080B500AF0A4B0A4A1268F02109060A431A60074B064A1268F02109050A431A60044B054A12881A60C046BD4680BDC046AE
:4049400000010240880F2440FA10002080B500AF154B1B68082213405A1E9341DBB2180000F04AF8114B114A1268120112091A600D4B1A6880235B0013405A425341DBB2A7
:40498000180000F05DF8094B084A126808490A401A60084B1B689BB2202213409AB2064B1A80C046BD4680BD2000244000010240FFFFFFF0880F2440FA10002080B584B0EE
:4049C00000AF78600A4B1B68FB60FB68094A1340FB607B689A06C0231B051340FA681343FB60034BFA681A60C046BD4604B080BD20002440FFFFFFF380B584B000AF0200FB
:404A0000FB1D1A700D4B1B68DAB20F23FB187F210A401A70FB1D1B78DB01D9B20F23FB180F22BA1812780A431A70044B0F22BA1812781A60C046BD4604B080BD0001044064
:404A400080B584B000AF0200FB1D1A700F4B1B68DAB20F23FB1840218A431A70FB1D1B789B01DBB240221340D9B20F23FB180F22BA1812780A431A70044B0F22BA1812787B
:404A80001A60C046BD4604B080BDC0460001044080B584B000AF0200FB1D1A700F4B1B68DAB20F23FB1810218A431A70FB1D1B781B01DBB210221340D9B20F23FB180F226B
:404AC000BA1812780A431A70044B0F22BA1812781A60C046BD4604B080BDC0460001044080B584B000AF0200FB1D1A700F4B1B68DAB20F23FB1804218A431A70FB1D1B7857
:404B00009B00DBB204221340D9B20F23FB180F22BA1812780A431A70044B0F22BA1812781A60C046BD4604B080BDC0460002044080B584B000AF0200FB1D1A700F4B1B686B
:404B4000DAB20F23FB1808218A431A70FB1D1B78DB00DBB208221340D9B20F23FB180F22BA1812780A431A70044B0F22BA1812781A60C046BD4604B080BDC0460002044084
:404B800080B584B000AF0200FB1D1A700E4B1B68DAB20F23FB1801218A431A70FB1D1B7801221340D9B20F23FB180F22BA1812780A431A70044B0F22BA1812781A60C04662
:404BC000BD4604B080BDC04600020440000000000230800803D00138FDD1C046C046C0467047EFF3108072B6704780F31088704780B582B000AF78600A00BB1C1A80BB1CC5
:404C00001A887B681A60C046BD4602B080BDC04680B582B000AF78600A00BB1C1A80BB1C1A887B681A60C046BD4602B080BDC04680B584B000AF494B1B78DBB21B02484ABF
:404C40001278D2B21343FB60464B1B78DBB21B02454A1278D2B21343BB60BB68434A934207D1FB68072B04D1414BBB600423FB6009E0BA68D4231B019A4204D1FB68042B48
:404C800001D13B4BBB603B4BBA681A603A4BFA681A603A4B1B78DBB21B02394A1278D2B21343FB60FA6880239B019A4202D0FB68002B01D1334BFB60334BFA681A60334B9A
:404CC0001B78DBB21B02324A1278D2B21343FB60FB68304A934206D0FB682F4A934202D0FB68052B01D12D4BFB602D4BFA681A602C4B1B681B097B602B4B1B68AA2B29D1E4
:404D00007B68012B26D9214B1B78DBB20E2B21D1264B1B78DBB29BB21B0299B2244B1B78DBB29AB2BB1C0A431A80224BBA1C12881A60214B1B78DBB29BB21B0299B21F4BCD
:404D40001B78DBB29AB23B000A431A801C4B3A0012881A60C046BD4604B080BD59F1FF0F58F1FF0F5FF1FF0F5EF1FF0F580B0000580D00006C002E4074002E405BF1FF0FAE
:404D80005AF1FF0F0220000078002E405DF1FF0F5CF1FF0F0F0F000005050000050F000080002E40EC0F00F0E00F00F06DF2FF0F6CF2FF0F84002E406FF2FF0F6EF2FF0F3F
:404DC00094002E4080B582B000AF0200BB1D1A80BB1D1B881800FFF73DFBC046BD4602B080BDC04680B582B000AF78607B681800FFF70AFBC046BD4602B080BD80B500AFA8
:404E000000F0ECF8C046BD4680BDC04680B500AF00F0F0F8C046BD4680BDC04680B500AF00F0E8F8044B180000F0A2F8032000F0ADF8C046BD4680BD4150000080B500AF32
:404E4000034B180000F080F8C046BD4680BDC0464150000080B500AF014B1800BD4680BD0202000080B582B000AF78602B231800BD4602B080BDC04680B582B000AF7860C1
:404E80002B231800BD4602B080BDC04680B582B000AF78602B231800BD4602B080BDC04680B582B000AF78602B231800BD4602B080BDC04680B582B000AF78602B231800A8
:404EC000BD4602B080BDC04680B582B000AF78602B231800BD4602B080BDC04680B582B000AF78602B231800BD4602B080BDC04680B582B000AF78602B231800BD4602B019
:404F000080BDC04680B500AF2B231800BD4680BD80B582B000AF0200FB1D1A702B231800BD4602B080BDC04680B582B000AF786039602B231800BD4602B080BD80B500AFC9
:404F4000C046BD4680BDC04680B582B000AF786000F050F87B68180000F00AF8032000F015F800F03BF8C046BD4602B080BDC04680B582B000AF7860034B7A681A67C046EC
:404F8000BD4602B080BDC0460000002090B585B000AF0200FB1D1A700623FB600B23FC18FFF71FFE030023700B4B0B4A1268C0218A431100FA1D1078FA68904002000A4399
:404FC0001A600B23FB181B781800FFF70EFEC046BD4605B090BDC0460CE400E080B500AF034B802252011A60C046BD4680BDC04600E100E080B500AF034B802252011A6019
:40500000C046BD4680BDC04680E100E090B583B000AFFC1DFFF7E5FD03002370074B074A126804218A431A6030BFFB1D1B781800FFF7DBFDC046BD4603B090BD10ED00E046
:4050400080B500AF13F046FBC046BD4680BDC046002243088B4274D303098B425FD3030A8B4244D3030B8B4228D3030C8B420DD3FF22090212BA030C8B4202D312120902D5
:4050800065D0030B8B4219D300E0090AC30B8B4201D3CB03C01A5241830B8B4201D38B03C01A5241430B8B4201D34B03C01A5241030B8B4201D30B03C01A5241C30A8B42BF
:4050C00001D3CB02C01A5241830A8B4201D38B02C01A5241430A8B4201D34B02C01A5241030A8B4201D30B02C01A5241CDD2C3098B4201D3CB01C01A524183098B4201D338
:405100008B01C01A524143098B4201D34B01C01A524103098B4201D30B01C01A5241C3088B4201D3CB00C01A524183088B4201D38B00C01A524143088B4201D34B00C01AD1
:405140005241411A00D20146524110467047FFE701B5002000F0F0F802BDC0460029F7D076E7704703460B437FD4002243088B4274D303098B425FD3030A8B4244D3030BB6
:405180008B4228D3030C8B420DD3FF22090212BA030C8B4202D31212090265D0030B8B4219D300E0090AC30B8B4201D3CB03C01A5241830B8B4201D38B03C01A5241430B82
:4051C0008B4201D34B03C01A5241030B8B4201D30B03C01A5241C30A8B4201D3CB02C01A5241830A8B4201D38B02C01A5241430A8B4201D34B02C01A5241030A8B4201D303
:405200000B02C01A5241CDD2C3098B4201D3CB01C01A524183098B4201D38B01C01A524143098B4201D34B01C01A524103098B4201D30B01C01A5241C3088B4201D3CB0086
:40524000C01A524183088B4201D38B00C01A524143088B4201D34B00C01A5241411A00D201465241104670475DE0CA0F00D04942031000D34042534000229C4603098B429C
:405280002DD3030A8B4212D3FC22890112BA030A8B420CD3890192118B4208D3890192118B4204D389013AD0921100E08909C3098B4201D3CB01C01A524183098B4201D3E0
:4052C0008B01C01A524143098B4201D34B01C01A524103098B4201D30B01C01A5241C3088B4201D3CB00C01A524183088B4201D38B00C01A5241D9D243088B4201D34B003F
:40530000C01A5241411A00D20146634652415B10104601D34042002B00D54942704763465B1000D3404201B5002000F005F802BD0029F8D016E770477047C046014B1868DE
:405340007047C0465C1000200E4B70B500251E000D4CE41AA410A54204D0AB00F35898470135F8E713F0D2FC084B00251E00084CE41AA410A54204D0AB00F3589847013540
:40538000F8E770BD188D0100188D0100188D0100208D010030B50024A24208D0035D651C0C5DA34201D0181B02E02C00F4E7002030BD002310B59A4203D0CC5CC454013348
:4053C000F9E710BD03008218934202D019700133FAE770470023C25C0133002AFBD1581E70470000134A1088810703D08107890F401A001D11791030484381B250888207FF
:4054000003D08207920F801A001D800040180A494030098980B2CA0701D0503080B2890706D504495422091F09785143081880B270470000C60C00200811002010B501F0B0
:4054400005FF10BD10B501F007FF10BD10B500F055FA10BD10B50749044609780220002907D1204601F048FF002802D120460BF063FF10BD720E002070B504460120002C79
:4054800012D02368002B0FD0616800290CD0074D06222889208118462968FFF78AFF6968606809780170002070BD000008110020FFB585B0002768460E9D07734F481C467E
:4054C0000078002802D0082009B0F0BD10990F9801900095029105A807C800F001F90028F2D16946264603AB84460873002C19D0002115E08A00B75A082F09D990198078C4
:40550000002805D0083FB7521878401C187005E0002914D00027B75290198770491CC9B2A942E7D360460028CED10F98002809D0109901F03BFA002804D00120C4E7012096
:405540008446EFE701F088FE2D480021416081600599016021888180022D07D3A1798171A17AC171A1890181218A418100211EE0481C19E082008B00A75AE65ABE46BE420A
:4055800011D26F463E80B4461E190296B678BE7001967646E6521719029EBB78B3706646A652019EBE70401CA842E3D3491CA942DED3134822460C3000906846037B0799F6
:4055C000069800F015F90028B8D168460B4C007B60700B480C3001F06FFE0028AED1084907480C3108F0F6FD0028A7D108F010FE0028A3D10121217066E70000C00C002084
:40560000FC100020F8B5054633480E460078002802D002242046F8BD002E5BD000242F49002D16D02A89D0070DD02868002808D003881B3BE12B04D24088FB2801D81B28FB
:4056400001D2012409E0900707D56868002804D1F7E70020088108604860002CDAD11F482F8907811C481B21801D018041800421017119490020891C0870F80705D016480D
:405680000622801D2968FFF794FE1449B80703D56A681148127882700F480D46801D0860001F486001F04EFE0B48801D01F03CFE28890FF0BFF828890FF03EFA03461033C8
:4056C000FFF790FE1F21C018890140180249308088809FE701249DE7C00C002008110020FFB58446384F1C460020BB883F78054602460646002F11D100290ED002999942E7
:405700000BD36146002908D0002C06D00A99002906D02E4B0B99994202D2012004B0F0BD002144E0AB001F19BF78002F3BD0E35A002B38D07B43591889B22B0000F04AF821
:40574000050410161C253100A7782388BC46FF27233BEB37BB4222D26346032B1FD322E0A388002B1FD0302B19D31CE02389002B19D0282B13D316E0A289002A13D0134652
:40578000134F233BBB420AD20DE0268A002A0AD033460F4F233BBB4201D2964203D901200EE0002001E000280AD16D1CEDB2099B9D42B7D31C2463435B1802998B42ACD869
:4057C0009642AAD8AAE70000C00C002079020000BAFF000030B47446641E2578641CAB4200D21D46635D5B00E31830BC18470000FFB583B0002469460C801F4606468C80DB
:40580000002806D00598002803D004983043800701D0012466E0002FFBD03449049809888842F6D3FFF70AFBFFF7F0FA00F012FC002855D100F07AFD002851D12C4908462E
:4058400001F0E8F805042D0C4AD12A480499066081800021C18007810C98007AC00704D0684601F012FD040007D10C98007A800703D501A801F012FD0446BF1DFEB2002C2F
:4058800020D13146059800F05DF804001AD10FF061F9040016D16A461088928808368518144AF1B29088D288AEB29319984207D3401B801A80B201F09DFB050007D000E08F
:4058C000FF25012400F05EFA002D04D008E0F8B200F01CF9F6E700F081FA07490120087000F0CAFB204607B0F0BD0000C40C0020315A000014110020CC0C002010B5034807
:405900000078012801D101F017FA10BDCC0C002070B5084B0446DA889E8800205518B54206D81D68AA182260DA885118D98070BD032070BD14110020014800897047000049
:4059400014110020F0B587B007460D4600208900009006916846FFF7DBFF844600285DD1304800990160002117E02E4B88001A680629115406D22C4C0419667882185670AC
:40598000628805E0C419203CA67A8218567022891B68C018491C4280C9B2A942E5D300242DE0601CC2B2059025E01E4FA30039689600581840887118039604904E88B0425C
:4059C00017D938466F46FE80B6464F786E4677710297049F4F800168039F5E18767879184E700168764659184E800068029F18184770521CD2B2AA42D7D30598C4B2AC4201
:405A0000CFD36046002809D168460699FFF780FF8446002802D1054900980860604607B0F0BD0000D00C0020408D0100D40C00207047000010B5002809D005494A68002ACC
:405A400005D0011F08788000105801F081FA10BDD00C002010B50446FFF76EFFC0B2801DA0420CD307484068002808D0A100405801F0E0F9002801D00470001D10BD0020E1
:405A800010BD0000D00C0020F8B516460D460446FFF752FFC0B2801DA04203D20020C0430090F8BDB2B2E9B2684601F0E9F90099481C03D0024AA000526811500098F8BD5E
:405AC000D00C0020F8B50746FFF736FF801DC6B20A49002005460C680DE06178002907D06188B94202D32078FFF7B4FF002804D1241D6D1CEDB2B542EFD3F8BDD00C0020AE
:405B000010B5002801D0FFF795FF10BD70B506460948002504680BE06178002905D062882078121D0023FFF7AFFF241D6D1CEDB2B542F1D370BD0000D00C0020FFB581B091
:405B40000A9F16000C4620D000F0F2F8054604281BD0002F0CD03846FFF7B4FF20492A0151184860002810D03A460499FFF721FC1B4928010E504618778101980570200466
:405B800006D47D20C000444304E0FF2005B0F0BD6404640C00F0BAF80746042807D000F04FFAA0420BD800F04BFA201A03E0204600F0AAFA0020F06035720020E6E700F0BA
:405BC0003FFA009000F0B6FA00980121001B009000F0ECF802493A0151180098C860E6E720110020F8B5060116483418217A042903D0E068002802D017E00020F8BD00F03F
:405C00001FFA054600F096FA00F0A0F804280CD001010C480F18F8680021451900F0C6F80020F860284600F06FFA6068054D002801D0FFF765FF042020720020A85160818A
:405C4000E060DAE720110020FEB500266A46304601232549050169180D7A042D02D0C96800291BD000211154401CC0B20428F0D300246846005D002830D01B4821010818AC
:405C80004189476805680291002101604160042241810272C160002E02D015E01354E3E700F054F804280ED001010F4808180190C6680021304600F079F801980021C16054
:405CC000304600F021FA0126002D07D038460299A847002F02D03846FFF712FF641CE4B2042CC6D3FEBD0000201100200EB5002005216A4600901181508103486946006871
:405D00000FF0A1FD0EBD0000D80C0020074A0020010189180B7A042B02D0C968002903D0401CC0B20428F3D370470000201100200549002002015218127A042A03D0401CA4
:405D4000C0B20428F6D370472011002030B50A4B04200A4C00210A011219157A042D06D0D268002A03D09A4201D808461346491CC9B20429EFD330BDFFFF00002011002075
:405D80007047000030B50020074C05460423020111190B72A5504D60401C4D81C0B2CD600428F4D330BD00002011002030B5094C00231A011219157A042D04D0D56800297F
:405DC00006D02D18D5605B1CDBB2042BF1D330BD2D1AF7E720110020002070471CB5002469460C70142001902346054A05480FF02FFD04480068401C00D1FF2420461CBDCA
:405E0000595E0000D80C00203EB5124A0146FF2000230124126800290DD0012914D0042908D104206946009308814B8110460FF00AFD80B23EBD6846009304814381694699
:405E400010460FF0FBFCF4E768460093048143816946EBE7D80C002070B545890468416800890300FFF7B6FC08280509091E22282628002006F0D0FE1EE0022908D0C8B254
:405E80002A4621460DF07CFD2046FFF739FE13E002202A4621460DF073FD2946204600F00DF809E000200FF0CDF905E02046FFF7CBFE01E0FFF742F8002070BD014B00223B
:405EC000DB681847DC0C002070B5448905680089022803D0032809D0FF2070BD2246094C0023A46829460120A04708E0FFF7AAFA241DA2B200232946022008F01EF8002067
:405F000070BD0000DC0C002070470000024800214160018041807047DC0C002070B50C46002186B016460391012802D0022859D116E003A9012008F055F801281BD1039D9E
:405F4000324621462846FFF734FA0095287801900220694608814E816846FFF7B5FF41E0214D002B686809D0049004A9022008F039F801281DD0022006B070BD002812D055
:405F8000298840182146FFF714FA28880024801980B228806988091D884206D12C801348FFF792FF03E00320E6E788421AD96C6018E004986860E278A378110219430B4AEF
:405FC000698000231060E3565360032313815181A1788170E178C1706178417021780170042028800020C7E7DC0C0020601100203EB515460C46022803D004280CD000208D
:406000003EBD0091019002206946088107484A8100680FF018FC07E00DF0B2FC044B0022DB6829462046984701203EBDD80C0020DC0C0020014AD16090607047DC0C002007
:40604000034801688068081A0A214843000970476C11002010B5FEF7E1FE482204490548FFF7A7F903490120C870002010BD00005C8D01007015002010B5FEF7BFFE10BDB7
:4060800070B5134C2368002B08D0207B1149C20705D04008400020738868A08070BD88680B4AA18880B29268814203D90A4D691A091802E0814202D2411A5118A160A08051
:4060C000A0689842EAD30FF0DBFB00F013F870BD6C110020C0102E40FFFF000010B508461946FFF7A7FF10BD704710B5FFF780FF10BD000003480021016041608160C16022
:40610000704700006C110020024610B5FF20002A0CD0FFF7EFFF064C0321207B0843207310010A21FFF71AF82060002010BD00006C11002000B504480A218068484302090E
:40614000FFF7D8FF104600BD6C1100200248007B8007C00F704700006C11002010B54B490868002802DA4A4B01221A70022290430860484800694549C00B4031096A024647
:40618000C907C90F0A4259D0012000F097FA3F480E216C30FEF73CFD3E4820218430FEF737FD3C4814219C30FEF732FD3948FF21C131A430FEF72CFD3648FF212F31B030F0
:4061C000FEF726FD33483449BC30FEF721FD31483249AC30FEF71CFD30492E48491CB430FEF716FD2B482E49B830FEF711FD29482C49CC30FEF70CFD26482B490830FEF7AE
:4062000007FD24482949A830FEF702FD214828498830FEF7FDFC1F4826498C30FEF7F8FC1C481921C9029030FEF7F2FCFEF700FDFEF710FEC0B2022812D01FE000290BD033
:40624000002101420AD0114801216030FEF7E0FC0120FEF7C7FD97E70121F2E7FF2010BD15491648FEF7D4FC14481549001DFEF7CFFC124800210830FEF7CAFC542004497E
:40628000C043891C0870002010BD000000F02E40EC0C002000002E40320300002F3F00003102000010520000EC160000FA12000031D000003AE300009956000080012E40AB
:4062C000F80F000070B50646581C80B245086D00002408E0304600F0C1F81055000A1119A41C4870A4B2AC42F4D3D80705D0D0182038D15CC47FD454C17770BD30B50A4C53
:40630000002100195B1E07E0541864782502545C2C430480891C89B29942F5DB994201D1515C018030BD000000102E4010B5FF2000F0C4F90F49FF2048700E481021801DFC
:4063400041800121417001700A490020C91C4870FFF704FF04000AD100F010F907210648FEF746FC044807211830FEF741FC204610BD0000EC0C0020CC112E4070B50024BD
:4063800005465B1E0AE0284600F068F8010A161971702D1D1055A41CADB2A4B29C42F2DB9C4203D1284600F059F8105570BD000070B500210A4D5B1E0AE054186478260224
:4063C000545C344346193480001D891C80B289B29942F2DB994202D1515C4019018070BD00102E40F0B50599091FCFB200217E1E0BE0541864782502545C2C43164D4519C9
:406400002C80001D891C80B289B2B142F1DBFC0712D01C78515C24020F4A0C4381180C809C785D78001D210280B2294384182180001D80B2D9780CE059781A780902114357
:40644000054A84182180001DD9789B78090280B2194380180180F0BD00102E40014940180088704700102E4010B50B490020487000F084F8002000F047F9002000F034F9E9
:4064800007210648FEF7B4FB044807211830FEF7AFFB002010BD0000EF0C0020CC112E4010B50B46062812D006DC01280CD0032801D1FFF7D9FF10BD0A28FCD00B28FAD173
:4064C00005480078107010BDFFF730FF10BD1146184600F035F910BDF20C0020F8B5244DAC6A0127A007234E002816DA307806280ED1286A384328621F480069F9030843EB
:4065000081B21D481030FEF783FB042000F0D6F8174802212830FEF76BFBE00718D000F01DFF01280FD1002000F06AFF062000F0C5F81049FF20C91E48707078002802D1CF
:40654000686B384368630A4801212830FEF750FBE0050BD53078042802D1052000F0AEF80348FF2101312830FEF742FBF8BD000040F02E40EF0C002000002E4010B50321E3
:406580002348FEF745FB0120FEF71CFC20483038406A204C80076178800F890001431C480C38FEF735FB6078002808D0401E022181401820FEF7BCFEC000083800E0B820E5
:4065C00081B21548FEF724FB1348032109021438FEF71EFB10481149B830FEF719FB612189010F48FEF714FB0D480321001FFEF70FFB0C490C48FEF70BFB0B480B4960388F
:40660000FEF706FB084801218838FEF701FB10BD70F02E40F20C0020D8102E4090890000041E2E40FF0F000058122E40209000000849087806280BD148780749002803D10C
:40664000486B400840004863C86A01221043C86270470000EF0C002040F02E400148007870470000EF0C002000B50300FFF7B2F8080D050D0B070507090D012000BD0320AB
:4066800000BD042000BD022000BDFF2000BD0000074A9168D26889B2064B92B2994204D105498A4201D1012100E000210170704780002E4033D000003FE3000010B5044624
:4066C000FEF7A4FB072C01D9FF2C01D102480470FEF794FB10BD0000EF0C00200149487070470000EC0C002010B5064A012805D01921C9021046FEF78BFA10BD1D21C90243
:40670000F8E7000090002E4010B50A4A141D012808D009491046FEF77BFA08492046FEF777FA10BD04491046891CFEF771FA0349491DF3E788002E4031D000003AE30000ED
:4067400070B50C460546FEF785FBC0B202280E49287804D0FF2810D04C280CD810E0FF2809D10A4AD0680004800F032801D0087807E09069000A553803E00878207070BDF9
:406780004F382070087070BDEE0C002000002E40F0B50122002834D0002932D00424420600D00524792342065B06D21800D0641C034600221EE00C2516466E43124D002761
:4067C0007519AF72104F002ABB51696007D0661EB24209D10D4E86197606760E05E05E06760E8027BE1B00E080269B198919521C2E81D2B2A242DED303480549006B0022E4
:4068000088611046F0BD0000F813002079020000F80C002018B50020694608700A48006900280ED0132149014018047E684604704F21C900054800F059F8A04201D00120B8
:4068400018BD002018BD0000F80C00207C110020074900200C2242435218927A012A05D0401CC0B20628F5D30020704701207047F8130020F8B50E000446154609D0194FA5
:4068800019497868A04202D94018A04201D38D4201D90120F8BD31462046FEF77BFD00281ED02A4631462046FEF783FDE8B200210C224A43D21913895568EE18A6420BD99E
:4068C0000126641B1B1B9672834209DA1469C01A044AC0B220329676491CC9B20629E7D30020F8BDF813002079020000034610B50020024604E09C5C2018521CC0B292B2A5
:406900008A42F8D310BD000070B500F05FF8084C064A216907480D46FEF74BFD05492846FFF736FFFFF776FF207070BD79020000F80C00207C110020002070470020054AD9
:40694000002902D0012902D002E0906000E0D06000207047F80C002070B5084C154608460549E26889182A46FEF723FDE0684019E06028B270BD00007C110020F80C0020AA
:406980003EB50A226946FFF7E7FF044606480A2200686946FEF7FEFC002802D00020C0433EBD20463EBD0000FC0C0020002802D0044A914201D2FF20704703494A6108619E
:4069C0000020704779020000F80C0020024800218160C16070470000F80C002070B5074C15460548A26880182A46FFF743FFA0684019A06028B270BD7C110020F80C002036
:406A000010B503490A220968FFF7E8FF10BD0000FC0C002010B50F4A002313600E4A13600E4B18600E4801600E49012008600E490860000290600E490C4808600D49143091
:406A40000860FF381538506000F0BCF800F0CAF9002010BD2C0D0020140D0020400D0020440D0020300D0020200D002040150020240D0020380D0020014610B50020002994
:406A800010D0094B1A689C685118A14209D25868196080188A0704D08A07920F891A091D196010BD002010BD140D0020F8B50024164E671E321F3D463168136806E0142292
:406AC000624310328A58521C1BD0641C9C42F6D36A1C14D02C461422544322460C3288500C214843FFF7C8FF3168002808510AD031680020103408517068401C70602846F5
:406B0000F8BD2546E4E73846F8BD0000240D0020F3B50026F64381B000281BDB1E490968884217D80299002914D01B4F142204463F1D54432546396810354859401C09D053
:406B4000FEF764F938682F1F4159C359994203DBFEF754F93046FEBD214608310091465801590C20704308180C220299FEF721FC0948761C001D0068C159B14200D1002684
:406B80000549009A091D865008684159491C4151FEF734F90020FEBD200D0020002803DB07490968884202D90020C043704704491422091D0968504310300858704700005C
:406BC000200D0020F0B500200D4A451E0346171F50600FE014260146714314680E1DA3510C461668083433511668083435511468401C635039688842ECD30020F0BD000089
:406C0000240D0020F3B50026F64381B0002841DB2349096888423DD8029900293AD0204F142204463F1D54432546396810354859401C2FD0FEF7EAF83868415900292BD099
:406C4000211D009146580C21005971430F46C1190C220298FEF7ADFB11480021001D0068761C00590C34C0190160416081600C48001D00680159B14200D100260849009AEB
:406C8000091D865008684159491E4151FEF7B6F80020FEBD3046FEBDFEF7B0F8FAE70000200D0020FEB504460D4600201E49089E0860471E009001900290002C11D04868A1
:406CC00085420ED2002A0CD0002E0AD0642E08D808460C3001681C2068430C18207A002801D03846FEBD0120226020721846FFF7DDFE6060401C13D06681A6810A48276158
:406D00000C3067610179A94200D205710021684601810A462846029B00F040F82846FEBD00202072DDE700002C0D002038B50124009400F039F838BDFEB50027164EFF439A
:406D40003D4600240EE01C20316860430818017A002906D04068FFF721FF002801D0254603E0641C3079A042EDDA681C12D01C2130684D434419FEF749F869466068FFF7CA
:406D800041FF0546FEF73AF8002DD9D1216868468847D5E7FEBD0000380D002038B50024009400F001F838BD1FB500220C49541E0A60002811DB496888420ED808491C22BA
:406DC0000C31096850430818406801A9FFF7A0FE401C02D0002004B010BD2046FBE700002C0D0020F0B50021114A4D1E174611710C3F0B46BD6016E008461C246043166813
:406E0000041D355114680646235014680836A3551468361DA353044616680A34335318301468491C255078688142E5D30020F0BD380D002038B500210091002811DB0F4937
:406E4000097888420DDA0D4D04010C3529680859002807D0201D0818694600F06FF9002801D0002038BDFDF7D1FF28680F34015D491E0155FDF7C2FF009838BD480D002074
:406E8000F7B582B0002502986E1E06602E48D21C024017462D4A2C4610460C380178106805E02301C358002B0FD0641CE4B28C42F7D3711C28D03401211D40180191039972
:406EC00000F02AF900281FD101E02646F1E71F48016820460C300F521C480399026820460E30115419480399026820460F3011540398784300F0A0F814490028096808515E
:406F000002D00024009011E001251AE00F48016801980818009900F02CF9002801D0012502E00098C0190090641CE4B203988442ECD3002D05D10298066004480179491C2D
:406F40000171284605B0F0BDFCFF0000540D0020F8B50D4600216A468C461180002839DB23490978884235DA214B04010C3319680A59002A2ED020460C300B5A801C0E5C54
:406F8000184670438018954224D3854222D2002006E007465F43BF18AF4206D0401CC0B2B042F6D36046002814D0114E271DC8190C366A46294600F006F900280AD168464C
:406FC0000088012808D030682946C01900F0D1F8002803D00120F8BD0020F8BDFDF716FF30680F34015D491C0155FDF707FFF3E7480D0020F8B50F46002400F031F800281C
:4070000017D10C4900220B460C334A600EE021011D680E466A501D680C36AA53B61C1D680F31AA551D68641C6A54E4B2BC42EED31A71F8BD480D002000280BD0C01C074ABD
:4070400081085068890053884118994203D89368516018187047002070470000480D0020F8B5064600200F4D009029700C0121466846FEF74DFC00280CD129460C31009836
:407080000860301B001F84B221466846FEF740FC002801D0FF20F8BD6C800098A8600020F8BD0000480D0020F8B5002827DB19490978884223DA174C05010C34216848598B
:4070C00000281CD028460C30085A009028460E300E5C401C0E5420682F1DC01900F064F800280CD12068002445590EE0094829460C300068C01900F03CF8002801D001205B
:40710000F8BD00982D18641CE4B2B442EED30020F8BD0000480D002030B50D4604000BD0A800FFF789FF6060002805D000202570C0436080002030BD012030BD70B50D4681
:40714000040005D0002D03D00220205E002801DA012070BDFDF75AFE0221615E60688900405828606088401E6080FDF747FE002070BD70B50D46040007D0002D05D0022182
:407180002078615E401E814201DB012070BDFDF73DFE6088401C00B26080616880000D50FDF72CFE002070BD10B5040009D0227800216068FEF706F90020C04360800020DB
:4071C00010BD012010BDF0B500231D46002802D00224045F0AE00120F0BD46689F00F6598E4201D1012503E05B1CDBB29C42F4DA15700020F0BD00000148007870470000AD
:407200005C0D00207CB505460024FEF71BF9A8796946087000A8062229460130FEF7C9F80021684605F0BEFF0C2806D0072806D01F2806D0122806D006E0022404E00424D9
