:400000000080002011000000D1050000D105000080B500AF00F0E6FA80B500AF284B12221A6002F00FF8274B180002F03DF9012002F018F8302001F011FD234B234A1A6038
:40004000234B8022D2051A60224B224A126802210A431A60204B214A1A60214B00221A60204B204A126808218A431A60FA23DB00180001F0E9FD1C4B180001F0C1FE1B4B4F
:40008000802292001A601A4B1A4A1A601A4B802212061A60194B8022D2021A60184B40221A60184B1900082001F03CFE082001F05FFE074B8022D2051A60C046BD4680BD53
:4000C00030001040001BB70004010B40060000800C020B4078002E407C002E40D0D0000064F02E406CF02E40DC050000000301400000014040FF008008010B4000010B40BE
:4001000004010140B921000080B582B000AF72B62D4B00221A60FB1D00221A7022E0FB1D1A7813005B009B185B00284A9B183B603B681A78597809020A43997809040A43D8
:40014000DB781B06134318003B681A795B791B0213439BB2190000F017FAFB1D1A78FB1D01321A70FB1D1B78012BD8D9184B194A1A60194BFF2212061A60184B9922120427
:400180001A60174B992212041A60164A154B1B78DBB206210B43DBB21370134B20221A60124B134A1A60134B20221A60124B11221A60124B124A1A60FFF72EFF00F0F4F90E
:4001C000C046BD4602B080BD6CF02E40483F0100000002400000FFEE0001024000500F4010500F4000700F4000000440080004400010DB00180004400001044008010440CD
:400200000440240010B5064C2378002B07D1054B002B02D0044800E000BF0123237010BD0011002000000000443F0100084B10B5002B03D00749084800E000BF0748036821
:40024000002B00D110BD064B002BFBD09847F9E70000000004110020443F0100A80B00200000000080B500AF62B601F0DDFD00F025F8034B180000F067FA02F00FFDFCE7B7
:400280008502000080B582B000AF786039607B68012B00D006E0054B054A1A60054B064A1A60C046C046BD4602B080BD60F02E4031030000080003400203008080B500AF94
:4002C000074B1B78002B07D1054BFF221A7000F009F800F053F900E0C046BD4680BDC0461C11002080B500AF00F042F900F01CF9C046BD4680BDC04680B582B000AF074BAD
:400300001B683A1D1A60054B1B680433180002F077FCC046BD4602B080BDC046B411002080B500AF084B1B6860331A00064B1A60FFF7E2FF044B1B68603B1A00024B1A60A8
:40034000C046BD4680BDC046B411002080B5B6B000AF664B664A5A61664B3A1D1A60FFF7DFFFFFF7C9FF634B1B6860331A68614B1B681B6893429B415B42DBB21A005E4B3C
:400380001A705C4B1B680433D022BA181360594B1B6860330433CC22BA181360554B1B681B681A00534B1B6860331B68D31AC422BA1813604F4B1B681B68C822BA18136019
:4003C0004E4B00221A604D4B1A684D4B1A600023D422BA18136068E0D023FB181B681B681A00CC23FB181B681B68D31A1A00C423FB181B689A4243D1D423FB181B681F2B7D
:400400000CD80122D423FB181B689A4013001A003B4B1B681A433A4B1A600CE0D423FB181B68203B01229A4013001A00334B1B681A43324B1A60304B1B78002B10D0D0235D
:40044000FB181B681A68C823FB181B689A4217D2D023FB181B681B68C822BA1813600FE0D023FB181B681A68C823FB181B689A4206D9D023FB181B681B68C822BA18136072
:40048000D423FB181B680133D422BA181360D023FB181B680433D022BA181360CC23FB181B680433CC22BA181360D423FB181B68162B91D9104B1B78002B09D00D4B1B6855
:4004C0001B681A00C823FB181B68D31A1A0007E0C823FB181A68074B1B681B68D31A1A00084B1A60C046BD4636B080BD3011002048110020B4110020A4110020AC110020A7
:40050000A8110020B011002080B582B000AF78607B6800225A607B685A687B681A60C046BD4602B080BDC04680B500AF0D4B1800FFF7EAFF0C4B00221A600B4B18229A60A4
:40054000094B02225A60084B0022DA60064B00221A61FFF7FBFE054B034A1A60C046BD4680BDC04620110020301100202023002080B500AFC046BD4680BDC04680B500AF31
:40058000C046BD4680BDC04680B582B000AF786039603A687B680021180002F029FBC046BD4602B080BDC04680B500AF054B03221A60054B03221A60044B00221A60C046E3
:4005C000BD4680BD3000304030003140000E3F4080B500AF02F0C8FA03001B680C2B00D1FEE7FEE780B586B000AF224B7B61224B3B61204B7B6135E03B691B68FB603B690F
:400600005B68BB603B699B683B6000237B600CE0FB681A68BB681A60BB680433BB60FB680433FB607B6804337B607A683B689A42EED13B69DB683B6000237B6008E0BB6824
:4006400000221A60BB680433BB607B6804337B607A683B689A42F2D13B6910333B617B69013B7B617B69002BC6D102F083FAFFF7F9FDFEE7010000002445010080B582B019
:4006800000AF154B144A126801218A431A6000237B600FE07B68032B04D8104B7A689200D35800E00E4B0F4A796889008B507B6801337B607B682F2BECD9FFF725FD0A4BDE
:4006C00000221A60044B044A126801210A431A60C046BD4602B080BD0000104000000000D105000000000020C000002080B500AF094B00221A70094B00221A70084B0022E7
:400700001A7000F013F8074B00221A70064B00221A70C046BD4680BD472300204023002046230020242300202C23002080B500AF01F0CAFD01F08CF900F0A2FC01F0FCF802
:40074000C046BD4680BDC046B0B594B004AF78603E23FB1800221A802823FA183D4B1000190014231A0002F03AFA3B4B1B78002B04D1FFF7BBFF384B01221A707B68002B3D
:400780005CD0364B7A681A603E23FB181B88002B29D11023FB181C22BA185A601023FB182022BA181A601023FB1800221A812023FB181B221A802023FB181B225A80202330
:4007C000FB1804221A711C23FB1808221A703E23FC180E23FA181023FB181100180002F039FB030023803E23FB181B88002B29D13E23FC182823FD18AE231A01184919487D
:40080000194B0293194B0193052300932B0002F077FA030023803E23FB181B88002B11D1134B01221A703E23FC18124B09223F2118000EF0FDFB0300238003E03E23FB1841
:4008400001221A803E23FB181B881800BD4610B0B0BDC046543F0100C011002028230020C80000202D0C000079020000004E01003C230020703F010090B585B000AF020021
:40088000FB1D1A70FB1D1B78022B04D90E23FB1801221A804AE0294B1B78042B41D1284B1B78DBB21A00042313403AD1FB1D1B78002B0BD1234B1E221A82224B5B682022CE
:4008C0001A80204B5B6830225A8010E0FB1D1B78012B0CD11B4B96221A821A4B5B68C822D2001A80174B5B688022D2015A80164BFA1D12781A700E23FC18124B18000CF072
:40090000CDFB030023800E23FB181B88002B0DD10B4B1B78DBB204221343DAB2084B1A7004E00E23FB180422FF321A800E23FB181B881800BD4605B090BDC0463C2300205C
:4009400047230020DC0B00204623002080B584B000AF78600A00FB1C1A700023BB60BB68002B20D07B689A79BB681A700F23FB1800221A7012E00F23FB181B780133BA6892
:40098000D3180F22BA18127879688A5C1A700F23FB181A780F23FB1801321A700F23FB181B78052BE7D9C046BD4604B080BDC04680B582B000AF78607B681B789AB27B683A
:4009C00001331B789BB21B029BB213439BB21800BD4602B080BDC04690B585B000AF78600F23FB1800221A707B689B890B22934232D17B68181D7A680F23FC184023002104
:400A00000EF064FB030023700F23FB181B78002B1AD17B685B681800FFF7CAFF03001A00022313409BB2002B07D00F4B1B687968822252001000984706E00B4B1B68796831
:400A40000622FF3210009847084B1B78DBB201229343DAB2054B1A700F23FB181B781800BD4605B090BDC046282300204723002090B585B000AF78600F23FC187B6818002A
:400A8000FFF7AAFF03002370334B1B78DBB21A00012313400CD00F23FB181B78002B07D10F23FC187B68180001F014FC03002370294B1B78DBB21A00012313400CD00F2310
:400AC000FB181B78002B07D10F23FC187B68180000F0E8FC030023701F4B1B78DBB21A00012313400CD00F23FB181B78002B07D10F23FC187B68180000F024FF03002370E6
:400B0000154B1B78DBB21A00012313401FD10F23FB181B78002B16D00823FB1812229A707B689A890823FB181A800823FB180F22BA181278DA700823FA187B6811001868AB
:400B40000DF0F8FB03E07B6818680DF075FCC046BD4605B090BDC0464723002080B582B000AF7860C046BD4602B080BD80B500AF044B00225A70034B00221A70C046BD462E
:400B800080BDC0464423002080B582B000AF7860C046BD4602B080BD80B500AF00F08EFEC046BD4680BDC04680B584B000AF78600E23FB1800221A707B689B79002B1CD1EA
:400BC0000F23FB1800221A7012E00F23FB181B787A68D35C002B04D00E23FB1801221A700BE00F23FB181A780F23FB1801321A700F23FB181B78052BE7D90E23FB181B78D6
:400C00001800BD4604B080BD80B582B000AF0200BB1D1A80C046BD4602B080BD80B582B000AF7860C046BD4602B080BD80B588B000AF02003960FB1D1A70C94B1B78DBB2B3
:400C400001221343DAB2C64B1A70FB1D1B78412B00D160E123DC212B00D1C6E00DDC022B00D198E002DC012B3BD0E8E1052B00D196E0062B00D198E0E1E1272B00D1EEE008
:400C800006DC242B00D1E0E0262B00D1F3E0D6E1282B00D1EBE02A2B00D1DBE0CFE14F2B00D1BFE10BDC432B00D175E100DA54E14C2B00D18DE14E2B00D18FE1BFE1572B3E
:400CC00000D1B1E106DC502B00D1AFE1542B00D19BE1B4E1712B00D117E1FA2B00D199E1ADE11423FB1802221A701423FB1800225A701423FB18180003F0B0FF1423FB1893
:400D000002221A701423FB1801225A701423FB18180003F0A3FF0023002B01D001F0B6FF904B1B681800FFF73FFF031E11D08D4B1B68180001F0B6FF8A4B1B6800211800BC
:400D4000FFF704FE874B1B6801211800FFF7FEFD0DE0854B180001F0A5FF834B00211800FFF7F4FD804B01211800FFF7EFFD00200CF028F81023FB183F221A701023FB1809
:400D800000225A701023FB1818000CF039F8774B04221A7053E13B681800FFF7F5FE4EE13B681A78724B1A7049E13B68BB61BB691B78002B00D03BE1BB695B78002B0BD112
:400DC0006C4B0022DA806B4B00229A80694B6A4A1A60BB69674A5A60614B1B78DBB201229343DAB25E4B1A7022E15D4B1B78DBB21A002023134000D01CE1604B1B78102B18
:400E000002D15E4B0522DA705D4B1B785B4A110018000CF001F903001A000E23FB181A800E23FB181B88002B06D0564B1B680E22BA18110036209847494B1B78DBB20122A0
:400E40001343DAB2464B1A70F4E03B685A784E4B1A70F4E03B681800FFF7E0FEEFE03B681800FFF7DBFE414B02221A70E7E03F4B04221A70E3E03D4B1B78022B00D1DBE07B
:400E8000374B1B78DBB21A000123134000D1D3E0334B1B78DBB21A00042313400BD0334B03221A702E4B1B78DBB204229343DAB22B4B1A70C0E02A4B1B78DBB21A000823A6
:400EC00013400BD0294B04221A70254B1B78DBB208229343DAB2224B1A70ADE0234B1B78032B00D0A8E0214B04221A70274B1B78002B00D0A0E00120FFF7BEFC031E00D01B
:400F00009AE01A4B03221A7096E03B681B881800FFF77AFE93E01A4A3B681000190002231A0001F05CFE124B00221A70144B1B781A0013005B009B189B009E2292009A18DF
:400F4000134BD3180133134A100019000C231A0001F045FEFFF720FE71E0FFF707FE6EE047230020F80B0020F00B00203C23002040230020E8110020A80B0020540D00200C
:400F800044230020282300202C23002046230020004E0100302300203B685B88162B05D81E23FB183A6852881A8003E01E23FB1817221A801E23FB1819883B681A88002310
:400FC0001204120C1B0C1B04134318000DF0BCF935E03B681800FFF74BFD30E0254B1B78DBB21A000123134003D03B68180000F059FA204B1B78DBB21A00012313401DD03E
:401000003B68180000F09EFC18E03B681800FFF7A5FD14E0184B1B7801221343DAB2164B1A700CE0C0460AE0C04608E0C04606E0C04604E0C04602E0C04600E0C0460D4B7A
:401040001B78DBB21A00112313400ED0094B1B78DBB201229343DAB2064B1A70074B1B68FA1D1278396810009847C046BD4608B080BDC04647230020242300202823002097
:4010800080B500AFC046BD4680BDC04690B587B000AF0400080011003B60FB1D221C1A70BB1D021C1A707B1D0A1C1A701623FB1800221A80FB1D1B78002B03D1BB1D1B7858
:4010C000072B04D91623FB1801221A80BCE0BB1D1B78062B66D89A005F4BD3181B689F46FB1D1A781423F9185C4813009B009B18DB00C31802331B880B807EE0FB1D1A78B3
:401100001423F918554813009B009B18DB00C3181E331B880B8070E0FB1D1A781423F9184E4813009B009B18DB00C31822331B880B8062E0FB1D1A781423F91847481300EC
:401140009B009B18DB00C31824331B880B8054E0FB1D1A781423F918404813009B009B18DB00C3180C331B880B8046E0FB1D1A781423F918394813009B009B18DB00C31804
:4011800012331B880B8038E0FB1D1A781423F918324813009B009B18DB00C31818331B880B802AE0BB1D1B78D91FFB1D1A782B4813009B009B18DB00C31804331B78994262
:4011C00016DAFB1D1A78254913009B009B18DB00CB1808331968BB1D1A7813005B009B185B002A3BCA181423FB1812881A8003E01423FB1800221A80C0461423FB181B8885
:40120000002B04D11623FB1813221A801CE00823FB181422BA1812881A817B1D1B789AB20823FB189A800823FB183A681A600823F8180023002200210DF048FF031E03D01A
:401240001623FB1801221A801623FB181B881800BD4607B090BDC0468C4401006444010090B587B000AF0400080011003B60FB1D221C1A70BB1D021C1A707B1D0A1C1A704C
:401280001623FB1800221A80FB1D1B78002B03D1BB1D1B78072B04D91623FB1801221A80BCE0BB1D1B78062B66D89A005F4BD3181B689F46FB1D1A781423F9185C48130043
:4012C0009B009B18DB00C31802331B880B807EE0FB1D1A781423F918554813009B009B18DB00C3181E331B880B8070E0FB1D1A781423F9184E4813009B009B18DB00C31815
:4013000022331B880B8062E0FB1D1A781423F918474813009B009B18DB00C31824331B880B8054E0FB1D1A781423F918404813009B009B18DB00C3180C331B880B8046E073
:40134000FB1D1A781423F918394813009B009B18DB00C31812331B880B8038E0FB1D1A781423F918324813009B009B18DB00C31818331B880B802AE0BB1D1B78D91FFB1DD7
:401380001A782B4813009B009B18DB00C31804331B78994216DAFB1D1A78254913009B009B18DB00CB1808331968BB1D1A7813005B009B185B002A3BCA181423FB18128878
:4013C0001A8003E01423FB1800221A80C0461423FB181B88002B04D11623FB1813221A801CE00823FB181422BA1812881A817B1D1B789AB20823FB189A800823FB183A6836
:401400001A600823FB180022002118000DF028FE031E03D01623FB1801221A801623FB181B881800BD4607B090BDC046A84401006444010080B584B000AF02003960FB1D04
:401440001A703B685B681800FFF7B2FA03001A00012313409BB2002B03D0CA235B00FB6002E09623FF33FB600B4B1B78DBB201229343DAB2084B1A70084B1B78012B06D157
:40148000074B1B7802221343DAB2054B1A70FB681800BD4604B080BD472300202C2300202423002090B589B000AF78601F23FB1800221A701E23FB1800221A700023BB6153
:4014C0009C4B1B68002B00D1EAE10C23FB187A6812881A800C23FB1800225A600C23FB181E22BA1812789A707B6899891E23FB181A78914813009B009B18DB00C31802334D
:401500001B88994228D10C23FB180022DA707B681B89012B00D095E17B685B681B78002B02D0012B0CD08DE1CB235B00BB61834B1B78DBB201229343DAB2804B1A7081E152
:401540009823FF33BB617D4B1B78DBB201229343DAB27A4B1A7075E17B6899891E23FB181A78754813009B009B18DB00C31824331B88994228D10C23FB180222DA707B6830
:401580001B89012B00D05DE17B685B681B78002B02D0012B0CD055E1CC235B00BB61674B1B78DBB201229343DAB2644B1A7049E19A23FF33BB61614B1B78DBB201229343E9
:4015C000DAB25E4B1A703DE17B6899891E23FB181A78594813009B009B18DB00C3180C331B88994214D10C23FB180422DA707B681A1D0C23FB185A60CD235B00BB614F4B00
:401600001B78DBB201229343DAB24C4B1A7019E17B6899891E23FB181A78474813009B009B18DB00C3180E331B8899420ED10C23FB180422DA707A681E23FB181B7811002F
:401640001800FFF7F7FE0300BB61FBE07B6899891E23FB181A78384813009B009B18DB00C31812331B88994214D10C23FB180522DA707B681A1D0C23FB185A60CD235B002F
:40168000BB612E4B1B78DBB201229343DAB22B4B1A70D7E07B6899891E23FB181A78264813009B009B18DB00C31818331B88994214D10C23FB180622DA707B681A1D0C231E
:4016C000FB185A60CD235B00BB611C4B1B78DBB201229343DAB2194B1A70B3E07B6899891E23FB181A78144813009B009B18DB00C3181A331B8899420ED10C23FB180622B7
:40170000DA707A681E23FB181B7811001800FFF791FE0300BB6195E01723FB1800221A701C23FB1807221A701D23FB1800221A7072E0C046F01100206444010047230020AB
:401740007B6899891E23FB181A78594813009B009B18DB00C318083318681D23FB181A7813005B009B185B00C3181B88994219D10C23FB181C22BA181278DA707B681A1D27
:401780000C23FB185A60CD235B00BB61494B1B78DBB201229343DAB2464B1A701723FB1801221A707B6899891E23FB181A78404813009B009B18DB00C318083318681D23F3
:4017C000FB181A7813005B009B185B00C3185B88994213D10C23FB181C22BA181278DA707A681E23FB181B7811001800FFF722FE0300BB611723FB1801221A701C23FB18B2
:401800001A781C23FB1801321A701D23FB181A781D23FB1801321A701E23FB181A78244913009B009B18DB00CB1804331B781D22BA1812789A4205D21723FB181B78002B7D
:4018400000D17DE71E23FB181A781E23FB1801321A70184B1B78DBB21A000123134017D17B68181D7A681F23FC18402300210DF02DFC030023701F23FB181B78002B0ED1BE
:401880000D4B1B680C22B918BA691000984706E01E23FB181B78002B00D11FE600E0C0461F23FB181B781800BD4609B090BDC0466444010047230020F011002080B582B0BE
:4018C00000AFBB1D01221A70FB1D00221A70FB1D1A78174913009B009B18DB00CB1802331B88002B16D0FB1D1A78114913009B009B18DB00CB1802331B885A1E0D49130002
:401900009B009B189B00CB1810331B685B68BA1D12781A70FB1DFA1D127801321A70FB1D1B78002BD3D0C046BD4602B080BDC04664440100703F010080B500AFC046BD4634
:4019400080BDC04690B587B000AF78601723FB1800221A703A4B1B68002B6AD07B689B893A22934204D07B689B893722934260D10823FB187A6812881A807B68181D7A68FB
:401980001723FC18402300210DF0A0FB030023701723FB181B78002B43D17B689B893A2293422DD10823FB1801229A700823FB1800225A607B685B681800FEF7F9FF03009F
:4019C0001A00012313409BB2002B03D0FB235B003B6102E0F823FF333B61194B1B680822B9183A6910009847164B1B78012B18D1154B1B7802221343DAB2134B1A7010E0DD
:401A00000823FB1800229A707B681A1D0823FB185A600B4B1B680822B918FC225200100098470A4B1B78DBB201229343DAB2074B1A701723FB181B781800BD4607B090BD22
:401A4000F41100202C230020242300204723002080B500AFC046BD4680BDC04690B585B000AF78600C23FC1800F027FC030023707B68022B00D8B3E07B68302B00D9AFE0A3
:401A80005E4B1B78DBB21A007B689A420AD35C4A0F23FB1812781A705A4A0E23FB1812781A703FE0584B1B78DBB21A007B689A420AD3564A0F23FB1812781A70544A0E234C
:401AC000FB1812781A702DE0524B1B78DBB21A007B689A420AD3504A0F23FB1812781A704E4A0E23FB1812781A701BE04C4B1B78DBB21A007B689A420AD34A4A0F23FB181B
:401B000012781A70484A0E23FB1812781A7009E0464A0F23FB1812781A70454A0E23FB1812781A707B68DA1E0B23FB1841498A5C1A700B23FB181B782F2B0DD97B682A2B8C
:401B40000AD93D4B19221A60052000F0ADFB0D23FB1819221A7007E0374B1B68DAB20D23FB183F210A401A700B23FA180D23FB1812781B789A4208D22F4B7A68033A2D492C
:401B80008A5C1A60052000F08FFB7B68284A9A180A23FB1812781A70284B0A22BA1812781A60274B0F22BA1812781A60254B0E22BA1812781A60052000F022F90B23FA18F7
:401BC0000D23FB1812781B789A420CD91A4B7A68033A18498A5C1A60052000F065FB02E0002000F0DBF80C23FB181B78180000F068FBC046BD4605B090BDC04640F3FF0FB3
:401C000041F3FF0F42F3FF0F43F3FF0F44F3FF0F45F3FF0F46F3FF0F47F3FF0F48F3FF0F49F3FF0F4AF3FF0F4BF3FF0F4CF3FF0F4DF3FF0FC44401002CFF0B4028FF0B400B
:401C40001CFF0B4020FF0B4080B584B000AF78600023FB60154B154A126801210A431A60134B144A1A60144B134A1268802109020A431A607B68002B12D01023FB600CE0BB
:401C8000012000F0BDF800F019F8031E02D00023FB6005E07B68013B7B607B68002BEFD1FB681800BD4604B080BDC04660F02E4078002E400220000010002E4080B582B01F
:401CC00000AF054B1B68012213407B607B681800BD4602B080BDC0460C002E4080B584B000AF02003960FB1D1A7080239B05FB60FB1D1B780F2B02D9002000F04FF8FB1D82
:401D00001B789B00FA68D3181B68BB60FB1D1B789B00FA68D3183A681A60BB681800BD4604B080BD80B584B000AF02003960FB1D1A7080239B05FB60FB1D1B781F2B02D9E9
:401D4000002000F02BF8FB1D1B7810339B00FA68D3181B68BB60FB1D1B7810339B00FA68D3183A681A60BB681800BD4604B080BD80B582B000AF0200FB1D1A70064BFA1D79
:401D800012781F210A40012191400A001A60C046BD4602B080BDC04600E100E080B582B000AF0200FB1D1A7001BEC046BD4602B080BDC04680B582B000AF786009E00D4B33
:401DC0001B68180000F070FA7B680B4A944663447B607A6880231B029A42F0D8074B1B687A685343180000F05FFAC046BD4602B080BDC046680D00200080FFFF600D0020C8
:401E000080B582B000AF0200BB1D1A80BB1D1B88044A12785343180000F046FAC046BD4602B080BD640D002080B500AF064B1B68002B04D100F00AF8034B01221A6000F0D9
:401E400035F8C046BD4680BD0C12002080B582B000AF00237B6007E0114B7A6892000021D1507B6801337B607B68042BF4D90D4B19000F20FFF732FF012000F045F80A4B69
:401E80001A68FA239900100000F0F8FC0300180000F02AF800F05EF8C046BD4602B080BDF8110020691F00005C0D002080B500AF00F00CF8044B044A126801210A431A6079
:401EC000C046BD4680BDC04610E000E080B500AF044B044A126802210A431A60C046BD4680BDC04610E000E080B582B000AF7860044B7A681202120A1A60C046BD4602B041
:401F000080BDC04614E000E080B582B000AF78607B68012B06D1084B074A126804210A431A6005E0044B044A126804218A431A60C046BD4602B080BD10E000E080B500AF98
:401F4000034B1B681B0C012213401800BD4680BD10E000E080B500AF024B00221A60C046BD4680BD18E000E080B582B000AFFFF7E5FF0300012B13D100237B600DE00A4B9D
:401F80007A689200D358002B04D0074B7A689200D35898477B6801337B607B68042BEED9C046BD4602B080BDF811002080B500AF0F4B0F4A126801218A431A600C4B0C4AA0
:401FC000126802218A431A600A4B0A4A126830218A4310210A431A60064B064A126807218A4301210A431A60C046BD4680BDC04600F02E4000FF2E4080B500AF0F4B0F4A1D
:40200000126802218A431A600D4B0D4A126807218A4302210A431A60094B094A126830218A4320210A431A60044B044A126801210A431A60C046BD4680BDC04600F02E40C3
:4020400000FF2E4080B500AFFFF7B0FF044B044A1268802109060A431A60C046BD4680BD00F02E4080B584B000AF78600C4B1B6801221340FB607B68002B02D0012B03D0BE
:4020800005E0FFF793FF06E0FFF7B6FF03E00020FFF784FEC046FB681800BD4604B080BD00F02E4090B583B000AFFC1D00F005F903002370074B074A1268C02109020A43BA
:4020C0001A60FB1D1B78180000F0FBF8C046BD4603B090BD00010B4080B500AF054B1A68C0231B02134001D0012300E000231800BD4680BD00010B4090B583B000AFFC1D86
:4021000000F0DBF8030023700D4B0D4A12680D490A408021C9010A431A60094B084A126808490A40802109020A431A60FB1D1B78180000F0C6F8C046BD4603B090BDC0469D
:4021400000010B40FF3FFFFF90B585B000AF78600B23FC1800F0B1F803002370FFF7BCFF031E04D00123FB60FFF7C6FF01E00023FB607B680D4A13407B600D4B0C4A126896
:402180000C4911407A680A431A60094B1B68FB68012B01D1FFF786FF0B23FB181B78180000F08FF8C046BD4605B090BD0404040010020B40FBFBFBFF80B500AF344B1B6870
:4021C000042213401FD0334B1B680422134017D0314B1B6804221340DA432E4B1B681A402C4B1A602C4B1B68042293431A002A4B1A602A4B1B68002B02D0284B1B68984771
:402200000420FFF7A1FF224B1A688023DB00134022D0204B1A688023DB00134017D01E4B1A688023DB001340DA431A4B1B681A40184B1A60184B1B68194A1A40164B1A6017
:40224000164B5B68002B02D0144B5B6898478023DB001800FFF778FF0D4B1A688023DB02134011D00B4B1A688023DB02134006D00A4B9B68002B02D0084B9B6898478023FD
:40228000DB021800FFF760FFC046BD4680BDC04610020B40740D0020181200201C120020FFFBFFFF000000000230800803D00138FDD1C046C046C0467047EFF3108072B603
:4022C000704780F31088704780B500AFC046BD4680BDC04690B587B000AF78601723FB1800221A701623FB1800221A70454B1B68002B00D17FE07B689B893F2293426DD158
:402300001723FB181B78404ADB00D31802331B885A1E3E4913009B009B189B00CB1804331A6880235B0313404BD07B68181D7A681623FC18402300210CF0C8FE030023706C
:402340001623FB181B78002B3FD10C23FB187A6812881A800C23FB181722BA1812789A700C23FB180022DA700C23FB1800225A607B685B681800FEF71BFB03001A00012334
:4023800013409BB2002B08D01E4B1B680C22B918982252001000984707E01A4B1B680C22B9183222FF3210009847194B1B78012B0BD1184B1B7802221343DAB2154B1A706D
:4023C00003E01623FB1806221A70134B1B78DBB201229343DAB2104B1A700CE01723FB181A781723FB1801321A701723FB181B78002B00D17FE71623FB181B781800BD4603
:4024000007B090BD38120020F4440100703F01002C230020242300204723002080B582B000AF78600A00BB1C1A80BB1C1A887B681A60C046BD4602B080BDC04680B582B041
:4024400000AF78600A00BB1C1A80BB1C1A887B681A60C046BD4602B080BDC04680B584B000AF494B1B78DBB21B02484A1278D2B21343FB60464B1B78DBB21B02454A127865
:40248000D2B21343BB60BB68434A934207D1FB68072B04D1414BBB600423FB6009E0BA68D4231B019A4204D1FB68042B01D13B4BBB603B4BBA681A603A4BFA681A603A4B5B
:4024C0001B78DBB21B02394A1278D2B21343FB60FA6880239B019A4202D0FB68002B01D1334BFB60334BFA681A60334B1B78DBB21B02324A1278D2B21343FB60FB68304AA8
:40250000934206D0FB682F4A934202D0FB68052B01D12D4BFB602D4BFA681A602C4B1B681B097B602B4B1B68AA2B29D17B68012B26D9214B1B78DBB20E2B21D1264B1B7857
:40254000DBB29BB21B0299B2244B1B78DBB29AB2BB1C0A431A80224BBA1C12881A60214B1B78DBB29BB21B0299B21F4B1B78DBB29AB23B000A431A801C4B3A0012881A603B
:40258000C046BD4604B080BD59F1FF0F58F1FF0F5FF1FF0F5EF1FF0F580B0000580D00006C002E4074002E405BF1FF0F5AF1FF0F0220000078002E405DF1FF0F5CF1FF0FC1
:4025C0000F0F000005050000050F000080002E40EC0F00F0E00F00F06DF2FF0F6CF2FF0F84002E406FF2FF0F6EF2FF0F94002E4080B582B000AF0200BB1D1A80BB1D1B8838
:402600001800FFF7FDFBC046BD4602B080BDC04680B582B000AF78607B681800FFF7CAFBC046BD4602B080BD80B500AF00F0ECF8C046BD4680BDC04680B500AF00F0F0F83A
:40264000C046BD4680BDC04680B500AF00F0E8F8044B180000F0A2F8032000F0ADF8C046BD4680BD6D28000080B500AF034B180000F080F8C046BD4680BDC0466D28000043
:4026800080B500AF014B1800BD4680BD0202000080B582B000AF78602B231800BD4602B080BDC04680B582B000AF78602B231800BD4602B080BDC04680B582B000AF786008
:4026C0002B231800BD4602B080BDC04680B582B000AF78602B231800BD4602B080BDC04680B582B000AF78602B231800BD4602B080BDC04680B582B000AF78602B23180090
:40270000BD4602B080BDC04680B582B000AF78602B231800BD4602B080BDC04680B582B000AF78602B231800BD4602B080BDC04680B500AF2B231800BD4680BD80B582B018
:4027400000AF0200FB1D1A702B231800BD4602B080BDC04680B582B000AF786039602B231800BD4602B080BD80B500AFC046BD4680BDC04680B582B000AF786000F050F873
:402780007B68180000F00AF8032000F015F800F03BF8C046BD4602B080BDC04680B582B000AF7860034B7A681A67C046BD4602B080BDC0460000002090B585B000AF020003
:4027C000FB1D1A700623FB600B23FC18FFF775FD030023700B4B0B4A1268C0218A431100FA1D1078FA68904002000A431A600B23FB181B781800FFF764FDC046BD4605B0F4
:4028000090BDC0460CE400E080B500AF034B802252011A60C046BD4680BDC04600E100E080B500AF034B802252011A60C046BD4680BDC04680E100E090B583B000AFFC1D59
:40284000FFF73BFD03002370074B074A126804218A431A6030BFFB1D1B781800FFF731FDC046BD4603B090BD10ED00E080B500AF11F054FBC046BD4680BDC0460022430862
:402880008B4274D303098B425FD3030A8B4244D3030B8B4228D3030C8B420DD3FF22090212BA030C8B4202D31212090265D0030B8B4219D300E0090AC30B8B4201D3CB0372
:4028C000C01A5241830B8B4201D38B03C01A5241430B8B4201D34B03C01A5241030B8B4201D30B03C01A5241C30A8B4201D3CB02C01A5241830A8B4201D38B02C01A52419D
:40290000430A8B4201D34B02C01A5241030A8B4201D30B02C01A5241CDD2C3098B4201D3CB01C01A524183098B4201D38B01C01A524143098B4201D34B01C01A52410309AA
:402940008B4201D30B01C01A5241C3088B4201D3CB00C01A524183088B4201D38B00C01A524143088B4201D34B00C01A5241411A00D20146524110467047FFE701B5002001
:4029800000F0F0F802BDC0460029F7D076E7704703460B437FD4002243088B4274D303098B425FD3030A8B4244D3030B8B4228D3030C8B420DD3FF22090212BA030C8B42A9
:4029C00002D31212090265D0030B8B4219D300E0090AC30B8B4201D3CB03C01A5241830B8B4201D38B03C01A5241430B8B4201D34B03C01A5241030B8B4201D30B03C01ACF
:402A00005241C30A8B4201D3CB02C01A5241830A8B4201D38B02C01A5241430A8B4201D34B02C01A5241030A8B4201D30B02C01A5241CDD2C3098B4201D3CB01C01A52411E
:402A400083098B4201D38B01C01A524143098B4201D34B01C01A524103098B4201D30B01C01A5241C3088B4201D3CB00C01A524183088B4201D38B00C01A524143088B4284
:402A800001D34B00C01A5241411A00D201465241104670475DE0CA0F00D04942031000D34042534000229C4603098B422DD3030A8B4212D3FC22890112BA030A8B420CD341
:402AC000890192118B4208D3890192118B4204D389013AD0921100E08909C3098B4201D3CB01C01A524183098B4201D38B01C01A524143098B4201D34B01C01A5241030909
:402B00008B4201D30B01C01A5241C3088B4201D3CB00C01A524183088B4201D38B00C01A5241D9D243088B4201D34B00C01A5241411A00D20146634652415B10104601D31F
:402B40004042002B00D54942704763465B1000D3404201B5002000F005F802BD0029F8D016E770477047C046014B18687047C046FC1000200E4B70B500251E000D4CE41A77
:402B8000A410A54204D0AB00F35898470135F8E711F0B6FC084B00251E00084CE41AA410A54204D0AB00F35898470135F8E770BD0C4501000C4501000C450100144501004B
:402BC00030B50024A24208D0035D651C0C5DA34201D0181B02E02C00F4E7002030BD002310B59A4203D0CC5CC4540133F9E710BD03008218934202D019700133FAE7704796
:402C0000F0C041464A4653465C466D4676467EC02838F0C80020704710307CC890469946A246AB46B54608C82838F0C8081C00D101201847134A1088810703D08107890F1C
:402C4000401A001D11791030484381B25088820703D08207920F801A001D800040180A494030098980B2CA0701D0503080B2890706D504495422091F09785143081880B2D0
:402C8000704700007E0D00204812002010B501F005FF10BD10B501F007FF10BD10B500F055FA10BD10B50749044609780220002907D1204601F048FF002802D120460AF05B
:402CC00091F910BD1C0F002070B504460120002C12D02368002B0FD0616800290CD0074D06222889208118462968FFF778FF6968606809780170002070BD000048120020B5
:402D0000FFB585B0002768460E9D07734F481C460078002802D0082009B0F0BD10990F9801900095029105A807C800F001F90028F2D16946264603AB84460873002C19D03A
:402D4000002115E08A00B75A082F09D990198078002805D0083FB7521878401C187005E0002914D00027B75290198770491CC9B2A942E7D360460028CED10F98002809D0CB
:402D8000109901F03BFA002804D00120C4E701208446EFE701F088FE2D480021416081600599016021888180022D07D3A1798171A17AC171A1890181218A418100211EE0E9
:402DC000481C19E082008B00A75AE65ABE46BE4211D26F463E80B4461E190296B678BE7001967646E6521719029EBB78B3706646A652019EBE70401CA842E3D3491CA9423B
:402E0000DED3134822460C3000906846037B0799069800F015F90028B8D168460B4C007B60700B480C3001F06FFE0028AED1084907480C3107F076F90028A7D107F090F9F2
:402E40000028A3D10121217066E70000780D00203C120020F8B5054633480E460078002802D002242046F8BD002E5BD000242F49002D16D02A89D0070DD02868002808D02A
:402E800003881B3BE12B04D24088FB2801D81B2801D2012409E0900707D56868002804D1F7E70020088108604860002CDAD11F482F8907811C481B21801D0180418004216E
:402EC000017119490020891C0870F80705D016480622801D2968FFF782FE1449B80703D56A681148127882700F480D46801D0860001F486001F04EFE0B48801D01F03CFE5A
:402F000028890DF0D7F928890DF03EFB03461033FFF790FE1F21C018890140180249308088809FE701249DE7780D002048120020FFB58446384F1C460020BB883F78054605
:402F400002460646002F11D100290ED0029999420BD36146002908D0002C06D00A99002906D02E4B0B99994202D2012004B0F0BD002144E0AB001F19BF78002F3BD0E35AE1
:402F8000002B38D07B43591889B22B0000F04AF8050410161C253100A7782388BC46FF27233BEB37BB4222D26346032B1FD322E0A388002B1FD0302B19D31CE02389002BE9
:402FC00019D0282B13D316E0A289002A13D01346134F233BBB420AD20DE0268A002A0AD033460F4F233BBB4201D2964203D901200EE0002001E000280AD16D1CEDB2099B56
:403000009D42B7D31C2463435B1802998B42ACD89642AAD8AAE70000780D002079020000BAFF000030B47446641E2578641CAB4200D21D46635D5B00E31830BC184700005E
:40304000FFB583B0002469460C801F4606468C80002806D00598002803D004983043800701D0012466E0002FFBD03449049809888842F6D3FFF7F8FAFFF7DEFA00F012FCFA
:40308000002855D100F07AFD002851D12C49084601F0E8F805042D0C4AD12A480499066081800021C18007810C98007AC00704D0684601F012FD040007D10C98007A8007D8
:4030C00003D501A801F012FD0446BF1DFEB2002C20D13146059800F05DF804001AD10DF061FA040016D16A461088928808368518144AF1B29088D288AEB29319984207D361
:40310000401B801A80B201F09DFB050007D000E0FF25012400F05EFA002D04D008E0F8B200F01CF9F6E700F081FA07490120087000F0CAFB204607B0F0BD00007C0D0020A1
:403140008132000054120020840D002010B503480078012801D101F017FA10BD840D002070B5084B0446DA889E8800205518B54206D81D68AA182260DA885118D98070BD9C
:40318000032070BD54120020014800897047000054120020F0B587B007460D4600208900009006916846FFF7DBFF844600285DD1304800990160002117E02E4B88001A6833
:4031C0000629115406D22C4C0419667882185670628805E0C419203CA67A8218567022891B68C018491C4280C9B2A942E5D300242DE0601CC2B2059025E01E4FA300396851
:403200009600581840887118039604904E88B04217D938466F46FE80B6464F786E4677710297049F4F800168039F5E18767879184E700168764659184E800068029F1818DC
:403240004770521CD2B2AA42D7D30598C4B2AC42CFD36046002809D168460699FFF780FF8446002802D1054900980860604607B0F0BD0000880D0020384501008C0D0020F9
:403280007047000010B5002809D005494A68002A05D0011F08788000105801F081FA10BD880D002010B50446FFF76EFFC0B2801DA0420CD307484068002808D0A1004058AA
:4032C00001F0E0F9002801D00470001D10BD002010BD0000880D0020F8B516460D460446FFF752FFC0B2801DA04203D20020C0430090F8BDB2B2E9B2684601F0E9F90099D7
:40330000481C03D0024AA000526811500098F8BD880D0020F8B50746FFF736FF801DC6B20A49002005460C680DE06178002907D06188B94202D32078FFF7B4FF002804D124
:40334000241D6D1CEDB2B542EFD3F8BD880D002010B5002801D0FFF795FF10BD70B506460948002504680BE06178002905D062882078121D0023FFF7AFFF241D6D1CEDB2B6
:40338000B542F1D370BD0000880D0020FFB581B00A9F16000C4620D000F0F2F8054604281BD0002F0CD03846FFF7B4FF20492A0151184860002810D03A460499FFF70FFC51
:4033C0001B4928010E504618778101980570200406D47D20C000444304E0FF2005B0F0BD6404640C00F0BAF80746042807D000F04FFAA0420BD800F04BFA201A03E02046B7
:4034000000F0AAFA0020F06035720020E6E700F03FFA009000F0B6FA00980121001B009000F0ECF802493A0151180098C860E6E760120020F8B5060116483418217A04292E
:4034400003D0E068002802D017E00020F8BD00F01FFA054600F096FA00F0A0F804280CD001010C480F18F8680021451900F0C6F80020F860284600F06FFA6068054D00287C
:4034800001D0FFF765FF042020720020A8516081E060DAE760120020FEB500266A46304601232549050169180D7A042D02D0C96800291BD000211154401CC0B20428F0D374
:4034C00000246846005D002830D01B48210108184189476805680291002101604160042241810272C160002E02D015E01354E3E700F054F804280ED001010F480818019041
:40350000C6680021304600F079F801980021C160304600F021FA0126002D07D038460299A847002F02D03846FFF712FF641CE4B2042CC6D3FEBD0000601200200EB5002041
:4035400005216A460090118150810348694600680DF08DFE0EBD0000900D0020074A0020010189180B7A042B02D0C968002903D0401CC0B20428F3D3704700006012002040
:403580000549002002015218127A042A03D0401CC0B20428F6D370476012002030B50A4B04200A4C00210A011219157A042D06D0D268002A03D09A4201D808461346491CFE
:4035C000C9B20429EFD330BDFFFF0000601200207047000030B50020074C05460423020111190B72A5504D60401C4D81C0B2CD600428F4D330BD00006012002030B5094CA2
:4036000000231A011219157A042D04D0D568002906D02D18D5605B1CDBB2042BF1D330BD2D1AF7E760120020002070471CB5002469460C70142001902346054A05480DF07E
:403640001BFE04480068401C00D1FF2420461CBDA9360000900D00203EB5124A0146FF2000230124126800290DD0012914D0042908D104206946009308814B8110460DF0B3
:40368000F6FD80B23EBD6846009304814381694610460DF0E7FDF4E768460093048143816946EBE7900D002070B545890468416800890300FFF7B6FC08280509091E2228EC
:4036C0002628002005F0F0FB1EE0022908D0C8B22A4621460BF05AFF2046FFF739FE13E002202A4621460BF051FF2946204600F00DF809E000200DF0B9FA05E02046FFF748
:40370000CBFE01E0FFF730F8002070BD014B0022DB681847940D002070B5448905680089022803D0032809D0FF2070BD2246094C0023A46829460120A04708E0FFF7AAFA89
:40374000241DA2B200232946022006F09EFB002070BD0000940D002070470000024800214160018041807047940D002070B50C46002186B016460391012802D0022859D1D9
:4037800016E003A9012006F0D5FB01281BD1039D324621462846FFF722FA0095287801900220694608814E816846FFF7B5FF41E0214D002B686809D0049004A9022006F069
:4037C000B9FB01281DD0022006B070BD002812D0298840182146FFF702FA28880024801980B228806988091D884206D12C801348FFF792FF03E00320E6E788421AD96C60A5
:4038000018E004986860E278A378110219430B4A698000231060E3565360032313815181A1788170E178C1706178417021780170042028800020C7E7940D0020A0120020AA
:403840003EB515460C46022803D004280CD000203EBD0091019002206946088107484A8100680DF004FD07E00BF090FE044B0022DB6829462046984701203EBD900D0020DB
:40388000940D0020014AD16090607047940D0020034801688068081A0A21484300097047AC12002010B5FEF7CFFE482204490548FFF795F903490120C870002010BD0000B0
:4038C00054450100B016002010B5FEF7ADFE10BD70B5134C2368002B08D0207B1149C20705D04008400020738868A08070BD88680B4AA18880B29268814203D90A4D691A06
:40390000091802E0814202D2411A5118A160A080A0689842EAD30DF0C7FC00F013F870BDAC120020C0102E40FFFF000010B508461946FFF7A7FF10BD704710B5FFF780FF9B
:4039400010BD000003480021016041608160C16070470000AC120020024610B5FF20002A0CD0FFF7EFFF064C0321207B0843207310010A21FFF708F82060002010BD0000D1
:40398000AC12002000B504480A21806848430209FFF7D8FF104600BDAC1200200248007B8007C00F70470000AC12002010B54B490868002802DA4A4B01221A70022290430B
:4039C0000860484800694549C00B4031096A0246C907C90F0A4259D0012000F097FA3F480E216C30FEF72AFD3E4820218430FEF725FD3C4814219C30FEF720FD3948FF21EA
:403A0000C131A430FEF71AFD3648FF212F31B030FEF714FD33483449BC30FEF70FFD31483249AC30FEF70AFD30492E48491CB430FEF704FD2B482E49B830FEF7FFFC2948BE
:403A40002C49CC30FEF7FAFC26482B490830FEF7F5FC24482949A830FEF7F0FC214828498830FEF7EBFC1F4826498C30FEF7E6FC1C481921C9029030FEF7E0FCFEF7EEFCA3
:403A8000FEF7FEFDC0B2022812D01FE000290BD0002101420AD0114801216030FEF7CEFC0120FEF7B5FD97E70121F2E7FF2010BD15491648FEF7C2FC14481549001DFEF725
:403AC000BDFC124800210830FEF7B8FC54200449C043891C0870002010BD000000F02E40A40D002000002E40320300002F3F00003102000010520000EC160000FA12000000
:403B000031D000003AE300009956000080012E40F80F000070B50646581C80B245086D00002408E0304600F0C1F81055000A1119A41C4870A4B2AC42F4D3D80705D0D018CE
:403B40002038D15CC47FD454C17770BD30B50A4C002100195B1E07E0541864782502545C2C430480891C89B29942F5DB994201D1515C018030BD000000102E4010B5FF2054
:403B800000F0C4F90F49FF2048700E481021801D41800121417001700A490020C91C4870FFF704FF04000AD100F010F907210648FEF734FC044807211830FEF72FFC204642
:403BC00010BD0000A40D0020CC112E4070B5002405465B1E0AE0284600F068F8010A161971702D1D1055A41CADB2A4B29C42F2DB9C4203D1284600F059F8105570BD00004A
:403C000070B500210A4D5B1E0AE0541864782602545C344346193480001D891C80B289B29942F2DB994202D1515C4019018070BD00102E40F0B50599091FCFB200217E1E7A
:403C40000BE0541864782502545C2C43164D45192C80001D891C80B289B2B142F1DBFC0712D01C78515C24020F4A0C4381180C809C785D78001D210280B229438418218053
:403C8000001D80B2D9780CE059781A7809021143054A84182180001DD9789B78090280B2194380180180F0BD00102E40014940180088704700102E4010B50B49002048707C
:403CC00000F084F8002000F047F9002000F034F907210648FEF7A2FB044807211830FEF79DFB002010BD0000A70D0020CC112E4010B50B46062812D006DC01280CD0032836
:403D000001D1FFF7D9FF10BD0A28FCD00B28FAD105480078107010BDFFF730FF10BD1146184600F035F910BDAA0D0020F8B5244DAC6A0127A007234E002816DA307806283D
:403D40000ED1286A384328621F480069F903084381B21D481030FEF771FB042000F0D6F8174802212830FEF759FBE00718D000F01DFF01280FD1002000F06AFF062000F005
:403D8000C5F81049FF20C91E48707078002802D1686B384368630A4801212830FEF73EFBE0050BD53078042802D1052000F0AEF80348FF2101312830FEF730FBF8BD000048
:403DC00040F02E40A70D002000002E4010B503212348FEF733FB0120FEF70AFC20483038406A204C80076178800F890001431C480C38FEF723FB6078002808D0401E02219A
:403E000081401820FEF7AAFEC000083800E0B82081B21548FEF712FB1348032109021438FEF70CFB10481149B830FEF707FB612189010F48FEF702FB0D480321001FFEF75D
:403E4000FDFA0C490C48FEF7F9FA0B480B496038FEF7F4FA084801218838FEF7EFFA10BD70F02E40AA0D0020D8102E4090890000041E2E40FF0F000058122E402090000081
:403E80000849087806280BD148780749002803D1486B400840004863C86A01221043C86270470000A70D002040F02E400148007870470000A70D002000B50300FFF7B2F896
:403EC000080D050D0B070507090D012000BD032000BD042000BD022000BDFF2000BD0000074A9168D26889B2064B92B2994204D105498A4201D1012100E0002101707047D2
:403F000080002E4033D000003FE3000010B50446FEF792FB072C01D9FF2C01D102480470FEF782FB10BD0000A70D00200149487070470000A40D002010B5064A012805D065
:403F40001921C9021046FEF779FA10BD1D21C902F8E7000090002E4010B50A4A141D012808D009491046FEF769FA08492046FEF765FA10BD04491046891CFEF75FFA0349C6
:403F8000491DF3E788002E4031D000003AE3000070B50C460546FEF773FBC0B202280E49287804D0FF2810D04C280CD810E0FF2809D10A4AD0680004800F032801D0087836
:403FC00007E09069000A553803E00878207070BD4F382070087070BDA60D002000002E40F0B50122002834D0002932D00424420600D00524792342065B06D21800D0641C26
:40400000034600221EE00C2516466E43124D00277519AF72104F002ABB51696007D0661EB24209D10D4E86197606760E05E05E06760E8027BE1B00E080269B198919521C8C
:404040002E81D2B2A242DED303480549006B002288611046F0BD00003815002079020000B00D002018B50020694608700A48006900280ED0132149014018047E6846047052
:404080004F21C900054800F059F8A04201D0012018BD002018BD0000B00D0020BC120020074900200C2242435218927A012A05D0401CC0B20628F5D30020704701207047C4
:4040C00038150020F8B50E000446154609D0194F19497868A04202D94018A04201D38D4201D90120F8BD31462046FEF769FD00281ED02A4631462046FEF771FDE8B200216D
:404100000C224A43D21913895568EE18A6420BD90126641B1B1B9672834209DA1469C01A044AC0B220329676491CC9B20629E7D30020F8BD3815002079020000034610B519
:404140000020024604E09C5C2018521CC0B292B28A42F8D310BD000070B500F05FF8084C064A216907480D46FEF739FD05492846FFF736FFFFF776FF207070BD790200004A
:40418000B00D0020BC120020002070470020054A002902D0012902D002E0906000E0D06000207047B00D002070B5084C154608460549E26889182A46FEF711FDE0684019F2
:4041C000E06028B270BD0000BC120020B00D00203EB50A226946FFF7E7FF044606480A2200686946FEF7ECFC002802D00020C0433EBD20463EBD0000B40D0020002802D0F7
:40420000044A914201D2FF20704703494A6108610020704779020000B00D0020024800218160C16070470000B00D002070B5074C15460548A26880182A46FFF743FFA068B2
:404240004019A06028B270BDBC120020B00D002010B503490A220968FFF7E8FF10BD0000B40D002010B50F4A002313600E4A13600E4B18600E4801600E49012008600E499C
:404280000860000290600E490C4808600D4914300860FF381538506000F0BCF800F0CAF9002010BDE40D0020CC0D0020F80D0020FC0D0020E80D0020D80D002080160020EF
:4042C000DC0D0020F00D0020014610B50020002910D0094B1A689C685118A14209D25868196080188A0704D08A07920F891A091D196010BD002010BDCC0D0020F8B5002434
:40430000164E671E321F3D463168136806E01422624310328A58521C1BD0641C9C42F6D36A1C14D02C461422544322460C3288500C214843FFF7C8FF3168002808510AD0B7
:4043400031680020103408517068401C70602846F8BD2546E4E73846F8BD0000DC0D0020F3B50026F64381B000281BDB1E490968884217D80299002914D01B4F14220446D5
:404380003F1D54432546396810354859401C09D0FEF752F938682F1F4159C359994203DBFEF742F93046FEBD214608310091465801590C20704308180C220299FEF70FFCF4
:4043C0000948761C001D0068C159B14200D100260549009A091D865008684159491C4151FEF722F90020FEBDD80D0020002803DB07490968884202D90020C04370470449E9
:404400001422091D096850431030085870470000D80D0020F0B500200D4A451E0346171F50600FE014260146714314680E1DA3510C46166808343351166808343551146807
:40444000401C635039688842ECD30020F0BD0000DC0D0020F3B50026F64381B0002841DB2349096888423DD8029900293AD0204F142204463F1D5443254639681035485953
:40448000401C2FD0FEF7D8F83868415900292BD0211D009146580C21005971430F46C1190C220298FEF79BFB11480021001D0068761C00590C34C0190160416081600C481B
:4044C000001D00680159B14200D100260849009A091D865008684159491E4151FEF7A4F80020FEBD3046FEBDFEF79EF8FAE70000D80D0020FEB504460D4600201E49089E7E
:404500000860471E009001900290002C11D0486885420ED2002A0CD0002E0AD0642E08D808460C3001681C2068430C18207A002801D03846FEBD0120226020721846FFF7C4
:40454000DDFE6060401C13D06681A6810A4827610C3067610179A94200D205710021684601810A462846029B00F040F82846FEBD00202072DDE70000E40D002038B5012432
:40458000009400F039F838BDFEB50027164EFF433D4600240EE01C20316860430818017A002906D04068FFF721FF002801D0254603E0641C3079A042EDDA681C12D01C21B0
:4045C00030684D434419FEF737F869466068FFF741FF0546FEF728F8002DD9D1216868468847D5E7FEBD0000F00D002038B50024009400F001F838BD1FB500220C49541E54
:404600000A60002811DB496888420ED808491C220C31096850430818406801A9FFF7A0FE401C02D0002004B010BD2046FBE70000E40D0020F0B50021114A4D1E1746117132
:404640000C3F0B46BD6016E008461C2460431668041D355114680646235014680836A3551468361DA353044616680A34335318301468491C255078688142E5D30020F0BD31
:40468000F00D002038B500210091002811DB0F49097888420DDA0D4D04010C3529680859002807D0201D0818694600F06FF9002801D0002038BDFDF7BFFF28680F34015DBA
:4046C000491E0155FDF7B0FF009838BD000E0020F7B582B0002502986E1E06602E48D21C024017462D4A2C4610460C380178106805E02301C358002B0FD0641CE4B28C4287
:40470000F7D3711C28D03401211D40180191039900F02AF900281FD101E02646F1E71F48016820460C300F521C480399026820460E30115419480399026820460F3011542A
:404740000398784300F0A0F8144900280968085102D00024009011E001251AE00F48016801980818009900F02CF9002801D0012502E00098C0190090641CE4B203988442D5
:40478000ECD3002D05D10298066004480179491C0171284605B0F0BDFCFF00000C0E0020F8B50D4600216A468C461180002839DB23490978884235DA214B04010C3319682E
:4047C0000A59002A2ED020460C300B5A801C0E5C184670438018954224D3854222D2002006E007465F43BF18AF4206D0401CC0B2B042F6D36046002814D0114E271DC8199D
:404800000C366A46294600F006F900280AD168460088012808D030682946C01900F0D1F8002803D00120F8BD0020F8BDFDF704FF30680F34015D491C0155FDF7F5FEF3E703
:40484000000E0020F8B50F46002400F031F8002817D10C4900220B460C334A600EE021011D680E466A501D680C36AA53B61C1D680F31AA551D68641C6A54E4B2BC42EED3F5
:404880001A71F8BD000E002000280BD0C01C074A81085068890053884118994203D89368516018187047002070470000000E0020F8B5064600200F4D009029700C012146FC
:4048C0006846FEF74DFC00280CD129460C3100980860301B001F84B221466846FEF740FC002801D0FF20F8BD6C800098A8600020F8BD0000000E0020F8B5002827DB1949A0
:404900000978884223DA174C05010C342168485900281CD028460C30085A009028460E300E5C401C0E5420682F1DC01900F064F800280CD12068002445590EE009482946E2
:404940000C300068C01900F03CF8002801D00120F8BD00982D18641CE4B2B442EED30020F8BD0000000E002030B50D4604000BD0A800FFF789FF6060002805D0002025706B
:40498000C0436080002030BD012030BD70B50D46040005D0002D03D00220205E002801DA012070BDFDF748FE0221615E60688900405828606088401E6080FDF735FE0020BD
:4049C00070BD70B50D46040007D0002D05D002212078615E401E814201DB012070BDFDF72BFE6088401C00B26080616880000D50FDF71AFE002070BD10B5040009D0227842
:404A000000216068FEF7F4F80020C0436080002010BD012010BDF0B500231D46002802D00224045F0AE00120F0BD46689F00F6598E4201D1012503E05B1CDBB29C42F4DA71
:404A400015700020F0BD00000148007870470000140E00207CB505460024FEF71BF9A8796946087000A8062229460130FEF7B7F80021684604F0DEFC0C2806D0072806D079
:404A80001F2806D0122806D006E0022404E0042402E0272400E0012420467CBD0148012141727047B817002010B500F05FF9FFF7FDF9FFF701FA10BD70B504460025FEF7DC
:404AC000E9F8002C06D0A079012803D8214602F07BFC00E00125284670BD01460120002902D05020088000207047000001460120002905D003485422007850430880002039
:404B000070470000160E002010B502460D49FE204870032410460CF0CDFE002810D10CF071FE00280CD105F061FA002808D100F013FB002804D104F023FF002800D1002405
:404B4000204610BD140E002070B50025044600280ED0A07901280BD8FEF79CF8A0790028204602D002F0D6FF03E002F0ABFF00E00125284670BD0000014610B501200029C2
:404B800004D006220248FEF72AF8002010BD0000200E002001460120002903D0087802490870002070470000160E00200148007A70470000B817002038B504460120002CAE
:404BC00020D0617801291DD800290BD0FF25E535FEF760F80C4828180088C0B22070072803D00EE0FF25CD35F2E70020694608706846FFF775F969460878012801D1082086
:404C00002070002038BD000000102E40014A002192681047140E002008B500226B461A7026280CD0094A342852680BD0352805D1900703D50021352005F0B4FA08BD1946EB
:404C40002620F9E7D007F9D03420F5E7140E00200149087270470000B8170020F8B504460120002C26D06178012902D92278092A20D8002905D0FF25E5352078092803D0DD
:404C800004E0FF25CD35F8E708202070FEF702F82078114F114E08280DD00020FFF75CF970780128207810D00D4969180880FE2070700020F8BD0120FFF74EF90720B8811C
:404CC0000549203188800120F2E7B8810248217820308180EBE70000C0112E40140E002000102E4070B50E46050001D0002400E00C4C002C11D0E28A500609D5D107C90FCD
:404D0000022002F09BFFE08A40218843E08204E0D107C90F012002F091FF3146284602F079FC70BD18170020F8B50546002004460D4E009013E022466946284600F0D6FF44
:404D40000098002801D00CF097FDA878214602F099FAA878214602F087FA641CE4B2308AA042E8D8F8BD0000E417002038B51E4CFFF79CF8042813D0052811D0062812D0BC
:404D800003282AD007280AD100206946087002460120FEF7ADFFFFF789F80128FBD138BD00F077FB38BD02F0C3FA00F072FB02F03FFB8007800F0228F4D10C484188002938
:404DC000F0D05B21095D0029ECD101210170A07D0140022002F032FF38BD02F0ADFA0120FFF794F838BD0000181700203A0E0020F8B50646002402F08FFF0546304602F0C8
:404E0000A5FF03460A480021068A0DE001228A401046174628401F40002803D0002F01D1224394B2491CC9B28E42EFD82046F8BDE41700201CB50020694648706846FFF7DE
:404E4000BBFE01AA69460A20FEF752FF6946042008561CBD70B50D4601F028FB04000BD02079002808D0FDF715FFE178A0782A4602F056FC002070BD022070BD0148007817
:404E800070470000F01600204030C07E002800D00120704700B500F001F800BD902148430749084A40186030417F491CC9B24177D289914201D300214177C8B27047000012
:404EC000F8160020E417002013B501F0EFFA04000BD001F08CFE002807D0214601AA0A310620FEF705FF00201CBD02201CBD000010B50C4601F0DAFA00280AD001F077FECA
:404F0000002806D0224604490A20FEF7F1FE002010BD022010BD0000D9160020F3B581B0074601460026029802F0EEFE0446002F01D0002500E0154D002D21D0284601F08C
:404F4000EBFA032C04D13946029802F039FF06463846029902F088F9032C06D0002C10D00121384601F0DEFB03E03146384603F025F9284602F06CF80221284602F082F808
:404F8000FEBD3846029902F06FF9FEBD1817002010B5044600F066FA002804D103F0D8FD002801D00C2010BD2078611C02F0BAFCFF2801D01F2010BD02F000FDFF280AD0F2
:404FC0002178621C02F0DEF8044821780068026B601C904710BD072010BD0000600E002010B503F0B5FD002801D00C2010BD02F07BFC03480068C06A8047002010BD000020
:40500000600E002070B50D46044610210CF074FB1021601806460CF06FFB334610221946204603F0C3FD102130460CF065FB02202870204604F0DAFB70BD0000F8B50446F6
:405040004078217802028006870FE0781143A67809050002090D0643084601F027FA00210546F2B2002812D0002C10D0022F0ED0032F0CD0002A0AD00279092A07D0002A30
:4050800005D0134A5A23527E1B5C9A4207D82889002104F0E0FA20460CF0EEFBFF21002914D10C48224600682946436930469847C0B2FF280AD128464030817EF2B2491C38
:4050C0008176FF232146284600F0E3F8F8BD0000B01600207C0E00200020704710B5044603F036FD002801D00C2010BD2078611C02F018FCFF2808D002F050FB0448217878
:405100000068426B601C904710BD1F2010BD0000600E002010B500F06BF904F031FC002010BD10B5044600786178E2780843A17811430843217908436179084305D003F0EA
:40514000F9FC002803D00C2010BD122010BD204602F0E0FC002010BD10B5FDF791FA02F0FDFD044803F060FD02F022FB012000F003F810BDC0160020F1B586B003A8009065
:4051800005A8019028489F22817A114081726846FDF79AFD002845D169460989C90705D0224806990068C2686846904769460989890706D5002835D11D480068816A069894
:4051C000884700282ED11B4E0025757075737571F575357675767575B570F570B5713746F5730120D03738731F20F880FF2130467972A0300176457600F0D0FA00242046A8
:40520000069901F09FFC002803D1641C2406240EF5D0FD720749BD72B573C0310D704D704D600D7207B0F0BDB01600207C0E0020600E0020F816002070B505460E46084677
:4052400002F06AFD0446304602F080FD0121A9400A46224001400A4301D0012070BD002070BD10B50446084602F070FD0121A140014201D0012010BD002010BD10B5FEF787
:4052800015FE032804D102F057F80120FEF73EFE10BDFEB51C4616460F46054601F0D8FEA878FFF7F7FD02460190334639460094284600F00DF8002808D1A8780199FFF720
:4052C00011FDFF2C02D138460CF0D6FAFEBD0000FFB585B005460E980C46FF2810D02B49C00009680A5840180179C0795278814201D9012601E09006860F6846038108E0A4
:405300006078A1788006860FE0780002014368460181284601F076FC070007D021462846079A00F077FC384609B0F0BD304600F025FD04AE0346039002AA294600962046FA
:4053400000F0B1FB3C20405D002818D0284601F059FC012813D0684600890096C0B20190A878231DFF22079902F008F968460089039BC2B2A878079902F048FCD3E768463D
:4053800000890021C0B20091E9E70000780E0020F8B5002600253046FFF72AFD07001DD090201149704340186030447F12E0601CFDF7EAFACCB23846E040C007C00F07D014
:4053C0002146304601F048FF21463046FFF7A6FD6D1CEDB20548018AA942E8D8761C3606360ED7D0F8BD0000F8160020E417002010B502F0DDF90020FFF7BEFE0CF0D2FA99
:40540000002010BDF8B5002400F0B2F80123012800D10124104F00203E4620360425082203E0002801D0002100E031460979002907D001290BD002290BD0114681402143C8
:40544000CCB2401C0006000EEBD07C70F8BD1C43F7E72C43F5E70000F816002010B5FFF7D1FF10BD10B5044604F0DCFB002802D1601C00F001F810BD1CB50024009406221C
:4054800069460194FDF79CFB002800D1122420461CBD10B5FCF711FF0446FEF707FD012809D0FEF703FD022805D0FDF7C5F92046FCF707FFEEE72046FCF703FF10BD10B5DB
:4054C0000B4681791943817103D08078114602F06BFB10BD10B582798A43827102D1807802F076FB10BD000030B50C4C0220A28A0B4B9978002901D0022906D11D785B78FB
:40550000EB18282B01D9032002E0032900D101205105490DC0020143A18230BDC0112E40300E002000B500F029F8002807D0012805D0032801D0042801D0002000BD0120FF
:4055400000BD014600B50020C90701D000F010F800BD014600B50020C90701D000F008F800BD00000148006870470000280E002001480088000A704720102E400448008BCD
:40558000410501D5042070474007800F7047000000102E4010B501F011FF044601F04EFF0146204601F032FF10BD00000148406870470000280E002038B50446000610D5DF
:4055C000FFF7DCFF01280CD1684601F0C5FE6846007800F023FB012001F0A2FD0220FFF73DFF600708D507480179012904D1002101712620FFF710FB0348006801692046D0
:40560000884738BD340E0020600E002070B505460C49007800240870FFF7AAFF012803D1FFF7B8FF022803D3284602F0DFF907E0284600F0EBF8040002D10348012101707F
:40564000204670BD300E0020B817002070B50446FFF78EFF002801D00C2070BDA27B01211F48002A827801D00A4301E05208520082706279012A14D0C17849084900C170B1
:40568000184D2868016820468847207901280CD06188208803F00EF82080207904280FD015E0C2780A43C270EAE72868C168E01D8847E01D02F01AFA0B48808C208006E0FF
:4056C0002868C168E01D8847E01D02F00FFA074920798870204602F097F9002070BD0000F8160020600E0020B0160020300E002008B50178FFF73CFF814201D10C2008BD2A
:40570000002914D0072069460870FFF70BFF012807D10121684600F0D9F8012801D0092008BDFFF7E1FE02F0A3F9012011E0FFF7F9FE012806D1684601F00EFE6846007861
:4057400000F0A0FA02F08AF9FFF712FF0028FBD10220FFF783FE002008BD000070B505460C49007800244870FFF702FF012803D1FFF710FF022803D3284602F0F5F907E06A
:40578000284600F05DF8040002D1034801214170204670BD300E0020B817002038B568460CF000F8002801D01F2038BD01210098C90201804180002505714571857107216F
:4057C0004173857302F020F9009C202200212046FDF70EFA25702A460021601CFDF708FA204602F003F9204602F0BEF900980CF043F8062200210448FDF7FAF902480C38BD
:405800008560002038BD0000340E0020F8B504460025684600950BF0C5FF002801D007250AE0064E009830602278611C401CFDF7D6F93168207808702846F8BD280E00200B
:40584000F8B504460025684600950BF0ABFF002801D007250AE0064E009870602278611C401CFDF7BCF97168207808702846F8BD280E00200346084800B5834209D8184689
:4058800000F014FE002804D00089984201D1012000BD002000BD0000FF0E0000074A9179491C8906890E917138220A4092014907090E11430843024908407047F816002050
:4058C000FF0E0000C006C00E70470000F8B507460E4600240D4803E0002C01D0002500E005462979002905D0641C2406240EF3D00020F8BD0021204601F024F92E712046AB
:40590000FFF7CCFF28813C700120F8BD1817002010B503F07FF90222002100F003F801F0F3FE10BD10B5094B40074907000F090F185A595A40185043C0086421FDF724F8D9
:40594000002800D1012080B210BD00009C450100F7B53D20405C88B015460C46002802D02878042802D200200BB0F0BD6946087200262046FFF788FA012800D001262046CD
:4059800003A938300191009023460327A17E34333246206A03F062F902A8089900900B46019120463A4603A9243003F0DFF802466846007A2870204601F0B0F81046D3E7C3
:4059C000FFB587B00C4605461078694608723D20005D1746002826D000262046FFF754FA012800D00126204603A93830019100902346A17E34333246206A03F02FF902A8F7
:405A00000090291D019120462B1D03A924300A9A03F0ACF802006846007A388002D1204601F07CF810460BB0F0BDF0B505463C20405C89B016460C4600280CD030786946AD
:405A40000873002806D000272046FFF71DFA012803D003E01F2009B0F0BD012703200890204604A93830019100902346E17E34333A46E06903F0F2F86846007B03A9281825
:405A80000290009120462B46019504A92430089A03F0A0F802466846007B3070204601F047F81046D7E7FFB505463C20405C89B016460C46002810D0084601F0A3F8012884
:405AC0000BD0308869468883002809D000272046FFF7DAF9012805D005E000200DB0F0BD0220FBE70127204603A93830019100902346E17E34333A46E06903F0AFF8291DF5
:405B00002B1D07A8129A6D4607C5204603A924300C9A03F05FF802466846808B3080204601F006F81046D9E770B50D460446FFF7ABF901280AD0E87AA97A00020143A0788F
:405B400001F0DEFC012808D0002070BD00222421204602F001FD242070BD28214C200155204600F0B1FB282070BD0000002801D0002000E003484030C07F012800D0002050
:405B800070470000181700200146002049070ED50021084B03E0002901D0002200E01A461279022A04D0491C0906090EF3D0704701207047181700200146002049070ED541
:405BC0000021084B03E0002901D0002200E01A461279022A04D0491C0906090EF3D07047012070471817002010B5044680346068002803D00BF054FE0020606010BD40304B
:405C0000417070474030817070474030017070470171704792001018C166704770B53C2501F096F9040004D020460021433001F01BFCFF222946204600F0E2FB002C02D0EA
:405C4000A07801F007F970BD10B5002801D0002000E00348002802D0008903F043FD10BD1817002010B5002801D0002000E00448002804D00179072901D100F047F810BD95
:405C80001817002010B501F063F9002802D0807801F0E0F810BD00207047000070B50546008A00281ED01049F122897A1140C90618D5294640314A8A098A521C4A4392B212
:405CC000D10800D10121540801E0621A94B2A042FBD9FEF7B9FE012804D1298AA878224601F0D4FC70BD0000B016002010B50023054C0B60248A944204D992001018C26E7B
:405D00000A60C36610BD0000E417002038B5044600200090A079002814D14020015D052901D00E290ED168460BF04CFD002809D12046009902F0EEFB03481021C28A20460C
:405D4000FFF7BDFB38BD0000B016002010B50B4604460146184602F067F8002802D020460BF094FD10BD13B5044601AA11460620FDF7BEFF6846818861811CBD002800D135
:405D80000220704770470000F8B504462346401D543300909A1EA078911E01F0F9FA25464035A88A298A8000FCF7EEFD401E81B2688A884203D96982A07801F079FF698A71
:405DC0008C20015120460021433001F04DFB27480088E88102F01EFFE989891C8AB26179FFF7A0FD01F090FC02F014FF2A8A6179FFF798FD074601F07BFC688A002806D003
:405E00001B49088A032212021043088202E0002001F042FF1648803801886E8A002E0CD0304648431349FCF799FE0004000C01D0401C80B21049488002E00F4800214180EF
:405E4000288A704381B2A07801F09CFEFF2228374932B9B21346204602F030FCE98AA07801F010FEA07801F01FFAF8BD80102E40E0112E40710200003A0E00207FB504468D
:405E80008034616805460E46183108226846FCF7A6FE31462031082202A8FCF7A0FE102168460BF029FC6068102108300BF024FC60682B46083024331022694602F076FE87
:405EC0007FBD10B504460821FFF704FB10212046FFF700FB207905281FD006281DD008281AD12189002003F075FB072020712046FEF7CAFF014620464030012913D00E2164
:405F0000017000210176204600F0B6FF2046FFF76BFE2046FFF7C2FE10BD20890122002103F03CFBE1E70521EAE70000FFB581B01F4604460821FFF7CDFA10212046FFF7C2
:405F4000C9FA2079082803D0092804D0042203E00422012501E009220025204600F03EFE264600204036307022712046FFF73CFE0398002D02D0012808D00BE001280AD150
:405F800020890022029903F009FB04E02189029803F020FB012700203076012F04D0204600F06AFF05B0F0BD02983073204602F0FFFA054605480121C28A2046FFF77FFAD2
:405FC000002DEFD109202071ECE70000B016002070B50C460546FEF757FF012809D108212846FFF777FA0023012221462846FFF79DFF70BD10B5044600F0F0FD2046FFF711
:40600000F3FD00214034217010BD70B505461A24FEF73AFF012809D108212846FFF75AFA0023012221462846FFF780FF70BD0000F8B50446002000900E4668460BF0C2FB9F
:40604000002801D00D20F8BD8420005908212030009D00F026FA20460421383000F021FA002E02D1204600F0F5FD2946204602F0E0F90E480821C28A2046FFF720FA204694
:4060800000F06BFF25464035002808D0204600F023F8002801D0092028700020F8BD08202870204600F0D4FFF7E70000B0160020014610B540310A460978082906D0092972
:4060C00007D00A2901D100F091F810BD0B20107010BD00F001F810BD70B50446007925464035052805D0062803D008280FD00C2070BD03220621204602F02EFA0D480821D3
:40610000C28A2046FFF7DBF91120287010E006202873204602F04CFA0646AA8A0A20424301212046FFF7CBF9002E01D109202071002070BDB016002038B504460020009086
:4061400068460BF03FFB002801D00D2038BD2046009D00F0BDF908202071204600F07AFD2946204602F098F900213D2001550F2040210855204600F06BFF002038BD00B54F
:40618000024600F02BFD10214032117000BD10B50446FEF779FE012809D04020005D112805D100231A4606212046FFF7BFFE10BD10B5FFF786FE10BD38B5044600216846B3
:4061C00000910BF0FFFA00280CD12046009902F0E4F905480821C28A2046FFF770F90D204034207038BD0000B016002038B504460021684600910BF0E5FA002801D00D201D
:4062000038BD2046009902F0BDF905480821C28A2046FFF754F90C2040342070002038BDB016002000787047F8B5002569460D70002801D0002400E01F4C002C18D020461D
:4062400000F0D5FC002813D0207903280BD005280CD026464036B18AA07801F09DFCB078012806D01DE0042020711DE006202071F8BD0021204601F0F4FD2746803738687C
:40628000002802D00BF00CFB3D600020B0702079072802D12046FFF701FD0221204600F0F1FE20790428E3D1207A694608703420FEF7B2FCF8BD00001817002010B54C2240
:4062C000115400F04CF810BD10B50446FF21FFF701F909202071A07801F084FC10BD000038B5FF216A461180002801D0002400E0084C002C0DD011460620FDF7F9FC68464D
:4063000001882046FFF72FFD03480068C1692046884738BD181700207C0E002010B504468079002809D022214C200155FF212046FFF7D0F8204600F012F810BD10B503798C
:4063400002464032002B03D01173092B02D003E0002100E02221117300F001F810BDFEB504460089002700902781207926464036002817D0012815D002280AD112E002AA5A
:4063800001A9204601F03EFD002807D101980BF07DFA204601F05EFD0028F0D02046FEF7C3FCB776254680352868002802D00BF077FA2F606868002802D00BF071FA6F6011
:4063C000317B002919D0009800F064F8A078002100F086FF2046FFF79BFAA07801F07AF8A07800F037FDFF212046FFF773F80B20FFF734F800F068FCFEBD1F213173E2E7B5
:40640000F8B517460E46054602F000FC04003CD020460C3001F018F82046062200211830FCF7E6FB2046062200211230FCF7E0FB1648224600683946436A28469847074694
:4064400026702846FEF720FD012148406070002D10D02889608028464030C1782171002E0FD169796171018AE180418A2181808A608106E00648008BC005C00F207100203B
:4064800060803946204603F028F8F8BD600E002000102E400A4610B50146002003F03AF910BD10B50AF004FF10BD000000B50146FFF708FA002801D0002000E003480028E5
:4064C00002D002898A4200D0002000BD1817002038B5044680346068002806D168460BF081F9002801D100986060606838BD000010B5014600F086FB0128887802D0FEF726
:40650000CDFC10BD90214843024940186030007F10BD0000F816002070B5054604464035A87F012811D1A1789020084A484380186030067F3046FEF77FFE002805D1022020
:40654000A877A078314601F06FF870BDF816002010B50C4CA07A002813D0FEF719FF0A48027F417F408B00F0B7FB012809D10020A07200F007FF05498989090B01D000F00B
:406580003BFA10BDC8170020F8160020A0102E4070477047490510B5490F0B00FCF742FD060704080C0C0F073E21FFF787FE10BD0821FFF7C3FE10BDFFF7D1FE10BDFFF755
:4065C000ADFE10BDF8B507460025002D01D0002600E0204E00F09AFE3046403044890021418100F09DFE304600F001FB01282BD1A00702D52846FFF717FEE00602D5284640
:40660000FFF76EFEA00601D5FEF7C2FE600601D500F014FB200602D5284600F01DF8600702D5284600F02CFA380402D52846FFF719FB780402D52846FFF706FBE00703D05D
:4066400021463046FFF7A6FF6D1C2D062D0EBCD0F8BD000018170020F8B5002801D0002400E0284C002C4BD025464035A878012846D1FF278820493700593E46002805D04E
:406680002149897A890601D5878AC68A2046FEF7FBFB012834D002F0BDFA2A8A6179FFF741F9009001F024F800983346283081B23A46204602F002F8E98AA07801F0E2F960
:4066C00012480188688A124E002810D048431149FCF744FA0004000C01D0401C80B27080A07DC107C90F002001F0A8FA01E000207080288A698A484381B2A07801F042FADF
:40670000F8BD000018170020B016002060112E403A0E00207102000001490968096808477C0E002070B50D460026194A0146002801D0002401E014462034002C26D0204614
:4067400000F060FA01280AD19020484380186030007FFEF771FD002801D101F0A9FE0D48006881692046884700280CD020464030817EA94202D3491B817600E0867620899F
:40678000294602F068FF204600F062FC70BD0000F81600207C0E002070B503460088FFF785FE040013D000F022FA00280FD02079092819D02546997840352973204601F058
:4067C000F7FE0646A878012803D0AA8A02E0022070BDEA880A20424301212046FEF76FFE002E01D109202071002070BD0EB5002217216B460292198100905A810120029BA0
:4068000000990BF0EDF80EBDF8B518480024807A002822D1164E0025B089000B22E0204600F032FE1249A039401807882A462146384600F051FA012810D00E480122478382
:4068400005770A4944778A72002D01D0002000E02030002801D000F0FBFBF8BDB089000B641CE4B20028DAD1F8BD0000C8170020A0102E40F816002010B50088FFF716FE2C
:40688000002809D0014640310C460978082905D00B2903D00C2010BD022010BDFFF71CFC002801D009202070002010BD70B503460088FFF7FBFD040008D02546403528786A
:4068C000082805D00B2803D00C2070BD022070BD8420005910220830991CFCF780F92046FFF7CCFA2878082804D02046FFF77EFC002801D00A202870204600F0A9FB0020EC
:4069000070BD000010B50C46002121700088FFF7CDFD03000BD000F06AF9002807D00948F121807A0840C00603D4112010BD022010BD022020701A8A1889002102F006FFAB
:40694000002010BDB0160020F8B50F46002100910088FFF7ABFD040012D000F048F900280ED0E079410641D4617E02264A07002A08DB8907402500291ADA2843E07135E050
:406980000220F8BD02F042F90021017021894180A1898180217E4170E189C1803E7005460178134802F0ACFB284602F073FE1DE0204600F02DF9012806D068460AF002FF58
:4069C000002803D00720F8BD2A20F8BDE07900992843E071204601F015FE607E0421304360760448C28A2046FEF769FD0020F8BD1D040000B01600203EB500220F236C462F
:406A00000292238100910190628169460EC900200AF0E6FF3EBD0000F8B50F46054600F097FA040025D003202071254600264035EE76E6702046FFF7A7F901F00FF8092041
:406A4000FEF70CFDA07800F033FD0121204600F019FB2E706E70AE703A4600212046FFF7CFFC0649887B401C8873A078FFF754FEF8BD284601F0B6F8F8BD0000F816002044
:406A800010B5002801D0002000E0094800280DD0014640310A464978022901D100215170807DC107C90F002001F0C8F810BD00001817002070B503460D460088FFF7F6FC5F
:406AC00004000BD000F093F8002807D01248F121807A0840C00603D4112070BD022070BD20464030418A008A491C41430804C10C5888884201D2122070BD20822079072812
:406B000002D12046FFF7CAF8022028702089002102F044FE002070BDB0160020016A491C016204D1817E491C4906490E81767047C169491CC16104D1C17E491C4906490EE9
:406B4000C1767047F0B5074687B003A8009005A800260D460190002F01D0002400E01B4C002C05D06846FCF7AFF8002803D00BE0022007B0F0BD68460089C00704D1902267
:406B800000212046FCF734F8114829460068826820469047050016D1A77066762746267140373E70204600F019F8204601F04EF9084820820848BE77807AF121084000D030
:406BC00001202075E682E8B2D3E70000181700207C0E0020B80B0000B0160020002101628176C161C17620300177417770470079002805D0012803D0022801D00120704731
:406C0000002070474030807F002800D00120704740300078002807D0012805D0052803D00E2801D0012070470020704710B5807801F08CF8002800D0012010BD10B500F0D6
:406C4000A1FB03498989090B01D0FFF7D5FE10BDA0102E4070B5054604464035A87F002825D1FF206075A0789021154A484380186030417F9023491CC9B24177A078584380
:406C8000104B8018DB896030994201D300214177A0789021484380186030467F0677A1783046FEF7C9FA002802D00120A87770BD0220A877A078314600F0B6FC70BD00005A
:406CC000F8160020E41700200020401C0006000EFBD0002070470000F0B515468207920F85B0000A02926A469080002D01D0002400E0564C002C28D0084600F0C5FB074649
:406D00006846808800280BD00298012843D0022841D003280BD03D20005D012879D08FE04B48381801882046FFF71DF888E00020029002A80AF026FD002807D03D20005D71
:406D4000012802D12046FFF7E9FE7CE06846029E8388324600213846FCF7DCFE3C48381801882046FEF7FFFF284600F0A9FA01AA21463046FEF7ECFD002806D030460AF0B0
:406D800071FD3D204C21085531E0F5773146204601F0C4F957E0002000902089039068460AF0E0FC002802D0002005B0F0BD6846009E8388321D00213846FCF7ABFE2448C6
:406DC000381801882046FEF7CEFF284600F078FA2046FFF70CFF002805D025464035287E002810D107E030460AF032FD2BE02046FFF76AFA27E001AA21463046029BFEF75D
:406E0000DFFD002806D030460AF022FD3D202873EDE712E00298FEF7B5FF0399317003990001090A0143717068468088B070000AF0703046FFF7DAFC05E02046FFF76EFEA7
:406E4000284600F03DFA0120AFE700001817002000102E4010B5074A917B002901D0491E91730021FFF76EFE002801D0002010BD012010BDF8160020F8B507460646403730
:406E8000B87F00282DD0B078902100904843234945186035287F0099FEF7E3F901281ED0287F401CC4B21E48C089A04200D800240020B877FF276F772F77A8770246014647
:406EC000009800F01DFD717DFF2903D0304600F07EFF777501F0ECFA0025114F19E00320B877F8BD00200090224669463046FEF7FDFE0099002904D0FF231A463046FEF72C
:406F0000C8F9641CF889E4B2A04200D800246D1CEDB2F889A842E5D8F8BD0000F8160020E417002010B502460021084B03E0002901D0002000E018460479944204D0491C85
:406F40000906090EF3D0002010BD00001817002000B50120FFF7E6FF00BD10B5044601F055FE2189018080346168416061682831816002F049FB10BDF7B50646087982B031
:406F80000C46092807D0A078F0770846FFF73AFE012806D010E030460AF078FC022005B0F0BDA1789020294A484380186030007FFEF742F9012810D0A078FEF7D7FD012874
:406FC0000BD037780121304601F01EFA25462035062F38D00B2F0FD107E06846027C21463046FEF7B3FE0D20D9E72046FDF74CFF012801D1002028772046FFF779FA054653
:4070000004AA21463046FEF710FD01205F2108556946097C002001910090A07833463A46294600F0ABFA69460A7CA0780323294600F0ECFDA0782946FDF754FE30460AF042
:4070400025FC0020ABE70120D5E70000F816002010B502464032937F0021002B03D1927E002A00D00121064A927A002A00D000210279092A00D10121807800F0FFFD10BD8C
:40708000C817002070B50C460546FDF7FDFE00280BD1012C06D92879092806D02846FFF7C5FD0446002C02D004E0012402E0A87DC007FAD1A87DC107C90F204600F0BEFD82
:4070C00070BD0000012807D0082804D104480282034808300180704701488038FAE70000A0102E40014908817047000000102E4010B50446FF20F130012C01D1FF20D53059
:40710000002200F0EDFD044A108A044980B2A0430880108210BD000000102E403E0E0020034B198A034A89B2814311801982704700102E403E0E002010B50446012802D024
:40714000082C07D102E0FF20D53001E0FF20F13000F0BEFD0348018A034A89B221431180018210BD00102E403E0E0020034B198A034A89B2014311801982704700102E4086
:407180003E0E0020F8B505460120A84086B214460F46012231467C2000F0A2FD3A463146782000F09DFD6078267800020643E078A2780002024360792379000203430C203A
:4071C00045430D2080010549281844182680001D44182280001D40180380F8BD00102E40CB065B0E0343480901021943D00108430121C902084301490881704780142E4073
:407200004278037812021343084A1382C37880781B021843908248780B78000203431383C8788978000201439183704700142E40024A1080000C90801181704700142E4053
